{
  "contractName": "GovernorAlpha",
  "abi": [
    {
      "inputs": [
        {
          "internalType": "address",
          "name": "timelock_",
          "type": "address"
        },
        {
          "internalType": "address",
          "name": "yam_",
          "type": "address"
        }
      ],
      "payable": false,
      "stateMutability": "nonpayable",
      "type": "constructor"
    },
    {
      "anonymous": false,
      "inputs": [
        {
          "indexed": false,
          "internalType": "uint256",
          "name": "id",
          "type": "uint256"
        }
      ],
      "name": "ProposalCanceled",
      "type": "event"
    },
    {
      "anonymous": false,
      "inputs": [
        {
          "indexed": false,
          "internalType": "uint256",
          "name": "id",
          "type": "uint256"
        },
        {
          "indexed": false,
          "internalType": "address",
          "name": "proposer",
          "type": "address"
        },
        {
          "indexed": false,
          "internalType": "address[]",
          "name": "targets",
          "type": "address[]"
        },
        {
          "indexed": false,
          "internalType": "uint256[]",
          "name": "values",
          "type": "uint256[]"
        },
        {
          "indexed": false,
          "internalType": "string[]",
          "name": "signatures",
          "type": "string[]"
        },
        {
          "indexed": false,
          "internalType": "bytes[]",
          "name": "calldatas",
          "type": "bytes[]"
        },
        {
          "indexed": false,
          "internalType": "uint256",
          "name": "startBlock",
          "type": "uint256"
        },
        {
          "indexed": false,
          "internalType": "uint256",
          "name": "endBlock",
          "type": "uint256"
        },
        {
          "indexed": false,
          "internalType": "string",
          "name": "description",
          "type": "string"
        }
      ],
      "name": "ProposalCreated",
      "type": "event"
    },
    {
      "anonymous": false,
      "inputs": [
        {
          "indexed": false,
          "internalType": "uint256",
          "name": "id",
          "type": "uint256"
        }
      ],
      "name": "ProposalExecuted",
      "type": "event"
    },
    {
      "anonymous": false,
      "inputs": [
        {
          "indexed": false,
          "internalType": "uint256",
          "name": "id",
          "type": "uint256"
        },
        {
          "indexed": false,
          "internalType": "uint256",
          "name": "eta",
          "type": "uint256"
        }
      ],
      "name": "ProposalQueued",
      "type": "event"
    },
    {
      "anonymous": false,
      "inputs": [
        {
          "indexed": false,
          "internalType": "address",
          "name": "voter",
          "type": "address"
        },
        {
          "indexed": false,
          "internalType": "uint256",
          "name": "proposalId",
          "type": "uint256"
        },
        {
          "indexed": false,
          "internalType": "bool",
          "name": "support",
          "type": "bool"
        },
        {
          "indexed": false,
          "internalType": "uint256",
          "name": "votes",
          "type": "uint256"
        }
      ],
      "name": "VoteCast",
      "type": "event"
    },
    {
      "constant": true,
      "inputs": [],
      "name": "BALLOT_TYPEHASH",
      "outputs": [
        {
          "internalType": "bytes32",
          "name": "",
          "type": "bytes32"
        }
      ],
      "payable": false,
      "stateMutability": "view",
      "type": "function"
    },
    {
      "constant": true,
      "inputs": [],
      "name": "DOMAIN_TYPEHASH",
      "outputs": [
        {
          "internalType": "bytes32",
          "name": "",
          "type": "bytes32"
        }
      ],
      "payable": false,
      "stateMutability": "view",
      "type": "function"
    },
    {
      "constant": true,
      "inputs": [],
      "name": "guardian",
      "outputs": [
        {
          "internalType": "address",
          "name": "",
          "type": "address"
        }
      ],
      "payable": false,
      "stateMutability": "view",
      "type": "function"
    },
    {
      "constant": true,
      "inputs": [
        {
          "internalType": "address",
          "name": "",
          "type": "address"
        }
      ],
      "name": "latestProposalIds",
      "outputs": [
        {
          "internalType": "uint256",
          "name": "",
          "type": "uint256"
        }
      ],
      "payable": false,
      "stateMutability": "view",
      "type": "function"
    },
    {
      "constant": true,
      "inputs": [],
      "name": "name",
      "outputs": [
        {
          "internalType": "string",
          "name": "",
          "type": "string"
        }
      ],
      "payable": false,
      "stateMutability": "view",
      "type": "function"
    },
    {
      "constant": true,
      "inputs": [],
      "name": "proposalCount",
      "outputs": [
        {
          "internalType": "uint256",
          "name": "",
          "type": "uint256"
        }
      ],
      "payable": false,
      "stateMutability": "view",
      "type": "function"
    },
    {
      "constant": true,
      "inputs": [
        {
          "internalType": "uint256",
          "name": "",
          "type": "uint256"
        }
      ],
      "name": "proposals",
      "outputs": [
        {
          "internalType": "uint256",
          "name": "id",
          "type": "uint256"
        },
        {
          "internalType": "address",
          "name": "proposer",
          "type": "address"
        },
        {
          "internalType": "uint256",
          "name": "eta",
          "type": "uint256"
        },
        {
          "internalType": "uint256",
          "name": "startBlock",
          "type": "uint256"
        },
        {
          "internalType": "uint256",
          "name": "endBlock",
          "type": "uint256"
        },
        {
          "internalType": "uint256",
          "name": "forVotes",
          "type": "uint256"
        },
        {
          "internalType": "uint256",
          "name": "againstVotes",
          "type": "uint256"
        },
        {
          "internalType": "bool",
          "name": "canceled",
          "type": "bool"
        },
        {
          "internalType": "bool",
          "name": "executed",
          "type": "bool"
        }
      ],
      "payable": false,
      "stateMutability": "view",
      "type": "function"
    },
    {
      "constant": true,
      "inputs": [],
      "name": "timelock",
      "outputs": [
        {
          "internalType": "contract TimelockInterface",
          "name": "",
          "type": "address"
        }
      ],
      "payable": false,
      "stateMutability": "view",
      "type": "function"
    },
    {
      "constant": true,
      "inputs": [],
      "name": "yam",
      "outputs": [
        {
          "internalType": "contract YAMInterface",
          "name": "",
          "type": "address"
        }
      ],
      "payable": false,
      "stateMutability": "view",
      "type": "function"
    },
    {
      "constant": true,
      "inputs": [],
      "name": "quorumVotes",
      "outputs": [
        {
          "internalType": "uint256",
          "name": "",
          "type": "uint256"
        }
      ],
      "payable": false,
      "stateMutability": "view",
      "type": "function"
    },
    {
      "constant": true,
      "inputs": [],
      "name": "proposalThreshold",
      "outputs": [
        {
          "internalType": "uint256",
          "name": "",
          "type": "uint256"
        }
      ],
      "payable": false,
      "stateMutability": "view",
      "type": "function"
    },
    {
      "constant": true,
      "inputs": [],
      "name": "proposalMaxOperations",
      "outputs": [
        {
          "internalType": "uint256",
          "name": "",
          "type": "uint256"
        }
      ],
      "payable": false,
      "stateMutability": "pure",
      "type": "function"
    },
    {
      "constant": true,
      "inputs": [],
      "name": "votingDelay",
      "outputs": [
        {
          "internalType": "uint256",
          "name": "",
          "type": "uint256"
        }
      ],
      "payable": false,
      "stateMutability": "pure",
      "type": "function"
    },
    {
      "constant": true,
      "inputs": [],
      "name": "votingPeriod",
      "outputs": [
        {
          "internalType": "uint256",
          "name": "",
          "type": "uint256"
        }
      ],
      "payable": false,
      "stateMutability": "pure",
      "type": "function"
    },
    {
      "constant": false,
      "inputs": [
        {
          "internalType": "address[]",
          "name": "targets",
          "type": "address[]"
        },
        {
          "internalType": "uint256[]",
          "name": "values",
          "type": "uint256[]"
        },
        {
          "internalType": "string[]",
          "name": "signatures",
          "type": "string[]"
        },
        {
          "internalType": "bytes[]",
          "name": "calldatas",
          "type": "bytes[]"
        },
        {
          "internalType": "string",
          "name": "description",
          "type": "string"
        }
      ],
      "name": "propose",
      "outputs": [
        {
          "internalType": "uint256",
          "name": "",
          "type": "uint256"
        }
      ],
      "payable": false,
      "stateMutability": "nonpayable",
      "type": "function"
    },
    {
      "constant": false,
      "inputs": [
        {
          "internalType": "uint256",
          "name": "proposalId",
          "type": "uint256"
        }
      ],
      "name": "queue",
      "outputs": [],
      "payable": false,
      "stateMutability": "nonpayable",
      "type": "function"
    },
    {
      "constant": false,
      "inputs": [
        {
          "internalType": "uint256",
          "name": "proposalId",
          "type": "uint256"
        }
      ],
      "name": "execute",
      "outputs": [],
      "payable": true,
      "stateMutability": "payable",
      "type": "function"
    },
    {
      "constant": false,
      "inputs": [
        {
          "internalType": "uint256",
          "name": "proposalId",
          "type": "uint256"
        }
      ],
      "name": "cancel",
      "outputs": [],
      "payable": false,
      "stateMutability": "nonpayable",
      "type": "function"
    },
    {
      "constant": true,
      "inputs": [
        {
          "internalType": "uint256",
          "name": "proposalId",
          "type": "uint256"
        }
      ],
      "name": "getActions",
      "outputs": [
        {
          "internalType": "address[]",
          "name": "targets",
          "type": "address[]"
        },
        {
          "internalType": "uint256[]",
          "name": "values",
          "type": "uint256[]"
        },
        {
          "internalType": "string[]",
          "name": "signatures",
          "type": "string[]"
        },
        {
          "internalType": "bytes[]",
          "name": "calldatas",
          "type": "bytes[]"
        }
      ],
      "payable": false,
      "stateMutability": "view",
      "type": "function"
    },
    {
      "constant": true,
      "inputs": [
        {
          "internalType": "uint256",
          "name": "proposalId",
          "type": "uint256"
        },
        {
          "internalType": "address",
          "name": "voter",
          "type": "address"
        }
      ],
      "name": "getReceipt",
      "outputs": [
        {
          "components": [
            {
              "internalType": "bool",
              "name": "hasVoted",
              "type": "bool"
            },
            {
              "internalType": "bool",
              "name": "support",
              "type": "bool"
            },
            {
              "internalType": "uint256",
              "name": "votes",
              "type": "uint256"
            }
          ],
          "internalType": "struct GovernorAlpha.Receipt",
          "name": "",
          "type": "tuple"
        }
      ],
      "payable": false,
      "stateMutability": "view",
      "type": "function"
    },
    {
      "constant": true,
      "inputs": [
        {
          "internalType": "uint256",
          "name": "proposalId",
          "type": "uint256"
        }
      ],
      "name": "state",
      "outputs": [
        {
          "internalType": "enum GovernorAlpha.ProposalState",
          "name": "",
          "type": "uint8"
        }
      ],
      "payable": false,
      "stateMutability": "view",
      "type": "function"
    },
    {
      "constant": false,
      "inputs": [
        {
          "internalType": "uint256",
          "name": "proposalId",
          "type": "uint256"
        },
        {
          "internalType": "bool",
          "name": "support",
          "type": "bool"
        }
      ],
      "name": "castVote",
      "outputs": [],
      "payable": false,
      "stateMutability": "nonpayable",
      "type": "function"
    },
    {
      "constant": false,
      "inputs": [
        {
          "internalType": "uint256",
          "name": "proposalId",
          "type": "uint256"
        },
        {
          "internalType": "bool",
          "name": "support",
          "type": "bool"
        },
        {
          "internalType": "uint8",
          "name": "v",
          "type": "uint8"
        },
        {
          "internalType": "bytes32",
          "name": "r",
          "type": "bytes32"
        },
        {
          "internalType": "bytes32",
          "name": "s",
          "type": "bytes32"
        }
      ],
      "name": "castVoteBySig",
      "outputs": [],
      "payable": false,
      "stateMutability": "nonpayable",
      "type": "function"
    },
    {
      "constant": false,
      "inputs": [],
      "name": "__acceptAdmin",
      "outputs": [],
      "payable": false,
      "stateMutability": "nonpayable",
      "type": "function"
    },
    {
      "constant": false,
      "inputs": [
        {
          "internalType": "address[]",
          "name": "governables",
          "type": "address[]"
        }
      ],
      "name": "_acceptGov",
      "outputs": [],
      "payable": false,
      "stateMutability": "nonpayable",
      "type": "function"
    },
    {
      "constant": false,
      "inputs": [],
      "name": "__abdicate",
      "outputs": [],
      "payable": false,
      "stateMutability": "nonpayable",
      "type": "function"
    },
    {
      "constant": false,
      "inputs": [
        {
          "internalType": "address",
          "name": "newPendingAdmin",
          "type": "address"
        },
        {
          "internalType": "uint256",
          "name": "eta",
          "type": "uint256"
        }
      ],
      "name": "__queueSetTimelockPendingAdmin",
      "outputs": [],
      "payable": false,
      "stateMutability": "nonpayable",
      "type": "function"
    },
    {
      "constant": false,
      "inputs": [
        {
          "internalType": "address",
          "name": "newPendingAdmin",
          "type": "address"
        },
        {
          "internalType": "uint256",
          "name": "eta",
          "type": "uint256"
        }
      ],
      "name": "__executeSetTimelockPendingAdmin",
      "outputs": [],
      "payable": false,
      "stateMutability": "nonpayable",
      "type": "function"
    }
  ],
  "bytecode": "0x60806040523480156200001157600080fd5b506040516200448038038062004480833981016040819052620000349162000089565b600080546001600160a01b039384166001600160a01b0319918216179091556001805492909316918116919091179091556002805490911633179055620000f4565b80516200008381620000da565b92915050565b600080604083850312156200009d57600080fd5b6000620000ab858562000076565b9250506020620000be8582860162000076565b9150509250929050565b60006001600160a01b03821662000083565b620000e581620000c8565b8114620000f157600080fd5b50565b61437c80620001046000396000f3fe6080604052600436106101b75760003560e01c8063452a9320116100ec578063d33219b41161008a578063ddf0b00911610064578063ddf0b0091461049e578063deaaa7cc146104be578063e23a9a52146104d3578063fe0d94c114610500576101b7565b8063d33219b414610454578063da35c66414610469578063da95691a1461047e576101b7565b80637bdbe4d0116100c65780637bdbe4d0146103f5578063915006711461040a578063b58131b01461042a578063b9a619611461043f576101b7565b8063452a93201461039e5780634634c61f146103c0578063760fbc13146103e0576101b7565b806321f43e4211610159578063328dd98211610133578063328dd9821461030c5780633932abb11461033c5780633e4f49e61461035157806340e58ee51461037e576101b7565b806321f43e42146102b757806324bc1a64146102d757806331371b7b146102ec576101b7565b8063071c033211610195578063071c03321461023e57806315373e3d1461026057806317977c611461028257806320606b70146102a2576101b7565b8063013cf08b146101bc57806302a251a3146101fa57806306fdde031461021c575b600080fd5b3480156101c857600080fd5b506101dc6101d7366004612d6d565b610513565b6040516101f1999897969594939291906140fe565b60405180910390f35b34801561020657600080fd5b5061020f610579565b6040516101f19190613e18565b34801561022857600080fd5b50610231610580565b6040516101f19190613ec7565b34801561024a57600080fd5b506102536105b9565b6040516101f19190613eab565b34801561026c57600080fd5b5061028061027b366004612dbb565b6105d5565b005b34801561028e57600080fd5b5061020f61029d366004612b7b565b6105e4565b3480156102ae57600080fd5b5061020f6105f6565b3480156102c357600080fd5b506102806102d2366004612ba1565b61060d565b3480156102e357600080fd5b5061020f610746565b3480156102f857600080fd5b50610280610307366004612bdb565b610801565b34801561031857600080fd5b5061032c610327366004612d6d565b6108dd565b6040516101f19493929190613dcb565b34801561034857600080fd5b5061020f610bb5565b34801561035d57600080fd5b5061037161036c366004612d6d565b610bba565b6040516101f19190613eb9565b34801561038a57600080fd5b50610280610399366004612d6d565b610d7c565b3480156103aa57600080fd5b506103b3611062565b6040516101f19190613c75565b3480156103cc57600080fd5b506102806103db366004612deb565b61107e565b3480156103ec57600080fd5b50610280611260565b34801561040157600080fd5b5061020f6112db565b34801561041657600080fd5b50610280610425366004612ba1565b6112e0565b34801561043657600080fd5b5061020f6113e9565b34801561044b57600080fd5b5061028061148e565b34801561046057600080fd5b50610253611560565b34801561047557600080fd5b5061020f61157c565b34801561048a57600080fd5b5061020f610499366004612c10565b611582565b3480156104aa57600080fd5b506102806104b9366004612d6d565b611a85565b3480156104ca57600080fd5b5061020f611d78565b3480156104df57600080fd5b506104f36104ee366004612d8b565b611d84565b6040516101f19190614048565b61028061050e366004612d6d565b611df5565b6004602052600090815260409020805460018201546002830154600784015460088501546009860154600a870154600b90970154959673ffffffffffffffffffffffffffffffffffffffff90951695939492939192909160ff8082169161010090041689565b6143805b90565b6040518060400160405280601281526020017f59414d20476f7665726e6f7220416c706861000000000000000000000000000081525081565b60015473ffffffffffffffffffffffffffffffffffffffff1681565b6105e0338383612029565b5050565b60056020526000908152604090205481565b60405161060290613c5f565b604051809103902081565b60025473ffffffffffffffffffffffffffffffffffffffff163314610667576040517f08c379a000000000000000000000000000000000000000000000000000000000815260040161065e90613f08565b60405180910390fd5b6000805460405173ffffffffffffffffffffffffffffffffffffffff90911691630825f38f9183919061069e908790602001613c75565b604051602081830303815290604052856040518563ffffffff1660e01b81526004016106cd9493929190613c9e565b600060405180830381600087803b1580156106e757600080fd5b505af11580156106fb573d6000803e3d6000fd5b505050506040513d6000823e601f3d9081017fffffffffffffffffffffffffffffffffffffffffffffffffffffffffffffffe01682016040526107419190810190612d38565b505050565b60006107fc6107f5600160009054906101000a900473ffffffffffffffffffffffffffffffffffffffff1673ffffffffffffffffffffffffffffffffffffffff166397d63f936040518163ffffffff1660e01b815260040160206040518083038186803b1580156107b657600080fd5b505afa1580156107ca573d6000803e3d6000fd5b505050506040513d601f19601f820116820180604052506107ee9190810190612d1a565b6004612267565b60646122c2565b905090565b60025473ffffffffffffffffffffffffffffffffffffffff163314610852576040517f08c379a000000000000000000000000000000000000000000000000000000000815260040161065e90613ff8565b60005b81518110156105e05781818151811061086a57fe5b602002602001015173ffffffffffffffffffffffffffffffffffffffff16634bda2e206040518163ffffffff1660e01b8152600401600060405180830381600087803b1580156108b957600080fd5b505af11580156108cd573d6000803e3d6000fd5b5050600190920191506108559050565b6060806060806000600460008781526020019081526020016000209050806003018160040182600501836006018380548060200260200160405190810160405280929190818152602001828054801561096c57602002820191906000526020600020905b815473ffffffffffffffffffffffffffffffffffffffff168152600190910190602001808311610941575b50505050509350828054806020026020016040519081016040528092919081815260200182805480156109be57602002820191906000526020600020905b8154815260200190600101908083116109aa575b5050505050925081805480602002602001604051908101604052809291908181526020016000905b82821015610aaf5760008481526020908190208301805460408051601f60027fffffffffffffffffffffffffffffffffffffffffffffffffffffffffffffffff610100600187161502019094169390930492830185900485028101850190915281815292830182828015610a9b5780601f10610a7057610100808354040283529160200191610a9b565b820191906000526020600020905b815481529060010190602001808311610a7e57829003601f168201915b5050505050815260200190600101906109e6565b50505050915080805480602002602001604051908101604052809291908181526020016000905b82821015610b9f5760008481526020908190208301805460408051601f60027fffffffffffffffffffffffffffffffffffffffffffffffffffffffffffffffff610100600187161502019094169390930492830185900485028101850190915281815292830182828015610b8b5780601f10610b6057610100808354040283529160200191610b8b565b820191906000526020600020905b815481529060010190602001808311610b6e57829003601f168201915b505050505081526020019060010190610ad6565b5050505090509450945094509450509193509193565b600190565b60008160035410158015610bce5750600082115b610c04576040517f08c379a000000000000000000000000000000000000000000000000000000000815260040161065e90613f18565b6000828152600460205260409020600b81015460ff1615610c29576002915050610d77565b80600701544311610c3e576000915050610d77565b80600801544311610c53576001915050610d77565b80600a01548160090154111580610c745750610c6d610746565b8160090154105b15610c83576003915050610d77565b6002810154610c96576004915050610d77565b600b810154610100900460ff1615610cb2576007915050610d77565b6002810154600054604080517fc1a287e20000000000000000000000000000000000000000000000000000000081529051610d61939273ffffffffffffffffffffffffffffffffffffffff169163c1a287e2916004808301926020929190829003018186803b158015610d2457600080fd5b505afa158015610d38573d6000803e3d6000fd5b505050506040513d601f19601f82011682018060405250610d5c9190810190612d1a565b612304565b4210610d71576006915050610d77565b60059150505b919050565b6000610d8782610bba565b90506007816007811115610d9757fe5b1415610dcf576040517f08c379a000000000000000000000000000000000000000000000000000000000815260040161065e90614008565b600082815260046020526040902060025473ffffffffffffffffffffffffffffffffffffffff16331480610eab5750610e066113e9565b600180548382015473ffffffffffffffffffffffffffffffffffffffff9182169263782d6fe19290911690610e3c904390612343565b6040518363ffffffff1660e01b8152600401610e59929190613ced565b60206040518083038186803b158015610e7157600080fd5b505afa158015610e85573d6000803e3d6000fd5b505050506040513d601f19601f82011682018060405250610ea99190810190612d1a565b105b610ee1576040517f08c379a000000000000000000000000000000000000000000000000000000000815260040161065e90613f98565b600b810180547fffffffffffffffffffffffffffffffffffffffffffffffffffffffffffffff0016600117905560005b60038201548110156110255760005460038301805473ffffffffffffffffffffffffffffffffffffffff9092169163591fcdfe919084908110610f5057fe5b60009182526020909120015460048501805473ffffffffffffffffffffffffffffffffffffffff9092169185908110610f8557fe5b9060005260206000200154856005018581548110610f9f57fe5b90600052602060002001866006018681548110610fb857fe5b9060005260206000200187600201546040518663ffffffff1660e01b8152600401610fe7959493929190613d8a565b600060405180830381600087803b15801561100157600080fd5b505af1158015611015573d6000803e3d6000fd5b505060019092019150610f119050565b507f789cf55be980739dad1d0699b93b58e806b51c9d96619bfa8fe0a28abaa7b30c836040516110559190613e18565b60405180910390a1505050565b60025473ffffffffffffffffffffffffffffffffffffffff1681565b600060405161108c90613c5f565b60408051918290038220828201909152601282527f59414d20476f7665726e6f7220416c70686100000000000000000000000000006020909201919091527f63e44b07eb663d132f3b867c12624d91b2a07d728ab5358df3bb5d0d12341eb96110f3612385565b306040516020016111079493929190613e26565b604051602081830303815290604052805190602001209050600060405161112d90613c6a565b6040519081900381206111469189908990602001613e5b565b60405160208183030381529060405280519060200120905060008282604051602001611173929190613c2e565b6040516020818303038152906040528051906020012090506000600182888888604051600081526020016040526040516111b09493929190613e83565b6020604051602081039080840390855afa1580156111d2573d6000803e3d6000fd5b50506040517fffffffffffffffffffffffffffffffffffffffffffffffffffffffffffffffe0015191505073ffffffffffffffffffffffffffffffffffffffff811661124a576040517f08c379a000000000000000000000000000000000000000000000000000000000815260040161065e90613fd8565b611255818a8a612029565b505050505050505050565b60025473ffffffffffffffffffffffffffffffffffffffff1633146112b1576040517f08c379a000000000000000000000000000000000000000000000000000000000815260040161065e90614038565b600280547fffffffffffffffffffffffff0000000000000000000000000000000000000000169055565b600a90565b60025473ffffffffffffffffffffffffffffffffffffffff163314611331576040517f08c379a000000000000000000000000000000000000000000000000000000000815260040161065e90613f48565b6000805460405173ffffffffffffffffffffffffffffffffffffffff90911691633a66f90191839190611368908790602001613c75565b604051602081830303815290604052856040518563ffffffff1660e01b81526004016113979493929190613c9e565b602060405180830381600087803b1580156113b157600080fd5b505af11580156113c5573d6000803e3d6000fd5b505050506040513d601f19601f820116820180604052506107419190810190612d1a565b60006107fc600160009054906101000a900473ffffffffffffffffffffffffffffffffffffffff1673ffffffffffffffffffffffffffffffffffffffff166397d63f936040518163ffffffff1660e01b815260040160206040518083038186803b15801561145657600080fd5b505afa15801561146a573d6000803e3d6000fd5b505050506040513d601f19601f820116820180604052506107f59190810190612d1a565b60025473ffffffffffffffffffffffffffffffffffffffff1633146114df576040517f08c379a000000000000000000000000000000000000000000000000000000000815260040161065e90613ed8565b60008054604080517f0e18b681000000000000000000000000000000000000000000000000000000008152905173ffffffffffffffffffffffffffffffffffffffff90921692630e18b6819260048084019382900301818387803b15801561154657600080fd5b505af115801561155a573d6000803e3d6000fd5b50505050565b60005473ffffffffffffffffffffffffffffffffffffffff1681565b60035481565b600061158c6113e9565b6001805473ffffffffffffffffffffffffffffffffffffffff169063782d6fe19033906115ba904390612343565b6040518363ffffffff1660e01b81526004016115d7929190613c83565b60206040518083038186803b1580156115ef57600080fd5b505afa158015611603573d6000803e3d6000fd5b505050506040513d601f19601f820116820180604052506116279190810190612d1a565b1161165e576040517f08c379a000000000000000000000000000000000000000000000000000000000815260040161065e90613fc8565b84518651148015611670575083518651145b801561167d575082518651145b6116b3576040517f08c379a000000000000000000000000000000000000000000000000000000000815260040161065e90613f78565b85516116eb576040517f08c379a000000000000000000000000000000000000000000000000000000000815260040161065e90613fb8565b6116f36112db565b8651111561172d576040517f08c379a000000000000000000000000000000000000000000000000000000000815260040161065e90613f58565b3360009081526005602052604090205480156117de57600061174e82610bba565b9050600181600781111561175e57fe5b1415611796576040517f08c379a000000000000000000000000000000000000000000000000000000000815260040161065e90613fe8565b60008160078111156117a457fe5b14156117dc576040517f08c379a000000000000000000000000000000000000000000000000000000000815260040161065e90613f38565b505b60006117ec43610d5c610bb5565b905060006117fc82610d5c610579565b600380546001019055905061180f612586565b604051806101a0016040528060035481526020013373ffffffffffffffffffffffffffffffffffffffff168152602001600081526020018b81526020018a815260200189815260200188815260200184815260200183815260200160008152602001600081526020016000151581526020016000151581525090508060046000836000015181526020019081526020016000206000820151816000015560208201518160010160006101000a81548173ffffffffffffffffffffffffffffffffffffffff021916908373ffffffffffffffffffffffffffffffffffffffff160217905550604082015181600201556060820151816003019080519060200190611919929190612608565b5060808201518051611935916004840191602090910190612692565b5060a082015180516119519160058401916020909101906126d9565b5060c0820151805161196d916006840191602090910190612732565b5060e082015181600701556101008201518160080155610120820151816009015561014082015181600a015561016082015181600b0160006101000a81548160ff02191690831515021790555061018082015181600b0160016101000a81548160ff021916908315150217905550905050806000015160056000836020015173ffffffffffffffffffffffffffffffffffffffff1673ffffffffffffffffffffffffffffffffffffffff168152602001908152602001600020819055507f7d84a6263ae0d98d3329bd7b46bb4e8d6f98cd35a7adb45c274c8b7fd5ebd5e08160000151338c8c8c8c89898e604051611a6d99989796959493929190614056565b60405180910390a15193505050505b95945050505050565b6004611a9082610bba565b6007811115611a9b57fe5b14611ad2576040517f08c379a000000000000000000000000000000000000000000000000000000000815260040161065e90613ee8565b6000818152600460208181526040808420845482517f6a42b8f80000000000000000000000000000000000000000000000000000000081529251919594611b4d94429473ffffffffffffffffffffffffffffffffffffffff90931693636a42b8f8938084019390829003018186803b158015610d2457600080fd5b905060005b6003830154811015611d3e57611d36836003018281548110611b7057fe5b60009182526020909120015460048501805473ffffffffffffffffffffffffffffffffffffffff9092169184908110611ba557fe5b9060005260206000200154856005018481548110611bbf57fe5b600091825260209182902001805460408051601f60027fffffffffffffffffffffffffffffffffffffffffffffffffffffffffffffffff610100600187161502019094169390930492830185900485028101850190915281815292830182828015611c6b5780601f10611c4057610100808354040283529160200191611c6b565b820191906000526020600020905b815481529060010190602001808311611c4e57829003601f168201915b5050505050866006018581548110611c7f57fe5b600091825260209182902001805460408051601f60027fffffffffffffffffffffffffffffffffffffffffffffffffffffffffffffffff610100600187161502019094169390930492830185900485028101850190915281815292830182828015611d2b5780601f10611d0057610100808354040283529160200191611d2b565b820191906000526020600020905b815481529060010190602001808311611d0e57829003601f168201915b505050505086612389565b600101611b52565b50600282018190556040517f9a2e42fd6722813d69113e7d0079d3d940171428df7373df9c7f7617cfda2892906110559085908490614184565b60405161060290613c6a565b611d8c61278b565b50600082815260046020908152604080832073ffffffffffffffffffffffffffffffffffffffff85168452600c018252918290208251606081018452815460ff808216151583526101009091041615159281019290925260010154918101919091525b92915050565b6005611e0082610bba565b6007811115611e0b57fe5b14611e42576040517f08c379a000000000000000000000000000000000000000000000000000000000815260040161065e90613ef8565b6000818152600460205260408120600b810180547fffffffffffffffffffffffffffffffffffffffffffffffffffffffffffff00ff16610100179055905b6003820154811015611fed5760005460048301805473ffffffffffffffffffffffffffffffffffffffff90921691630825f38f919084908110611ebf57fe5b9060005260206000200154846003018481548110611ed957fe5b60009182526020909120015460048601805473ffffffffffffffffffffffffffffffffffffffff9092169186908110611f0e57fe5b9060005260206000200154866005018681548110611f2857fe5b90600052602060002001876006018781548110611f4157fe5b9060005260206000200188600201546040518763ffffffff1660e01b8152600401611f70959493929190613d8a565b6000604051808303818588803b158015611f8957600080fd5b505af1158015611f9d573d6000803e3d6000fd5b50505050506040513d6000823e601f3d9081017fffffffffffffffffffffffffffffffffffffffffffffffffffffffffffffffe0168201604052611fe49190810190612d38565b50600101611e80565b507f712ae1383f79ac853f8d882153778e0260ef8f03b504e2866e0593e04d2b291f8260405161201d9190613e18565b60405180910390a15050565b600161203483610bba565b600781111561203f57fe5b14612076576040517f08c379a000000000000000000000000000000000000000000000000000000000815260040161065e90614018565b600082815260046020908152604080832073ffffffffffffffffffffffffffffffffffffffff87168452600c8101909252909120805460ff16156120e6576040517f08c379a000000000000000000000000000000000000000000000000000000000815260040161065e90613f28565b60015460078301546040517f782d6fe100000000000000000000000000000000000000000000000000000000815260009273ffffffffffffffffffffffffffffffffffffffff169163782d6fe191612142918a91600401613ced565b60206040518083038186803b15801561215a57600080fd5b505afa15801561216e573d6000803e3d6000fd5b505050506040513d601f19601f820116820180604052506121929190810190612d1a565b905083156121b2576121a8836009015482612304565b60098401556121c6565b6121c083600a015482612304565b600a8401555b815460017fffffffffffffffffffffffffffffffffffffffffffffffffffffffffffffff0090911681177fffffffffffffffffffffffffffffffffffffffffffffffffffffffffffff00ff166101008615150217835582018190556040517f877856338e13f63d0c36822ff0ef736b80934cd90574a3a5bc9262c39d217c4690612257908890889088908690613cfb565b60405180910390a1505050505050565b60008261227657506000611def565b8282028284828161228357fe5b04146122bb576040517f08c379a000000000000000000000000000000000000000000000000000000000815260040161065e90613f88565b9392505050565b60006122bb83836040518060400160405280601a81526020017f536166654d6174683a206469766973696f6e206279207a65726f000000000000815250612535565b6000828201838110156122bb576040517f08c379a000000000000000000000000000000000000000000000000000000000815260040161065e90613f68565b60008282111561237f576040517f08c379a000000000000000000000000000000000000000000000000000000000815260040161065e90614028565b50900390565b4690565b60005460405173ffffffffffffffffffffffffffffffffffffffff9091169063f2b06537906123c49088908890889088908890602001613d30565b604051602081830303815290604052805190602001206040518263ffffffff1660e01b81526004016123f69190613e18565b60206040518083038186803b15801561240e57600080fd5b505afa158015612422573d6000803e3d6000fd5b505050506040513d601f19601f820116820180604052506124469190810190612cfc565b1561247d576040517f08c379a000000000000000000000000000000000000000000000000000000000815260040161065e90613fa8565b6000546040517f3a66f90100000000000000000000000000000000000000000000000000000000815273ffffffffffffffffffffffffffffffffffffffff90911690633a66f901906124db9088908890889088908890600401613d30565b602060405180830381600087803b1580156124f557600080fd5b505af1158015612509573d6000803e3d6000fd5b505050506040513d601f19601f8201168201806040525061252d9190810190612d1a565b505050505050565b60008183612570576040517f08c379a000000000000000000000000000000000000000000000000000000000815260040161065e9190613ec7565b50600083858161257c57fe5b0495945050505050565b604051806101a0016040528060008152602001600073ffffffffffffffffffffffffffffffffffffffff1681526020016000815260200160608152602001606081526020016060815260200160608152602001600081526020016000815260200160008152602001600081526020016000151581526020016000151581525090565b828054828255906000526020600020908101928215612682579160200282015b8281111561268257825182547fffffffffffffffffffffffff00000000000000000000000000000000000000001673ffffffffffffffffffffffffffffffffffffffff909116178255602090920191600190910190612628565b5061268e9291506127ab565b5090565b8280548282559060005260206000209081019282156126cd579160200282015b828111156126cd5782518255916020019190600101906126b2565b5061268e9291506127e7565b828054828255906000526020600020908101928215612726579160200282015b828111156127265782518051612716918491602090910190612801565b50916020019190600101906126f9565b5061268e92915061286e565b82805482825590600052602060002090810192821561277f579160200282015b8281111561277f578251805161276f918491602090910190612801565b5091602001919060010190612752565b5061268e929150612891565b604080516060810182526000808252602082018190529181019190915290565b61057d91905b8082111561268e5780547fffffffffffffffffffffffff00000000000000000000000000000000000000001681556001016127b1565b61057d91905b8082111561268e57600081556001016127ed565b828054600181600116156101000203166002900490600052602060002090601f016020900481019282601f1061284257805160ff19168380011785556126cd565b828001600101855582156126cd57918201828111156126cd5782518255916020019190600101906126b2565b61057d91905b8082111561268e57600061288882826128b4565b50600101612874565b61057d91905b8082111561268e5760006128ab82826128b4565b50600101612897565b50805460018160011615610100020316600290046000825580601f106128da57506128f8565b601f0160209004906000526020600020908101906128f891906127e7565b50565b8035611def8161430a565b600082601f83011261291757600080fd5b813561292a612925826141b9565b614192565b9150818183526020840193506020810190508385602084028201111561294f57600080fd5b60005b8381101561297b578161296588826128fb565b8452506020928301929190910190600101612952565b5050505092915050565b600082601f83011261299657600080fd5b81356129a4612925826141b9565b81815260209384019390925082018360005b8381101561297b57813586016129cc8882612adb565b84525060209283019291909101906001016129b6565b600082601f8301126129f357600080fd5b8135612a01612925826141b9565b81815260209384019390925082018360005b8381101561297b5781358601612a298882612adb565b8452506020928301929190910190600101612a13565b600082601f830112612a5057600080fd5b8135612a5e612925826141b9565b91508181835260208401935060208101905083856020840282011115612a8357600080fd5b60005b8381101561297b5781612a998882612ac5565b8452506020928301929190910190600101612a86565b8035611def8161431e565b8051611def8161431e565b8035611def81614327565b8051611def81614327565b600082601f830112612aec57600080fd5b8135612afa612925826141da565b91508082526020830160208301858383011115612b1657600080fd5b612b218382846142a0565b50505092915050565b600082601f830112612b3b57600080fd5b8151612b49612925826141da565b91508082526020830160208301858383011115612b6557600080fd5b612b218382846142ac565b8035611def81614330565b600060208284031215612b8d57600080fd5b6000612b9984846128fb565b949350505050565b60008060408385031215612bb457600080fd5b6000612bc085856128fb565b9250506020612bd185828601612ac5565b9150509250929050565b600060208284031215612bed57600080fd5b813567ffffffffffffffff811115612c0457600080fd5b612b9984828501612906565b600080600080600060a08688031215612c2857600080fd5b853567ffffffffffffffff811115612c3f57600080fd5b612c4b88828901612906565b955050602086013567ffffffffffffffff811115612c6857600080fd5b612c7488828901612a3f565b945050604086013567ffffffffffffffff811115612c9157600080fd5b612c9d888289016129e2565b935050606086013567ffffffffffffffff811115612cba57600080fd5b612cc688828901612985565b925050608086013567ffffffffffffffff811115612ce357600080fd5b612cef88828901612adb565b9150509295509295909350565b600060208284031215612d0e57600080fd5b6000612b998484612aba565b600060208284031215612d2c57600080fd5b6000612b998484612ad0565b600060208284031215612d4a57600080fd5b815167ffffffffffffffff811115612d6157600080fd5b612b9984828501612b2a565b600060208284031215612d7f57600080fd5b6000612b998484612ac5565b60008060408385031215612d9e57600080fd5b6000612daa8585612ac5565b9250506020612bd1858286016128fb565b60008060408385031215612dce57600080fd5b6000612dda8585612ac5565b9250506020612bd185828601612aaf565b600080600080600060a08688031215612e0357600080fd5b6000612e0f8888612ac5565b9550506020612e2088828901612aaf565b9450506040612e3188828901612b70565b9350506060612e4288828901612ac5565b9250506080612cef88828901612ac5565b6000612e5f8383612e8e565b505060200190565b60006122bb8383613030565b6000612e5f8383613016565b612e8881614278565b82525050565b612e888161423f565b6000612ea282614232565b612eac8185614236565b9350612eb783614220565b8060005b83811015612ee5578151612ecf8882612e53565b9750612eda83614220565b925050600101612ebb565b509495945050505050565b6000612efb82614232565b612f058185614236565b935083602082028501612f1785614220565b8060005b85811015612f515784840389528151612f348582612e67565b9450612f3f83614220565b60209a909a0199925050600101612f1b565b5091979650505050505050565b6000612f6982614232565b612f738185614236565b935083602082028501612f8585614220565b8060005b85811015612f515784840389528151612fa28582612e67565b9450612fad83614220565b60209a909a0199925050600101612f89565b6000612fca82614232565b612fd48185614236565b9350612fdf83614220565b8060005b83811015612ee5578151612ff78882612e73565b975061300283614220565b925050600101612fe3565b612e888161424a565b612e888161057d565b612e8861302b8261057d565b61057d565b600061303b82614232565b6130458185614236565b93506130558185602086016142ac565b61305e816142d8565b9093019392505050565b60008154600181166000811461308557600181146130c957613108565b607f60028304166130968187614236565b7fffffffffffffffffffffffffffffffffffffffffffffffffffffffffffffff0084168152955050602085019250613108565b600282046130d78187614236565b95506130e285614226565b60005b82811015613101578154888201526001909101906020016130e5565b8701945050505b505092915050565b612e888161427f565b612e888161428a565b612e8881614295565b6000613138603983614236565b7f476f7665726e6f72416c7068613a3a5f5f61636365707441646d696e3a20736581527f6e646572206d75737420626520676f7620677561726469616e00000000000000602082015260400192915050565b6000613197604483614236565b7f476f7665726e6f72416c7068613a3a71756575653a2070726f706f73616c206381527f616e206f6e6c792062652071756575656420696620697420697320737563636560208201527f6564656400000000000000000000000000000000000000000000000000000000604082015260600192915050565b600061321c604583614236565b7f476f7665726e6f72416c7068613a3a657865637574653a2070726f706f73616c81527f2063616e206f6e6c79206265206578656375746564206966206974206973207160208201527f7565756564000000000000000000000000000000000000000000000000000000604082015260600192915050565b60006132a1600283610d77565b7f1901000000000000000000000000000000000000000000000000000000000000815260020192915050565b60006132da604c83614236565b7f476f7665726e6f72416c7068613a3a5f5f6578656375746553657454696d656c81527f6f636b50656e64696e6741646d696e3a2073656e646572206d7573742062652060208201527f676f7620677561726469616e0000000000000000000000000000000000000000604082015260600192915050565b600061335f601883614236565b7f73657450656e64696e6741646d696e2861646472657373290000000000000000815260200192915050565b6000613398602983614236565b7f476f7665726e6f72416c7068613a3a73746174653a20696e76616c696420707281527f6f706f73616c2069640000000000000000000000000000000000000000000000602082015260400192915050565b60006133f7602d83614236565b7f476f7665726e6f72416c7068613a3a5f63617374566f74653a20766f7465722081527f616c726561647920766f74656400000000000000000000000000000000000000602082015260400192915050565b6000613456605983614236565b7f476f7665726e6f72416c7068613a3a70726f706f73653a206f6e65206c69766581527f2070726f706f73616c207065722070726f706f7365722c20666f756e6420616e60208201527f20616c72656164792070656e64696e672070726f706f73616c00000000000000604082015260600192915050565b60006134db604a83614236565b7f476f7665726e6f72416c7068613a3a5f5f717565756553657454696d656c6f6381527f6b50656e64696e6741646d696e3a2073656e646572206d75737420626520676f60208201527f7620677561726469616e00000000000000000000000000000000000000000000604082015260600192915050565b6000613560602883614236565b7f476f7665726e6f72416c7068613a3a70726f706f73653a20746f6f206d616e7981527f20616374696f6e73000000000000000000000000000000000000000000000000602082015260400192915050565b60006135bf601183614236565b7f6164646974696f6e206f766572666c6f77000000000000000000000000000000815260200192915050565b60006135f8604383610d77565b7f454950373132446f6d61696e28737472696e67206e616d652c75696e7432353681527f20636861696e49642c6164647265737320766572696679696e67436f6e74726160208201527f6374290000000000000000000000000000000000000000000000000000000000604082015260430192915050565b600061367d602783610d77565b7f42616c6c6f742875696e743235362070726f706f73616c49642c626f6f6c207381527f7570706f72742900000000000000000000000000000000000000000000000000602082015260270192915050565b60006136dc604483614236565b7f476f7665726e6f72416c7068613a3a70726f706f73653a2070726f706f73616c81527f2066756e6374696f6e20696e666f726d6174696f6e206172697479206d69736d60208201527f6174636800000000000000000000000000000000000000000000000000000000604082015260600192915050565b6000613761602183614236565b7f536166654d6174683a206d756c7469706c69636174696f6e206f766572666c6f81527f7700000000000000000000000000000000000000000000000000000000000000602082015260400192915050565b60006137c0602f83614236565b7f476f7665726e6f72416c7068613a3a63616e63656c3a2070726f706f7365722081527f61626f7665207468726573686f6c640000000000000000000000000000000000602082015260400192915050565b600061381f604483614236565b7f476f7665726e6f72416c7068613a3a5f71756575654f725265766572743a207081527f726f706f73616c20616374696f6e20616c72656164792071756575656420617460208201527f2065746100000000000000000000000000000000000000000000000000000000604082015260600192915050565b60006138a4602c83614236565b7f476f7665726e6f72416c7068613a3a70726f706f73653a206d7573742070726f81527f7669646520616374696f6e730000000000000000000000000000000000000000602082015260400192915050565b6000613903603f83614236565b7f476f7665726e6f72416c7068613a3a70726f706f73653a2070726f706f73657281527f20766f7465732062656c6f772070726f706f73616c207468726573686f6c6400602082015260400192915050565b6000613962602f83614236565b7f476f7665726e6f72416c7068613a3a63617374566f746542795369673a20696e81527f76616c6964207369676e61747572650000000000000000000000000000000000602082015260400192915050565b60006139c1605883614236565b7f476f7665726e6f72416c7068613a3a70726f706f73653a206f6e65206c69766581527f2070726f706f73616c207065722070726f706f7365722c20666f756e6420616e60208201527f20616c7265616479206163746976652070726f706f73616c0000000000000000604082015260600192915050565b6000613a46603683614236565b7f476f7665726e6f72416c7068613a3a5f616363657074476f763a2073656e646581527f72206d75737420626520676f7620677561726469616e00000000000000000000602082015260400192915050565b6000613aa5603683614236565b7f476f7665726e6f72416c7068613a3a63616e63656c3a2063616e6e6f7420636181527f6e63656c2065786563757465642070726f706f73616c00000000000000000000602082015260400192915050565b6000613b04602a83614236565b7f476f7665726e6f72416c7068613a3a5f63617374566f74653a20766f74696e6781527f20697320636c6f73656400000000000000000000000000000000000000000000602082015260400192915050565b6000613b63601583614236565b7f7375627472616374696f6e20756e646572666c6f770000000000000000000000815260200192915050565b6000613b9c603683614236565b7f476f7665726e6f72416c7068613a3a5f5f61626469636174653a2073656e646581527f72206d75737420626520676f7620677561726469616e00000000000000000000602082015260400192915050565b80516060830190613bff848261300d565b506020820151613c12602085018261300d565b50604082015161155a6040850182613016565b612e8881614272565b6000613c3982613294565b9150613c45828561301f565b602082019150613c55828461301f565b5060200192915050565b6000611def826135eb565b6000611def82613670565b60208101611def8284612e8e565b60408101613c918285612e7f565b6122bb6020830184613016565b60a08101613cac8287612e8e565b613cb96020830186613122565b8181036040830152613cca81613352565b90508181036060830152613cde8185613030565b9050611a7c6080830184613016565b60408101613c918285612e8e565b60808101613d098287612e8e565b613d166020830186613016565b613d23604083018561300d565b611a7c6060830184613016565b60a08101613d3e8288612e8e565b613d4b6020830187613016565b8181036040830152613d5d8186613030565b90508181036060830152613d718185613030565b9050613d806080830184613016565b9695505050505050565b60a08101613d988288612e8e565b613da56020830187613016565b8181036040830152613db78186613068565b90508181036060830152613d718185613068565b60808082528101613ddc8187612e97565b90508181036020830152613df08186612fbf565b90508181036040830152613e048185612f5e565b90508181036060830152613d808184612ef0565b60208101611def8284613016565b60808101613e348287613016565b613e416020830186613016565b613e4e6040830185613016565b611a7c6060830184612e8e565b60608101613e698286613016565b613e766020830185613016565b612b99604083018461300d565b60808101613e918287613016565b613e9e6020830186613c25565b613d236040830185613016565b60208101611def8284613110565b60208101611def8284613119565b602080825281016122bb8184613030565b60208082528101611def8161312b565b60208082528101611def8161318a565b60208082528101611def8161320f565b60208082528101611def816132cd565b60208082528101611def8161338b565b60208082528101611def816133ea565b60208082528101611def81613449565b60208082528101611def816134ce565b60208082528101611def81613553565b60208082528101611def816135b2565b60208082528101611def816136cf565b60208082528101611def81613754565b60208082528101611def816137b3565b60208082528101611def81613812565b60208082528101611def81613897565b60208082528101611def816138f6565b60208082528101611def81613955565b60208082528101611def816139b4565b60208082528101611def81613a39565b60208082528101611def81613a98565b60208082528101611def81613af7565b60208082528101611def81613b56565b60208082528101611def81613b8f565b60608101611def8284613bee565b6101208101614065828c613016565b614072602083018b612e7f565b8181036040830152614084818a612e97565b905081810360608301526140988189612fbf565b905081810360808301526140ac8188612f5e565b905081810360a08301526140c08187612ef0565b90506140cf60c0830186613016565b6140dc60e0830185613016565b8181036101008301526140ef8184613030565b9b9a5050505050505050505050565b610120810161410d828c613016565b61411a602083018b612e8e565b614127604083018a613016565b6141346060830189613016565b6141416080830188613016565b61414e60a0830187613016565b61415b60c0830186613016565b61416860e083018561300d565b61417661010083018461300d565b9a9950505050505050505050565b60408101613c918285613016565b60405181810167ffffffffffffffff811182821017156141b157600080fd5b604052919050565b600067ffffffffffffffff8211156141d057600080fd5b5060209081020190565b600067ffffffffffffffff8211156141f157600080fd5b506020601f919091017fffffffffffffffffffffffffffffffffffffffffffffffffffffffffffffffe0160190565b60200190565b60009081526020902090565b5190565b90815260200190565b6000611def82614259565b151590565b80610d7781614300565b73ffffffffffffffffffffffffffffffffffffffff1690565b60ff1690565b6000611def825b6000611def8261423f565b6000611def8261424f565b6000611def8261057d565b82818337506000910152565b60005b838110156142c75781810151838201526020016142af565b8381111561155a5750506000910152565b601f017fffffffffffffffffffffffffffffffffffffffffffffffffffffffffffffffe01690565b600881106128f857fe5b6143138161423f565b81146128f857600080fd5b6143138161424a565b6143138161057d565b6143138161427256fea365627a7a72315820aba34f2f36ea3335a4a4db12bc48e6bfbd029ffc3ffa07af00c39fb238cf23d76c6578706572696d656e74616cf564736f6c63430005110040",
  "source": "pragma solidity ^0.5.17;\npragma experimental ABIEncoderV2;\n\n// Original work from Compound: https://github.com/yamound-finance/yamound-protocol/blob/master/contracts/Governance/GovernorAlpha.sol\n// Modified to work in the YAM system\n\n// all votes work on underlying _yamBalances[address], not balanceOf(address)\n\n// Original audit: https://blog.openzeppelin.com/compound-alpha-governance-system-audit/\n// Overview:\n//    No Critical\n//    High:\n//      Issue:\n//        Approved proposal may be impossible to queue, cancel or execute\n//        Fixed with `proposalMaxOperations`\n//      Issue:\n//        Queued proposal with repeated actions cannot be executed\n//        Fixed by explicitly disallow proposals with repeated actions to be queued in the Timelock contract.\n//\n// Changes made by YAM after audit:\n//    Formatting, naming, & uint256 instead of uint\n//    Since YAM supply changes, updated quorum & proposal requirements\n//    If any uint96, changed to uint256 to match YAM as opposed to comp\n\n\nimport \"../lib/SafeMath.sol\";\n\ncontract GovernorAlpha {\n    /// @notice The name of this contract\n    string public constant name = \"YAM Governor Alpha\";\n\n    /// @notice The number of votes in support of a proposal required in order for a quorum to be reached and for a vote to succeed\n    function quorumVotes() public view returns (uint256) { return SafeMath.div(SafeMath.mul(yam.initSupply(), 4), 100); } // 4% of YAM\n\n    /// @notice The number of votes required in order for a voter to become a proposer\n    function proposalThreshold() public view returns (uint256) { return SafeMath.div(yam.initSupply(), 100); } // 1% of YAM\n\n    /// @notice The maximum number of actions that can be included in a proposal\n    function proposalMaxOperations() public pure returns (uint256) { return 10; } // 10 actions\n\n    /// @notice The delay before voting on a proposal may take place, once proposed\n    function votingDelay() public pure returns (uint256) { return 1; } // 1 block\n\n    /// @notice The duration of voting on a proposal, in blocks\n    function votingPeriod() public pure returns (uint256) { return 17280; } // ~3 days in blocks (assuming 15s blocks)\n\n    /// @notice The address of the Compound Protocol Timelock\n    TimelockInterface public timelock;\n\n    /// @notice The address of the Compound governance token\n    YAMInterface public yam;\n\n    /// @notice The address of the Governor Guardian\n    address public guardian;\n\n    /// @notice The total number of proposals\n    uint256 public proposalCount;\n\n    struct Proposal {\n        /// @notice Unique id for looking up a proposal\n        uint256 id;\n\n        /// @notice Creator of the proposal\n        address proposer;\n\n        /// @notice The timestamp that the proposal will be available for execution, set once the vote succeeds\n        uint256 eta;\n\n        /// @notice the ordered list of target addresses for calls to be made\n        address[] targets;\n\n        /// @notice The ordered list of values (i.e. msg.value) to be passed to the calls to be made\n        uint[] values;\n\n        /// @notice The ordered list of function signatures to be called\n        string[] signatures;\n\n        /// @notice The ordered list of calldata to be passed to each call\n        bytes[] calldatas;\n\n        /// @notice The block at which voting begins: holders must delegate their votes prior to this block\n        uint256 startBlock;\n\n        /// @notice The block at which voting ends: votes must be cast prior to this block\n        uint256 endBlock;\n\n        /// @notice Current number of votes in favor of this proposal\n        uint256 forVotes;\n\n        /// @notice Current number of votes in opposition to this proposal\n        uint256 againstVotes;\n\n        /// @notice Flag marking whether the proposal has been canceled\n        bool canceled;\n\n        /// @notice Flag marking whether the proposal has been executed\n        bool executed;\n\n        /// @notice Receipts of ballots for the entire set of voters\n        mapping (address => Receipt) receipts;\n    }\n\n    /// @notice Ballot receipt record for a voter\n    struct Receipt {\n        /// @notice Whether or not a vote has been cast\n        bool hasVoted;\n\n        /// @notice Whether or not the voter supports the proposal\n        bool support;\n\n        /// @notice The number of votes the voter had, which were cast\n        uint256 votes;\n    }\n\n    /// @notice Possible states that a proposal may be in\n    enum ProposalState {\n        Pending,\n        Active,\n        Canceled,\n        Defeated,\n        Succeeded,\n        Queued,\n        Expired,\n        Executed\n    }\n\n    /// @notice The official record of all proposals ever proposed\n    mapping (uint256 => Proposal) public proposals;\n\n    /// @notice The latest proposal for each proposer\n    mapping (address => uint256) public latestProposalIds;\n\n    /// @notice The EIP-712 typehash for the contract's domain\n    bytes32 public constant DOMAIN_TYPEHASH = keccak256(\"EIP712Domain(string name,uint256 chainId,address verifyingContract)\");\n\n    /// @notice The EIP-712 typehash for the ballot struct used by the contract\n    bytes32 public constant BALLOT_TYPEHASH = keccak256(\"Ballot(uint256 proposalId,bool support)\");\n\n    /// @notice An event emitted when a new proposal is created\n    event ProposalCreated(uint256 id, address proposer, address[] targets, uint[] values, string[] signatures, bytes[] calldatas, uint256 startBlock, uint256 endBlock, string description);\n\n    /// @notice An event emitted when a vote has been cast on a proposal\n    event VoteCast(address voter, uint256 proposalId, bool support, uint256 votes);\n\n    /// @notice An event emitted when a proposal has been canceled\n    event ProposalCanceled(uint256 id);\n\n    /// @notice An event emitted when a proposal has been queued in the Timelock\n    event ProposalQueued(uint256 id, uint256 eta);\n\n    /// @notice An event emitted when a proposal has been executed in the Timelock\n    event ProposalExecuted(uint256 id);\n\n    constructor(address timelock_, address yam_) public {\n        timelock = TimelockInterface(timelock_);\n        yam = YAMInterface(yam_);\n        guardian = msg.sender;\n    }\n\n    function propose(\n        address[] memory targets,\n        uint[] memory values,\n        string[] memory signatures,\n        bytes[] memory calldatas,\n        string memory description\n    )\n        public\n        returns (uint256)\n    {\n        require(yam.getPriorVotes(msg.sender, sub256(block.number, 1)) > proposalThreshold(), \"GovernorAlpha::propose: proposer votes below proposal threshold\");\n        require(targets.length == values.length && targets.length == signatures.length && targets.length == calldatas.length, \"GovernorAlpha::propose: proposal function information arity mismatch\");\n        require(targets.length != 0, \"GovernorAlpha::propose: must provide actions\");\n        require(targets.length <= proposalMaxOperations(), \"GovernorAlpha::propose: too many actions\");\n\n        uint256 latestProposalId = latestProposalIds[msg.sender];\n        if (latestProposalId != 0) {\n          ProposalState proposersLatestProposalState = state(latestProposalId);\n          require(proposersLatestProposalState != ProposalState.Active, \"GovernorAlpha::propose: one live proposal per proposer, found an already active proposal\");\n          require(proposersLatestProposalState != ProposalState.Pending, \"GovernorAlpha::propose: one live proposal per proposer, found an already pending proposal\");\n        }\n\n        uint256 startBlock = add256(block.number, votingDelay());\n        uint256 endBlock = add256(startBlock, votingPeriod());\n\n        proposalCount++;\n        Proposal memory newProposal = Proposal({\n            id: proposalCount,\n            proposer: msg.sender,\n            eta: 0,\n            targets: targets,\n            values: values,\n            signatures: signatures,\n            calldatas: calldatas,\n            startBlock: startBlock,\n            endBlock: endBlock,\n            forVotes: 0,\n            againstVotes: 0,\n            canceled: false,\n            executed: false\n        });\n\n        proposals[newProposal.id] = newProposal;\n        latestProposalIds[newProposal.proposer] = newProposal.id;\n\n        emit ProposalCreated(\n            newProposal.id,\n            msg.sender,\n            targets,\n            values,\n            signatures,\n            calldatas,\n            startBlock,\n            endBlock,\n            description\n        );\n        return newProposal.id;\n    }\n\n    function queue(uint256 proposalId)\n        public\n    {\n        require(state(proposalId) == ProposalState.Succeeded, \"GovernorAlpha::queue: proposal can only be queued if it is succeeded\");\n        Proposal storage proposal = proposals[proposalId];\n        uint256 eta = add256(block.timestamp, timelock.delay());\n        for (uint256 i = 0; i < proposal.targets.length; i++) {\n            _queueOrRevert(\n                proposal.targets[i],\n                proposal.values[i],\n                proposal.signatures[i],\n                proposal.calldatas[i],\n                eta\n            );\n        }\n        proposal.eta = eta;\n        emit ProposalQueued(proposalId, eta);\n    }\n\n    function _queueOrRevert(\n        address target,\n        uint256 value,\n        string memory signature,\n        bytes memory data,\n        uint256 eta\n    )\n        internal\n    {\n        require(!timelock.queuedTransactions(\n              keccak256(\n                  abi.encode(\n                      target,\n                      value,\n                      signature,\n                      data,\n                      eta\n                  )\n              )\n          ),\n          \"GovernorAlpha::_queueOrRevert: proposal action already queued at eta\"\n        );\n\n        timelock.queueTransaction(target, value, signature, data, eta);\n    }\n\n    function execute(uint256 proposalId)\n        public\n        payable\n    {\n        require(state(proposalId) == ProposalState.Queued, \"GovernorAlpha::execute: proposal can only be executed if it is queued\");\n        Proposal storage proposal = proposals[proposalId];\n        proposal.executed = true;\n        for (uint256 i = 0; i < proposal.targets.length; i++) {\n            timelock.executeTransaction.value(proposal.values[i])(proposal.targets[i], proposal.values[i], proposal.signatures[i], proposal.calldatas[i], proposal.eta);\n        }\n        emit ProposalExecuted(proposalId);\n    }\n\n    function cancel(uint256 proposalId)\n        public\n    {\n        ProposalState state = state(proposalId);\n        require(state != ProposalState.Executed, \"GovernorAlpha::cancel: cannot cancel executed proposal\");\n\n        Proposal storage proposal = proposals[proposalId];\n        require(msg.sender == guardian || yam.getPriorVotes(proposal.proposer, sub256(block.number, 1)) < proposalThreshold(), \"GovernorAlpha::cancel: proposer above threshold\");\n\n        proposal.canceled = true;\n        for (uint256 i = 0; i < proposal.targets.length; i++) {\n            timelock.cancelTransaction(proposal.targets[i], proposal.values[i], proposal.signatures[i], proposal.calldatas[i], proposal.eta);\n        }\n\n        emit ProposalCanceled(proposalId);\n    }\n\n    function getActions(uint256 proposalId)\n        public\n        view\n        returns (\n            address[] memory targets,\n            uint[] memory values,\n            string[] memory signatures,\n            bytes[] memory calldatas\n        )\n    {\n        Proposal storage p = proposals[proposalId];\n        return (p.targets, p.values, p.signatures, p.calldatas);\n    }\n\n    function getReceipt(uint256 proposalId, address voter)\n        public\n        view\n        returns (Receipt memory)\n    {\n        return proposals[proposalId].receipts[voter];\n    }\n\n    function state(uint256 proposalId)\n        public\n        view\n        returns (ProposalState)\n    {\n        require(proposalCount >= proposalId && proposalId > 0, \"GovernorAlpha::state: invalid proposal id\");\n        Proposal storage proposal = proposals[proposalId];\n        if (proposal.canceled) {\n            return ProposalState.Canceled;\n        } else if (block.number <= proposal.startBlock) {\n            return ProposalState.Pending;\n        } else if (block.number <= proposal.endBlock) {\n            return ProposalState.Active;\n        } else if (proposal.forVotes <= proposal.againstVotes || proposal.forVotes < quorumVotes()) {\n            return ProposalState.Defeated;\n        } else if (proposal.eta == 0) {\n            return ProposalState.Succeeded;\n        } else if (proposal.executed) {\n            return ProposalState.Executed;\n        } else if (block.timestamp >= add256(proposal.eta, timelock.GRACE_PERIOD())) {\n            return ProposalState.Expired;\n        } else {\n            return ProposalState.Queued;\n        }\n    }\n\n    function castVote(uint256 proposalId, bool support)\n        public\n    {\n        return _castVote(msg.sender, proposalId, support);\n    }\n\n    function castVoteBySig(\n        uint256 proposalId,\n        bool support,\n        uint8 v,\n        bytes32 r,\n        bytes32 s\n    )\n        public\n    {\n        bytes32 domainSeparator = keccak256(\n            abi.encode(\n                DOMAIN_TYPEHASH,\n                keccak256(bytes(name)),\n                getChainId(),\n                address(this)\n            )\n        );\n\n        bytes32 structHash = keccak256(\n            abi.encode(\n                BALLOT_TYPEHASH,\n                proposalId,\n                support\n            )\n        );\n\n        bytes32 digest = keccak256(\n            abi.encodePacked(\n                \"\\x19\\x01\",\n                domainSeparator,\n                structHash\n            )\n        );\n\n        address signatory = ecrecover(digest, v, r, s);\n        require(signatory != address(0), \"GovernorAlpha::castVoteBySig: invalid signature\");\n        return _castVote(signatory, proposalId, support);\n    }\n\n    function _castVote(\n        address voter,\n        uint256 proposalId,\n        bool support\n    )\n        internal\n    {\n        require(state(proposalId) == ProposalState.Active, \"GovernorAlpha::_castVote: voting is closed\");\n        Proposal storage proposal = proposals[proposalId];\n        Receipt storage receipt = proposal.receipts[voter];\n        require(receipt.hasVoted == false, \"GovernorAlpha::_castVote: voter already voted\");\n        uint256 votes = yam.getPriorVotes(voter, proposal.startBlock);\n\n        if (support) {\n            proposal.forVotes = add256(proposal.forVotes, votes);\n        } else {\n            proposal.againstVotes = add256(proposal.againstVotes, votes);\n        }\n\n        receipt.hasVoted = true;\n        receipt.support = support;\n        receipt.votes = votes;\n\n        emit VoteCast(voter, proposalId, support, votes);\n    }\n\n    function __acceptAdmin()\n        public\n    {\n        require(msg.sender == guardian, \"GovernorAlpha::__acceptAdmin: sender must be gov guardian\");\n        timelock.acceptAdmin();\n    }\n\n    function _acceptGov(address[] memory governables)\n        public\n    {\n        require(msg.sender == guardian, \"GovernorAlpha::_acceptGov: sender must be gov guardian\");\n        for (uint256 i = 0; i < governables.length; i++) {\n            YAMInterface(governables[i])._acceptGov();\n        }\n    }\n\n    function __abdicate()\n        public\n    {\n        require(msg.sender == guardian, \"GovernorAlpha::__abdicate: sender must be gov guardian\");\n        guardian = address(0);\n    }\n\n    function __queueSetTimelockPendingAdmin(\n        address newPendingAdmin,\n        uint256 eta\n    )\n        public\n    {\n        require(msg.sender == guardian, \"GovernorAlpha::__queueSetTimelockPendingAdmin: sender must be gov guardian\");\n        timelock.queueTransaction(address(timelock), 0, \"setPendingAdmin(address)\", abi.encode(newPendingAdmin), eta);\n    }\n\n    function __executeSetTimelockPendingAdmin(\n        address newPendingAdmin,\n        uint256 eta\n    )\n        public\n    {\n        require(msg.sender == guardian, \"GovernorAlpha::__executeSetTimelockPendingAdmin: sender must be gov guardian\");\n        timelock.executeTransaction(address(timelock), 0, \"setPendingAdmin(address)\", abi.encode(newPendingAdmin), eta);\n    }\n\n    function add256(uint256 a, uint256 b) internal pure returns (uint256) {\n        uint256 c = a + b;\n        require(c >= a, \"addition overflow\");\n        return c;\n    }\n\n    function sub256(uint256 a, uint256 b) internal pure returns (uint256) {\n        require(b <= a, \"subtraction underflow\");\n        return a - b;\n    }\n\n    function getChainId() internal pure returns (uint256) {\n        uint256 chainId;\n        assembly { chainId := chainid() }\n        return chainId;\n    }\n}\n\ninterface TimelockInterface {\n    function delay() external view returns (uint256);\n    function GRACE_PERIOD() external view returns (uint256);\n    function acceptAdmin() external;\n    function queuedTransactions(bytes32 hash) external view returns (bool);\n    function queueTransaction(address target, uint256 value, string calldata signature, bytes calldata data, uint256 eta) external returns (bytes32);\n    function cancelTransaction(address target, uint256 value, string calldata signature, bytes calldata data, uint256 eta) external;\n    function executeTransaction(address target, uint256 value, string calldata signature, bytes calldata data, uint256 eta) external payable returns (bytes memory);\n}\n\ninterface YAMInterface {\n    function getPriorVotes(address account, uint256 blockNumber) external view returns (uint256);\n    function initSupply() external view returns (uint256);\n    function _acceptGov() external;\n}\n",
  "sourcePath": "/Users/brockelmore/YAM/contracts/governance/YAMGovernorAlpha.sol",
  "compiler": {
    "name": "solc",
    "version": "0.5.17+commit.d19bba13.Linux.g++"
  },
  "schemaVersion": "3.0.16",
  "updatedAt": "2020-08-07T01:22:11.286Z",
  "devdoc": {
    "methods": {}
  },
  "userdoc": {
    "methods": {
      "proposalMaxOperations()": {
        "notice": "The maximum number of actions that can be included in a proposal"
      },
      "proposalThreshold()": {
        "notice": "The number of votes required in order for a voter to become a proposer"
      },
      "quorumVotes()": {
        "notice": "The number of votes in support of a proposal required in order for a quorum to be reached and for a vote to succeed"
      },
      "votingDelay()": {
        "notice": "The delay before voting on a proposal may take place, once proposed"
      },
      "votingPeriod()": {
        "notice": "The duration of voting on a proposal, in blocks"
      }
    }
  }
}