{
  "contractName": "GovernorAlpha",
  "abi": [
    {
      "inputs": [
        {
          "internalType": "address",
          "name": "timelock_",
          "type": "address"
        },
        {
          "internalType": "address",
          "name": "yam_",
          "type": "address"
        },
        {
          "internalType": "address",
          "name": "guardian_",
          "type": "address"
        }
      ],
      "payable": false,
      "stateMutability": "nonpayable",
      "type": "constructor"
    },
    {
      "anonymous": false,
      "inputs": [
        {
          "indexed": false,
          "internalType": "uint256",
          "name": "id",
          "type": "uint256"
        }
      ],
      "name": "ProposalCanceled",
      "type": "event"
    },
    {
      "anonymous": false,
      "inputs": [
        {
          "indexed": false,
          "internalType": "uint256",
          "name": "id",
          "type": "uint256"
        },
        {
          "indexed": false,
          "internalType": "address",
          "name": "proposer",
          "type": "address"
        },
        {
          "indexed": false,
          "internalType": "address[]",
          "name": "targets",
          "type": "address[]"
        },
        {
          "indexed": false,
          "internalType": "uint256[]",
          "name": "values",
          "type": "uint256[]"
        },
        {
          "indexed": false,
          "internalType": "string[]",
          "name": "signatures",
          "type": "string[]"
        },
        {
          "indexed": false,
          "internalType": "bytes[]",
          "name": "calldatas",
          "type": "bytes[]"
        },
        {
          "indexed": false,
          "internalType": "uint256",
          "name": "startBlock",
          "type": "uint256"
        },
        {
          "indexed": false,
          "internalType": "uint256",
          "name": "endBlock",
          "type": "uint256"
        },
        {
          "indexed": false,
          "internalType": "string",
          "name": "description",
          "type": "string"
        }
      ],
      "name": "ProposalCreated",
      "type": "event"
    },
    {
      "anonymous": false,
      "inputs": [
        {
          "indexed": false,
          "internalType": "uint256",
          "name": "id",
          "type": "uint256"
        }
      ],
      "name": "ProposalExecuted",
      "type": "event"
    },
    {
      "anonymous": false,
      "inputs": [
        {
          "indexed": false,
          "internalType": "uint256",
          "name": "id",
          "type": "uint256"
        },
        {
          "indexed": false,
          "internalType": "uint256",
          "name": "eta",
          "type": "uint256"
        }
      ],
      "name": "ProposalQueued",
      "type": "event"
    },
    {
      "anonymous": false,
      "inputs": [
        {
          "indexed": false,
          "internalType": "address",
          "name": "voter",
          "type": "address"
        },
        {
          "indexed": false,
          "internalType": "uint256",
          "name": "proposalId",
          "type": "uint256"
        },
        {
          "indexed": false,
          "internalType": "bool",
          "name": "support",
          "type": "bool"
        },
        {
          "indexed": false,
          "internalType": "uint256",
          "name": "votes",
          "type": "uint256"
        }
      ],
      "name": "VoteCast",
      "type": "event"
    },
    {
      "constant": true,
      "inputs": [],
      "name": "BALLOT_TYPEHASH",
      "outputs": [
        {
          "internalType": "bytes32",
          "name": "",
          "type": "bytes32"
        }
      ],
      "payable": false,
      "stateMutability": "view",
      "type": "function"
    },
    {
      "constant": true,
      "inputs": [],
      "name": "DOMAIN_TYPEHASH",
      "outputs": [
        {
          "internalType": "bytes32",
          "name": "",
          "type": "bytes32"
        }
      ],
      "payable": false,
      "stateMutability": "view",
      "type": "function"
    },
    {
      "constant": true,
      "inputs": [],
      "name": "guardian",
      "outputs": [
        {
          "internalType": "address",
          "name": "",
          "type": "address"
        }
      ],
      "payable": false,
      "stateMutability": "view",
      "type": "function"
    },
    {
      "constant": true,
      "inputs": [
        {
          "internalType": "address",
          "name": "",
          "type": "address"
        }
      ],
      "name": "latestProposalIds",
      "outputs": [
        {
          "internalType": "uint256",
          "name": "",
          "type": "uint256"
        }
      ],
      "payable": false,
      "stateMutability": "view",
      "type": "function"
    },
    {
      "constant": true,
      "inputs": [],
      "name": "name",
      "outputs": [
        {
          "internalType": "string",
          "name": "",
          "type": "string"
        }
      ],
      "payable": false,
      "stateMutability": "view",
      "type": "function"
    },
    {
      "constant": true,
      "inputs": [],
      "name": "proposalCount",
      "outputs": [
        {
          "internalType": "uint256",
          "name": "",
          "type": "uint256"
        }
      ],
      "payable": false,
      "stateMutability": "view",
      "type": "function"
    },
    {
      "constant": true,
      "inputs": [
        {
          "internalType": "uint256",
          "name": "",
          "type": "uint256"
        }
      ],
      "name": "proposals",
      "outputs": [
        {
          "internalType": "uint256",
          "name": "id",
          "type": "uint256"
        },
        {
          "internalType": "address",
          "name": "proposer",
          "type": "address"
        },
        {
          "internalType": "uint256",
          "name": "eta",
          "type": "uint256"
        },
        {
          "internalType": "uint256",
          "name": "startBlock",
          "type": "uint256"
        },
        {
          "internalType": "uint256",
          "name": "endBlock",
          "type": "uint256"
        },
        {
          "internalType": "uint256",
          "name": "forVotes",
          "type": "uint256"
        },
        {
          "internalType": "uint256",
          "name": "againstVotes",
          "type": "uint256"
        },
        {
          "internalType": "bool",
          "name": "canceled",
          "type": "bool"
        },
        {
          "internalType": "bool",
          "name": "executed",
          "type": "bool"
        }
      ],
      "payable": false,
      "stateMutability": "view",
      "type": "function"
    },
    {
      "constant": true,
      "inputs": [],
      "name": "timelock",
      "outputs": [
        {
          "internalType": "contract TimelockInterface",
          "name": "",
          "type": "address"
        }
      ],
      "payable": false,
      "stateMutability": "view",
      "type": "function"
    },
    {
      "constant": true,
      "inputs": [],
      "name": "yam",
      "outputs": [
        {
          "internalType": "contract YAMInterface",
          "name": "",
          "type": "address"
        }
      ],
      "payable": false,
      "stateMutability": "view",
      "type": "function"
    },
    {
      "constant": true,
      "inputs": [],
      "name": "quorumVotes",
      "outputs": [
        {
          "internalType": "uint256",
          "name": "",
          "type": "uint256"
        }
      ],
      "payable": false,
      "stateMutability": "view",
      "type": "function"
    },
    {
      "constant": true,
      "inputs": [],
      "name": "proposalThreshold",
      "outputs": [
        {
          "internalType": "uint256",
          "name": "",
          "type": "uint256"
        }
      ],
      "payable": false,
      "stateMutability": "view",
      "type": "function"
    },
    {
      "constant": true,
      "inputs": [],
      "name": "proposalMaxOperations",
      "outputs": [
        {
          "internalType": "uint256",
          "name": "",
          "type": "uint256"
        }
      ],
      "payable": false,
      "stateMutability": "pure",
      "type": "function"
    },
    {
      "constant": true,
      "inputs": [],
      "name": "votingDelay",
      "outputs": [
        {
          "internalType": "uint256",
          "name": "",
          "type": "uint256"
        }
      ],
      "payable": false,
      "stateMutability": "pure",
      "type": "function"
    },
    {
      "constant": true,
      "inputs": [],
      "name": "votingPeriod",
      "outputs": [
        {
          "internalType": "uint256",
          "name": "",
          "type": "uint256"
        }
      ],
      "payable": false,
      "stateMutability": "pure",
      "type": "function"
    },
    {
      "constant": false,
      "inputs": [
        {
          "internalType": "address[]",
          "name": "targets",
          "type": "address[]"
        },
        {
          "internalType": "uint256[]",
          "name": "values",
          "type": "uint256[]"
        },
        {
          "internalType": "string[]",
          "name": "signatures",
          "type": "string[]"
        },
        {
          "internalType": "bytes[]",
          "name": "calldatas",
          "type": "bytes[]"
        },
        {
          "internalType": "string",
          "name": "description",
          "type": "string"
        }
      ],
      "name": "propose",
      "outputs": [
        {
          "internalType": "uint256",
          "name": "",
          "type": "uint256"
        }
      ],
      "payable": false,
      "stateMutability": "nonpayable",
      "type": "function"
    },
    {
      "constant": false,
      "inputs": [
        {
          "internalType": "uint256",
          "name": "proposalId",
          "type": "uint256"
        }
      ],
      "name": "queue",
      "outputs": [],
      "payable": false,
      "stateMutability": "nonpayable",
      "type": "function"
    },
    {
      "constant": false,
      "inputs": [
        {
          "internalType": "uint256",
          "name": "proposalId",
          "type": "uint256"
        }
      ],
      "name": "execute",
      "outputs": [],
      "payable": true,
      "stateMutability": "payable",
      "type": "function"
    },
    {
      "constant": false,
      "inputs": [
        {
          "internalType": "uint256",
          "name": "proposalId",
          "type": "uint256"
        }
      ],
      "name": "cancel",
      "outputs": [],
      "payable": false,
      "stateMutability": "nonpayable",
      "type": "function"
    },
    {
      "constant": true,
      "inputs": [
        {
          "internalType": "uint256",
          "name": "proposalId",
          "type": "uint256"
        }
      ],
      "name": "getActions",
      "outputs": [
        {
          "internalType": "address[]",
          "name": "targets",
          "type": "address[]"
        },
        {
          "internalType": "uint256[]",
          "name": "values",
          "type": "uint256[]"
        },
        {
          "internalType": "string[]",
          "name": "signatures",
          "type": "string[]"
        },
        {
          "internalType": "bytes[]",
          "name": "calldatas",
          "type": "bytes[]"
        }
      ],
      "payable": false,
      "stateMutability": "view",
      "type": "function"
    },
    {
      "constant": true,
      "inputs": [
        {
          "internalType": "uint256",
          "name": "proposalId",
          "type": "uint256"
        },
        {
          "internalType": "address",
          "name": "voter",
          "type": "address"
        }
      ],
      "name": "getReceipt",
      "outputs": [
        {
          "components": [
            {
              "internalType": "bool",
              "name": "hasVoted",
              "type": "bool"
            },
            {
              "internalType": "bool",
              "name": "support",
              "type": "bool"
            },
            {
              "internalType": "uint256",
              "name": "votes",
              "type": "uint256"
            }
          ],
          "internalType": "struct GovernorAlpha.Receipt",
          "name": "",
          "type": "tuple"
        }
      ],
      "payable": false,
      "stateMutability": "view",
      "type": "function"
    },
    {
      "constant": true,
      "inputs": [
        {
          "internalType": "uint256",
          "name": "proposalId",
          "type": "uint256"
        }
      ],
      "name": "state",
      "outputs": [
        {
          "internalType": "enum GovernorAlpha.ProposalState",
          "name": "",
          "type": "uint8"
        }
      ],
      "payable": false,
      "stateMutability": "view",
      "type": "function"
    },
    {
      "constant": false,
      "inputs": [
        {
          "internalType": "uint256",
          "name": "proposalId",
          "type": "uint256"
        },
        {
          "internalType": "bool",
          "name": "support",
          "type": "bool"
        }
      ],
      "name": "castVote",
      "outputs": [],
      "payable": false,
      "stateMutability": "nonpayable",
      "type": "function"
    },
    {
      "constant": false,
      "inputs": [
        {
          "internalType": "uint256",
          "name": "proposalId",
          "type": "uint256"
        },
        {
          "internalType": "bool",
          "name": "support",
          "type": "bool"
        },
        {
          "internalType": "uint8",
          "name": "v",
          "type": "uint8"
        },
        {
          "internalType": "bytes32",
          "name": "r",
          "type": "bytes32"
        },
        {
          "internalType": "bytes32",
          "name": "s",
          "type": "bytes32"
        }
      ],
      "name": "castVoteBySig",
      "outputs": [],
      "payable": false,
      "stateMutability": "nonpayable",
      "type": "function"
    },
    {
      "constant": false,
      "inputs": [],
      "name": "__acceptAdmin",
      "outputs": [],
      "payable": false,
      "stateMutability": "nonpayable",
      "type": "function"
    },
    {
      "constant": false,
      "inputs": [],
      "name": "__abdicate",
      "outputs": [],
      "payable": false,
      "stateMutability": "nonpayable",
      "type": "function"
    },
    {
      "constant": false,
      "inputs": [
        {
          "internalType": "address",
          "name": "newPendingAdmin",
          "type": "address"
        },
        {
          "internalType": "uint256",
          "name": "eta",
          "type": "uint256"
        }
      ],
      "name": "__queueSetTimelockPendingAdmin",
      "outputs": [],
      "payable": false,
      "stateMutability": "nonpayable",
      "type": "function"
    },
    {
      "constant": false,
      "inputs": [
        {
          "internalType": "address",
          "name": "newPendingAdmin",
          "type": "address"
        },
        {
          "internalType": "uint256",
          "name": "eta",
          "type": "uint256"
        }
      ],
      "name": "__executeSetTimelockPendingAdmin",
      "outputs": [],
      "payable": false,
      "stateMutability": "nonpayable",
      "type": "function"
    }
  ],
  "bytecode": "0x60806040523480156200001157600080fd5b50604051620042eb380380620042eb83398101604081905262000034916200008a565b600080546001600160a01b039485166001600160a01b0319918216179091556001805493851693821693909317909255600280549190931691161790556200010a565b80516200008481620000f0565b92915050565b600080600060608486031215620000a057600080fd5b6000620000ae868662000077565b9350506020620000c18682870162000077565b9250506040620000d48682870162000077565b9150509250925092565b60006001600160a01b03821662000084565b620000fb81620000de565b81146200010757600080fd5b50565b6141d1806200011a6000396000f3fe6080604052600436106101ac5760003560e01c8063452a9320116100ec578063d33219b41161008a578063ddf0b00911610064578063ddf0b00914610473578063deaaa7cc14610493578063e23a9a52146104a8578063fe0d94c1146104d5576101ac565b8063d33219b414610429578063da35c6641461043e578063da95691a14610453576101ac565b80637bdbe4d0116100c65780637bdbe4d0146103ca57806391500671146103df578063b58131b0146103ff578063b9a6196114610414576101ac565b8063452a9320146103735780634634c61f14610395578063760fbc13146103b5576101ac565b806320606b7011610159578063328dd98211610133578063328dd982146102e15780633932abb1146103115780633e4f49e61461032657806340e58ee514610353576101ac565b806320606b701461029757806321f43e42146102ac57806324bc1a64146102cc576101ac565b8063071c03321161018a578063071c03321461023357806315373e3d1461025557806317977c6114610277576101ac565b8063013cf08b146101b157806302a251a3146101ef57806306fdde0314610211575b600080fd5b3480156101bd57600080fd5b506101d16101cc366004612c31565b6104e8565b6040516101e699989796959493929190613f53565b60405180910390f35b3480156101fb57600080fd5b5061020461054e565b6040516101e69190613c7d565b34801561021d57600080fd5b50610226610555565b6040516101e69190613d2c565b34801561023f57600080fd5b5061024861058e565b6040516101e69190613d10565b34801561026157600080fd5b50610275610270366004612c7f565b6105aa565b005b34801561028357600080fd5b50610204610292366004612a74565b6105b9565b3480156102a357600080fd5b506102046105cb565b3480156102b857600080fd5b506102756102c7366004612a9a565b6105e2565b3480156102d857600080fd5b5061020461071b565b3480156102ed57600080fd5b506103016102fc366004612c31565b6107d6565b6040516101e69493929190613c30565b34801561031d57600080fd5b50610204610aae565b34801561033257600080fd5b50610346610341366004612c31565b610ab3565b6040516101e69190613d1e565b34801561035f57600080fd5b5061027561036e366004612c31565b610c75565b34801561037f57600080fd5b50610388610f5b565b6040516101e69190613ada565b3480156103a157600080fd5b506102756103b0366004612caf565b610f77565b3480156103c157600080fd5b50610275611159565b3480156103d657600080fd5b506102046111d4565b3480156103eb57600080fd5b506102756103fa366004612a9a565b6111d9565b34801561040b57600080fd5b506102046112e2565b34801561042057600080fd5b50610275611387565b34801561043557600080fd5b50610248611459565b34801561044a57600080fd5b50610204611475565b34801561045f57600080fd5b5061020461046e366004612ad4565b61147b565b34801561047f57600080fd5b5061027561048e366004612c31565b61197e565b34801561049f57600080fd5b50610204611c71565b3480156104b457600080fd5b506104c86104c3366004612c4f565b611c7d565b6040516101e69190613e9d565b6102756104e3366004612c31565b611cee565b6004602052600090815260409020805460018201546002830154600784015460088501546009860154600a870154600b90970154959673ffffffffffffffffffffffffffffffffffffffff90951695939492939192909160ff8082169161010090041689565b6143805b90565b6040518060400160405280601281526020017f59414d20476f7665726e6f7220416c706861000000000000000000000000000081525081565b60015473ffffffffffffffffffffffffffffffffffffffff1681565b6105b5338383611f22565b5050565b60056020526000908152604090205481565b6040516105d790613ac4565b604051809103902081565b60025473ffffffffffffffffffffffffffffffffffffffff16331461063c576040517f08c379a000000000000000000000000000000000000000000000000000000000815260040161063390613d6d565b60405180910390fd5b6000805460405173ffffffffffffffffffffffffffffffffffffffff90911691630825f38f91839190610673908790602001613ada565b604051602081830303815290604052856040518563ffffffff1660e01b81526004016106a29493929190613b03565b600060405180830381600087803b1580156106bc57600080fd5b505af11580156106d0573d6000803e3d6000fd5b505050506040513d6000823e601f3d9081017fffffffffffffffffffffffffffffffffffffffffffffffffffffffffffffffe01682016040526107169190810190612bfc565b505050565b60006107d16107ca600160009054906101000a900473ffffffffffffffffffffffffffffffffffffffff1673ffffffffffffffffffffffffffffffffffffffff166318160ddd6040518163ffffffff1660e01b815260040160206040518083038186803b15801561078b57600080fd5b505afa15801561079f573d6000803e3d6000fd5b505050506040513d601f19601f820116820180604052506107c39190810190612bde565b6004612160565b60646121bb565b905090565b6060806060806000600460008781526020019081526020016000209050806003018160040182600501836006018380548060200260200160405190810160405280929190818152602001828054801561086557602002820191906000526020600020905b815473ffffffffffffffffffffffffffffffffffffffff16815260019091019060200180831161083a575b50505050509350828054806020026020016040519081016040528092919081815260200182805480156108b757602002820191906000526020600020905b8154815260200190600101908083116108a3575b5050505050925081805480602002602001604051908101604052809291908181526020016000905b828210156109a85760008481526020908190208301805460408051601f60027fffffffffffffffffffffffffffffffffffffffffffffffffffffffffffffffff6101006001871615020190941693909304928301859004850281018501909152818152928301828280156109945780601f1061096957610100808354040283529160200191610994565b820191906000526020600020905b81548152906001019060200180831161097757829003601f168201915b5050505050815260200190600101906108df565b50505050915080805480602002602001604051908101604052809291908181526020016000905b82821015610a985760008481526020908190208301805460408051601f60027fffffffffffffffffffffffffffffffffffffffffffffffffffffffffffffffff610100600187161502019094169390930492830185900485028101850190915281815292830182828015610a845780601f10610a5957610100808354040283529160200191610a84565b820191906000526020600020905b815481529060010190602001808311610a6757829003601f168201915b5050505050815260200190600101906109cf565b5050505090509450945094509450509193509193565b600190565b60008160035410158015610ac75750600082115b610afd576040517f08c379a000000000000000000000000000000000000000000000000000000000815260040161063390613d7d565b6000828152600460205260409020600b81015460ff1615610b22576002915050610c70565b80600701544311610b37576000915050610c70565b80600801544311610b4c576001915050610c70565b80600a01548160090154111580610b6d5750610b6661071b565b8160090154105b15610b7c576003915050610c70565b6002810154610b8f576004915050610c70565b600b810154610100900460ff1615610bab576007915050610c70565b6002810154600054604080517fc1a287e20000000000000000000000000000000000000000000000000000000081529051610c5a939273ffffffffffffffffffffffffffffffffffffffff169163c1a287e2916004808301926020929190829003018186803b158015610c1d57600080fd5b505afa158015610c31573d6000803e3d6000fd5b505050506040513d601f19601f82011682018060405250610c559190810190612bde565b6121fd565b4210610c6a576006915050610c70565b60059150505b919050565b6000610c8082610ab3565b90506007816007811115610c9057fe5b1415610cc8576040517f08c379a000000000000000000000000000000000000000000000000000000000815260040161063390613e5d565b600082815260046020526040902060025473ffffffffffffffffffffffffffffffffffffffff16331480610da45750610cff6112e2565b600180548382015473ffffffffffffffffffffffffffffffffffffffff9182169263782d6fe19290911690610d3590439061223c565b6040518363ffffffff1660e01b8152600401610d52929190613b52565b60206040518083038186803b158015610d6a57600080fd5b505afa158015610d7e573d6000803e3d6000fd5b505050506040513d601f19601f82011682018060405250610da29190810190612bde565b105b610dda576040517f08c379a000000000000000000000000000000000000000000000000000000000815260040161063390613dfd565b600b810180547fffffffffffffffffffffffffffffffffffffffffffffffffffffffffffffff0016600117905560005b6003820154811015610f1e5760005460038301805473ffffffffffffffffffffffffffffffffffffffff9092169163591fcdfe919084908110610e4957fe5b60009182526020909120015460048501805473ffffffffffffffffffffffffffffffffffffffff9092169185908110610e7e57fe5b9060005260206000200154856005018581548110610e9857fe5b90600052602060002001866006018681548110610eb157fe5b9060005260206000200187600201546040518663ffffffff1660e01b8152600401610ee0959493929190613bef565b600060405180830381600087803b158015610efa57600080fd5b505af1158015610f0e573d6000803e3d6000fd5b505060019092019150610e0a9050565b507f789cf55be980739dad1d0699b93b58e806b51c9d96619bfa8fe0a28abaa7b30c83604051610f4e9190613c7d565b60405180910390a1505050565b60025473ffffffffffffffffffffffffffffffffffffffff1681565b6000604051610f8590613ac4565b60408051918290038220828201909152601282527f59414d20476f7665726e6f7220416c70686100000000000000000000000000006020909201919091527f63e44b07eb663d132f3b867c12624d91b2a07d728ab5358df3bb5d0d12341eb9610fec61227e565b306040516020016110009493929190613c8b565b604051602081830303815290604052805190602001209050600060405161102690613acf565b60405190819003812061103f9189908990602001613cc0565b6040516020818303038152906040528051906020012090506000828260405160200161106c929190613a93565b6040516020818303038152906040528051906020012090506000600182888888604051600081526020016040526040516110a99493929190613ce8565b6020604051602081039080840390855afa1580156110cb573d6000803e3d6000fd5b50506040517fffffffffffffffffffffffffffffffffffffffffffffffffffffffffffffffe0015191505073ffffffffffffffffffffffffffffffffffffffff8116611143576040517f08c379a000000000000000000000000000000000000000000000000000000000815260040161063390613e3d565b61114e818a8a611f22565b505050505050505050565b60025473ffffffffffffffffffffffffffffffffffffffff1633146111aa576040517f08c379a000000000000000000000000000000000000000000000000000000000815260040161063390613e8d565b600280547fffffffffffffffffffffffff0000000000000000000000000000000000000000169055565b600a90565b60025473ffffffffffffffffffffffffffffffffffffffff16331461122a576040517f08c379a000000000000000000000000000000000000000000000000000000000815260040161063390613dad565b6000805460405173ffffffffffffffffffffffffffffffffffffffff90911691633a66f90191839190611261908790602001613ada565b604051602081830303815290604052856040518563ffffffff1660e01b81526004016112909493929190613b03565b602060405180830381600087803b1580156112aa57600080fd5b505af11580156112be573d6000803e3d6000fd5b505050506040513d601f19601f820116820180604052506107169190810190612bde565b60006107d1600160009054906101000a900473ffffffffffffffffffffffffffffffffffffffff1673ffffffffffffffffffffffffffffffffffffffff166318160ddd6040518163ffffffff1660e01b815260040160206040518083038186803b15801561134f57600080fd5b505afa158015611363573d6000803e3d6000fd5b505050506040513d601f19601f820116820180604052506107ca9190810190612bde565b60025473ffffffffffffffffffffffffffffffffffffffff1633146113d8576040517f08c379a000000000000000000000000000000000000000000000000000000000815260040161063390613d3d565b60008054604080517f0e18b681000000000000000000000000000000000000000000000000000000008152905173ffffffffffffffffffffffffffffffffffffffff90921692630e18b6819260048084019382900301818387803b15801561143f57600080fd5b505af1158015611453573d6000803e3d6000fd5b50505050565b60005473ffffffffffffffffffffffffffffffffffffffff1681565b60035481565b60006114856112e2565b6001805473ffffffffffffffffffffffffffffffffffffffff169063782d6fe19033906114b390439061223c565b6040518363ffffffff1660e01b81526004016114d0929190613ae8565b60206040518083038186803b1580156114e857600080fd5b505afa1580156114fc573d6000803e3d6000fd5b505050506040513d601f19601f820116820180604052506115209190810190612bde565b11611557576040517f08c379a000000000000000000000000000000000000000000000000000000000815260040161063390613e2d565b84518651148015611569575083518651145b8015611576575082518651145b6115ac576040517f08c379a000000000000000000000000000000000000000000000000000000000815260040161063390613ddd565b85516115e4576040517f08c379a000000000000000000000000000000000000000000000000000000000815260040161063390613e1d565b6115ec6111d4565b86511115611626576040517f08c379a000000000000000000000000000000000000000000000000000000000815260040161063390613dbd565b3360009081526005602052604090205480156116d757600061164782610ab3565b9050600181600781111561165757fe5b141561168f576040517f08c379a000000000000000000000000000000000000000000000000000000000815260040161063390613e4d565b600081600781111561169d57fe5b14156116d5576040517f08c379a000000000000000000000000000000000000000000000000000000000815260040161063390613d9d565b505b60006116e543610c55610aae565b905060006116f582610c5561054e565b600380546001019055905061170861247f565b604051806101a0016040528060035481526020013373ffffffffffffffffffffffffffffffffffffffff168152602001600081526020018b81526020018a815260200189815260200188815260200184815260200183815260200160008152602001600081526020016000151581526020016000151581525090508060046000836000015181526020019081526020016000206000820151816000015560208201518160010160006101000a81548173ffffffffffffffffffffffffffffffffffffffff021916908373ffffffffffffffffffffffffffffffffffffffff160217905550604082015181600201556060820151816003019080519060200190611812929190612501565b506080820151805161182e91600484019160209091019061258b565b5060a0820151805161184a9160058401916020909101906125d2565b5060c0820151805161186691600684019160209091019061262b565b5060e082015181600701556101008201518160080155610120820151816009015561014082015181600a015561016082015181600b0160006101000a81548160ff02191690831515021790555061018082015181600b0160016101000a81548160ff021916908315150217905550905050806000015160056000836020015173ffffffffffffffffffffffffffffffffffffffff1673ffffffffffffffffffffffffffffffffffffffff168152602001908152602001600020819055507f7d84a6263ae0d98d3329bd7b46bb4e8d6f98cd35a7adb45c274c8b7fd5ebd5e08160000151338c8c8c8c89898e60405161196699989796959493929190613eab565b60405180910390a15193505050505b95945050505050565b600461198982610ab3565b600781111561199457fe5b146119cb576040517f08c379a000000000000000000000000000000000000000000000000000000000815260040161063390613d4d565b6000818152600460208181526040808420845482517f6a42b8f80000000000000000000000000000000000000000000000000000000081529251919594611a4694429473ffffffffffffffffffffffffffffffffffffffff90931693636a42b8f8938084019390829003018186803b158015610c1d57600080fd5b905060005b6003830154811015611c3757611c2f836003018281548110611a6957fe5b60009182526020909120015460048501805473ffffffffffffffffffffffffffffffffffffffff9092169184908110611a9e57fe5b9060005260206000200154856005018481548110611ab857fe5b600091825260209182902001805460408051601f60027fffffffffffffffffffffffffffffffffffffffffffffffffffffffffffffffff610100600187161502019094169390930492830185900485028101850190915281815292830182828015611b645780601f10611b3957610100808354040283529160200191611b64565b820191906000526020600020905b815481529060010190602001808311611b4757829003601f168201915b5050505050866006018581548110611b7857fe5b600091825260209182902001805460408051601f60027fffffffffffffffffffffffffffffffffffffffffffffffffffffffffffffffff610100600187161502019094169390930492830185900485028101850190915281815292830182828015611c245780601f10611bf957610100808354040283529160200191611c24565b820191906000526020600020905b815481529060010190602001808311611c0757829003601f168201915b505050505086612282565b600101611a4b565b50600282018190556040517f9a2e42fd6722813d69113e7d0079d3d940171428df7373df9c7f7617cfda289290610f4e9085908490613fd9565b6040516105d790613acf565b611c85612684565b50600082815260046020908152604080832073ffffffffffffffffffffffffffffffffffffffff85168452600c018252918290208251606081018452815460ff808216151583526101009091041615159281019290925260010154918101919091525b92915050565b6005611cf982610ab3565b6007811115611d0457fe5b14611d3b576040517f08c379a000000000000000000000000000000000000000000000000000000000815260040161063390613d5d565b6000818152600460205260408120600b810180547fffffffffffffffffffffffffffffffffffffffffffffffffffffffffffff00ff16610100179055905b6003820154811015611ee65760005460048301805473ffffffffffffffffffffffffffffffffffffffff90921691630825f38f919084908110611db857fe5b9060005260206000200154846003018481548110611dd257fe5b60009182526020909120015460048601805473ffffffffffffffffffffffffffffffffffffffff9092169186908110611e0757fe5b9060005260206000200154866005018681548110611e2157fe5b90600052602060002001876006018781548110611e3a57fe5b9060005260206000200188600201546040518763ffffffff1660e01b8152600401611e69959493929190613bef565b6000604051808303818588803b158015611e8257600080fd5b505af1158015611e96573d6000803e3d6000fd5b50505050506040513d6000823e601f3d9081017fffffffffffffffffffffffffffffffffffffffffffffffffffffffffffffffe0168201604052611edd9190810190612bfc565b50600101611d79565b507f712ae1383f79ac853f8d882153778e0260ef8f03b504e2866e0593e04d2b291f82604051611f169190613c7d565b60405180910390a15050565b6001611f2d83610ab3565b6007811115611f3857fe5b14611f6f576040517f08c379a000000000000000000000000000000000000000000000000000000000815260040161063390613e6d565b600082815260046020908152604080832073ffffffffffffffffffffffffffffffffffffffff87168452600c8101909252909120805460ff1615611fdf576040517f08c379a000000000000000000000000000000000000000000000000000000000815260040161063390613d8d565b60015460078301546040517f782d6fe100000000000000000000000000000000000000000000000000000000815260009273ffffffffffffffffffffffffffffffffffffffff169163782d6fe19161203b918a91600401613b52565b60206040518083038186803b15801561205357600080fd5b505afa158015612067573d6000803e3d6000fd5b505050506040513d601f19601f8201168201806040525061208b9190810190612bde565b905083156120ab576120a18360090154826121fd565b60098401556120bf565b6120b983600a0154826121fd565b600a8401555b815460017fffffffffffffffffffffffffffffffffffffffffffffffffffffffffffffff0090911681177fffffffffffffffffffffffffffffffffffffffffffffffffffffffffffff00ff166101008615150217835582018190556040517f877856338e13f63d0c36822ff0ef736b80934cd90574a3a5bc9262c39d217c4690612150908890889088908690613b60565b60405180910390a1505050505050565b60008261216f57506000611ce8565b8282028284828161217c57fe5b04146121b4576040517f08c379a000000000000000000000000000000000000000000000000000000000815260040161063390613ded565b9392505050565b60006121b483836040518060400160405280601a81526020017f536166654d6174683a206469766973696f6e206279207a65726f00000000000081525061242e565b6000828201838110156121b4576040517f08c379a000000000000000000000000000000000000000000000000000000000815260040161063390613dcd565b600082821115612278576040517f08c379a000000000000000000000000000000000000000000000000000000000815260040161063390613e7d565b50900390565b4690565b60005460405173ffffffffffffffffffffffffffffffffffffffff9091169063f2b06537906122bd9088908890889088908890602001613b95565b604051602081830303815290604052805190602001206040518263ffffffff1660e01b81526004016122ef9190613c7d565b60206040518083038186803b15801561230757600080fd5b505afa15801561231b573d6000803e3d6000fd5b505050506040513d601f19601f8201168201806040525061233f9190810190612bc0565b15612376576040517f08c379a000000000000000000000000000000000000000000000000000000000815260040161063390613e0d565b6000546040517f3a66f90100000000000000000000000000000000000000000000000000000000815273ffffffffffffffffffffffffffffffffffffffff90911690633a66f901906123d49088908890889088908890600401613b95565b602060405180830381600087803b1580156123ee57600080fd5b505af1158015612402573d6000803e3d6000fd5b505050506040513d601f19601f820116820180604052506124269190810190612bde565b505050505050565b60008183612469576040517f08c379a00000000000000000000000000000000000000000000000000000000081526004016106339190613d2c565b50600083858161247557fe5b0495945050505050565b604051806101a0016040528060008152602001600073ffffffffffffffffffffffffffffffffffffffff1681526020016000815260200160608152602001606081526020016060815260200160608152602001600081526020016000815260200160008152602001600081526020016000151581526020016000151581525090565b82805482825590600052602060002090810192821561257b579160200282015b8281111561257b57825182547fffffffffffffffffffffffff00000000000000000000000000000000000000001673ffffffffffffffffffffffffffffffffffffffff909116178255602090920191600190910190612521565b506125879291506126a4565b5090565b8280548282559060005260206000209081019282156125c6579160200282015b828111156125c65782518255916020019190600101906125ab565b506125879291506126e0565b82805482825590600052602060002090810192821561261f579160200282015b8281111561261f578251805161260f9184916020909101906126fa565b50916020019190600101906125f2565b50612587929150612767565b828054828255906000526020600020908101928215612678579160200282015b8281111561267857825180516126689184916020909101906126fa565b509160200191906001019061264b565b5061258792915061278a565b604080516060810182526000808252602082018190529181019190915290565b61055291905b808211156125875780547fffffffffffffffffffffffff00000000000000000000000000000000000000001681556001016126aa565b61055291905b8082111561258757600081556001016126e6565b828054600181600116156101000203166002900490600052602060002090601f016020900481019282601f1061273b57805160ff19168380011785556125c6565b828001600101855582156125c657918201828111156125c65782518255916020019190600101906125ab565b61055291905b8082111561258757600061278182826127ad565b5060010161276d565b61055291905b808211156125875760006127a482826127ad565b50600101612790565b50805460018160011615610100020316600290046000825580601f106127d357506127f1565b601f0160209004906000526020600020908101906127f191906126e0565b50565b8035611ce88161415f565b600082601f83011261281057600080fd5b813561282361281e8261400e565b613fe7565b9150818183526020840193506020810190508385602084028201111561284857600080fd5b60005b83811015612874578161285e88826127f4565b845250602092830192919091019060010161284b565b5050505092915050565b600082601f83011261288f57600080fd5b813561289d61281e8261400e565b81815260209384019390925082018360005b8381101561287457813586016128c588826129d4565b84525060209283019291909101906001016128af565b600082601f8301126128ec57600080fd5b81356128fa61281e8261400e565b81815260209384019390925082018360005b83811015612874578135860161292288826129d4565b845250602092830192919091019060010161290c565b600082601f83011261294957600080fd5b813561295761281e8261400e565b9150818183526020840193506020810190508385602084028201111561297c57600080fd5b60005b83811015612874578161299288826129be565b845250602092830192919091019060010161297f565b8035611ce881614173565b8051611ce881614173565b8035611ce88161417c565b8051611ce88161417c565b600082601f8301126129e557600080fd5b81356129f361281e8261402f565b91508082526020830160208301858383011115612a0f57600080fd5b612a1a8382846140f5565b50505092915050565b600082601f830112612a3457600080fd5b8151612a4261281e8261402f565b91508082526020830160208301858383011115612a5e57600080fd5b612a1a838284614101565b8035611ce881614185565b600060208284031215612a8657600080fd5b6000612a9284846127f4565b949350505050565b60008060408385031215612aad57600080fd5b6000612ab985856127f4565b9250506020612aca858286016129be565b9150509250929050565b600080600080600060a08688031215612aec57600080fd5b853567ffffffffffffffff811115612b0357600080fd5b612b0f888289016127ff565b955050602086013567ffffffffffffffff811115612b2c57600080fd5b612b3888828901612938565b945050604086013567ffffffffffffffff811115612b5557600080fd5b612b61888289016128db565b935050606086013567ffffffffffffffff811115612b7e57600080fd5b612b8a8882890161287e565b925050608086013567ffffffffffffffff811115612ba757600080fd5b612bb3888289016129d4565b9150509295509295909350565b600060208284031215612bd257600080fd5b6000612a9284846129b3565b600060208284031215612bf057600080fd5b6000612a9284846129c9565b600060208284031215612c0e57600080fd5b815167ffffffffffffffff811115612c2557600080fd5b612a9284828501612a23565b600060208284031215612c4357600080fd5b6000612a9284846129be565b60008060408385031215612c6257600080fd5b6000612c6e85856129be565b9250506020612aca858286016127f4565b60008060408385031215612c9257600080fd5b6000612c9e85856129be565b9250506020612aca858286016129a8565b600080600080600060a08688031215612cc757600080fd5b6000612cd388886129be565b9550506020612ce4888289016129a8565b9450506040612cf588828901612a69565b9350506060612d06888289016129be565b9250506080612bb3888289016129be565b6000612d238383612d52565b505060200190565b60006121b48383612ef4565b6000612d238383612eda565b612d4c816140cd565b82525050565b612d4c81614094565b6000612d6682614087565b612d70818561408b565b9350612d7b83614075565b8060005b83811015612da9578151612d938882612d17565b9750612d9e83614075565b925050600101612d7f565b509495945050505050565b6000612dbf82614087565b612dc9818561408b565b935083602082028501612ddb85614075565b8060005b85811015612e155784840389528151612df88582612d2b565b9450612e0383614075565b60209a909a0199925050600101612ddf565b5091979650505050505050565b6000612e2d82614087565b612e37818561408b565b935083602082028501612e4985614075565b8060005b85811015612e155784840389528151612e668582612d2b565b9450612e7183614075565b60209a909a0199925050600101612e4d565b6000612e8e82614087565b612e98818561408b565b9350612ea383614075565b8060005b83811015612da9578151612ebb8882612d37565b9750612ec683614075565b925050600101612ea7565b612d4c8161409f565b612d4c81610552565b612d4c612eef82610552565b610552565b6000612eff82614087565b612f09818561408b565b9350612f19818560208601614101565b612f228161412d565b9093019392505050565b600081546001811660008114612f495760018114612f8d57612fcc565b607f6002830416612f5a818761408b565b7fffffffffffffffffffffffffffffffffffffffffffffffffffffffffffffff0084168152955050602085019250612fcc565b60028204612f9b818761408b565b9550612fa68561407b565b60005b82811015612fc557815488820152600190910190602001612fa9565b8701945050505b505092915050565b612d4c816140d4565b612d4c816140df565b612d4c816140ea565b6000612ffc60398361408b565b7f476f7665726e6f72416c7068613a3a5f5f61636365707441646d696e3a20736581527f6e646572206d75737420626520676f7620677561726469616e00000000000000602082015260400192915050565b600061305b60448361408b565b7f476f7665726e6f72416c7068613a3a71756575653a2070726f706f73616c206381527f616e206f6e6c792062652071756575656420696620697420697320737563636560208201527f6564656400000000000000000000000000000000000000000000000000000000604082015260600192915050565b60006130e060458361408b565b7f476f7665726e6f72416c7068613a3a657865637574653a2070726f706f73616c81527f2063616e206f6e6c79206265206578656375746564206966206974206973207160208201527f7565756564000000000000000000000000000000000000000000000000000000604082015260600192915050565b6000613165600283610c70565b7f1901000000000000000000000000000000000000000000000000000000000000815260020192915050565b600061319e604c8361408b565b7f476f7665726e6f72416c7068613a3a5f5f6578656375746553657454696d656c81527f6f636b50656e64696e6741646d696e3a2073656e646572206d7573742062652060208201527f676f7620677561726469616e0000000000000000000000000000000000000000604082015260600192915050565b600061322360188361408b565b7f73657450656e64696e6741646d696e2861646472657373290000000000000000815260200192915050565b600061325c60298361408b565b7f476f7665726e6f72416c7068613a3a73746174653a20696e76616c696420707281527f6f706f73616c2069640000000000000000000000000000000000000000000000602082015260400192915050565b60006132bb602d8361408b565b7f476f7665726e6f72416c7068613a3a5f63617374566f74653a20766f7465722081527f616c726561647920766f74656400000000000000000000000000000000000000602082015260400192915050565b600061331a60598361408b565b7f476f7665726e6f72416c7068613a3a70726f706f73653a206f6e65206c69766581527f2070726f706f73616c207065722070726f706f7365722c20666f756e6420616e60208201527f20616c72656164792070656e64696e672070726f706f73616c00000000000000604082015260600192915050565b600061339f604a8361408b565b7f476f7665726e6f72416c7068613a3a5f5f717565756553657454696d656c6f6381527f6b50656e64696e6741646d696e3a2073656e646572206d75737420626520676f60208201527f7620677561726469616e00000000000000000000000000000000000000000000604082015260600192915050565b600061342460288361408b565b7f476f7665726e6f72416c7068613a3a70726f706f73653a20746f6f206d616e7981527f20616374696f6e73000000000000000000000000000000000000000000000000602082015260400192915050565b600061348360118361408b565b7f6164646974696f6e206f766572666c6f77000000000000000000000000000000815260200192915050565b60006134bc604383610c70565b7f454950373132446f6d61696e28737472696e67206e616d652c75696e7432353681527f20636861696e49642c6164647265737320766572696679696e67436f6e74726160208201527f6374290000000000000000000000000000000000000000000000000000000000604082015260430192915050565b6000613541602783610c70565b7f42616c6c6f742875696e743235362070726f706f73616c49642c626f6f6c207381527f7570706f72742900000000000000000000000000000000000000000000000000602082015260270192915050565b60006135a060448361408b565b7f476f7665726e6f72416c7068613a3a70726f706f73653a2070726f706f73616c81527f2066756e6374696f6e20696e666f726d6174696f6e206172697479206d69736d60208201527f6174636800000000000000000000000000000000000000000000000000000000604082015260600192915050565b600061362560218361408b565b7f536166654d6174683a206d756c7469706c69636174696f6e206f766572666c6f81527f7700000000000000000000000000000000000000000000000000000000000000602082015260400192915050565b6000613684602f8361408b565b7f476f7665726e6f72416c7068613a3a63616e63656c3a2070726f706f7365722081527f61626f7665207468726573686f6c640000000000000000000000000000000000602082015260400192915050565b60006136e360448361408b565b7f476f7665726e6f72416c7068613a3a5f71756575654f725265766572743a207081527f726f706f73616c20616374696f6e20616c72656164792071756575656420617460208201527f2065746100000000000000000000000000000000000000000000000000000000604082015260600192915050565b6000613768602c8361408b565b7f476f7665726e6f72416c7068613a3a70726f706f73653a206d7573742070726f81527f7669646520616374696f6e730000000000000000000000000000000000000000602082015260400192915050565b60006137c7603f8361408b565b7f476f7665726e6f72416c7068613a3a70726f706f73653a2070726f706f73657281527f20766f7465732062656c6f772070726f706f73616c207468726573686f6c6400602082015260400192915050565b6000613826602f8361408b565b7f476f7665726e6f72416c7068613a3a63617374566f746542795369673a20696e81527f76616c6964207369676e61747572650000000000000000000000000000000000602082015260400192915050565b600061388560588361408b565b7f476f7665726e6f72416c7068613a3a70726f706f73653a206f6e65206c69766581527f2070726f706f73616c207065722070726f706f7365722c20666f756e6420616e60208201527f20616c7265616479206163746976652070726f706f73616c0000000000000000604082015260600192915050565b600061390a60368361408b565b7f476f7665726e6f72416c7068613a3a63616e63656c3a2063616e6e6f7420636181527f6e63656c2065786563757465642070726f706f73616c00000000000000000000602082015260400192915050565b6000613969602a8361408b565b7f476f7665726e6f72416c7068613a3a5f63617374566f74653a20766f74696e6781527f20697320636c6f73656400000000000000000000000000000000000000000000602082015260400192915050565b60006139c860158361408b565b7f7375627472616374696f6e20756e646572666c6f770000000000000000000000815260200192915050565b6000613a0160368361408b565b7f476f7665726e6f72416c7068613a3a5f5f61626469636174653a2073656e646581527f72206d75737420626520676f7620677561726469616e00000000000000000000602082015260400192915050565b80516060830190613a648482612ed1565b506020820151613a776020850182612ed1565b5060408201516114536040850182612eda565b612d4c816140c7565b6000613a9e82613158565b9150613aaa8285612ee3565b602082019150613aba8284612ee3565b5060200192915050565b6000611ce8826134af565b6000611ce882613534565b60208101611ce88284612d52565b60408101613af68285612d43565b6121b46020830184612eda565b60a08101613b118287612d52565b613b1e6020830186612fe6565b8181036040830152613b2f81613216565b90508181036060830152613b438185612ef4565b90506119756080830184612eda565b60408101613af68285612d52565b60808101613b6e8287612d52565b613b7b6020830186612eda565b613b886040830185612ed1565b6119756060830184612eda565b60a08101613ba38288612d52565b613bb06020830187612eda565b8181036040830152613bc28186612ef4565b90508181036060830152613bd68185612ef4565b9050613be56080830184612eda565b9695505050505050565b60a08101613bfd8288612d52565b613c0a6020830187612eda565b8181036040830152613c1c8186612f2c565b90508181036060830152613bd68185612f2c565b60808082528101613c418187612d5b565b90508181036020830152613c558186612e83565b90508181036040830152613c698185612e22565b90508181036060830152613be58184612db4565b60208101611ce88284612eda565b60808101613c998287612eda565b613ca66020830186612eda565b613cb36040830185612eda565b6119756060830184612d52565b60608101613cce8286612eda565b613cdb6020830185612eda565b612a926040830184612ed1565b60808101613cf68287612eda565b613d036020830186613a8a565b613b886040830185612eda565b60208101611ce88284612fd4565b60208101611ce88284612fdd565b602080825281016121b48184612ef4565b60208082528101611ce881612fef565b60208082528101611ce88161304e565b60208082528101611ce8816130d3565b60208082528101611ce881613191565b60208082528101611ce88161324f565b60208082528101611ce8816132ae565b60208082528101611ce88161330d565b60208082528101611ce881613392565b60208082528101611ce881613417565b60208082528101611ce881613476565b60208082528101611ce881613593565b60208082528101611ce881613618565b60208082528101611ce881613677565b60208082528101611ce8816136d6565b60208082528101611ce88161375b565b60208082528101611ce8816137ba565b60208082528101611ce881613819565b60208082528101611ce881613878565b60208082528101611ce8816138fd565b60208082528101611ce88161395c565b60208082528101611ce8816139bb565b60208082528101611ce8816139f4565b60608101611ce88284613a53565b6101208101613eba828c612eda565b613ec7602083018b612d43565b8181036040830152613ed9818a612d5b565b90508181036060830152613eed8189612e83565b90508181036080830152613f018188612e22565b905081810360a0830152613f158187612db4565b9050613f2460c0830186612eda565b613f3160e0830185612eda565b818103610100830152613f448184612ef4565b9b9a5050505050505050505050565b6101208101613f62828c612eda565b613f6f602083018b612d52565b613f7c604083018a612eda565b613f896060830189612eda565b613f966080830188612eda565b613fa360a0830187612eda565b613fb060c0830186612eda565b613fbd60e0830185612ed1565b613fcb610100830184612ed1565b9a9950505050505050505050565b60408101613af68285612eda565b60405181810167ffffffffffffffff8111828210171561400657600080fd5b604052919050565b600067ffffffffffffffff82111561402557600080fd5b5060209081020190565b600067ffffffffffffffff82111561404657600080fd5b506020601f919091017fffffffffffffffffffffffffffffffffffffffffffffffffffffffffffffffe0160190565b60200190565b60009081526020902090565b5190565b90815260200190565b6000611ce8826140ae565b151590565b80610c7081614155565b73ffffffffffffffffffffffffffffffffffffffff1690565b60ff1690565b6000611ce8825b6000611ce882614094565b6000611ce8826140a4565b6000611ce882610552565b82818337506000910152565b60005b8381101561411c578181015183820152602001614104565b838111156114535750506000910152565b601f017fffffffffffffffffffffffffffffffffffffffffffffffffffffffffffffffe01690565b600881106127f157fe5b61416881614094565b81146127f157600080fd5b6141688161409f565b61416881610552565b614168816140c756fea365627a7a7231582079fc3c0fbfd5c1048bad2cad230b30b1916e2dfe6444389a046f1efe39bcee326c6578706572696d656e74616cf564736f6c63430005110040",
  "source": "pragma solidity ^0.5.17;\npragma experimental ABIEncoderV2;\n\n// Original work from Compound: https://github.com/yamound-finance/yamound-protocol/blob/master/contracts/Governance/GovernorAlpha.sol\n// Modified to work in the YAM system\n\n// Original audit: https://blog.openzeppelin.com/compound-alpha-governance-system-audit/\n// Overview:\n//    No Critical\n//    High:\n//      Issue:\n//        Approved proposal may be impossible to queue, cancel or execute\n//        Fixed with `proposalMaxOperations`\n//      Issue:\n//        Queued proposal with repeated actions cannot be executed\n//        Fixed by explicitly disallow proposals with repeated actions to be queued in the Timelock contract.\n//\n// Changes made by YAM after audit:\n//    Formatting, naming, & uint256 instead of uint\n//    Since YAM supply changes, updated quorum & proposal requirements\n//    If any uint96, changed to uint256 to match YAM as opposed to comp\n\n\nimport \"../lib/SafeMath.sol\";\n\ncontract GovernorAlpha {\n    /// @notice The name of this contract\n    string public constant name = \"YAM Governor Alpha\";\n\n    /// @notice The number of votes in support of a proposal required in order for a quorum to be reached and for a vote to succeed\n    function quorumVotes() public view returns (uint256) { return SafeMath.div(SafeMath.mul(yam.totalSupply(), 4), 100); } // 4% of YAM\n\n    /// @notice The number of votes required in order for a voter to become a proposer\n    function proposalThreshold() public view returns (uint256) { return SafeMath.div(yam.totalSupply(), 100); } // 1% of YAM\n\n    /// @notice The maximum number of actions that can be included in a proposal\n    function proposalMaxOperations() public pure returns (uint256) { return 10; } // 10 actions\n\n    /// @notice The delay before voting on a proposal may take place, once proposed\n    function votingDelay() public pure returns (uint256) { return 1; } // 1 block\n\n    /// @notice The duration of voting on a proposal, in blocks\n    function votingPeriod() public pure returns (uint256) { return 17280; } // ~3 days in blocks (assuming 15s blocks)\n\n    /// @notice The address of the Compound Protocol Timelock\n    TimelockInterface public timelock;\n\n    /// @notice The address of the Compound governance token\n    YAMInterface public yam;\n\n    /// @notice The address of the Governor Guardian\n    address public guardian;\n\n    /// @notice The total number of proposals\n    uint256 public proposalCount;\n\n    struct Proposal {\n        /// @notice Unique id for looking up a proposal\n        uint256 id;\n\n        /// @notice Creator of the proposal\n        address proposer;\n\n        /// @notice The timestamp that the proposal will be available for execution, set once the vote succeeds\n        uint256 eta;\n\n        /// @notice the ordered list of target addresses for calls to be made\n        address[] targets;\n\n        /// @notice The ordered list of values (i.e. msg.value) to be passed to the calls to be made\n        uint[] values;\n\n        /// @notice The ordered list of function signatures to be called\n        string[] signatures;\n\n        /// @notice The ordered list of calldata to be passed to each call\n        bytes[] calldatas;\n\n        /// @notice The block at which voting begins: holders must delegate their votes prior to this block\n        uint256 startBlock;\n\n        /// @notice The block at which voting ends: votes must be cast prior to this block\n        uint256 endBlock;\n\n        /// @notice Current number of votes in favor of this proposal\n        uint256 forVotes;\n\n        /// @notice Current number of votes in opposition to this proposal\n        uint256 againstVotes;\n\n        /// @notice Flag marking whether the proposal has been canceled\n        bool canceled;\n\n        /// @notice Flag marking whether the proposal has been executed\n        bool executed;\n\n        /// @notice Receipts of ballots for the entire set of voters\n        mapping (address => Receipt) receipts;\n    }\n\n    /// @notice Ballot receipt record for a voter\n    struct Receipt {\n        /// @notice Whether or not a vote has been cast\n        bool hasVoted;\n\n        /// @notice Whether or not the voter supports the proposal\n        bool support;\n\n        /// @notice The number of votes the voter had, which were cast\n        uint256 votes;\n    }\n\n    /// @notice Possible states that a proposal may be in\n    enum ProposalState {\n        Pending,\n        Active,\n        Canceled,\n        Defeated,\n        Succeeded,\n        Queued,\n        Expired,\n        Executed\n    }\n\n    /// @notice The official record of all proposals ever proposed\n    mapping (uint256 => Proposal) public proposals;\n\n    /// @notice The latest proposal for each proposer\n    mapping (address => uint256) public latestProposalIds;\n\n    /// @notice The EIP-712 typehash for the contract's domain\n    bytes32 public constant DOMAIN_TYPEHASH = keccak256(\"EIP712Domain(string name,uint256 chainId,address verifyingContract)\");\n\n    /// @notice The EIP-712 typehash for the ballot struct used by the contract\n    bytes32 public constant BALLOT_TYPEHASH = keccak256(\"Ballot(uint256 proposalId,bool support)\");\n\n    /// @notice An event emitted when a new proposal is created\n    event ProposalCreated(uint256 id, address proposer, address[] targets, uint[] values, string[] signatures, bytes[] calldatas, uint256 startBlock, uint256 endBlock, string description);\n\n    /// @notice An event emitted when a vote has been cast on a proposal\n    event VoteCast(address voter, uint256 proposalId, bool support, uint256 votes);\n\n    /// @notice An event emitted when a proposal has been canceled\n    event ProposalCanceled(uint256 id);\n\n    /// @notice An event emitted when a proposal has been queued in the Timelock\n    event ProposalQueued(uint256 id, uint256 eta);\n\n    /// @notice An event emitted when a proposal has been executed in the Timelock\n    event ProposalExecuted(uint256 id);\n\n    constructor(address timelock_, address yam_, address guardian_) public {\n        timelock = TimelockInterface(timelock_);\n        yam = YAMInterface(yam_);\n        guardian = guardian_;\n    }\n\n    function propose(\n        address[] memory targets,\n        uint[] memory values,\n        string[] memory signatures,\n        bytes[] memory calldatas,\n        string memory description\n    )\n        public\n        returns (uint256)\n    {\n        require(yam.getPriorVotes(msg.sender, sub256(block.number, 1)) > proposalThreshold(), \"GovernorAlpha::propose: proposer votes below proposal threshold\");\n        require(targets.length == values.length && targets.length == signatures.length && targets.length == calldatas.length, \"GovernorAlpha::propose: proposal function information arity mismatch\");\n        require(targets.length != 0, \"GovernorAlpha::propose: must provide actions\");\n        require(targets.length <= proposalMaxOperations(), \"GovernorAlpha::propose: too many actions\");\n\n        uint256 latestProposalId = latestProposalIds[msg.sender];\n        if (latestProposalId != 0) {\n          ProposalState proposersLatestProposalState = state(latestProposalId);\n          require(proposersLatestProposalState != ProposalState.Active, \"GovernorAlpha::propose: one live proposal per proposer, found an already active proposal\");\n          require(proposersLatestProposalState != ProposalState.Pending, \"GovernorAlpha::propose: one live proposal per proposer, found an already pending proposal\");\n        }\n\n        uint256 startBlock = add256(block.number, votingDelay());\n        uint256 endBlock = add256(startBlock, votingPeriod());\n\n        proposalCount++;\n        Proposal memory newProposal = Proposal({\n            id: proposalCount,\n            proposer: msg.sender,\n            eta: 0,\n            targets: targets,\n            values: values,\n            signatures: signatures,\n            calldatas: calldatas,\n            startBlock: startBlock,\n            endBlock: endBlock,\n            forVotes: 0,\n            againstVotes: 0,\n            canceled: false,\n            executed: false\n        });\n\n        proposals[newProposal.id] = newProposal;\n        latestProposalIds[newProposal.proposer] = newProposal.id;\n\n        emit ProposalCreated(\n            newProposal.id,\n            msg.sender,\n            targets,\n            values,\n            signatures,\n            calldatas,\n            startBlock,\n            endBlock,\n            description\n        );\n        return newProposal.id;\n    }\n\n    function queue(uint256 proposalId)\n        public\n    {\n        require(state(proposalId) == ProposalState.Succeeded, \"GovernorAlpha::queue: proposal can only be queued if it is succeeded\");\n        Proposal storage proposal = proposals[proposalId];\n        uint256 eta = add256(block.timestamp, timelock.delay());\n        for (uint256 i = 0; i < proposal.targets.length; i++) {\n            _queueOrRevert(\n                proposal.targets[i],\n                proposal.values[i],\n                proposal.signatures[i],\n                proposal.calldatas[i],\n                eta\n            );\n        }\n        proposal.eta = eta;\n        emit ProposalQueued(proposalId, eta);\n    }\n\n    function _queueOrRevert(\n        address target,\n        uint256 value,\n        string memory signature,\n        bytes memory data,\n        uint256 eta\n    )\n        internal\n    {\n        require(!timelock.queuedTransactions(\n              keccak256(\n                  abi.encode(\n                      target,\n                      value,\n                      signature,\n                      data,\n                      eta\n                  )\n              )\n          ),\n          \"GovernorAlpha::_queueOrRevert: proposal action already queued at eta\"\n        );\n\n        timelock.queueTransaction(target, value, signature, data, eta);\n    }\n\n    function execute(uint256 proposalId)\n        public\n        payable\n    {\n        require(state(proposalId) == ProposalState.Queued, \"GovernorAlpha::execute: proposal can only be executed if it is queued\");\n        Proposal storage proposal = proposals[proposalId];\n        proposal.executed = true;\n        for (uint256 i = 0; i < proposal.targets.length; i++) {\n            timelock.executeTransaction.value(proposal.values[i])(proposal.targets[i], proposal.values[i], proposal.signatures[i], proposal.calldatas[i], proposal.eta);\n        }\n        emit ProposalExecuted(proposalId);\n    }\n\n    function cancel(uint256 proposalId)\n        public\n    {\n        ProposalState state = state(proposalId);\n        require(state != ProposalState.Executed, \"GovernorAlpha::cancel: cannot cancel executed proposal\");\n\n        Proposal storage proposal = proposals[proposalId];\n        require(msg.sender == guardian || yam.getPriorVotes(proposal.proposer, sub256(block.number, 1)) < proposalThreshold(), \"GovernorAlpha::cancel: proposer above threshold\");\n\n        proposal.canceled = true;\n        for (uint256 i = 0; i < proposal.targets.length; i++) {\n            timelock.cancelTransaction(proposal.targets[i], proposal.values[i], proposal.signatures[i], proposal.calldatas[i], proposal.eta);\n        }\n\n        emit ProposalCanceled(proposalId);\n    }\n\n    function getActions(uint256 proposalId)\n        public\n        view\n        returns (\n            address[] memory targets,\n            uint[] memory values,\n            string[] memory signatures,\n            bytes[] memory calldatas\n        )\n    {\n        Proposal storage p = proposals[proposalId];\n        return (p.targets, p.values, p.signatures, p.calldatas);\n    }\n\n    function getReceipt(uint256 proposalId, address voter)\n        public\n        view\n        returns (Receipt memory)\n    {\n        return proposals[proposalId].receipts[voter];\n    }\n\n    function state(uint256 proposalId)\n        public\n        view\n        returns (ProposalState)\n    {\n        require(proposalCount >= proposalId && proposalId > 0, \"GovernorAlpha::state: invalid proposal id\");\n        Proposal storage proposal = proposals[proposalId];\n        if (proposal.canceled) {\n            return ProposalState.Canceled;\n        } else if (block.number <= proposal.startBlock) {\n            return ProposalState.Pending;\n        } else if (block.number <= proposal.endBlock) {\n            return ProposalState.Active;\n        } else if (proposal.forVotes <= proposal.againstVotes || proposal.forVotes < quorumVotes()) {\n            return ProposalState.Defeated;\n        } else if (proposal.eta == 0) {\n            return ProposalState.Succeeded;\n        } else if (proposal.executed) {\n            return ProposalState.Executed;\n        } else if (block.timestamp >= add256(proposal.eta, timelock.GRACE_PERIOD())) {\n            return ProposalState.Expired;\n        } else {\n            return ProposalState.Queued;\n        }\n    }\n\n    function castVote(uint256 proposalId, bool support)\n        public\n    {\n        return _castVote(msg.sender, proposalId, support);\n    }\n\n    function castVoteBySig(\n        uint256 proposalId,\n        bool support,\n        uint8 v,\n        bytes32 r,\n        bytes32 s\n    )\n        public\n    {\n        bytes32 domainSeparator = keccak256(\n            abi.encode(\n                DOMAIN_TYPEHASH,\n                keccak256(bytes(name)),\n                getChainId(),\n                address(this)\n            )\n        );\n\n        bytes32 structHash = keccak256(\n            abi.encode(\n                BALLOT_TYPEHASH,\n                proposalId,\n                support\n            )\n        );\n\n        bytes32 digest = keccak256(\n            abi.encodePacked(\n                \"\\x19\\x01\",\n                domainSeparator,\n                structHash\n            )\n        );\n\n        address signatory = ecrecover(digest, v, r, s);\n        require(signatory != address(0), \"GovernorAlpha::castVoteBySig: invalid signature\");\n        return _castVote(signatory, proposalId, support);\n    }\n\n    function _castVote(\n        address voter,\n        uint256 proposalId,\n        bool support\n    )\n        internal\n    {\n        require(state(proposalId) == ProposalState.Active, \"GovernorAlpha::_castVote: voting is closed\");\n        Proposal storage proposal = proposals[proposalId];\n        Receipt storage receipt = proposal.receipts[voter];\n        require(receipt.hasVoted == false, \"GovernorAlpha::_castVote: voter already voted\");\n        uint256 votes = yam.getPriorVotes(voter, proposal.startBlock);\n\n        if (support) {\n            proposal.forVotes = add256(proposal.forVotes, votes);\n        } else {\n            proposal.againstVotes = add256(proposal.againstVotes, votes);\n        }\n\n        receipt.hasVoted = true;\n        receipt.support = support;\n        receipt.votes = votes;\n\n        emit VoteCast(voter, proposalId, support, votes);\n    }\n\n    function __acceptAdmin()\n        public\n    {\n        require(msg.sender == guardian, \"GovernorAlpha::__acceptAdmin: sender must be gov guardian\");\n        timelock.acceptAdmin();\n    }\n\n    function __abdicate()\n        public\n    {\n        require(msg.sender == guardian, \"GovernorAlpha::__abdicate: sender must be gov guardian\");\n        guardian = address(0);\n    }\n\n    function __queueSetTimelockPendingAdmin(\n        address newPendingAdmin,\n        uint256 eta\n    )\n        public\n    {\n        require(msg.sender == guardian, \"GovernorAlpha::__queueSetTimelockPendingAdmin: sender must be gov guardian\");\n        timelock.queueTransaction(address(timelock), 0, \"setPendingAdmin(address)\", abi.encode(newPendingAdmin), eta);\n    }\n\n    function __executeSetTimelockPendingAdmin(\n        address newPendingAdmin,\n        uint256 eta\n    )\n        public\n    {\n        require(msg.sender == guardian, \"GovernorAlpha::__executeSetTimelockPendingAdmin: sender must be gov guardian\");\n        timelock.executeTransaction(address(timelock), 0, \"setPendingAdmin(address)\", abi.encode(newPendingAdmin), eta);\n    }\n\n    function add256(uint256 a, uint256 b) internal pure returns (uint256) {\n        uint256 c = a + b;\n        require(c >= a, \"addition overflow\");\n        return c;\n    }\n\n    function sub256(uint256 a, uint256 b) internal pure returns (uint256) {\n        require(b <= a, \"subtraction underflow\");\n        return a - b;\n    }\n\n    function getChainId() internal pure returns (uint256) {\n        uint256 chainId;\n        assembly { chainId := chainid() }\n        return chainId;\n    }\n}\n\ninterface TimelockInterface {\n    function delay() external view returns (uint256);\n    function GRACE_PERIOD() external view returns (uint256);\n    function acceptAdmin() external;\n    function queuedTransactions(bytes32 hash) external view returns (bool);\n    function queueTransaction(address target, uint256 value, string calldata signature, bytes calldata data, uint256 eta) external returns (bytes32);\n    function cancelTransaction(address target, uint256 value, string calldata signature, bytes calldata data, uint256 eta) external;\n    function executeTransaction(address target, uint256 value, string calldata signature, bytes calldata data, uint256 eta) external payable returns (bytes memory);\n}\n\ninterface YAMInterface {\n    function getPriorVotes(address account, uint256 blockNumber) external view returns (uint256);\n    function totalSupply() external view returns (uint256);\n}\n",
  "sourcePath": "/Users/brockelmore/YAM/contracts/governance/YAMGovernorAlpha.sol",
  "compiler": {
    "name": "solc",
    "version": "0.5.17+commit.d19bba13.Linux.g++"
  },
  "schemaVersion": "3.0.16",
  "updatedAt": "2020-08-05T20:33:49.124Z",
  "devdoc": {
    "methods": {}
  },
  "userdoc": {
    "methods": {
      "proposalMaxOperations()": {
        "notice": "The maximum number of actions that can be included in a proposal"
      },
      "proposalThreshold()": {
        "notice": "The number of votes required in order for a voter to become a proposer"
      },
      "quorumVotes()": {
        "notice": "The number of votes in support of a proposal required in order for a quorum to be reached and for a vote to succeed"
      },
      "votingDelay()": {
        "notice": "The delay before voting on a proposal may take place, once proposed"
      },
      "votingPeriod()": {
        "notice": "The duration of voting on a proposal, in blocks"
      }
    }
  }
}