{
  "contractName": "YAM",
  "abi": [
    {
      "anonymous": false,
      "inputs": [
        {
          "indexed": true,
          "internalType": "address",
          "name": "owner",
          "type": "address"
        },
        {
          "indexed": true,
          "internalType": "address",
          "name": "spender",
          "type": "address"
        },
        {
          "indexed": false,
          "internalType": "uint256",
          "name": "amount",
          "type": "uint256"
        }
      ],
      "name": "Approval",
      "type": "event"
    },
    {
      "anonymous": false,
      "inputs": [
        {
          "indexed": true,
          "internalType": "address",
          "name": "delegator",
          "type": "address"
        },
        {
          "indexed": true,
          "internalType": "address",
          "name": "fromDelegate",
          "type": "address"
        },
        {
          "indexed": true,
          "internalType": "address",
          "name": "toDelegate",
          "type": "address"
        }
      ],
      "name": "DelegateChanged",
      "type": "event"
    },
    {
      "anonymous": false,
      "inputs": [
        {
          "indexed": true,
          "internalType": "address",
          "name": "delegate",
          "type": "address"
        },
        {
          "indexed": false,
          "internalType": "uint256",
          "name": "previousBalance",
          "type": "uint256"
        },
        {
          "indexed": false,
          "internalType": "uint256",
          "name": "newBalance",
          "type": "uint256"
        }
      ],
      "name": "DelegateVotesChanged",
      "type": "event"
    },
    {
      "anonymous": false,
      "inputs": [
        {
          "indexed": false,
          "internalType": "address",
          "name": "to",
          "type": "address"
        },
        {
          "indexed": false,
          "internalType": "uint256",
          "name": "amount",
          "type": "uint256"
        }
      ],
      "name": "Mint",
      "type": "event"
    },
    {
      "anonymous": false,
      "inputs": [
        {
          "indexed": false,
          "internalType": "address",
          "name": "oldGov",
          "type": "address"
        },
        {
          "indexed": false,
          "internalType": "address",
          "name": "newGov",
          "type": "address"
        }
      ],
      "name": "NewGov",
      "type": "event"
    },
    {
      "anonymous": false,
      "inputs": [
        {
          "indexed": false,
          "internalType": "address",
          "name": "oldIncentivizer",
          "type": "address"
        },
        {
          "indexed": false,
          "internalType": "address",
          "name": "newIncentivizer",
          "type": "address"
        }
      ],
      "name": "NewIncentivizer",
      "type": "event"
    },
    {
      "anonymous": false,
      "inputs": [
        {
          "indexed": false,
          "internalType": "address",
          "name": "oldPendingGov",
          "type": "address"
        },
        {
          "indexed": false,
          "internalType": "address",
          "name": "newPendingGov",
          "type": "address"
        }
      ],
      "name": "NewPendingGov",
      "type": "event"
    },
    {
      "anonymous": false,
      "inputs": [
        {
          "indexed": false,
          "internalType": "address",
          "name": "oldRebaser",
          "type": "address"
        },
        {
          "indexed": false,
          "internalType": "address",
          "name": "newRebaser",
          "type": "address"
        }
      ],
      "name": "NewRebaser",
      "type": "event"
    },
    {
      "anonymous": false,
      "inputs": [
        {
          "indexed": false,
          "internalType": "uint256",
          "name": "epoch",
          "type": "uint256"
        },
        {
          "indexed": false,
          "internalType": "uint256",
          "name": "prevYamsScalingFactor",
          "type": "uint256"
        },
        {
          "indexed": false,
          "internalType": "uint256",
          "name": "newYamsScalingFactor",
          "type": "uint256"
        }
      ],
      "name": "Rebase",
      "type": "event"
    },
    {
      "anonymous": false,
      "inputs": [
        {
          "indexed": true,
          "internalType": "address",
          "name": "from",
          "type": "address"
        },
        {
          "indexed": true,
          "internalType": "address",
          "name": "to",
          "type": "address"
        },
        {
          "indexed": false,
          "internalType": "uint256",
          "name": "amount",
          "type": "uint256"
        }
      ],
      "name": "Transfer",
      "type": "event"
    },
    {
      "constant": true,
      "inputs": [],
      "name": "BASE",
      "outputs": [
        {
          "internalType": "uint256",
          "name": "",
          "type": "uint256"
        }
      ],
      "payable": false,
      "stateMutability": "view",
      "type": "function"
    },
    {
      "constant": true,
      "inputs": [],
      "name": "DELEGATION_TYPEHASH",
      "outputs": [
        {
          "internalType": "bytes32",
          "name": "",
          "type": "bytes32"
        }
      ],
      "payable": false,
      "stateMutability": "view",
      "type": "function"
    },
    {
      "constant": true,
      "inputs": [],
      "name": "DOMAIN_TYPEHASH",
      "outputs": [
        {
          "internalType": "bytes32",
          "name": "",
          "type": "bytes32"
        }
      ],
      "payable": false,
      "stateMutability": "view",
      "type": "function"
    },
    {
      "constant": false,
      "inputs": [],
      "name": "_acceptGov",
      "outputs": [],
      "payable": false,
      "stateMutability": "nonpayable",
      "type": "function"
    },
    {
      "constant": false,
      "inputs": [
        {
          "internalType": "address",
          "name": "incentivizer_",
          "type": "address"
        }
      ],
      "name": "_setIncentivizer",
      "outputs": [],
      "payable": false,
      "stateMutability": "nonpayable",
      "type": "function"
    },
    {
      "constant": false,
      "inputs": [
        {
          "internalType": "address",
          "name": "pendingGov_",
          "type": "address"
        }
      ],
      "name": "_setPendingGov",
      "outputs": [],
      "payable": false,
      "stateMutability": "nonpayable",
      "type": "function"
    },
    {
      "constant": false,
      "inputs": [
        {
          "internalType": "address",
          "name": "rebaser_",
          "type": "address"
        }
      ],
      "name": "_setRebaser",
      "outputs": [],
      "payable": false,
      "stateMutability": "nonpayable",
      "type": "function"
    },
    {
      "constant": true,
      "inputs": [
        {
          "internalType": "address",
          "name": "owner_",
          "type": "address"
        },
        {
          "internalType": "address",
          "name": "spender",
          "type": "address"
        }
      ],
      "name": "allowance",
      "outputs": [
        {
          "internalType": "uint256",
          "name": "",
          "type": "uint256"
        }
      ],
      "payable": false,
      "stateMutability": "view",
      "type": "function"
    },
    {
      "constant": false,
      "inputs": [
        {
          "internalType": "address",
          "name": "spender",
          "type": "address"
        },
        {
          "internalType": "uint256",
          "name": "value",
          "type": "uint256"
        }
      ],
      "name": "approve",
      "outputs": [
        {
          "internalType": "bool",
          "name": "",
          "type": "bool"
        }
      ],
      "payable": false,
      "stateMutability": "nonpayable",
      "type": "function"
    },
    {
      "constant": true,
      "inputs": [
        {
          "internalType": "address",
          "name": "who",
          "type": "address"
        }
      ],
      "name": "balanceOf",
      "outputs": [
        {
          "internalType": "uint256",
          "name": "",
          "type": "uint256"
        }
      ],
      "payable": false,
      "stateMutability": "view",
      "type": "function"
    },
    {
      "constant": true,
      "inputs": [
        {
          "internalType": "address",
          "name": "who",
          "type": "address"
        }
      ],
      "name": "balanceOfUnderlying",
      "outputs": [
        {
          "internalType": "uint256",
          "name": "",
          "type": "uint256"
        }
      ],
      "payable": false,
      "stateMutability": "view",
      "type": "function"
    },
    {
      "constant": true,
      "inputs": [
        {
          "internalType": "address",
          "name": "",
          "type": "address"
        },
        {
          "internalType": "uint32",
          "name": "",
          "type": "uint32"
        }
      ],
      "name": "checkpoints",
      "outputs": [
        {
          "internalType": "uint32",
          "name": "fromBlock",
          "type": "uint32"
        },
        {
          "internalType": "uint256",
          "name": "votes",
          "type": "uint256"
        }
      ],
      "payable": false,
      "stateMutability": "view",
      "type": "function"
    },
    {
      "constant": true,
      "inputs": [],
      "name": "decimals",
      "outputs": [
        {
          "internalType": "uint8",
          "name": "",
          "type": "uint8"
        }
      ],
      "payable": false,
      "stateMutability": "view",
      "type": "function"
    },
    {
      "constant": false,
      "inputs": [
        {
          "internalType": "address",
          "name": "spender",
          "type": "address"
        },
        {
          "internalType": "uint256",
          "name": "subtractedValue",
          "type": "uint256"
        }
      ],
      "name": "decreaseAllowance",
      "outputs": [
        {
          "internalType": "bool",
          "name": "",
          "type": "bool"
        }
      ],
      "payable": false,
      "stateMutability": "nonpayable",
      "type": "function"
    },
    {
      "constant": false,
      "inputs": [
        {
          "internalType": "address",
          "name": "delegatee",
          "type": "address"
        }
      ],
      "name": "delegate",
      "outputs": [],
      "payable": false,
      "stateMutability": "nonpayable",
      "type": "function"
    },
    {
      "constant": false,
      "inputs": [
        {
          "internalType": "address",
          "name": "delegatee",
          "type": "address"
        },
        {
          "internalType": "uint256",
          "name": "nonce",
          "type": "uint256"
        },
        {
          "internalType": "uint256",
          "name": "expiry",
          "type": "uint256"
        },
        {
          "internalType": "uint8",
          "name": "v",
          "type": "uint8"
        },
        {
          "internalType": "bytes32",
          "name": "r",
          "type": "bytes32"
        },
        {
          "internalType": "bytes32",
          "name": "s",
          "type": "bytes32"
        }
      ],
      "name": "delegateBySig",
      "outputs": [],
      "payable": false,
      "stateMutability": "nonpayable",
      "type": "function"
    },
    {
      "constant": true,
      "inputs": [
        {
          "internalType": "address",
          "name": "delegator",
          "type": "address"
        }
      ],
      "name": "delegates",
      "outputs": [
        {
          "internalType": "address",
          "name": "",
          "type": "address"
        }
      ],
      "payable": false,
      "stateMutability": "view",
      "type": "function"
    },
    {
      "constant": true,
      "inputs": [
        {
          "internalType": "address",
          "name": "account",
          "type": "address"
        }
      ],
      "name": "getCurrentVotes",
      "outputs": [
        {
          "internalType": "uint256",
          "name": "",
          "type": "uint256"
        }
      ],
      "payable": false,
      "stateMutability": "view",
      "type": "function"
    },
    {
      "constant": true,
      "inputs": [
        {
          "internalType": "address",
          "name": "account",
          "type": "address"
        },
        {
          "internalType": "uint256",
          "name": "blockNumber",
          "type": "uint256"
        }
      ],
      "name": "getPriorVotes",
      "outputs": [
        {
          "internalType": "uint256",
          "name": "",
          "type": "uint256"
        }
      ],
      "payable": false,
      "stateMutability": "view",
      "type": "function"
    },
    {
      "constant": true,
      "inputs": [],
      "name": "gov",
      "outputs": [
        {
          "internalType": "address",
          "name": "",
          "type": "address"
        }
      ],
      "payable": false,
      "stateMutability": "view",
      "type": "function"
    },
    {
      "constant": true,
      "inputs": [],
      "name": "incentivizer",
      "outputs": [
        {
          "internalType": "address",
          "name": "",
          "type": "address"
        }
      ],
      "payable": false,
      "stateMutability": "view",
      "type": "function"
    },
    {
      "constant": false,
      "inputs": [
        {
          "internalType": "address",
          "name": "spender",
          "type": "address"
        },
        {
          "internalType": "uint256",
          "name": "addedValue",
          "type": "uint256"
        }
      ],
      "name": "increaseAllowance",
      "outputs": [
        {
          "internalType": "bool",
          "name": "",
          "type": "bool"
        }
      ],
      "payable": false,
      "stateMutability": "nonpayable",
      "type": "function"
    },
    {
      "constant": true,
      "inputs": [],
      "name": "initSupply",
      "outputs": [
        {
          "internalType": "uint256",
          "name": "",
          "type": "uint256"
        }
      ],
      "payable": false,
      "stateMutability": "view",
      "type": "function"
    },
    {
      "constant": true,
      "inputs": [],
      "name": "internalDecimals",
      "outputs": [
        {
          "internalType": "uint256",
          "name": "",
          "type": "uint256"
        }
      ],
      "payable": false,
      "stateMutability": "view",
      "type": "function"
    },
    {
      "constant": true,
      "inputs": [],
      "name": "maxScalingFactor",
      "outputs": [
        {
          "internalType": "uint256",
          "name": "",
          "type": "uint256"
        }
      ],
      "payable": false,
      "stateMutability": "view",
      "type": "function"
    },
    {
      "constant": false,
      "inputs": [
        {
          "internalType": "address",
          "name": "to",
          "type": "address"
        },
        {
          "internalType": "uint256",
          "name": "amount",
          "type": "uint256"
        }
      ],
      "name": "mint",
      "outputs": [],
      "payable": false,
      "stateMutability": "nonpayable",
      "type": "function"
    },
    {
      "constant": true,
      "inputs": [],
      "name": "name",
      "outputs": [
        {
          "internalType": "string",
          "name": "",
          "type": "string"
        }
      ],
      "payable": false,
      "stateMutability": "view",
      "type": "function"
    },
    {
      "constant": true,
      "inputs": [
        {
          "internalType": "address",
          "name": "",
          "type": "address"
        }
      ],
      "name": "nonces",
      "outputs": [
        {
          "internalType": "uint256",
          "name": "",
          "type": "uint256"
        }
      ],
      "payable": false,
      "stateMutability": "view",
      "type": "function"
    },
    {
      "constant": true,
      "inputs": [
        {
          "internalType": "address",
          "name": "",
          "type": "address"
        }
      ],
      "name": "numCheckpoints",
      "outputs": [
        {
          "internalType": "uint32",
          "name": "",
          "type": "uint32"
        }
      ],
      "payable": false,
      "stateMutability": "view",
      "type": "function"
    },
    {
      "constant": true,
      "inputs": [],
      "name": "pendingGov",
      "outputs": [
        {
          "internalType": "address",
          "name": "",
          "type": "address"
        }
      ],
      "payable": false,
      "stateMutability": "view",
      "type": "function"
    },
    {
      "constant": false,
      "inputs": [
        {
          "internalType": "uint256",
          "name": "epoch",
          "type": "uint256"
        },
        {
          "internalType": "uint256",
          "name": "indexDelta",
          "type": "uint256"
        },
        {
          "internalType": "bool",
          "name": "positive",
          "type": "bool"
        }
      ],
      "name": "rebase",
      "outputs": [
        {
          "internalType": "uint256",
          "name": "",
          "type": "uint256"
        }
      ],
      "payable": false,
      "stateMutability": "nonpayable",
      "type": "function"
    },
    {
      "constant": true,
      "inputs": [],
      "name": "rebaser",
      "outputs": [
        {
          "internalType": "address",
          "name": "",
          "type": "address"
        }
      ],
      "payable": false,
      "stateMutability": "view",
      "type": "function"
    },
    {
      "constant": true,
      "inputs": [],
      "name": "symbol",
      "outputs": [
        {
          "internalType": "string",
          "name": "",
          "type": "string"
        }
      ],
      "payable": false,
      "stateMutability": "view",
      "type": "function"
    },
    {
      "constant": true,
      "inputs": [],
      "name": "totalSupply",
      "outputs": [
        {
          "internalType": "uint256",
          "name": "",
          "type": "uint256"
        }
      ],
      "payable": false,
      "stateMutability": "view",
      "type": "function"
    },
    {
      "constant": false,
      "inputs": [
        {
          "internalType": "address",
          "name": "to",
          "type": "address"
        },
        {
          "internalType": "uint256",
          "name": "value",
          "type": "uint256"
        }
      ],
      "name": "transfer",
      "outputs": [
        {
          "internalType": "bool",
          "name": "",
          "type": "bool"
        }
      ],
      "payable": false,
      "stateMutability": "nonpayable",
      "type": "function"
    },
    {
      "constant": false,
      "inputs": [
        {
          "internalType": "address",
          "name": "from",
          "type": "address"
        },
        {
          "internalType": "address",
          "name": "to",
          "type": "address"
        },
        {
          "internalType": "uint256",
          "name": "value",
          "type": "uint256"
        }
      ],
      "name": "transferFrom",
      "outputs": [
        {
          "internalType": "bool",
          "name": "",
          "type": "bool"
        }
      ],
      "payable": false,
      "stateMutability": "nonpayable",
      "type": "function"
    },
    {
      "constant": true,
      "inputs": [],
      "name": "yamsScalingFactor",
      "outputs": [
        {
          "internalType": "uint256",
          "name": "",
          "type": "uint256"
        }
      ],
      "payable": false,
      "stateMutability": "view",
      "type": "function"
    },
    {
      "constant": false,
      "inputs": [
        {
          "internalType": "string",
          "name": "name_",
          "type": "string"
        },
        {
          "internalType": "string",
          "name": "symbol_",
          "type": "string"
        },
        {
          "internalType": "uint8",
          "name": "decimals_",
          "type": "uint8"
        }
      ],
      "name": "initialize",
      "outputs": [],
      "payable": false,
      "stateMutability": "nonpayable",
      "type": "function"
    },
    {
      "constant": false,
      "inputs": [
        {
          "internalType": "string",
          "name": "name_",
          "type": "string"
        },
        {
          "internalType": "string",
          "name": "symbol_",
          "type": "string"
        },
        {
          "internalType": "uint8",
          "name": "decimals_",
          "type": "uint8"
        },
        {
          "internalType": "address",
          "name": "initial_owner",
          "type": "address"
        },
        {
          "internalType": "uint256",
          "name": "initSupply_",
          "type": "uint256"
        }
      ],
      "name": "initialize",
      "outputs": [],
      "payable": false,
      "stateMutability": "nonpayable",
      "type": "function"
    }
  ],
  "bytecode": "0x608060405234801561001057600080fd5b50612df7806100206000396000f3fe608060405234801561001057600080fd5b50600436106102ad5760003560e01c80636fc6407c1161017b578063a457c2d7116100d8578063dd62ed3e1161008c578063ec342ad011610071578063ec342ad014610a8d578063f1127ed814610a95578063fa8f345514610af4576102ad565b8063dd62ed3e14610a4a578063e7a324dc14610a85576102ad565b8063b4b5ea57116100bd578063b4b5ea57146109bb578063b6fa8576146109ee578063c3cda520146109f6576102ad565b8063a457c2d714610949578063a9059cbb14610982576102ad565b80637af548c11161012f57806395d89b411161011457806395d89b411461090657806397d63f931461090e57806398dca21014610916576102ad565b80637af548c1146108a85780637ecebe00146108d3576102ad565b806370a082311161016057806370a08231146105b557806373f03dff1461083c578063782d6fe11461086f576102ad565b80636fc6407c146107e85780636fcfff45146107f0576102ad565b806325240810116102295780634bda2e20116101dd5780635c19a95c116101c25780635c19a95c1461065c57806364dd48f51461068f5780636c94522114610697576102ad565b80634bda2e2014610621578063587cde1e14610629576102ad565b8063395093511161020e578063395093511461057c5780633af9e669146105b557806340c10f19146105e8576102ad565b80632524081014610556578063313ce5671461055e576102ad565b806312d43a511161028057806318160ddd1161026557806318160ddd1461050357806320606b701461050b57806323b872dd14610513576102ad565b806312d43a51146103c75780631624f6c6146103cf576102ad565b806306fdde03146102b2578063095ea7b31461032f57806311d3e6c41461037c57806311fd8a8314610396575b600080fd5b6102ba610b27565b6040805160208082528351818301528351919283929083019185019080838360005b838110156102f45781810151838201526020016102dc565b50505050905090810190601f1680156103215780820380516001836020036101000a031916815260200191505b509250505060405180910390f35b6103686004803603604081101561034557600080fd5b5073ffffffffffffffffffffffffffffffffffffffff8135169060200135610bd2565b604080519115158252519081900360200190f35b610384610c46565b60408051918252519081900360200190f35b61039e610c56565b6040805173ffffffffffffffffffffffffffffffffffffffff9092168252519081900360200190f35b61039e610c72565b610501600480360360608110156103e557600080fd5b81019060208101813564010000000081111561040057600080fd5b82018360208201111561041257600080fd5b8035906020019184600183028401116401000000008311171561043457600080fd5b91908080601f016020809104026020016040519081016040528093929190818152602001838380828437600092019190915250929594936020810193503591505064010000000081111561048757600080fd5b82018360208201111561049957600080fd5b803590602001918460018302840111640100000000831117156104bb57600080fd5b91908080601f0160208091040260200160405190810160405280939291908181526020018383808284376000920191909152509295505050903560ff169150610c939050565b005b610384610d60565b610384610d66565b6103686004803603606081101561052957600080fd5b5073ffffffffffffffffffffffffffffffffffffffff813581169160208101359091169060400135610d81565b61039e610f93565b610566610faf565b6040805160ff9092168252519081900360200190f35b6103686004803603604081101561059257600080fd5b5073ffffffffffffffffffffffffffffffffffffffff8135169060200135610fb8565b610384600480360360208110156105cb57600080fd5b503573ffffffffffffffffffffffffffffffffffffffff1661106b565b610501600480360360408110156105fe57600080fd5b5073ffffffffffffffffffffffffffffffffffffffff81351690602001356110b6565b61050161116c565b61039e6004803603602081101561063f57600080fd5b503573ffffffffffffffffffffffffffffffffffffffff166112af565b6105016004803603602081101561067257600080fd5b503573ffffffffffffffffffffffffffffffffffffffff166112da565b6103846112e7565b610501600480360360a08110156106ad57600080fd5b8101906020810181356401000000008111156106c857600080fd5b8201836020820111156106da57600080fd5b803590602001918460018302840111640100000000831117156106fc57600080fd5b91908080601f016020809104026020016040519081016040528093929190818152602001838380828437600092019190915250929594936020810193503591505064010000000081111561074f57600080fd5b82018360208201111561076157600080fd5b8035906020019184600183028401116401000000008311171561078357600080fd5b91908080601f0160208091040260200160405190810160405280939291908181526020018383808284376000920191909152509295505050813560ff16925050602081013573ffffffffffffffffffffffffffffffffffffffff1690604001356112f5565b61039e6113f0565b6108236004803603602081101561080657600080fd5b503573ffffffffffffffffffffffffffffffffffffffff1661140c565b6040805163ffffffff9092168252519081900360200190f35b6105016004803603602081101561085257600080fd5b503573ffffffffffffffffffffffffffffffffffffffff16611424565b6103846004803603604081101561088557600080fd5b5073ffffffffffffffffffffffffffffffffffffffff81351690602001356114d5565b610384600480360360608110156108be57600080fd5b5080359060208101359060400135151561179f565b610384600480360360208110156108e957600080fd5b503573ffffffffffffffffffffffffffffffffffffffff16611907565b6102ba611919565b61038461198f565b6105016004803603602081101561092c57600080fd5b503573ffffffffffffffffffffffffffffffffffffffff16611995565b6103686004803603604081101561095f57600080fd5b5073ffffffffffffffffffffffffffffffffffffffff8135169060200135611a46565b6103686004803603604081101561099857600080fd5b5073ffffffffffffffffffffffffffffffffffffffff8135169060200135611b69565b610384600480360360208110156109d157600080fd5b503573ffffffffffffffffffffffffffffffffffffffff16611ce0565b610384611d7b565b610501600480360360c0811015610a0c57600080fd5b5073ffffffffffffffffffffffffffffffffffffffff8135169060208101359060408101359060ff6060820135169060808101359060a00135611d81565b61038460048036036040811015610a6057600080fd5b5073ffffffffffffffffffffffffffffffffffffffff81358116916020013516612138565b610384612170565b61038461218b565b610ad460048036036040811015610aab57600080fd5b50803573ffffffffffffffffffffffffffffffffffffffff16906020013563ffffffff16612197565b6040805163ffffffff909316835260208301919091528051918290030190f35b61050160048036036020811015610b0a57600080fd5b503573ffffffffffffffffffffffffffffffffffffffff166121c4565b60018054604080516020600284861615610100027fffffffffffffffffffffffffffffffffffffffffffffffffffffffffffffffff0190941693909304601f81018490048402820184019092528181529291830182828015610bca5780601f10610b9f57610100808354040283529160200191610bca565b820191906000526020600020905b815481529060010190602001808311610bad57829003601f168201915b505050505081565b336000818152600a6020908152604080832073ffffffffffffffffffffffffffffffffffffffff8716808552908352818420869055815186815291519394909390927f8c5be1e5ebec7d5bd14f71427d1e84f3dd0314c0f7b2291e5b200ac8c7c3b925928290030190a35060015b92915050565b6000610c50612275565b90505b90565b60055473ffffffffffffffffffffffffffffffffffffffff1681565b600354610100900473ffffffffffffffffffffffffffffffffffffffff1681565b60085415610d0257604080517f08c379a000000000000000000000000000000000000000000000000000000000815260206004820152601360248201527f616c726561647920696e697469616c697a656400000000000000000000000000604482015290519081900360640190fd5b8251610d15906001906020860190612bb1565b508151610d29906002906020850190612bb1565b50600380547fffffffffffffffffffffffffffffffffffffffffffffffffffffffffffffff001660ff929092169190911790555050565b60075481565b604051806043612ccd82396043019050604051809103902081565b60008273ffffffffffffffffffffffffffffffffffffffff8116610da457600080fd5b73ffffffffffffffffffffffffffffffffffffffff8116301415610dc757600080fd5b73ffffffffffffffffffffffffffffffffffffffff85166000908152600a60209081526040808320338452909152902054610e08908463ffffffff6122a816565b73ffffffffffffffffffffffffffffffffffffffff86166000908152600a60209081526040808320338452909152812091909155600854610e6990610e5d8669d3c21bcecceda100000063ffffffff6122ea16565b9063ffffffff61235d16565b73ffffffffffffffffffffffffffffffffffffffff8716600090815260096020526040902054909150610ea2908263ffffffff6122a816565b73ffffffffffffffffffffffffffffffffffffffff8088166000908152600960205260408082209390935590871681522054610ee4908263ffffffff61239f16565b73ffffffffffffffffffffffffffffffffffffffff80871660008181526009602090815260409182902094909455805188815290519193928a16927fddf252ad1be2c89b69c2b068fc378daa952ba7f163c4a11628f55a4df523b3ef92918290030190a373ffffffffffffffffffffffffffffffffffffffff8087166000908152600c6020526040808220548884168352912054610f8792918216911683612413565b50600195945050505050565b60045473ffffffffffffffffffffffffffffffffffffffff1681565b60035460ff1681565b336000908152600a6020908152604080832073ffffffffffffffffffffffffffffffffffffffff86168452909152812054610ff9908363ffffffff61239f16565b336000818152600a6020908152604080832073ffffffffffffffffffffffffffffffffffffffff89168085529083529281902085905580519485525191937f8c5be1e5ebec7d5bd14f71427d1e84f3dd0314c0f7b2291e5b200ac8c7c3b925929081900390910190a350600192915050565b60085473ffffffffffffffffffffffffffffffffffffffff82166000908152600960205260408120549091610c409169d3c21bcecceda100000091610e5d919063ffffffff6122ea16565b60055473ffffffffffffffffffffffffffffffffffffffff163314806110f3575060065473ffffffffffffffffffffffffffffffffffffffff1633145b61115e57604080517f08c379a000000000000000000000000000000000000000000000000000000000815260206004820152600a60248201527f6e6f74206d696e74657200000000000000000000000000000000000000000000604482015290519081900360640190fd5b6111688282612605565b5050565b60045473ffffffffffffffffffffffffffffffffffffffff1633146111f257604080517f08c379a000000000000000000000000000000000000000000000000000000000815260206004820152600860248201527f2170656e64696e67000000000000000000000000000000000000000000000000604482015290519081900360640190fd5b600380546004805473ffffffffffffffffffffffffffffffffffffffff8181166101009081027fffffffffffffffffffffff0000000000000000000000000000000000000000ff861617958690557fffffffffffffffffffffffff000000000000000000000000000000000000000090921690925560408051938290048316808552919094049091166020830152825190927f1f14cfc03e486d23acee577b07bc0b3b23f4888c91fcdba5e0fef5a2549d5523928290030190a150565b73ffffffffffffffffffffffffffffffffffffffff9081166000908152600c60205260409020541690565b6112e43382612770565b50565b69d3c21bcecceda100000081565b6000811161136457604080517f08c379a000000000000000000000000000000000000000000000000000000000815260206004820152600d60248201527f3020696e697420737570706c7900000000000000000000000000000000000000604482015290519081900360640190fd5b61136f858585610c93565b611396670de0b6b3a764000069d3c21bcecceda10000005b8391900463ffffffff6122ea16565b600b556007819055670de0b6b3a764000060088190556113c09069d3c21bcecceda1000000611387565b73ffffffffffffffffffffffffffffffffffffffff90921660009081526009602052604090209190915550505050565b60065473ffffffffffffffffffffffffffffffffffffffff1681565b600e6020526000908152604090205463ffffffff1681565b600354610100900473ffffffffffffffffffffffffffffffffffffffff16331461144d57600080fd5b6004805473ffffffffffffffffffffffffffffffffffffffff8381167fffffffffffffffffffffffff0000000000000000000000000000000000000000831681179093556040805191909216808252602082019390935281517f6163d5b9efd962645dd649e6e48a61bcb0f9df00997a2398b80d135a9ab0c61e929181900390910190a15050565b600043821061152f576040517f08c379a0000000000000000000000000000000000000000000000000000000008152600401808060200182810382526026815260200180612ca76026913960400191505060405180910390fd5b73ffffffffffffffffffffffffffffffffffffffff83166000908152600e602052604090205463ffffffff168061156a576000915050610c40565b73ffffffffffffffffffffffffffffffffffffffff84166000908152600d6020908152604080832063ffffffff7fffffffffffffffffffffffffffffffffffffffffffffffffffffffffffffffff86018116855292529091205416831061162f5773ffffffffffffffffffffffffffffffffffffffff84166000908152600d602090815260408083207fffffffffffffffffffffffffffffffffffffffffffffffffffffffffffffffff9490940163ffffffff16835292905220600101549050610c40565b73ffffffffffffffffffffffffffffffffffffffff84166000908152600d6020908152604080832083805290915290205463ffffffff16831015611677576000915050610c40565b60007fffffffffffffffffffffffffffffffffffffffffffffffffffffffffffffffff82015b8163ffffffff168163ffffffff16111561175b57600282820363ffffffff160481036116c7612c2f565b5073ffffffffffffffffffffffffffffffffffffffff87166000908152600d6020908152604080832063ffffffff80861685529083529281902081518083019092528054909316808252600190930154918101919091529087141561173657602001519450610c409350505050565b805163ffffffff1687111561174d57819350611754565b6001820392505b505061169d565b5073ffffffffffffffffffffffffffffffffffffffff85166000908152600d6020908152604080832063ffffffff9094168352929052206001015491505092915050565b60055460009073ffffffffffffffffffffffffffffffffffffffff1633146117c657600080fd5b8261181757600854604080518681526020810183905280820192909252517fc6642d24d84e7f3d36ca39f5cce10e75639d9b158d5193aa350e2f900653e4c09181900360600190a150600754611900565b600854826118555761184d670de0b6b3a7640000610e5d61183e828863ffffffff6122a816565b6008549063ffffffff6122ea16565b60085561189f565b6000611876670de0b6b3a7640000610e5d61183e828963ffffffff61239f16565b9050611880612275565b81101561189157600881905561189d565b611899612275565b6008555b505b600854600b546118b49163ffffffff6122ea16565b600755600854604080518781526020810184905280820192909252517fc6642d24d84e7f3d36ca39f5cce10e75639d9b158d5193aa350e2f900653e4c09181900360600190a150506007545b9392505050565b600f6020526000908152604090205481565b600280546040805160206001841615610100027fffffffffffffffffffffffffffffffffffffffffffffffffffffffffffffffff01909316849004601f81018490048402820184019092528181529291830182828015610bca5780601f10610b9f57610100808354040283529160200191610bca565b600b5481565b600354610100900473ffffffffffffffffffffffffffffffffffffffff1633146119be57600080fd5b6006805473ffffffffffffffffffffffffffffffffffffffff8381167fffffffffffffffffffffffff0000000000000000000000000000000000000000831681179093556040805191909216808252602082019390935281517f2ee668ca7d17a9122dc00c0bfd73b684f2f7d681f17733cc02b294f69f1b3896929181900390910190a15050565b336000908152600a6020908152604080832073ffffffffffffffffffffffffffffffffffffffff86168452909152812054808310611ab457336000908152600a6020908152604080832073ffffffffffffffffffffffffffffffffffffffff88168452909152812055611af6565b611ac4818463ffffffff6122a816565b336000908152600a6020908152604080832073ffffffffffffffffffffffffffffffffffffffff891684529091529020555b336000818152600a6020908152604080832073ffffffffffffffffffffffffffffffffffffffff89168085529083529281902054815190815290519293927f8c5be1e5ebec7d5bd14f71427d1e84f3dd0314c0f7b2291e5b200ac8c7c3b925929181900390910190a35060019392505050565b60008273ffffffffffffffffffffffffffffffffffffffff8116611b8c57600080fd5b73ffffffffffffffffffffffffffffffffffffffff8116301415611baf57600080fd5b600854600090611bd390610e5d8669d3c21bcecceda100000063ffffffff6122ea16565b33600090815260096020526040902054909150611bf6908263ffffffff6122a816565b336000908152600960205260408082209290925573ffffffffffffffffffffffffffffffffffffffff871681522054611c35908263ffffffff61239f16565b73ffffffffffffffffffffffffffffffffffffffff86166000818152600960209081526040918290209390935580518781529051919233927fddf252ad1be2c89b69c2b068fc378daa952ba7f163c4a11628f55a4df523b3ef9281900390910190a3336000908152600c60205260408082205473ffffffffffffffffffffffffffffffffffffffff88811684529190922054611cd5928216911683612413565b506001949350505050565b73ffffffffffffffffffffffffffffffffffffffff81166000908152600e602052604081205463ffffffff1680611d18576000611900565b73ffffffffffffffffffffffffffffffffffffffff83166000908152600d6020908152604080832063ffffffff7fffffffffffffffffffffffffffffffffffffffffffffffffffffffffffffffff86011684529091529020600101549392505050565b60085481565b60006040518080612ccd604391396043019050604051809103902060016040518082805460018160011615610100020316600290048015611df95780601f10611dd7576101008083540402835291820191611df9565b820191906000526020600020905b815481529060010190602001808311611de5575b50509150506040518091039020611e0e612815565b30604051602001808581526020018481526020018381526020018273ffffffffffffffffffffffffffffffffffffffff1673ffffffffffffffffffffffffffffffffffffffff16815260200194505050505060405160208183030381529060405280519060200120905060006040518080612d89603a91396040805191829003603a01822060208084019190915273ffffffffffffffffffffffffffffffffffffffff8c1683830152606083018b905260808084018b90528251808503909101815260a0840183528051908201207f190100000000000000000000000000000000000000000000000000000000000060c085015260c2840187905260e2808501829052835180860390910181526101028501808552815191840191909120600091829052610122860180865281905260ff8c1661014287015261016286018b905261018286018a9052935191965092945091926001926101a280830193927fffffffffffffffffffffffffffffffffffffffffffffffffffffffffffffffe08301929081900390910190855afa158015611fac573d6000803e3d6000fd5b50506040517fffffffffffffffffffffffffffffffffffffffffffffffffffffffffffffffe0015191505073ffffffffffffffffffffffffffffffffffffffff8116612043576040517f08c379a0000000000000000000000000000000000000000000000000000000008152600401808060200182810382526025815260200180612c826025913960400191505060405180910390fd5b73ffffffffffffffffffffffffffffffffffffffff81166000908152600f6020526040902080546001810190915589146120c8576040517f08c379a0000000000000000000000000000000000000000000000000000000008152600401808060200182810382526021815260200180612c616021913960400191505060405180910390fd5b87421115612121576040517f08c379a0000000000000000000000000000000000000000000000000000000008152600401808060200182810382526025815260200180612d316025913960400191505060405180910390fd5b61212b818b612770565b505050505b505050505050565b73ffffffffffffffffffffffffffffffffffffffff9182166000908152600a6020908152604080832093909416825291909152205490565b60405180603a612d898239603a019050604051809103902081565b670de0b6b3a764000081565b600d6020908152600092835260408084209091529082529020805460019091015463ffffffff9091169082565b600354610100900473ffffffffffffffffffffffffffffffffffffffff1633146121ed57600080fd5b6005805473ffffffffffffffffffffffffffffffffffffffff8381167fffffffffffffffffffffffff0000000000000000000000000000000000000000831681179093556040805191909216808252602082019390935281517f51f448520e2183de499e224808a409ee01a1f380edb2e8497572320c15030545929181900390910190a15050565b6000600b547fffffffffffffffffffffffffffffffffffffffffffffffffffffffffffffffff816122a257fe5b04905090565b600061190083836040518060400160405280601e81526020017f536166654d6174683a207375627472616374696f6e206f766572666c6f770000815250612819565b6000826122f957506000610c40565b8282028284828161230657fe5b0414611900576040517f08c379a0000000000000000000000000000000000000000000000000000000008152600401808060200182810382526021815260200180612d106021913960400191505060405180910390fd5b600061190083836040518060400160405280601a81526020017f536166654d6174683a206469766973696f6e206279207a65726f0000000000008152506128ca565b60008282018381101561190057604080517f08c379a000000000000000000000000000000000000000000000000000000000815260206004820152601b60248201527f536166654d6174683a206164646974696f6e206f766572666c6f770000000000604482015290519081900360640190fd5b8173ffffffffffffffffffffffffffffffffffffffff168373ffffffffffffffffffffffffffffffffffffffff161415801561244f5750600081115b156126005773ffffffffffffffffffffffffffffffffffffffff83161561252c5773ffffffffffffffffffffffffffffffffffffffff83166000908152600e602052604081205463ffffffff1690816124a9576000612506565b73ffffffffffffffffffffffffffffffffffffffff85166000908152600d6020908152604080832063ffffffff7fffffffffffffffffffffffffffffffffffffffffffffffffffffffffffffffff87011684529091529020600101545b9050600061251a828563ffffffff6122a816565b905061252886848484612949565b5050505b73ffffffffffffffffffffffffffffffffffffffff8216156126005773ffffffffffffffffffffffffffffffffffffffff82166000908152600e602052604081205463ffffffff1690816125815760006125de565b73ffffffffffffffffffffffffffffffffffffffff84166000908152600d6020908152604080832063ffffffff7fffffffffffffffffffffffffffffffffffffffffffffffffffffffffffffffff87011684529091529020600101545b905060006125f2828563ffffffff61239f16565b905061213085848484612949565b505050565b600754612618908263ffffffff61239f16565b60075560085460009061263f90610e5d8469d3c21bcecceda100000063ffffffff6122ea16565b600b54909150612655908263ffffffff61239f16565b600b55612660612275565b60085411156126d057604080517f08c379a000000000000000000000000000000000000000000000000000000000815260206004820152601760248201527f7363616c696e6720666163746f7220746f6f2068696768000000000000000000604482015290519081900360640190fd5b73ffffffffffffffffffffffffffffffffffffffff8316600090815260096020526040902054612706908263ffffffff61239f16565b73ffffffffffffffffffffffffffffffffffffffff841660008181526009602090815260409182902093909355805191825291810184905281517f0f6798a560793a54c3bcfe86a93cde1e73087d944c0ea20544137d4121396885929181900390910190a1505050565b73ffffffffffffffffffffffffffffffffffffffff8083166000818152600c6020818152604080842080546009845282862054949093528787167fffffffffffffffffffffffff00000000000000000000000000000000000000008416811790915590519190951694919391928592917f3134e8a2e6d97e929a7e54011ea5485d7d196dd5f0ba4d4ef95803e8e3fc257f9190a461280f828483612413565b50505050565b4690565b600081848411156128c2576040517f08c379a00000000000000000000000000000000000000000000000000000000081526004018080602001828103825283818151815260200191508051906020019080838360005b8381101561288757818101518382015260200161286f565b50505050905090810190601f1680156128b45780820380516001836020036101000a031916815260200191505b509250505060405180910390fd5b505050900390565b60008183612933576040517f08c379a000000000000000000000000000000000000000000000000000000000815260206004820181815283516024840152835190928392604490910191908501908083836000831561288757818101518382015260200161286f565b50600083858161293f57fe5b0495945050505050565b600061296d43604051806060016040528060338152602001612d5660339139612b39565b905060008463ffffffff161180156129e1575073ffffffffffffffffffffffffffffffffffffffff85166000908152600d6020908152604080832063ffffffff7fffffffffffffffffffffffffffffffffffffffffffffffffffffffffffffffff8901811685529252909120548282169116145b15612a495773ffffffffffffffffffffffffffffffffffffffff85166000908152600d6020908152604080832063ffffffff7fffffffffffffffffffffffffffffffffffffffffffffffffffffffffffffffff89011684529091529020600101829055612ae2565b60408051808201825263ffffffff8084168252602080830186815273ffffffffffffffffffffffffffffffffffffffff8a166000818152600d84528681208b861682528452868120955186549086167fffffffffffffffffffffffffffffffffffffffffffffffffffffffff000000009182161787559251600196870155908152600e9092529390208054928801909116919092161790555b6040805184815260208101849052815173ffffffffffffffffffffffffffffffffffffffff8816927fdec2bacdd2f05b59de34da9b523dff8be42e5e38e818c82fdb0bae774387a724928290030190a25050505050565b6000816401000000008410612ba9576040517f08c379a000000000000000000000000000000000000000000000000000000000815260206004820181815283516024840152835190928392604490910191908501908083836000831561288757818101518382015260200161286f565b509192915050565b828054600181600116156101000203166002900490600052602060002090601f016020900481019282601f10612bf257805160ff1916838001178555612c1f565b82800160010185558215612c1f579182015b82811115612c1f578251825591602001919060010190612c04565b50612c2b929150612c46565b5090565b604080518082019091526000808252602082015290565b610c5391905b80821115612c2b5760008155600101612c4c56fe59414d3a3a64656c656761746542795369673a20696e76616c6964206e6f6e636559414d3a3a64656c656761746542795369673a20696e76616c6964207369676e617475726559414d3a3a6765745072696f72566f7465733a206e6f74207965742064657465726d696e6564454950373132446f6d61696e28737472696e67206e616d652c75696e7432353620636861696e49642c6164647265737320766572696679696e67436f6e747261637429536166654d6174683a206d756c7469706c69636174696f6e206f766572666c6f7759414d3a3a64656c656761746542795369673a207369676e6174757265206578706972656459414d3a3a5f7772697465436865636b706f696e743a20626c6f636b206e756d6265722065786365656473203332206269747344656c65676174696f6e28616464726573732064656c6567617465652c75696e74323536206e6f6e63652c75696e743235362065787069727929a265627a7a72315820dc0160a4f0b6fb1346e51f2e52f9a8d274a372c6d6da4915981a7d2cbb33818664736f6c63430005110032",
  "source": "pragma solidity 0.5.17;\n\nimport \"./YAMTokenInterface.sol\";\n/* import \"./YAMGovernance.sol\"; */\n\ncontract YAMToken is YAMTokenInterface {\n    // Modifiers\n    modifier onlyGov() {\n        require(msg.sender == gov);\n        _;\n    }\n\n    modifier onlyRebaser() {\n        require(msg.sender == rebaser);\n        _;\n    }\n\n    modifier onlyMinter() {\n        require(msg.sender == rebaser || msg.sender == incentivizer, \"not minter\");\n        _;\n    }\n\n    modifier validRecipient(address to) {\n        require(to != address(0x0));\n        require(to != address(this));\n        _;\n    }\n\n    function initialize(\n        string memory name_,\n        string memory symbol_,\n        uint8 decimals_\n    )\n        public\n    {\n        require(yamsScalingFactor == 0, \"already initialized\");\n        name = name_;\n        symbol = symbol_;\n        decimals = decimals_;\n    }\n\n\n    /**\n    * @notice Computes the current max scaling factor\n    */\n    function maxScalingFactor()\n        external\n        view\n        returns (uint256)\n    {\n        return _maxScalingFactor();\n    }\n\n    function _maxScalingFactor()\n        internal\n        view\n        returns (uint256)\n    {\n        // scaling factor can only go up to 2**256-1 = initSupply * yamsScalingFactor\n        // this is used to check if yamsScalingFactor will be too high to compute balances when rebasing.\n        return uint256(-1) / initSupply;\n    }\n\n    /**\n    * @notice Mints new tokens, increasing totalSupply, initSupply, and a users balance.\n    */\n    function mint(address to, uint256 amount)\n        external\n        onlyMinter\n    {\n        _mint(to, amount);\n    }\n\n    function _mint(address to, uint256 amount)\n        internal\n    {\n      totalSupply = totalSupply.add(amount);\n      uint256 yamValue = amount.mul(internalDecimals).div(yamsScalingFactor);\n      initSupply = initSupply.add(yamValue);\n      require(yamsScalingFactor <= _maxScalingFactor(), \"scaling factor too high\");\n      _yamBalances[to] = _yamBalances[to].add(yamValue);\n      emit Mint(to, amount);\n    }\n\n    /* - ERC20 functionality - */\n\n    /**\n    * @dev Transfer tokens to a specified address.\n    * @param to The address to transfer to.\n    * @param value The amount to be transferred.\n    * @return True on success, false otherwise.\n    */\n    function transfer(address to, uint256 value)\n        external\n        validRecipient(to)\n        returns (bool)\n    {\n        // underlying balance is stored in yams, so divide by current scaling factor\n\n        // note, this means as scaling factor grows, dust will be untransferrable.\n        // minimum transfer value == yamsScalingFactor / 1e24;\n\n        // the tradeoff here is that as we decrease initial scaling factor,\n        // the more rounding errors we have elsewhere.\n        uint256 yamValue = value.mul(internalDecimals).div(yamsScalingFactor);\n        _yamBalances[msg.sender] = _yamBalances[msg.sender].sub(yamValue);\n        _yamBalances[to] = _yamBalances[to].add(yamValue);\n        emit Transfer(msg.sender, to, value);\n\n        _moveDelegates(_delegates[msg.sender], _delegates[to], yamValue);\n        return true;\n    }\n\n    /**\n    * @dev Transfer tokens from one address to another.\n    * @param from The address you want to send tokens from.\n    * @param to The address you want to transfer to.\n    * @param value The amount of tokens to be transferred.\n    */\n    function transferFrom(address from, address to, uint256 value)\n        external\n        validRecipient(to)\n        returns (bool)\n    {\n        _allowedFragments[from][msg.sender] = _allowedFragments[from][msg.sender].sub(value);\n\n        uint256 yamValue = value.mul(internalDecimals).div(yamsScalingFactor);\n        _yamBalances[from] = _yamBalances[from].sub(yamValue);\n        _yamBalances[to] = _yamBalances[to].add(yamValue);\n        emit Transfer(from, to, value);\n\n        _moveDelegates(_delegates[from], _delegates[to], yamValue);\n        return true;\n    }\n\n    /**\n    * @param who The address to query.\n    * @return The balance of the specified address.\n    */\n    function balanceOf(address who)\n      external\n      view\n      returns (uint256)\n    {\n      return _yamBalances[who].mul(yamsScalingFactor).div(internalDecimals);\n    }\n\n    /** @notice Currently unused and not different from balanceOf\n    * @param who The address to query.\n    * @return The balance of the specified address.\n    */\n    function balanceOfUnderlying(address who)\n      external\n      view\n      returns (uint256)\n    {\n      return _yamBalances[who].mul(yamsScalingFactor).div(internalDecimals);\n    }\n\n    /**\n     * @dev Function to check the amount of tokens that an owner has allowed to a spender.\n     * @param owner_ The address which owns the funds.\n     * @param spender The address which will spend the funds.\n     * @return The number of tokens still available for the spender.\n     */\n    function allowance(address owner_, address spender)\n        external\n        view\n        returns (uint256)\n    {\n        return _allowedFragments[owner_][spender];\n    }\n\n    /**\n     * @dev Approve the passed address to spend the specified amount of tokens on behalf of\n     * msg.sender. This method is included for ERC20 compatibility.\n     * increaseAllowance and decreaseAllowance should be used instead.\n     * Changing an allowance with this method brings the risk that someone may transfer both\n     * the old and the new allowance - if they are both greater than zero - if a transfer\n     * transaction is mined before the later approve() call is mined.\n     *\n     * @param spender The address which will spend the funds.\n     * @param value The amount of tokens to be spent.\n     */\n    function approve(address spender, uint256 value)\n        external\n        returns (bool)\n    {\n        _allowedFragments[msg.sender][spender] = value;\n        emit Approval(msg.sender, spender, value);\n        return true;\n    }\n\n    /**\n     * @dev Increase the amount of tokens that an owner has allowed to a spender.\n     * This method should be used instead of approve() to avoid the double approval vulnerability\n     * described above.\n     * @param spender The address which will spend the funds.\n     * @param addedValue The amount of tokens to increase the allowance by.\n     */\n    function increaseAllowance(address spender, uint256 addedValue)\n        external\n        returns (bool)\n    {\n        _allowedFragments[msg.sender][spender] =\n            _allowedFragments[msg.sender][spender].add(addedValue);\n        emit Approval(msg.sender, spender, _allowedFragments[msg.sender][spender]);\n        return true;\n    }\n\n    /**\n     * @dev Decrease the amount of tokens that an owner has allowed to a spender.\n     *\n     * @param spender The address which will spend the funds.\n     * @param subtractedValue The amount of tokens to decrease the allowance by.\n     */\n    function decreaseAllowance(address spender, uint256 subtractedValue)\n        external\n        returns (bool)\n    {\n        uint256 oldValue = _allowedFragments[msg.sender][spender];\n        if (subtractedValue >= oldValue) {\n            _allowedFragments[msg.sender][spender] = 0;\n        } else {\n            _allowedFragments[msg.sender][spender] = oldValue.sub(subtractedValue);\n        }\n        emit Approval(msg.sender, spender, _allowedFragments[msg.sender][spender]);\n        return true;\n    }\n\n    /* - Governance Functions - */\n\n    /** @notice sets the rebaser\n     * @param rebaser_ The address of the rebaser contract to use for authentication.\n     */\n    function _setRebaser(address rebaser_)\n        external\n        onlyGov\n    {\n        address oldRebaser = rebaser;\n        rebaser = rebaser_;\n        emit NewRebaser(oldRebaser, rebaser_);\n    }\n\n    /** @notice sets the incentivizer\n     * @param incentivizer_ The address of the rebaser contract to use for authentication.\n     */\n    function _setIncentivizer(address incentivizer_)\n        external\n        onlyGov\n    {\n        address oldIncentivizer = incentivizer;\n        incentivizer = incentivizer_;\n        emit NewIncentivizer(oldIncentivizer, incentivizer_);\n    }\n\n    /** @notice sets the pendingGov\n     * @param pendingGov_ The address of the rebaser contract to use for authentication.\n     */\n    function _setPendingGov(address pendingGov_)\n        external\n        onlyGov\n    {\n        address oldPendingGov = pendingGov;\n        pendingGov = pendingGov_;\n        emit NewPendingGov(oldPendingGov, pendingGov_);\n    }\n\n    /** @notice lets msg.sender accept governance\n     *\n     */\n    function _acceptGov()\n        external\n    {\n        require(msg.sender == pendingGov, \"!pending\");\n        address oldGov = gov;\n        gov = pendingGov;\n        pendingGov = address(0);\n        emit NewGov(oldGov, gov);\n    }\n\n    /* - Extras - */\n\n    /**\n    * @notice Initiates a new rebase operation, provided the minimum time period has elapsed.\n    *\n    * @dev The supply adjustment equals (totalSupply * DeviationFromTargetRate) / rebaseLag\n    *      Where DeviationFromTargetRate is (MarketOracleRate - targetRate) / targetRate\n    *      and targetRate is CpiOracleRate / baseCpi\n    */\n    function rebase(\n        uint256 epoch,\n        uint256 indexDelta,\n        bool positive\n    )\n        external\n        onlyRebaser\n        returns (uint256)\n    {\n        if (indexDelta == 0) {\n          emit Rebase(epoch, yamsScalingFactor, yamsScalingFactor);\n          return totalSupply;\n        }\n\n        uint256 prevYamsScalingFactor = yamsScalingFactor;\n\n        if (!positive) {\n           yamsScalingFactor = yamsScalingFactor.mul(BASE.sub(indexDelta)).div(BASE);\n        } else {\n            uint256 newScalingFactor = yamsScalingFactor.mul(BASE.add(indexDelta)).div(BASE);\n            if (newScalingFactor < _maxScalingFactor()) {\n                yamsScalingFactor = newScalingFactor;\n            } else {\n              yamsScalingFactor = _maxScalingFactor();\n            }\n        }\n\n        totalSupply = initSupply.mul(yamsScalingFactor);\n        emit Rebase(epoch, prevYamsScalingFactor, yamsScalingFactor);\n        return totalSupply;\n    }\n\n\n\n    function delegates(address delegator)\n      external\n      view\n      returns (address)\n    {\n      return _delegates[delegator];\n    }\n\n   /**\n    * @notice Delegate votes from `msg.sender` to `delegatee`\n    * @param delegatee The address to delegate votes to\n    */\n    function delegate(address delegatee) external {\n        return _delegate(msg.sender, delegatee);\n    }\n\n    /**\n     * @notice Delegates votes from signatory to `delegatee`\n     * @param delegatee The address to delegate votes to\n     * @param nonce The contract state required to match the signature\n     * @param expiry The time at which to expire the signature\n     * @param v The recovery byte of the signature\n     * @param r Half of the ECDSA signature pair\n     * @param s Half of the ECDSA signature pair\n     */\n    function delegateBySig(\n        address delegatee,\n        uint nonce,\n        uint expiry,\n        uint8 v,\n        bytes32 r,\n        bytes32 s\n    )\n        external\n    {\n        bytes32 domainSeparator = keccak256(\n            abi.encode(\n                DOMAIN_TYPEHASH,\n                keccak256(bytes(name)),\n                getChainId(),\n                address(this)\n            )\n        );\n\n        bytes32 structHash = keccak256(\n            abi.encode(\n                DELEGATION_TYPEHASH,\n                delegatee,\n                nonce,\n                expiry\n            )\n        );\n\n        bytes32 digest = keccak256(\n            abi.encodePacked(\n                \"\\x19\\x01\",\n                domainSeparator,\n                structHash\n            )\n        );\n\n        address signatory = ecrecover(digest, v, r, s);\n        require(signatory != address(0), \"YAM::delegateBySig: invalid signature\");\n        require(nonce == nonces[signatory]++, \"YAM::delegateBySig: invalid nonce\");\n        require(now <= expiry, \"YAM::delegateBySig: signature expired\");\n        return _delegate(signatory, delegatee);\n    }\n\n    /**\n     * @notice Gets the current votes balance for `account`\n     * @param account The address to get votes balance\n     * @return The number of current votes for `account`\n     */\n    function getCurrentVotes(address account)\n        external\n        view\n        returns (uint256)\n    {\n        uint32 nCheckpoints = numCheckpoints[account];\n        return nCheckpoints > 0 ? checkpoints[account][nCheckpoints - 1].votes : 0;\n    }\n\n    /**\n     * @notice Determine the prior number of votes for an account as of a block number\n     * @dev Block number must be a finalized block or else this function will revert to prevent misinformation.\n     * @param account The address of the account to check\n     * @param blockNumber The block number to get the vote balance at\n     * @return The number of votes the account had as of the given block\n     */\n    function getPriorVotes(address account, uint blockNumber)\n        external\n        view\n        returns (uint256)\n    {\n        require(blockNumber < block.number, \"YAM::getPriorVotes: not yet determined\");\n\n        uint32 nCheckpoints = numCheckpoints[account];\n        if (nCheckpoints == 0) {\n            return 0;\n        }\n\n        // First check most recent balance\n        if (checkpoints[account][nCheckpoints - 1].fromBlock <= blockNumber) {\n            return checkpoints[account][nCheckpoints - 1].votes;\n        }\n\n        // Next check implicit zero balance\n        if (checkpoints[account][0].fromBlock > blockNumber) {\n            return 0;\n        }\n\n        uint32 lower = 0;\n        uint32 upper = nCheckpoints - 1;\n        while (upper > lower) {\n            uint32 center = upper - (upper - lower) / 2; // ceil, avoiding overflow\n            Checkpoint memory cp = checkpoints[account][center];\n            if (cp.fromBlock == blockNumber) {\n                return cp.votes;\n            } else if (cp.fromBlock < blockNumber) {\n                lower = center;\n            } else {\n                upper = center - 1;\n            }\n        }\n        return checkpoints[account][lower].votes;\n    }\n\n    function _delegate(address delegator, address delegatee)\n        internal\n    {\n        address currentDelegate = _delegates[delegator];\n        uint256 delegatorBalance = _yamBalances[delegator]; // balance of underlying YAMs (not scaled);\n        _delegates[delegator] = delegatee;\n\n        emit DelegateChanged(delegator, currentDelegate, delegatee);\n\n        _moveDelegates(currentDelegate, delegatee, delegatorBalance);\n    }\n\n    function _moveDelegates(address srcRep, address dstRep, uint256 amount) internal {\n        if (srcRep != dstRep && amount > 0) {\n            if (srcRep != address(0)) {\n                // decrease old representative\n                uint32 srcRepNum = numCheckpoints[srcRep];\n                uint256 srcRepOld = srcRepNum > 0 ? checkpoints[srcRep][srcRepNum - 1].votes : 0;\n                uint256 srcRepNew = srcRepOld.sub(amount);\n                _writeCheckpoint(srcRep, srcRepNum, srcRepOld, srcRepNew);\n            }\n\n            if (dstRep != address(0)) {\n                // increase new representative\n                uint32 dstRepNum = numCheckpoints[dstRep];\n                uint256 dstRepOld = dstRepNum > 0 ? checkpoints[dstRep][dstRepNum - 1].votes : 0;\n                uint256 dstRepNew = dstRepOld.add(amount);\n                _writeCheckpoint(dstRep, dstRepNum, dstRepOld, dstRepNew);\n            }\n        }\n    }\n\n    function _writeCheckpoint(\n        address delegatee,\n        uint32 nCheckpoints,\n        uint256 oldVotes,\n        uint256 newVotes\n    )\n        internal\n    {\n        uint32 blockNumber = safe32(block.number, \"YAM::_writeCheckpoint: block number exceeds 32 bits\");\n\n        if (nCheckpoints > 0 && checkpoints[delegatee][nCheckpoints - 1].fromBlock == blockNumber) {\n            checkpoints[delegatee][nCheckpoints - 1].votes = newVotes;\n        } else {\n            checkpoints[delegatee][nCheckpoints] = Checkpoint(blockNumber, newVotes);\n            numCheckpoints[delegatee] = nCheckpoints + 1;\n        }\n\n        emit DelegateVotesChanged(delegatee, oldVotes, newVotes);\n    }\n\n    function safe32(uint n, string memory errorMessage) internal pure returns (uint32) {\n        require(n < 2**32, errorMessage);\n        return uint32(n);\n    }\n\n    function getChainId() internal pure returns (uint) {\n        uint256 chainId;\n        assembly { chainId := chainid() }\n        return chainId;\n    }\n}\n\ncontract YAM is YAMToken {\n    /**\n     * @notice Initialize the new money market\n     * @param name_ ERC-20 name of this token\n     * @param symbol_ ERC-20 symbol of this token\n     * @param decimals_ ERC-20 decimal precision of this token\n     */\n    function initialize(\n        string memory name_,\n        string memory symbol_,\n        uint8 decimals_,\n        address initial_owner,\n        uint256 initSupply_\n    )\n        public\n    {\n        require(initSupply_ > 0, \"0 init supply\");\n\n        super.initialize(name_, symbol_, decimals_);\n\n        initSupply = initSupply_.mul(10**24/ (BASE));\n        totalSupply = initSupply_;\n        yamsScalingFactor = BASE;\n        _yamBalances[initial_owner] = initSupply_.mul(10**24 / (BASE));\n\n        // owner renounces ownership after deployment as they need to set\n        // rebaser and incentivizer\n        // gov = gov_;\n    }\n}\n",
  "sourcePath": "/Users/brockelmore/YAM/contracts/token/YAM.sol",
  "compiler": {
    "name": "solc",
    "version": "0.5.17+commit.d19bba13.Linux.g++"
  },
  "schemaVersion": "3.0.16",
  "updatedAt": "2020-08-08T22:13:20.827Z",
  "devdoc": {
    "methods": {
      "_setIncentivizer(address)": {
        "params": {
          "incentivizer_": "The address of the rebaser contract to use for authentication."
        }
      },
      "_setPendingGov(address)": {
        "params": {
          "pendingGov_": "The address of the rebaser contract to use for authentication."
        }
      },
      "_setRebaser(address)": {
        "params": {
          "rebaser_": "The address of the rebaser contract to use for authentication."
        }
      },
      "allowance(address,address)": {
        "details": "Function to check the amount of tokens that an owner has allowed to a spender.",
        "params": {
          "owner_": "The address which owns the funds.",
          "spender": "The address which will spend the funds."
        },
        "return": "The number of tokens still available for the spender."
      },
      "approve(address,uint256)": {
        "details": "Approve the passed address to spend the specified amount of tokens on behalf of msg.sender. This method is included for ERC20 compatibility. increaseAllowance and decreaseAllowance should be used instead. Changing an allowance with this method brings the risk that someone may transfer both the old and the new allowance - if they are both greater than zero - if a transfer transaction is mined before the later approve() call is mined.",
        "params": {
          "spender": "The address which will spend the funds.",
          "value": "The amount of tokens to be spent."
        }
      },
      "balanceOf(address)": {
        "params": {
          "who": "The address to query."
        },
        "return": "The balance of the specified address."
      },
      "balanceOfUnderlying(address)": {
        "params": {
          "who": "The address to query."
        },
        "return": "The balance of the specified address."
      },
      "decreaseAllowance(address,uint256)": {
        "details": "Decrease the amount of tokens that an owner has allowed to a spender.",
        "params": {
          "spender": "The address which will spend the funds.",
          "subtractedValue": "The amount of tokens to decrease the allowance by."
        }
      },
      "delegate(address)": {
        "params": {
          "delegatee": "The address to delegate votes to"
        }
      },
      "delegateBySig(address,uint256,uint256,uint8,bytes32,bytes32)": {
        "params": {
          "delegatee": "The address to delegate votes to",
          "expiry": "The time at which to expire the signature",
          "nonce": "The contract state required to match the signature",
          "r": "Half of the ECDSA signature pair",
          "s": "Half of the ECDSA signature pair",
          "v": "The recovery byte of the signature"
        }
      },
      "getCurrentVotes(address)": {
        "params": {
          "account": "The address to get votes balance"
        },
        "return": "The number of current votes for `account`"
      },
      "getPriorVotes(address,uint256)": {
        "details": "Block number must be a finalized block or else this function will revert to prevent misinformation.",
        "params": {
          "account": "The address of the account to check",
          "blockNumber": "The block number to get the vote balance at"
        },
        "return": "The number of votes the account had as of the given block"
      },
      "increaseAllowance(address,uint256)": {
        "details": "Increase the amount of tokens that an owner has allowed to a spender. This method should be used instead of approve() to avoid the double approval vulnerability described above.",
        "params": {
          "addedValue": "The amount of tokens to increase the allowance by.",
          "spender": "The address which will spend the funds."
        }
      },
      "initialize(string,string,uint8,address,uint256)": {
        "params": {
          "decimals_": "ERC-20 decimal precision of this token",
          "name_": "ERC-20 name of this token",
          "symbol_": "ERC-20 symbol of this token"
        }
      },
      "rebase(uint256,uint256,bool)": {
        "details": "The supply adjustment equals (totalSupply * DeviationFromTargetRate) / rebaseLag     Where DeviationFromTargetRate is (MarketOracleRate - targetRate) / targetRate     and targetRate is CpiOracleRate / baseCpi"
      },
      "transfer(address,uint256)": {
        "details": "Transfer tokens to a specified address.",
        "params": {
          "to": "The address to transfer to.",
          "value": "The amount to be transferred."
        },
        "return": "True on success, false otherwise."
      },
      "transferFrom(address,address,uint256)": {
        "details": "Transfer tokens from one address to another.",
        "params": {
          "from": "The address you want to send tokens from.",
          "to": "The address you want to transfer to.",
          "value": "The amount of tokens to be transferred."
        }
      }
    }
  },
  "userdoc": {
    "methods": {
      "_acceptGov()": {
        "notice": "lets msg.sender accept governance     "
      },
      "_setIncentivizer(address)": {
        "notice": "sets the incentivizer"
      },
      "_setPendingGov(address)": {
        "notice": "sets the pendingGov"
      },
      "_setRebaser(address)": {
        "notice": "sets the rebaser"
      },
      "balanceOfUnderlying(address)": {
        "notice": "Currently unused and not different from balanceOf"
      },
      "delegate(address)": {
        "notice": "Delegate votes from `msg.sender` to `delegatee`"
      },
      "delegateBySig(address,uint256,uint256,uint8,bytes32,bytes32)": {
        "notice": "Delegates votes from signatory to `delegatee`"
      },
      "getCurrentVotes(address)": {
        "notice": "Gets the current votes balance for `account`"
      },
      "getPriorVotes(address,uint256)": {
        "notice": "Determine the prior number of votes for an account as of a block number"
      },
      "initialize(string,string,uint8,address,uint256)": {
        "notice": "Initialize the new money market"
      },
      "maxScalingFactor()": {
        "notice": "Computes the current max scaling factor"
      },
      "mint(address,uint256)": {
        "notice": "Mints new tokens, increasing totalSupply, initSupply, and a users balance."
      },
      "rebase(uint256,uint256,bool)": {
        "notice": "Initiates a new rebase operation, provided the minimum time period has elapsed."
      }
    }
  }
}