{
  "contractName": "YAMDelegate",
  "abi": [
    {
      "inputs": [],
      "payable": false,
      "stateMutability": "nonpayable",
      "type": "constructor"
    },
    {
      "anonymous": false,
      "inputs": [
        {
          "indexed": true,
          "internalType": "address",
          "name": "owner",
          "type": "address"
        },
        {
          "indexed": true,
          "internalType": "address",
          "name": "spender",
          "type": "address"
        },
        {
          "indexed": false,
          "internalType": "uint256",
          "name": "amount",
          "type": "uint256"
        }
      ],
      "name": "Approval",
      "type": "event"
    },
    {
      "anonymous": false,
      "inputs": [
        {
          "indexed": true,
          "internalType": "address",
          "name": "delegator",
          "type": "address"
        },
        {
          "indexed": true,
          "internalType": "address",
          "name": "fromDelegate",
          "type": "address"
        },
        {
          "indexed": true,
          "internalType": "address",
          "name": "toDelegate",
          "type": "address"
        }
      ],
      "name": "DelegateChanged",
      "type": "event"
    },
    {
      "anonymous": false,
      "inputs": [
        {
          "indexed": true,
          "internalType": "address",
          "name": "delegate",
          "type": "address"
        },
        {
          "indexed": false,
          "internalType": "uint256",
          "name": "previousBalance",
          "type": "uint256"
        },
        {
          "indexed": false,
          "internalType": "uint256",
          "name": "newBalance",
          "type": "uint256"
        }
      ],
      "name": "DelegateVotesChanged",
      "type": "event"
    },
    {
      "anonymous": false,
      "inputs": [
        {
          "indexed": false,
          "internalType": "address",
          "name": "to",
          "type": "address"
        },
        {
          "indexed": false,
          "internalType": "uint256",
          "name": "amount",
          "type": "uint256"
        }
      ],
      "name": "Mint",
      "type": "event"
    },
    {
      "anonymous": false,
      "inputs": [
        {
          "indexed": false,
          "internalType": "address",
          "name": "oldGov",
          "type": "address"
        },
        {
          "indexed": false,
          "internalType": "address",
          "name": "newGov",
          "type": "address"
        }
      ],
      "name": "NewGov",
      "type": "event"
    },
    {
      "anonymous": false,
      "inputs": [
        {
          "indexed": false,
          "internalType": "address",
          "name": "oldIncentivizer",
          "type": "address"
        },
        {
          "indexed": false,
          "internalType": "address",
          "name": "newIncentivizer",
          "type": "address"
        }
      ],
      "name": "NewIncentivizer",
      "type": "event"
    },
    {
      "anonymous": false,
      "inputs": [
        {
          "indexed": false,
          "internalType": "address",
          "name": "oldPendingGov",
          "type": "address"
        },
        {
          "indexed": false,
          "internalType": "address",
          "name": "newPendingGov",
          "type": "address"
        }
      ],
      "name": "NewPendingGov",
      "type": "event"
    },
    {
      "anonymous": false,
      "inputs": [
        {
          "indexed": false,
          "internalType": "address",
          "name": "oldRebaser",
          "type": "address"
        },
        {
          "indexed": false,
          "internalType": "address",
          "name": "newRebaser",
          "type": "address"
        }
      ],
      "name": "NewRebaser",
      "type": "event"
    },
    {
      "anonymous": false,
      "inputs": [
        {
          "indexed": false,
          "internalType": "uint256",
          "name": "epoch",
          "type": "uint256"
        },
        {
          "indexed": false,
          "internalType": "uint256",
          "name": "prevYamsScalingFactor",
          "type": "uint256"
        },
        {
          "indexed": false,
          "internalType": "uint256",
          "name": "newYamsScalingFactor",
          "type": "uint256"
        }
      ],
      "name": "Rebase",
      "type": "event"
    },
    {
      "anonymous": false,
      "inputs": [
        {
          "indexed": true,
          "internalType": "address",
          "name": "from",
          "type": "address"
        },
        {
          "indexed": true,
          "internalType": "address",
          "name": "to",
          "type": "address"
        },
        {
          "indexed": false,
          "internalType": "uint256",
          "name": "amount",
          "type": "uint256"
        }
      ],
      "name": "Transfer",
      "type": "event"
    },
    {
      "constant": true,
      "inputs": [],
      "name": "DELEGATION_TYPEHASH",
      "outputs": [
        {
          "internalType": "bytes32",
          "name": "",
          "type": "bytes32"
        }
      ],
      "payable": false,
      "stateMutability": "view",
      "type": "function"
    },
    {
      "constant": true,
      "inputs": [],
      "name": "DOMAIN_TYPEHASH",
      "outputs": [
        {
          "internalType": "bytes32",
          "name": "",
          "type": "bytes32"
        }
      ],
      "payable": false,
      "stateMutability": "view",
      "type": "function"
    },
    {
      "constant": false,
      "inputs": [],
      "name": "_acceptGov",
      "outputs": [],
      "payable": false,
      "stateMutability": "nonpayable",
      "type": "function"
    },
    {
      "constant": false,
      "inputs": [
        {
          "internalType": "address",
          "name": "incentivizer_",
          "type": "address"
        }
      ],
      "name": "_setIncentivizer",
      "outputs": [],
      "payable": false,
      "stateMutability": "nonpayable",
      "type": "function"
    },
    {
      "constant": false,
      "inputs": [
        {
          "internalType": "address",
          "name": "pendingGov_",
          "type": "address"
        }
      ],
      "name": "_setPendingGov",
      "outputs": [],
      "payable": false,
      "stateMutability": "nonpayable",
      "type": "function"
    },
    {
      "constant": false,
      "inputs": [
        {
          "internalType": "address",
          "name": "rebaser_",
          "type": "address"
        }
      ],
      "name": "_setRebaser",
      "outputs": [],
      "payable": false,
      "stateMutability": "nonpayable",
      "type": "function"
    },
    {
      "constant": true,
      "inputs": [
        {
          "internalType": "address",
          "name": "owner_",
          "type": "address"
        },
        {
          "internalType": "address",
          "name": "spender",
          "type": "address"
        }
      ],
      "name": "allowance",
      "outputs": [
        {
          "internalType": "uint256",
          "name": "",
          "type": "uint256"
        }
      ],
      "payable": false,
      "stateMutability": "view",
      "type": "function"
    },
    {
      "constant": false,
      "inputs": [
        {
          "internalType": "address",
          "name": "spender",
          "type": "address"
        },
        {
          "internalType": "uint256",
          "name": "value",
          "type": "uint256"
        }
      ],
      "name": "approve",
      "outputs": [
        {
          "internalType": "bool",
          "name": "",
          "type": "bool"
        }
      ],
      "payable": false,
      "stateMutability": "nonpayable",
      "type": "function"
    },
    {
      "constant": true,
      "inputs": [
        {
          "internalType": "address",
          "name": "who",
          "type": "address"
        }
      ],
      "name": "balanceOf",
      "outputs": [
        {
          "internalType": "uint256",
          "name": "",
          "type": "uint256"
        }
      ],
      "payable": false,
      "stateMutability": "view",
      "type": "function"
    },
    {
      "constant": true,
      "inputs": [
        {
          "internalType": "address",
          "name": "",
          "type": "address"
        },
        {
          "internalType": "uint32",
          "name": "",
          "type": "uint32"
        }
      ],
      "name": "checkpoints",
      "outputs": [
        {
          "internalType": "uint32",
          "name": "fromBlock",
          "type": "uint32"
        },
        {
          "internalType": "uint256",
          "name": "votes",
          "type": "uint256"
        }
      ],
      "payable": false,
      "stateMutability": "view",
      "type": "function"
    },
    {
      "constant": true,
      "inputs": [],
      "name": "decimals",
      "outputs": [
        {
          "internalType": "uint8",
          "name": "",
          "type": "uint8"
        }
      ],
      "payable": false,
      "stateMutability": "view",
      "type": "function"
    },
    {
      "constant": false,
      "inputs": [
        {
          "internalType": "address",
          "name": "spender",
          "type": "address"
        },
        {
          "internalType": "uint256",
          "name": "subtractedValue",
          "type": "uint256"
        }
      ],
      "name": "decreaseAllowance",
      "outputs": [
        {
          "internalType": "bool",
          "name": "",
          "type": "bool"
        }
      ],
      "payable": false,
      "stateMutability": "nonpayable",
      "type": "function"
    },
    {
      "constant": false,
      "inputs": [
        {
          "internalType": "address",
          "name": "delegatee",
          "type": "address"
        }
      ],
      "name": "delegate",
      "outputs": [],
      "payable": false,
      "stateMutability": "nonpayable",
      "type": "function"
    },
    {
      "constant": false,
      "inputs": [
        {
          "internalType": "address",
          "name": "delegatee",
          "type": "address"
        },
        {
          "internalType": "uint256",
          "name": "nonce",
          "type": "uint256"
        },
        {
          "internalType": "uint256",
          "name": "expiry",
          "type": "uint256"
        },
        {
          "internalType": "uint8",
          "name": "v",
          "type": "uint8"
        },
        {
          "internalType": "bytes32",
          "name": "r",
          "type": "bytes32"
        },
        {
          "internalType": "bytes32",
          "name": "s",
          "type": "bytes32"
        }
      ],
      "name": "delegateBySig",
      "outputs": [],
      "payable": false,
      "stateMutability": "nonpayable",
      "type": "function"
    },
    {
      "constant": true,
      "inputs": [
        {
          "internalType": "address",
          "name": "",
          "type": "address"
        }
      ],
      "name": "delegates",
      "outputs": [
        {
          "internalType": "address",
          "name": "",
          "type": "address"
        }
      ],
      "payable": false,
      "stateMutability": "view",
      "type": "function"
    },
    {
      "constant": true,
      "inputs": [
        {
          "internalType": "address",
          "name": "account",
          "type": "address"
        }
      ],
      "name": "getCurrentVotes",
      "outputs": [
        {
          "internalType": "uint256",
          "name": "",
          "type": "uint256"
        }
      ],
      "payable": false,
      "stateMutability": "view",
      "type": "function"
    },
    {
      "constant": true,
      "inputs": [
        {
          "internalType": "address",
          "name": "account",
          "type": "address"
        },
        {
          "internalType": "uint256",
          "name": "blockNumber",
          "type": "uint256"
        }
      ],
      "name": "getPriorVotes",
      "outputs": [
        {
          "internalType": "uint256",
          "name": "",
          "type": "uint256"
        }
      ],
      "payable": false,
      "stateMutability": "view",
      "type": "function"
    },
    {
      "constant": true,
      "inputs": [],
      "name": "gov",
      "outputs": [
        {
          "internalType": "address",
          "name": "",
          "type": "address"
        }
      ],
      "payable": false,
      "stateMutability": "view",
      "type": "function"
    },
    {
      "constant": true,
      "inputs": [],
      "name": "implementation",
      "outputs": [
        {
          "internalType": "address",
          "name": "",
          "type": "address"
        }
      ],
      "payable": false,
      "stateMutability": "view",
      "type": "function"
    },
    {
      "constant": true,
      "inputs": [],
      "name": "incentivizer",
      "outputs": [
        {
          "internalType": "address",
          "name": "",
          "type": "address"
        }
      ],
      "payable": false,
      "stateMutability": "view",
      "type": "function"
    },
    {
      "constant": false,
      "inputs": [
        {
          "internalType": "address",
          "name": "spender",
          "type": "address"
        },
        {
          "internalType": "uint256",
          "name": "addedValue",
          "type": "uint256"
        }
      ],
      "name": "increaseAllowance",
      "outputs": [
        {
          "internalType": "bool",
          "name": "",
          "type": "bool"
        }
      ],
      "payable": false,
      "stateMutability": "nonpayable",
      "type": "function"
    },
    {
      "constant": true,
      "inputs": [],
      "name": "initSupply",
      "outputs": [
        {
          "internalType": "uint256",
          "name": "",
          "type": "uint256"
        }
      ],
      "payable": false,
      "stateMutability": "view",
      "type": "function"
    },
    {
      "constant": false,
      "inputs": [
        {
          "internalType": "string",
          "name": "name_",
          "type": "string"
        },
        {
          "internalType": "string",
          "name": "symbol_",
          "type": "string"
        },
        {
          "internalType": "uint8",
          "name": "decimals_",
          "type": "uint8"
        }
      ],
      "name": "initialize",
      "outputs": [],
      "payable": false,
      "stateMutability": "nonpayable",
      "type": "function"
    },
    {
      "constant": false,
      "inputs": [
        {
          "internalType": "string",
          "name": "name_",
          "type": "string"
        },
        {
          "internalType": "string",
          "name": "symbol_",
          "type": "string"
        },
        {
          "internalType": "uint8",
          "name": "decimals_",
          "type": "uint8"
        },
        {
          "internalType": "address",
          "name": "initial_owner",
          "type": "address"
        },
        {
          "internalType": "uint256",
          "name": "initSupply_",
          "type": "uint256"
        }
      ],
      "name": "initialize",
      "outputs": [],
      "payable": false,
      "stateMutability": "nonpayable",
      "type": "function"
    },
    {
      "constant": true,
      "inputs": [],
      "name": "internalDecimals",
      "outputs": [
        {
          "internalType": "uint256",
          "name": "",
          "type": "uint256"
        }
      ],
      "payable": false,
      "stateMutability": "view",
      "type": "function"
    },
    {
      "constant": true,
      "inputs": [],
      "name": "maxScalingFactor",
      "outputs": [
        {
          "internalType": "uint256",
          "name": "",
          "type": "uint256"
        }
      ],
      "payable": false,
      "stateMutability": "view",
      "type": "function"
    },
    {
      "constant": false,
      "inputs": [
        {
          "internalType": "address",
          "name": "to",
          "type": "address"
        },
        {
          "internalType": "uint256",
          "name": "amount",
          "type": "uint256"
        }
      ],
      "name": "mint",
      "outputs": [],
      "payable": false,
      "stateMutability": "nonpayable",
      "type": "function"
    },
    {
      "constant": true,
      "inputs": [],
      "name": "name",
      "outputs": [
        {
          "internalType": "string",
          "name": "",
          "type": "string"
        }
      ],
      "payable": false,
      "stateMutability": "view",
      "type": "function"
    },
    {
      "constant": true,
      "inputs": [
        {
          "internalType": "address",
          "name": "",
          "type": "address"
        }
      ],
      "name": "nonces",
      "outputs": [
        {
          "internalType": "uint256",
          "name": "",
          "type": "uint256"
        }
      ],
      "payable": false,
      "stateMutability": "view",
      "type": "function"
    },
    {
      "constant": true,
      "inputs": [
        {
          "internalType": "address",
          "name": "",
          "type": "address"
        }
      ],
      "name": "numCheckpoints",
      "outputs": [
        {
          "internalType": "uint32",
          "name": "",
          "type": "uint32"
        }
      ],
      "payable": false,
      "stateMutability": "view",
      "type": "function"
    },
    {
      "constant": true,
      "inputs": [],
      "name": "pendingGov",
      "outputs": [
        {
          "internalType": "address",
          "name": "",
          "type": "address"
        }
      ],
      "payable": false,
      "stateMutability": "view",
      "type": "function"
    },
    {
      "constant": false,
      "inputs": [
        {
          "internalType": "uint256",
          "name": "epoch",
          "type": "uint256"
        },
        {
          "internalType": "uint256",
          "name": "indexDelta",
          "type": "uint256"
        },
        {
          "internalType": "bool",
          "name": "positive",
          "type": "bool"
        }
      ],
      "name": "rebase",
      "outputs": [
        {
          "internalType": "uint256",
          "name": "",
          "type": "uint256"
        }
      ],
      "payable": false,
      "stateMutability": "nonpayable",
      "type": "function"
    },
    {
      "constant": true,
      "inputs": [],
      "name": "rebaser",
      "outputs": [
        {
          "internalType": "address",
          "name": "",
          "type": "address"
        }
      ],
      "payable": false,
      "stateMutability": "view",
      "type": "function"
    },
    {
      "constant": true,
      "inputs": [],
      "name": "symbol",
      "outputs": [
        {
          "internalType": "string",
          "name": "",
          "type": "string"
        }
      ],
      "payable": false,
      "stateMutability": "view",
      "type": "function"
    },
    {
      "constant": true,
      "inputs": [],
      "name": "totalSupply",
      "outputs": [
        {
          "internalType": "uint256",
          "name": "",
          "type": "uint256"
        }
      ],
      "payable": false,
      "stateMutability": "view",
      "type": "function"
    },
    {
      "constant": false,
      "inputs": [
        {
          "internalType": "address",
          "name": "to",
          "type": "address"
        },
        {
          "internalType": "uint256",
          "name": "value",
          "type": "uint256"
        }
      ],
      "name": "transfer",
      "outputs": [
        {
          "internalType": "bool",
          "name": "",
          "type": "bool"
        }
      ],
      "payable": false,
      "stateMutability": "nonpayable",
      "type": "function"
    },
    {
      "constant": false,
      "inputs": [
        {
          "internalType": "address",
          "name": "from",
          "type": "address"
        },
        {
          "internalType": "address",
          "name": "to",
          "type": "address"
        },
        {
          "internalType": "uint256",
          "name": "value",
          "type": "uint256"
        }
      ],
      "name": "transferFrom",
      "outputs": [
        {
          "internalType": "bool",
          "name": "",
          "type": "bool"
        }
      ],
      "payable": false,
      "stateMutability": "nonpayable",
      "type": "function"
    },
    {
      "constant": true,
      "inputs": [],
      "name": "yamsScalingFactor",
      "outputs": [
        {
          "internalType": "uint256",
          "name": "",
          "type": "uint256"
        }
      ],
      "payable": false,
      "stateMutability": "view",
      "type": "function"
    },
    {
      "constant": false,
      "inputs": [
        {
          "internalType": "bytes",
          "name": "data",
          "type": "bytes"
        }
      ],
      "name": "_becomeImplementation",
      "outputs": [],
      "payable": false,
      "stateMutability": "nonpayable",
      "type": "function"
    },
    {
      "constant": false,
      "inputs": [],
      "name": "_resignImplementation",
      "outputs": [],
      "payable": false,
      "stateMutability": "nonpayable",
      "type": "function"
    }
  ],
  "bytecode": "0x608060405234801561001057600080fd5b50612e8e806100206000396000f3fe608060405234801561001057600080fd5b50600436106102c85760003560e01c80636c9452211161017b57806398dca210116100d8578063c3cda5201161008c578063e7a324dc11610071578063e7a324dc14610b56578063f1127ed814610b5e578063fa8f345514610bbd576102c8565b8063c3cda52014610ac7578063dd62ed3e14610b1b576102c8565b8063a9059cbb116100bd578063a9059cbb14610a53578063b4b5ea5714610a8c578063b6fa857614610abf576102c8565b806398dca210146109e7578063a457c2d714610a1a576102c8565b8063782d6fe11161012f5780637ecebe00116101145780637ecebe00146109a457806395d89b41146109d757806397d63f93146109df576102c8565b8063782d6fe1146109405780637af548c114610979576102c8565b80636fcfff45116101605780636fcfff451461088e57806370a08231146108da57806373f03dff1461090d576102c8565b80636c945221146107355780636fc6407c14610886576102c8565b8063252408101161022957806356e67728116101dd5780635c19a95c116101c25780635c19a95c146106f25780635c60da1b1461072557806364dd48f51461072d576102c8565b806356e6772814610619578063587cde1e146106bf576102c8565b8063395093511161020e578063395093511461059f57806340c10f19146105d85780634bda2e2014610611576102c8565b80632524081014610579578063313ce56714610581576102c8565b8063153ab5051161028057806318160ddd1161026557806318160ddd1461052657806320606b701461052e57806323b872dd14610536576102c8565b8063153ab505146103ea5780631624f6c6146103f4576102c8565b806311d3e6c4116102b157806311d3e6c41461039757806311fd8a83146103b157806312d43a51146103e2576102c8565b806306fdde03146102cd578063095ea7b31461034a575b600080fd5b6102d5610bf0565b6040805160208082528351818301528351919283929083019185019080838360005b8381101561030f5781810151838201526020016102f7565b50505050905090810190601f16801561033c5780820380516001836020036101000a031916815260200191505b509250505060405180910390f35b6103836004803603604081101561036057600080fd5b5073ffffffffffffffffffffffffffffffffffffffff8135169060200135610c9c565b604080519115158252519081900360200190f35b61039f610d10565b60408051918252519081900360200190f35b6103b9610d20565b6040805173ffffffffffffffffffffffffffffffffffffffff9092168252519081900360200190f35b6103b9610d3c565b6103f2610d5d565b005b6103f26004803603606081101561040a57600080fd5b81019060208101813564010000000081111561042557600080fd5b82018360208201111561043757600080fd5b8035906020019184600183028401116401000000008311171561045957600080fd5b91908080601f01602080910402602001604051908101604052809392919081815260200183838082843760009201919091525092959493602081019350359150506401000000008111156104ac57600080fd5b8201836020820111156104be57600080fd5b803590602001918460018302840111640100000000831117156104e057600080fd5b91908080601f0160208091040260200160405190810160405280939291908181526020018383808284376000920191909152509295505050903560ff169150610dd49050565b61039f610ea1565b61039f610ea7565b6103836004803603606081101561054c57600080fd5b5073ffffffffffffffffffffffffffffffffffffffff813581169160208101359091169060400135610ec2565b6103b9611095565b6105896110b1565b6040805160ff9092168252519081900360200190f35b610383600480360360408110156105b557600080fd5b5073ffffffffffffffffffffffffffffffffffffffff81351690602001356110ba565b6103f2600480360360408110156105ee57600080fd5b5073ffffffffffffffffffffffffffffffffffffffff813516906020013561116d565b6103f26111c1565b6103f26004803603602081101561062f57600080fd5b81019060208101813564010000000081111561064a57600080fd5b82018360208201111561065c57600080fd5b8035906020019184600183028401116401000000008311171561067e57600080fd5b91908080601f016020809104026020016040519081016040528093929190818152602001838380828437600092019190915250929550611304945050505050565b6103b9600480360360208110156106d557600080fd5b503573ffffffffffffffffffffffffffffffffffffffff1661137c565b6103f26004803603602081101561070857600080fd5b503573ffffffffffffffffffffffffffffffffffffffff166113a4565b6103b96113ae565b61039f6113ca565b6103f2600480360360a081101561074b57600080fd5b81019060208101813564010000000081111561076657600080fd5b82018360208201111561077857600080fd5b8035906020019184600183028401116401000000008311171561079a57600080fd5b91908080601f01602080910402602001604051908101604052809392919081815260200183838082843760009201919091525092959493602081019350359150506401000000008111156107ed57600080fd5b8201836020820111156107ff57600080fd5b8035906020019184600183028401116401000000008311171561082157600080fd5b91908080601f0160208091040260200160405190810160405280939291908181526020018383808284376000920191909152509295505050813560ff16925050602081013573ffffffffffffffffffffffffffffffffffffffff1690604001356113d8565b6103b961149b565b6108c1600480360360208110156108a457600080fd5b503573ffffffffffffffffffffffffffffffffffffffff166114b7565b6040805163ffffffff9092168252519081900360200190f35b61039f600480360360208110156108f057600080fd5b503573ffffffffffffffffffffffffffffffffffffffff166114cf565b6103f26004803603602081101561092357600080fd5b503573ffffffffffffffffffffffffffffffffffffffff1661151a565b61039f6004803603604081101561095657600080fd5b5073ffffffffffffffffffffffffffffffffffffffff81351690602001356115cb565b61039f6004803603606081101561098f57600080fd5b50803590602081013590604001351515611891565b61039f600480360360208110156109ba57600080fd5b503573ffffffffffffffffffffffffffffffffffffffff166119b3565b6102d56119c5565b61039f611a3e565b6103f2600480360360208110156109fd57600080fd5b503573ffffffffffffffffffffffffffffffffffffffff16611a44565b61038360048036036040811015610a3057600080fd5b5073ffffffffffffffffffffffffffffffffffffffff8135169060200135611af5565b61038360048036036040811015610a6957600080fd5b5073ffffffffffffffffffffffffffffffffffffffff8135169060200135611c18565b61039f60048036036020811015610aa257600080fd5b503573ffffffffffffffffffffffffffffffffffffffff16611d51565b61039f611deb565b6103f2600480360360c0811015610add57600080fd5b5073ffffffffffffffffffffffffffffffffffffffff8135169060208101359060408101359060ff6060820135169060808101359060a00135611df1565b61039f60048036036040811015610b3157600080fd5b5073ffffffffffffffffffffffffffffffffffffffff813581169160200135166121a8565b61039f6121e0565b610b9d60048036036040811015610b7457600080fd5b50803573ffffffffffffffffffffffffffffffffffffffff16906020013563ffffffff166121fb565b6040805163ffffffff909316835260208301919091528051918290030190f35b6103f260048036036020811015610bd357600080fd5b503573ffffffffffffffffffffffffffffffffffffffff16612225565b6005805460408051602060026001851615610100027fffffffffffffffffffffffffffffffffffffffffffffffffffffffffffffffff0190941693909304601f81018490048402820184019092528181529291830182828015610c945780601f10610c6957610100808354040283529160200191610c94565b820191906000526020600020905b815481529060010190602001808311610c7757829003601f168201915b505050505081565b336000818152600e6020908152604080832073ffffffffffffffffffffffffffffffffffffffff8716808552908352818420869055815186815291519394909390927f8c5be1e5ebec7d5bd14f71427d1e84f3dd0314c0f7b2291e5b200ac8c7c3b925928290030190a35060015b92915050565b6000610d1a6122d6565b90505b90565b60095473ffffffffffffffffffffffffffffffffffffffff1681565b600754610100900473ffffffffffffffffffffffffffffffffffffffff1681565b600754610100900473ffffffffffffffffffffffffffffffffffffffff163314610dd2576040517f08c379a000000000000000000000000000000000000000000000000000000000815260040180806020018281038252602b815260200180612ce8602b913960400191505060405180910390fd5b565b600c5415610e4357604080517f08c379a000000000000000000000000000000000000000000000000000000000815260206004820152601360248201527f616c726561647920696e697469616c697a656400000000000000000000000000604482015290519081900360640190fd5b8251610e56906005906020860190612bf2565b508151610e6a906006906020850190612bf2565b50600780547fffffffffffffffffffffffffffffffffffffffffffffffffffffffffffffff001660ff929092169190911790555050565b600b5481565b604051806043612d6482396043019050604051809103902081565b60008273ffffffffffffffffffffffffffffffffffffffff8116610ee557600080fd5b73ffffffffffffffffffffffffffffffffffffffff8116301415610f0857600080fd5b73ffffffffffffffffffffffffffffffffffffffff85166000908152600e60209081526040808320338452909152902054610f49908463ffffffff61230916565b73ffffffffffffffffffffffffffffffffffffffff86166000908152600e60209081526040808320338452909152812091909155600c54610faa90610f9e8669d3c21bcecceda100000063ffffffff61234b16565b9063ffffffff6123be16565b73ffffffffffffffffffffffffffffffffffffffff87166000908152600d6020526040902054909150610fe3908263ffffffff61230916565b73ffffffffffffffffffffffffffffffffffffffff8088166000908152600d60205260408082209390935590871681522054611025908263ffffffff61240016565b73ffffffffffffffffffffffffffffffffffffffff8087166000818152600d602090815260409182902094909455805188815290519193928a16927fddf252ad1be2c89b69c2b068fc378daa952ba7f163c4a11628f55a4df523b3ef92918290030190a350600195945050505050565b60085473ffffffffffffffffffffffffffffffffffffffff1681565b60075460ff1681565b336000908152600e6020908152604080832073ffffffffffffffffffffffffffffffffffffffff861684529091528120546110fb908363ffffffff61240016565b336000818152600e6020908152604080832073ffffffffffffffffffffffffffffffffffffffff89168085529083529281902085905580519485525191937f8c5be1e5ebec7d5bd14f71427d1e84f3dd0314c0f7b2291e5b200ac8c7c3b925929081900390910190a350600192915050565b60095473ffffffffffffffffffffffffffffffffffffffff163314806111aa5750600a5473ffffffffffffffffffffffffffffffffffffffff1633145b6111b357600080fd5b6111bd8282612474565b5050565b60085473ffffffffffffffffffffffffffffffffffffffff16331461124757604080517f08c379a000000000000000000000000000000000000000000000000000000000815260206004820152600860248201527f2170656e64696e67000000000000000000000000000000000000000000000000604482015290519081900360640190fd5b600780546008805473ffffffffffffffffffffffffffffffffffffffff8181166101009081027fffffffffffffffffffffff0000000000000000000000000000000000000000ff861617958690557fffffffffffffffffffffffff000000000000000000000000000000000000000090921690925560408051938290048316808552919094049091166020830152825190927f1f14cfc03e486d23acee577b07bc0b3b23f4888c91fcdba5e0fef5a2549d5523928290030190a150565b600754610100900473ffffffffffffffffffffffffffffffffffffffff163314611379576040517f08c379a000000000000000000000000000000000000000000000000000000000815260040180806020018281038252602b815260200180612d39602b913960400191505060405180910390fd5b50565b60006020819052908152604090205473ffffffffffffffffffffffffffffffffffffffff1681565b61137933826125c2565b60105473ffffffffffffffffffffffffffffffffffffffff1681565b69d3c21bcecceda100000081565b6000811161144757604080517f08c379a000000000000000000000000000000000000000000000000000000000815260206004820152600d60248201527f3020696e697420737570706c7900000000000000000000000000000000000000604482015290519081900360640190fd5b611452858585610dd4565b620f42408102600f819055600b91909155670de0b6b3a7640000600c5573ffffffffffffffffffffffffffffffffffffffff9091166000908152600d6020526040902055505050565b600a5473ffffffffffffffffffffffffffffffffffffffff1681565b60026020526000908152604090205463ffffffff1681565b600c5473ffffffffffffffffffffffffffffffffffffffff82166000908152600d60205260408120549091610d0a9169d3c21bcecceda100000091610f9e919063ffffffff61234b16565b600754610100900473ffffffffffffffffffffffffffffffffffffffff16331461154357600080fd5b6008805473ffffffffffffffffffffffffffffffffffffffff8381167fffffffffffffffffffffffff0000000000000000000000000000000000000000831681179093556040805191909216808252602082019390935281517f6163d5b9efd962645dd649e6e48a61bcb0f9df00997a2398b80d135a9ab0c61e929181900390910190a15050565b6000438210611625576040517f08c379a0000000000000000000000000000000000000000000000000000000008152600401808060200182810382526026815260200180612d136026913960400191505060405180910390fd5b73ffffffffffffffffffffffffffffffffffffffff831660009081526002602052604090205463ffffffff1680611660576000915050610d0a565b73ffffffffffffffffffffffffffffffffffffffff8416600090815260016020908152604080832063ffffffff7fffffffffffffffffffffffffffffffffffffffffffffffffffffffffffffffff8601811685529252909120541683106117255773ffffffffffffffffffffffffffffffffffffffff841660009081526001602081815260408084207fffffffffffffffffffffffffffffffffffffffffffffffffffffffffffffffff9590950163ffffffff16845293905291902001549050610d0a565b73ffffffffffffffffffffffffffffffffffffffff8416600090815260016020908152604080832083805290915290205463ffffffff1683101561176d576000915050610d0a565b60007fffffffffffffffffffffffffffffffffffffffffffffffffffffffffffffffff82015b8163ffffffff168163ffffffff16111561184d57600282820363ffffffff160481036117bd612c70565b5073ffffffffffffffffffffffffffffffffffffffff8716600090815260016020818152604080842063ffffffff808716865290835293819020815180830190925280549094168082529390920154908201529087141561182857602001519450610d0a9350505050565b805163ffffffff1687111561183f57819350611846565b6001820392505b5050611793565b5073ffffffffffffffffffffffffffffffffffffffff8516600090815260016020818152604080842063ffffffff9095168452939052919020015491505092915050565b60095460009073ffffffffffffffffffffffffffffffffffffffff1633146118b857600080fd5b8261190957600c54604080518681526020810183905280820192909252517fc6642d24d84e7f3d36ca39f5cce10e75639d9b158d5193aa350e2f900653e4c09181900360600190a150600b546119ac565b600c548261192c57600c54611924908563ffffffff61230916565b600c5561195b565b600c54600090611942908663ffffffff61240016565b905061194c6122d6565b81101561195957600c8190555b505b600c54600f548102600b55604080518781526020810184905280820192909252517fc6642d24d84e7f3d36ca39f5cce10e75639d9b158d5193aa350e2f900653e4c09181900360600190a15050600b545b9392505050565b60036020526000908152604090205481565b6006805460408051602060026001851615610100027fffffffffffffffffffffffffffffffffffffffffffffffffffffffffffffffff0190941693909304601f81018490048402820184019092528181529291830182828015610c945780601f10610c6957610100808354040283529160200191610c94565b600f5481565b600754610100900473ffffffffffffffffffffffffffffffffffffffff163314611a6d57600080fd5b600a805473ffffffffffffffffffffffffffffffffffffffff8381167fffffffffffffffffffffffff0000000000000000000000000000000000000000831681179093556040805191909216808252602082019390935281517f2ee668ca7d17a9122dc00c0bfd73b684f2f7d681f17733cc02b294f69f1b3896929181900390910190a15050565b336000908152600e6020908152604080832073ffffffffffffffffffffffffffffffffffffffff86168452909152812054808310611b6357336000908152600e6020908152604080832073ffffffffffffffffffffffffffffffffffffffff88168452909152812055611ba5565b611b73818463ffffffff61230916565b336000908152600e6020908152604080832073ffffffffffffffffffffffffffffffffffffffff891684529091529020555b336000818152600e6020908152604080832073ffffffffffffffffffffffffffffffffffffffff89168085529083529281902054815190815290519293927f8c5be1e5ebec7d5bd14f71427d1e84f3dd0314c0f7b2291e5b200ac8c7c3b925929181900390910190a35060019392505050565b60008273ffffffffffffffffffffffffffffffffffffffff8116611c3b57600080fd5b73ffffffffffffffffffffffffffffffffffffffff8116301415611c5e57600080fd5b600c54600090611c8290610f9e8669d3c21bcecceda100000063ffffffff61234b16565b336000908152600d6020526040902054909150611ca5908263ffffffff61230916565b336000908152600d60205260408082209290925573ffffffffffffffffffffffffffffffffffffffff871681522054611ce4908263ffffffff61240016565b73ffffffffffffffffffffffffffffffffffffffff86166000818152600d60209081526040918290209390935580518781529051919233927fddf252ad1be2c89b69c2b068fc378daa952ba7f163c4a11628f55a4df523b3ef9281900390910190a3506001949350505050565b73ffffffffffffffffffffffffffffffffffffffff811660009081526002602052604081205463ffffffff1680611d895760006119ac565b73ffffffffffffffffffffffffffffffffffffffff8316600090815260016020818152604080842063ffffffff7fffffffffffffffffffffffffffffffffffffffffffffffffffffffffffffffff870116855290915290912001549392505050565b600c5481565b60006040518080612d64604391396043019050604051809103902060056040518082805460018160011615610100020316600290048015611e695780601f10611e47576101008083540402835291820191611e69565b820191906000526020600020905b815481529060010190602001808311611e55575b50509150506040518091039020611e7e612665565b30604051602001808581526020018481526020018381526020018273ffffffffffffffffffffffffffffffffffffffff1673ffffffffffffffffffffffffffffffffffffffff16815260200194505050505060405160208183030381529060405280519060200120905060006040518080612e20603a91396040805191829003603a01822060208084019190915273ffffffffffffffffffffffffffffffffffffffff8c1683830152606083018b905260808084018b90528251808503909101815260a0840183528051908201207f190100000000000000000000000000000000000000000000000000000000000060c085015260c2840187905260e2808501829052835180860390910181526101028501808552815191840191909120600091829052610122860180865281905260ff8c1661014287015261016286018b905261018286018a9052935191965092945091926001926101a280830193927fffffffffffffffffffffffffffffffffffffffffffffffffffffffffffffffe08301929081900390910190855afa15801561201c573d6000803e3d6000fd5b50506040517fffffffffffffffffffffffffffffffffffffffffffffffffffffffffffffffe0015191505073ffffffffffffffffffffffffffffffffffffffff81166120b3576040517f08c379a0000000000000000000000000000000000000000000000000000000008152600401808060200182810382526025815260200180612cc36025913960400191505060405180910390fd5b73ffffffffffffffffffffffffffffffffffffffff811660009081526003602052604090208054600181019091558914612138576040517f08c379a0000000000000000000000000000000000000000000000000000000008152600401808060200182810382526021815260200180612ca26021913960400191505060405180910390fd5b87421115612191576040517f08c379a0000000000000000000000000000000000000000000000000000000008152600401808060200182810382526025815260200180612dc86025913960400191505060405180910390fd5b61219b818b6125c2565b505050505b505050505050565b73ffffffffffffffffffffffffffffffffffffffff9182166000908152600e6020908152604080832093909416825291909152205490565b60405180603a612e208239603a019050604051809103902081565b60016020818152600093845260408085209091529183529120805491015463ffffffff9091169082565b600754610100900473ffffffffffffffffffffffffffffffffffffffff16331461224e57600080fd5b6009805473ffffffffffffffffffffffffffffffffffffffff8381167fffffffffffffffffffffffff0000000000000000000000000000000000000000831681179093556040805191909216808252602082019390935281517f51f448520e2183de499e224808a409ee01a1f380edb2e8497572320c15030545929181900390910190a15050565b6000600f547fffffffffffffffffffffffffffffffffffffffffffffffffffffffffffffffff8161230357fe5b04905090565b60006119ac83836040518060400160405280601e81526020017f536166654d6174683a207375627472616374696f6e206f766572666c6f770000815250612669565b60008261235a57506000610d0a565b8282028284828161236757fe5b04146119ac576040517f08c379a0000000000000000000000000000000000000000000000000000000008152600401808060200182810382526021815260200180612da76021913960400191505060405180910390fd5b60006119ac83836040518060400160405280601a81526020017f536166654d6174683a206469766973696f6e206279207a65726f00000000000081525061271a565b6000828201838110156119ac57604080517f08c379a000000000000000000000000000000000000000000000000000000000815260206004820152601b60248201527f536166654d6174683a206164646974696f6e206f766572666c6f770000000000604482015290519081900360640190fd5b600b805482019055600c546000906124a090610f9e8469d3c21bcecceda100000063ffffffff61234b16565b600f80548201905590506124b26122d6565b600c54111561252257604080517f08c379a000000000000000000000000000000000000000000000000000000000815260206004820152601760248201527f7363616c696e6720666163746f7220746f6f2068696768000000000000000000604482015290519081900360640190fd5b73ffffffffffffffffffffffffffffffffffffffff83166000908152600d6020526040902054612558908263ffffffff61240016565b73ffffffffffffffffffffffffffffffffffffffff84166000818152600d602090815260409182902093909355805191825291810184905281517f0f6798a560793a54c3bcfe86a93cde1e73087d944c0ea20544137d4121396885929181900390910190a1505050565b73ffffffffffffffffffffffffffffffffffffffff8083166000818152602081815260408083208054600d845282852054938590528787167fffffffffffffffffffffffff00000000000000000000000000000000000000008216811790925591519190951694919391928592917f3134e8a2e6d97e929a7e54011ea5485d7d196dd5f0ba4d4ef95803e8e3fc257f9190a461265f828483612799565b50505050565b4690565b60008184841115612712576040517f08c379a00000000000000000000000000000000000000000000000000000000081526004018080602001828103825283818151815260200191508051906020019080838360005b838110156126d75781810151838201526020016126bf565b50505050905090810190601f1680156127045780820380516001836020036101000a031916815260200191505b509250505060405180910390fd5b505050900390565b60008183612783576040517f08c379a00000000000000000000000000000000000000000000000000000000081526020600482018181528351602484015283519092839260449091019190850190808383600083156126d75781810151838201526020016126bf565b50600083858161278f57fe5b0495945050505050565b8173ffffffffffffffffffffffffffffffffffffffff168373ffffffffffffffffffffffffffffffffffffffff16141580156127d55750600081115b156129845773ffffffffffffffffffffffffffffffffffffffff8316156128b15773ffffffffffffffffffffffffffffffffffffffff831660009081526002602052604081205463ffffffff16908161282f57600061288b565b73ffffffffffffffffffffffffffffffffffffffff8516600090815260016020818152604080842063ffffffff7fffffffffffffffffffffffffffffffffffffffffffffffffffffffffffffffff880116855290915290912001545b9050600061289f828563ffffffff61230916565b90506128ad86848484612989565b5050505b73ffffffffffffffffffffffffffffffffffffffff8216156129845773ffffffffffffffffffffffffffffffffffffffff821660009081526002602052604081205463ffffffff169081612906576000612962565b73ffffffffffffffffffffffffffffffffffffffff8416600090815260016020818152604080842063ffffffff7fffffffffffffffffffffffffffffffffffffffffffffffffffffffffffffffff880116855290915290912001545b90506000612976828563ffffffff61240016565b90506121a085848484612989565b505050565b60006129ad43604051806060016040528060338152602001612ded60339139612b7a565b905060008463ffffffff16118015612a21575073ffffffffffffffffffffffffffffffffffffffff8516600090815260016020908152604080832063ffffffff7fffffffffffffffffffffffffffffffffffffffffffffffffffffffffffffffff8901811685529252909120548282169116145b15612a885773ffffffffffffffffffffffffffffffffffffffff8516600090815260016020818152604080842063ffffffff7fffffffffffffffffffffffffffffffffffffffffffffffffffffffffffffffff8a0116855290915290912001829055612b23565b60408051808201825263ffffffff8084168252602080830186815273ffffffffffffffffffffffffffffffffffffffff8a16600081815260018085528782208c871683528552878220965187549087167fffffffffffffffffffffffffffffffffffffffffffffffffffffffff0000000091821617885593519681019690965590815260029092529390208054928801909116919092161790555b6040805184815260208101849052815173ffffffffffffffffffffffffffffffffffffffff8816927fdec2bacdd2f05b59de34da9b523dff8be42e5e38e818c82fdb0bae774387a724928290030190a25050505050565b6000816401000000008410612bea576040517f08c379a00000000000000000000000000000000000000000000000000000000081526020600482018181528351602484015283519092839260449091019190850190808383600083156126d75781810151838201526020016126bf565b509192915050565b828054600181600116156101000203166002900490600052602060002090601f016020900481019282601f10612c3357805160ff1916838001178555612c60565b82800160010185558215612c60579182015b82811115612c60578251825591602001919060010190612c45565b50612c6c929150612c87565b5090565b604080518082019091526000808252602082015290565b610d1d91905b80821115612c6c5760008155600101612c8d56fe59414d3a3a64656c656761746542795369673a20696e76616c6964206e6f6e636559414d3a3a64656c656761746542795369673a20696e76616c6964207369676e61747572656f6e6c792074686520676f76206d61792063616c6c205f72657369676e496d706c656d656e746174696f6e59414d3a3a6765745072696f72566f7465733a206e6f74207965742064657465726d696e65646f6e6c792074686520676f76206d61792063616c6c205f6265636f6d65496d706c656d656e746174696f6e454950373132446f6d61696e28737472696e67206e616d652c75696e7432353620636861696e49642c6164647265737320766572696679696e67436f6e747261637429536166654d6174683a206d756c7469706c69636174696f6e206f766572666c6f7759414d3a3a64656c656761746542795369673a207369676e6174757265206578706972656459414d3a3a5f7772697465436865636b706f696e743a20626c6f636b206e756d6265722065786365656473203332206269747344656c65676174696f6e28616464726573732064656c6567617465652c75696e74323536206e6f6e63652c75696e743235362065787069727929a265627a7a7231582080a753d9b33f146a47dea66d7efe5c778fc7cd5ce2cddba4d5fd980a7750220064736f6c63430005110032",
  "source": "pragma solidity 0.5.17;\n\nimport \"./YAM.sol\";\n\ncontract YAMDelegationStorage {\n    /**\n     * @notice Implementation address for this contract\n     */\n    address public implementation;\n}\n\ncontract YAMDelegatorInterface is YAMDelegationStorage {\n    /**\n     * @notice Emitted when implementation is changed\n     */\n    event NewImplementation(address oldImplementation, address newImplementation);\n\n    /**\n     * @notice Called by the gov to update the implementation of the delegator\n     * @param implementation_ The address of the new implementation for delegation\n     * @param allowResign Flag to indicate whether to call _resignImplementation on the old implementation\n     * @param becomeImplementationData The encoded bytes data to be passed to _becomeImplementation\n     */\n    function _setImplementation(address implementation_, bool allowResign, bytes memory becomeImplementationData) public;\n}\n\ncontract YAMDelegateInterface is YAMDelegationStorage {\n    /**\n     * @notice Called by the delegator on a delegate to initialize it for duty\n     * @dev Should revert if any issues arise which make it unfit for delegation\n     * @param data The encoded bytes data for any initialization\n     */\n    function _becomeImplementation(bytes memory data) public;\n\n    /**\n     * @notice Called by the delegator on a delegate to forfeit its responsibility\n     */\n    function _resignImplementation() public;\n}\n\n\ncontract YAMDelegate is YAM, YAMDelegateInterface {\n    /**\n     * @notice Construct an empty delegate\n     */\n    constructor() public {}\n\n    /**\n     * @notice Called by the delegator on a delegate to initialize it for duty\n     * @param data The encoded bytes data for any initialization\n     */\n    function _becomeImplementation(bytes memory data) public {\n        // Shh -- currently unused\n        data;\n\n        // Shh -- we don't ever want this hook to be marked pure\n        if (false) {\n            implementation = address(0);\n        }\n\n        require(msg.sender == gov, \"only the gov may call _becomeImplementation\");\n    }\n\n    /**\n     * @notice Called by the delegator on a delegate to forfeit its responsibility\n     */\n    function _resignImplementation() public {\n        // Shh -- we don't ever want this hook to be marked pure\n        if (false) {\n            implementation = address(0);\n        }\n\n        require(msg.sender == gov, \"only the gov may call _resignImplementation\");\n    }\n}\n",
  "sourcePath": "/Users/brockelmore/YAM/contracts/token/YAMDelegate.sol",
  "compiler": {
    "name": "solc",
    "version": "0.5.17+commit.d19bba13.Linux.g++"
  },
  "schemaVersion": "3.0.16",
  "updatedAt": "2020-08-06T22:49:06.113Z",
  "devdoc": {
    "methods": {
      "_becomeImplementation(bytes)": {
        "params": {
          "data": "The encoded bytes data for any initialization"
        }
      },
      "_setIncentivizer(address)": {
        "params": {
          "incentivizer_": "The address of the rebaser contract to use for authentication."
        }
      },
      "_setPendingGov(address)": {
        "params": {
          "pendingGov_": "The address of the rebaser contract to use for authentication."
        }
      },
      "_setRebaser(address)": {
        "params": {
          "rebaser_": "The address of the rebaser contract to use for authentication."
        }
      },
      "allowance(address,address)": {
        "details": "Function to check the amount of tokens that an owner has allowed to a spender.",
        "params": {
          "owner_": "The address which owns the funds.",
          "spender": "The address which will spend the funds."
        },
        "return": "The number of tokens still available for the spender."
      },
      "approve(address,uint256)": {
        "details": "Approve the passed address to spend the specified amount of tokens on behalf of msg.sender. This method is included for ERC20 compatibility. increaseAllowance and decreaseAllowance should be used instead. Changing an allowance with this method brings the risk that someone may transfer both the old and the new allowance - if they are both greater than zero - if a transfer transaction is mined before the later approve() call is mined.",
        "params": {
          "spender": "The address which will spend the funds.",
          "value": "The amount of tokens to be spent."
        }
      },
      "balanceOf(address)": {
        "params": {
          "who": "The address to query."
        },
        "return": "The balance of the specified address."
      },
      "decreaseAllowance(address,uint256)": {
        "details": "Decrease the amount of tokens that an owner has allowed to a spender.",
        "params": {
          "spender": "The address which will spend the funds.",
          "subtractedValue": "The amount of tokens to decrease the allowance by."
        }
      },
      "delegate(address)": {
        "params": {
          "delegatee": "The address to delegate votes to"
        }
      },
      "delegateBySig(address,uint256,uint256,uint8,bytes32,bytes32)": {
        "params": {
          "delegatee": "The address to delegate votes to",
          "expiry": "The time at which to expire the signature",
          "nonce": "The contract state required to match the signature",
          "r": "Half of the ECDSA signature pair",
          "s": "Half of the ECDSA signature pair",
          "v": "The recovery byte of the signature"
        }
      },
      "getCurrentVotes(address)": {
        "params": {
          "account": "The address to get votes balance"
        },
        "return": "The number of current votes for `account`"
      },
      "getPriorVotes(address,uint256)": {
        "details": "Block number must be a finalized block or else this function will revert to prevent misinformation.",
        "params": {
          "account": "The address of the account to check",
          "blockNumber": "The block number to get the vote balance at"
        },
        "return": "The number of votes the account had as of the given block"
      },
      "increaseAllowance(address,uint256)": {
        "details": "Increase the amount of tokens that an owner has allowed to a spender. This method should be used instead of approve() to avoid the double approval vulnerability described above.",
        "params": {
          "addedValue": "The amount of tokens to increase the allowance by.",
          "spender": "The address which will spend the funds."
        }
      },
      "initialize(string,string,uint8,address,uint256)": {
        "params": {
          "decimals_": "ERC-20 decimal precision of this token",
          "name_": "ERC-20 name of this token",
          "symbol_": "ERC-20 symbol of this token"
        }
      },
      "rebase(uint256,uint256,bool)": {
        "details": "The supply adjustment equals (totalSupply * DeviationFromTargetRate) / rebaseLag     Where DeviationFromTargetRate is (MarketOracleRate - targetRate) / targetRate     and targetRate is CpiOracleRate / baseCpi"
      },
      "transfer(address,uint256)": {
        "details": "Transfer tokens to a specified address.",
        "params": {
          "to": "The address to transfer to.",
          "value": "The amount to be transferred."
        },
        "return": "True on success, false otherwise."
      },
      "transferFrom(address,address,uint256)": {
        "details": "Transfer tokens from one address to another.",
        "params": {
          "from": "The address you want to send tokens from.",
          "to": "The address you want to transfer to.",
          "value": "The amount of tokens to be transferred."
        }
      }
    }
  },
  "userdoc": {
    "methods": {
      "_acceptGov()": {
        "notice": "lets msg.sender accept governance     "
      },
      "_becomeImplementation(bytes)": {
        "notice": "Called by the delegator on a delegate to initialize it for duty"
      },
      "_resignImplementation()": {
        "notice": "Called by the delegator on a delegate to forfeit its responsibility"
      },
      "_setIncentivizer(address)": {
        "notice": "sets the incentivizer"
      },
      "_setPendingGov(address)": {
        "notice": "sets the pendingGov"
      },
      "_setRebaser(address)": {
        "notice": "sets the rebaser"
      },
      "constructor": "Construct an empty delegate",
      "delegate(address)": {
        "notice": "Delegate votes from `msg.sender` to `delegatee`"
      },
      "delegateBySig(address,uint256,uint256,uint8,bytes32,bytes32)": {
        "notice": "Delegates votes from signatory to `delegatee`"
      },
      "getCurrentVotes(address)": {
        "notice": "Gets the current votes balance for `account`"
      },
      "getPriorVotes(address,uint256)": {
        "notice": "Determine the prior number of votes for an account as of a block number"
      },
      "initialize(string,string,uint8,address,uint256)": {
        "notice": "Initialize the new money market"
      },
      "maxScalingFactor()": {
        "notice": "Computes the current max scaling factor"
      },
      "mint(address,uint256)": {
        "notice": "Mints new tokens, increasing totalSupply, initSupply, and a users balance."
      },
      "rebase(uint256,uint256,bool)": {
        "notice": "Initiates a new rebase operation, provided the minimum time period has elapsed."
      }
    }
  }
}