{
  "contractName": "YAMDelegator",
  "abi": [
    {
      "inputs": [
        {
          "internalType": "string",
          "name": "name_",
          "type": "string"
        },
        {
          "internalType": "string",
          "name": "symbol_",
          "type": "string"
        },
        {
          "internalType": "uint8",
          "name": "decimals_",
          "type": "uint8"
        },
        {
          "internalType": "address[]",
          "name": "initial_owners",
          "type": "address[]"
        },
        {
          "internalType": "uint256[]",
          "name": "amounts",
          "type": "uint256[]"
        },
        {
          "internalType": "uint256",
          "name": "init_supply_",
          "type": "uint256"
        },
        {
          "internalType": "address",
          "name": "rebaser_",
          "type": "address"
        },
        {
          "internalType": "address",
          "name": "incentivizer_",
          "type": "address"
        },
        {
          "internalType": "address",
          "name": "gov_",
          "type": "address"
        },
        {
          "internalType": "address",
          "name": "implementation_",
          "type": "address"
        },
        {
          "internalType": "bytes",
          "name": "becomeImplementationData",
          "type": "bytes"
        }
      ],
      "payable": false,
      "stateMutability": "nonpayable",
      "type": "constructor"
    },
    {
      "anonymous": false,
      "inputs": [
        {
          "indexed": true,
          "internalType": "address",
          "name": "owner",
          "type": "address"
        },
        {
          "indexed": true,
          "internalType": "address",
          "name": "spender",
          "type": "address"
        },
        {
          "indexed": false,
          "internalType": "uint256",
          "name": "amount",
          "type": "uint256"
        }
      ],
      "name": "Approval",
      "type": "event"
    },
    {
      "anonymous": false,
      "inputs": [
        {
          "indexed": true,
          "internalType": "address",
          "name": "delegator",
          "type": "address"
        },
        {
          "indexed": true,
          "internalType": "address",
          "name": "fromDelegate",
          "type": "address"
        },
        {
          "indexed": true,
          "internalType": "address",
          "name": "toDelegate",
          "type": "address"
        }
      ],
      "name": "DelegateChanged",
      "type": "event"
    },
    {
      "anonymous": false,
      "inputs": [
        {
          "indexed": true,
          "internalType": "address",
          "name": "delegate",
          "type": "address"
        },
        {
          "indexed": false,
          "internalType": "uint256",
          "name": "previousBalance",
          "type": "uint256"
        },
        {
          "indexed": false,
          "internalType": "uint256",
          "name": "newBalance",
          "type": "uint256"
        }
      ],
      "name": "DelegateVotesChanged",
      "type": "event"
    },
    {
      "anonymous": false,
      "inputs": [
        {
          "indexed": false,
          "internalType": "address",
          "name": "to",
          "type": "address"
        },
        {
          "indexed": false,
          "internalType": "uint256",
          "name": "amount",
          "type": "uint256"
        }
      ],
      "name": "Mint",
      "type": "event"
    },
    {
      "anonymous": false,
      "inputs": [
        {
          "indexed": false,
          "internalType": "address",
          "name": "oldGov",
          "type": "address"
        },
        {
          "indexed": false,
          "internalType": "address",
          "name": "newGov",
          "type": "address"
        }
      ],
      "name": "NewGov",
      "type": "event"
    },
    {
      "anonymous": false,
      "inputs": [
        {
          "indexed": false,
          "internalType": "address",
          "name": "oldImplementation",
          "type": "address"
        },
        {
          "indexed": false,
          "internalType": "address",
          "name": "newImplementation",
          "type": "address"
        }
      ],
      "name": "NewImplementation",
      "type": "event"
    },
    {
      "anonymous": false,
      "inputs": [
        {
          "indexed": false,
          "internalType": "address",
          "name": "oldIncentivizer",
          "type": "address"
        },
        {
          "indexed": false,
          "internalType": "address",
          "name": "newIncentivizer",
          "type": "address"
        }
      ],
      "name": "NewIncentivizer",
      "type": "event"
    },
    {
      "anonymous": false,
      "inputs": [
        {
          "indexed": false,
          "internalType": "address",
          "name": "oldPendingGov",
          "type": "address"
        },
        {
          "indexed": false,
          "internalType": "address",
          "name": "newPendingGov",
          "type": "address"
        }
      ],
      "name": "NewPendingGov",
      "type": "event"
    },
    {
      "anonymous": false,
      "inputs": [
        {
          "indexed": false,
          "internalType": "address",
          "name": "oldRebaser",
          "type": "address"
        },
        {
          "indexed": false,
          "internalType": "address",
          "name": "newRebaser",
          "type": "address"
        }
      ],
      "name": "NewRebaser",
      "type": "event"
    },
    {
      "anonymous": false,
      "inputs": [
        {
          "indexed": false,
          "internalType": "uint256",
          "name": "epoch",
          "type": "uint256"
        },
        {
          "indexed": false,
          "internalType": "uint256",
          "name": "prevYamsScalingFactor",
          "type": "uint256"
        },
        {
          "indexed": false,
          "internalType": "uint256",
          "name": "newYamsScalingFactor",
          "type": "uint256"
        }
      ],
      "name": "Rebase",
      "type": "event"
    },
    {
      "anonymous": false,
      "inputs": [
        {
          "indexed": true,
          "internalType": "address",
          "name": "from",
          "type": "address"
        },
        {
          "indexed": true,
          "internalType": "address",
          "name": "to",
          "type": "address"
        },
        {
          "indexed": false,
          "internalType": "uint256",
          "name": "amount",
          "type": "uint256"
        }
      ],
      "name": "Transfer",
      "type": "event"
    },
    {
      "payable": true,
      "stateMutability": "payable",
      "type": "fallback"
    },
    {
      "constant": true,
      "inputs": [],
      "name": "DELEGATION_TYPEHASH",
      "outputs": [
        {
          "internalType": "bytes32",
          "name": "",
          "type": "bytes32"
        }
      ],
      "payable": false,
      "stateMutability": "view",
      "type": "function"
    },
    {
      "constant": true,
      "inputs": [],
      "name": "DOMAIN_TYPEHASH",
      "outputs": [
        {
          "internalType": "bytes32",
          "name": "",
          "type": "bytes32"
        }
      ],
      "payable": false,
      "stateMutability": "view",
      "type": "function"
    },
    {
      "constant": true,
      "inputs": [
        {
          "internalType": "address",
          "name": "",
          "type": "address"
        },
        {
          "internalType": "uint32",
          "name": "",
          "type": "uint32"
        }
      ],
      "name": "checkpoints",
      "outputs": [
        {
          "internalType": "uint32",
          "name": "fromBlock",
          "type": "uint32"
        },
        {
          "internalType": "uint256",
          "name": "votes",
          "type": "uint256"
        }
      ],
      "payable": false,
      "stateMutability": "view",
      "type": "function"
    },
    {
      "constant": true,
      "inputs": [],
      "name": "decimals",
      "outputs": [
        {
          "internalType": "uint8",
          "name": "",
          "type": "uint8"
        }
      ],
      "payable": false,
      "stateMutability": "view",
      "type": "function"
    },
    {
      "constant": false,
      "inputs": [
        {
          "internalType": "address",
          "name": "spender",
          "type": "address"
        },
        {
          "internalType": "uint256",
          "name": "subtractedValue",
          "type": "uint256"
        }
      ],
      "name": "decreaseAllowance",
      "outputs": [
        {
          "internalType": "bool",
          "name": "",
          "type": "bool"
        }
      ],
      "payable": false,
      "stateMutability": "nonpayable",
      "type": "function"
    },
    {
      "constant": false,
      "inputs": [
        {
          "internalType": "address",
          "name": "delegatee",
          "type": "address"
        }
      ],
      "name": "delegate",
      "outputs": [],
      "payable": false,
      "stateMutability": "nonpayable",
      "type": "function"
    },
    {
      "constant": false,
      "inputs": [
        {
          "internalType": "address",
          "name": "delegatee",
          "type": "address"
        },
        {
          "internalType": "uint256",
          "name": "nonce",
          "type": "uint256"
        },
        {
          "internalType": "uint256",
          "name": "expiry",
          "type": "uint256"
        },
        {
          "internalType": "uint8",
          "name": "v",
          "type": "uint8"
        },
        {
          "internalType": "bytes32",
          "name": "r",
          "type": "bytes32"
        },
        {
          "internalType": "bytes32",
          "name": "s",
          "type": "bytes32"
        }
      ],
      "name": "delegateBySig",
      "outputs": [],
      "payable": false,
      "stateMutability": "nonpayable",
      "type": "function"
    },
    {
      "constant": true,
      "inputs": [
        {
          "internalType": "address",
          "name": "",
          "type": "address"
        }
      ],
      "name": "delegates",
      "outputs": [
        {
          "internalType": "address",
          "name": "",
          "type": "address"
        }
      ],
      "payable": false,
      "stateMutability": "view",
      "type": "function"
    },
    {
      "constant": true,
      "inputs": [
        {
          "internalType": "address",
          "name": "account",
          "type": "address"
        }
      ],
      "name": "getCurrentVotes",
      "outputs": [
        {
          "internalType": "uint256",
          "name": "",
          "type": "uint256"
        }
      ],
      "payable": false,
      "stateMutability": "view",
      "type": "function"
    },
    {
      "constant": true,
      "inputs": [
        {
          "internalType": "address",
          "name": "account",
          "type": "address"
        },
        {
          "internalType": "uint256",
          "name": "blockNumber",
          "type": "uint256"
        }
      ],
      "name": "getPriorVotes",
      "outputs": [
        {
          "internalType": "uint256",
          "name": "",
          "type": "uint256"
        }
      ],
      "payable": false,
      "stateMutability": "view",
      "type": "function"
    },
    {
      "constant": true,
      "inputs": [],
      "name": "gov",
      "outputs": [
        {
          "internalType": "address",
          "name": "",
          "type": "address"
        }
      ],
      "payable": false,
      "stateMutability": "view",
      "type": "function"
    },
    {
      "constant": true,
      "inputs": [],
      "name": "implementation",
      "outputs": [
        {
          "internalType": "address",
          "name": "",
          "type": "address"
        }
      ],
      "payable": false,
      "stateMutability": "view",
      "type": "function"
    },
    {
      "constant": true,
      "inputs": [],
      "name": "incentivizer",
      "outputs": [
        {
          "internalType": "address",
          "name": "",
          "type": "address"
        }
      ],
      "payable": false,
      "stateMutability": "view",
      "type": "function"
    },
    {
      "constant": false,
      "inputs": [
        {
          "internalType": "address",
          "name": "spender",
          "type": "address"
        },
        {
          "internalType": "uint256",
          "name": "addedValue",
          "type": "uint256"
        }
      ],
      "name": "increaseAllowance",
      "outputs": [
        {
          "internalType": "bool",
          "name": "",
          "type": "bool"
        }
      ],
      "payable": false,
      "stateMutability": "nonpayable",
      "type": "function"
    },
    {
      "constant": true,
      "inputs": [],
      "name": "init_supply",
      "outputs": [
        {
          "internalType": "uint256",
          "name": "",
          "type": "uint256"
        }
      ],
      "payable": false,
      "stateMutability": "view",
      "type": "function"
    },
    {
      "constant": false,
      "inputs": [
        {
          "internalType": "string",
          "name": "name_",
          "type": "string"
        },
        {
          "internalType": "string",
          "name": "symbol_",
          "type": "string"
        },
        {
          "internalType": "uint8",
          "name": "decimals_",
          "type": "uint8"
        }
      ],
      "name": "initialize",
      "outputs": [],
      "payable": false,
      "stateMutability": "nonpayable",
      "type": "function"
    },
    {
      "constant": false,
      "inputs": [
        {
          "internalType": "string",
          "name": "name_",
          "type": "string"
        },
        {
          "internalType": "string",
          "name": "symbol_",
          "type": "string"
        },
        {
          "internalType": "uint8",
          "name": "decimals_",
          "type": "uint8"
        },
        {
          "internalType": "address",
          "name": "initial_owner",
          "type": "address"
        },
        {
          "internalType": "uint256",
          "name": "init_supply_",
          "type": "uint256"
        },
        {
          "internalType": "address",
          "name": "rebaser_",
          "type": "address"
        },
        {
          "internalType": "address",
          "name": "incentivizer_",
          "type": "address"
        },
        {
          "internalType": "address",
          "name": "gov_",
          "type": "address"
        }
      ],
      "name": "initialize",
      "outputs": [],
      "payable": false,
      "stateMutability": "nonpayable",
      "type": "function"
    },
    {
      "constant": true,
      "inputs": [],
      "name": "maxScalingFactor",
      "outputs": [
        {
          "internalType": "uint256",
          "name": "",
          "type": "uint256"
        }
      ],
      "payable": false,
      "stateMutability": "view",
      "type": "function"
    },
    {
      "constant": true,
      "inputs": [],
      "name": "name",
      "outputs": [
        {
          "internalType": "string",
          "name": "",
          "type": "string"
        }
      ],
      "payable": false,
      "stateMutability": "view",
      "type": "function"
    },
    {
      "constant": true,
      "inputs": [
        {
          "internalType": "address",
          "name": "",
          "type": "address"
        }
      ],
      "name": "nonces",
      "outputs": [
        {
          "internalType": "uint256",
          "name": "",
          "type": "uint256"
        }
      ],
      "payable": false,
      "stateMutability": "view",
      "type": "function"
    },
    {
      "constant": true,
      "inputs": [
        {
          "internalType": "address",
          "name": "",
          "type": "address"
        }
      ],
      "name": "numCheckpoints",
      "outputs": [
        {
          "internalType": "uint32",
          "name": "",
          "type": "uint32"
        }
      ],
      "payable": false,
      "stateMutability": "view",
      "type": "function"
    },
    {
      "constant": true,
      "inputs": [],
      "name": "pendingGov",
      "outputs": [
        {
          "internalType": "address",
          "name": "",
          "type": "address"
        }
      ],
      "payable": false,
      "stateMutability": "view",
      "type": "function"
    },
    {
      "constant": false,
      "inputs": [
        {
          "internalType": "uint256",
          "name": "epoch",
          "type": "uint256"
        },
        {
          "internalType": "uint256",
          "name": "indexDelta",
          "type": "uint256"
        },
        {
          "internalType": "bool",
          "name": "positive",
          "type": "bool"
        }
      ],
      "name": "rebase",
      "outputs": [
        {
          "internalType": "uint256",
          "name": "",
          "type": "uint256"
        }
      ],
      "payable": false,
      "stateMutability": "nonpayable",
      "type": "function"
    },
    {
      "constant": true,
      "inputs": [],
      "name": "rebaser",
      "outputs": [
        {
          "internalType": "address",
          "name": "",
          "type": "address"
        }
      ],
      "payable": false,
      "stateMutability": "view",
      "type": "function"
    },
    {
      "constant": true,
      "inputs": [],
      "name": "symbol",
      "outputs": [
        {
          "internalType": "string",
          "name": "",
          "type": "string"
        }
      ],
      "payable": false,
      "stateMutability": "view",
      "type": "function"
    },
    {
      "constant": true,
      "inputs": [],
      "name": "totalSupply",
      "outputs": [
        {
          "internalType": "uint256",
          "name": "",
          "type": "uint256"
        }
      ],
      "payable": false,
      "stateMutability": "view",
      "type": "function"
    },
    {
      "constant": true,
      "inputs": [],
      "name": "yamsScalingFactor",
      "outputs": [
        {
          "internalType": "uint256",
          "name": "",
          "type": "uint256"
        }
      ],
      "payable": false,
      "stateMutability": "view",
      "type": "function"
    },
    {
      "constant": false,
      "inputs": [
        {
          "internalType": "address",
          "name": "implementation_",
          "type": "address"
        },
        {
          "internalType": "bool",
          "name": "allowResign",
          "type": "bool"
        },
        {
          "internalType": "bytes",
          "name": "becomeImplementationData",
          "type": "bytes"
        }
      ],
      "name": "_setImplementation",
      "outputs": [],
      "payable": false,
      "stateMutability": "nonpayable",
      "type": "function"
    },
    {
      "constant": false,
      "inputs": [
        {
          "internalType": "address",
          "name": "to",
          "type": "address"
        },
        {
          "internalType": "uint256",
          "name": "mintAmount",
          "type": "uint256"
        }
      ],
      "name": "mint",
      "outputs": [],
      "payable": false,
      "stateMutability": "nonpayable",
      "type": "function"
    },
    {
      "constant": false,
      "inputs": [
        {
          "internalType": "address",
          "name": "dst",
          "type": "address"
        },
        {
          "internalType": "uint256",
          "name": "amount",
          "type": "uint256"
        }
      ],
      "name": "transfer",
      "outputs": [
        {
          "internalType": "bool",
          "name": "",
          "type": "bool"
        }
      ],
      "payable": false,
      "stateMutability": "nonpayable",
      "type": "function"
    },
    {
      "constant": false,
      "inputs": [
        {
          "internalType": "address",
          "name": "src",
          "type": "address"
        },
        {
          "internalType": "address",
          "name": "dst",
          "type": "address"
        },
        {
          "internalType": "uint256",
          "name": "amount",
          "type": "uint256"
        }
      ],
      "name": "transferFrom",
      "outputs": [
        {
          "internalType": "bool",
          "name": "",
          "type": "bool"
        }
      ],
      "payable": false,
      "stateMutability": "nonpayable",
      "type": "function"
    },
    {
      "constant": false,
      "inputs": [
        {
          "internalType": "address",
          "name": "spender",
          "type": "address"
        },
        {
          "internalType": "uint256",
          "name": "amount",
          "type": "uint256"
        }
      ],
      "name": "approve",
      "outputs": [
        {
          "internalType": "bool",
          "name": "",
          "type": "bool"
        }
      ],
      "payable": false,
      "stateMutability": "nonpayable",
      "type": "function"
    },
    {
      "constant": true,
      "inputs": [
        {
          "internalType": "address",
          "name": "owner",
          "type": "address"
        },
        {
          "internalType": "address",
          "name": "spender",
          "type": "address"
        }
      ],
      "name": "allowance",
      "outputs": [
        {
          "internalType": "uint256",
          "name": "",
          "type": "uint256"
        }
      ],
      "payable": false,
      "stateMutability": "view",
      "type": "function"
    },
    {
      "constant": true,
      "inputs": [
        {
          "internalType": "address",
          "name": "owner",
          "type": "address"
        }
      ],
      "name": "balanceOf",
      "outputs": [
        {
          "internalType": "uint256",
          "name": "",
          "type": "uint256"
        }
      ],
      "payable": false,
      "stateMutability": "view",
      "type": "function"
    },
    {
      "constant": false,
      "inputs": [
        {
          "internalType": "address",
          "name": "newPendingGov",
          "type": "address"
        }
      ],
      "name": "_setPendingGov",
      "outputs": [],
      "payable": false,
      "stateMutability": "nonpayable",
      "type": "function"
    },
    {
      "constant": false,
      "inputs": [
        {
          "internalType": "address",
          "name": "rebaser_",
          "type": "address"
        }
      ],
      "name": "_setRebaser",
      "outputs": [],
      "payable": false,
      "stateMutability": "nonpayable",
      "type": "function"
    },
    {
      "constant": false,
      "inputs": [
        {
          "internalType": "address",
          "name": "incentivizer_",
          "type": "address"
        }
      ],
      "name": "_setIncentivizer",
      "outputs": [],
      "payable": false,
      "stateMutability": "nonpayable",
      "type": "function"
    },
    {
      "constant": false,
      "inputs": [],
      "name": "_acceptGov",
      "outputs": [],
      "payable": false,
      "stateMutability": "nonpayable",
      "type": "function"
    },
    {
      "constant": false,
      "inputs": [
        {
          "internalType": "bytes",
          "name": "data",
          "type": "bytes"
        }
      ],
      "name": "delegateToImplementation",
      "outputs": [
        {
          "internalType": "bytes",
          "name": "",
          "type": "bytes"
        }
      ],
      "payable": false,
      "stateMutability": "nonpayable",
      "type": "function"
    },
    {
      "constant": true,
      "inputs": [
        {
          "internalType": "bytes",
          "name": "data",
          "type": "bytes"
        }
      ],
      "name": "delegateToViewImplementation",
      "outputs": [
        {
          "internalType": "bytes",
          "name": "",
          "type": "bytes"
        }
      ],
      "payable": false,
      "stateMutability": "view",
      "type": "function"
    }
  ],
  "bytecode": "0x60806040523480156200001157600080fd5b50604051620038573803806200385783398181016040526101608110156200003857600080fd5b81019080805160405193929190846401000000008211156200005957600080fd5b9083019060208201858111156200006f57600080fd5b82516401000000008111828201881017156200008a57600080fd5b82525081516020918201929091019080838360005b83811015620000b95781810151838201526020016200009f565b50505050905090810190601f168015620000e75780820380516001836020036101000a031916815260200191505b50604052602001805160405193929190846401000000008211156200010b57600080fd5b9083019060208201858111156200012157600080fd5b82516401000000008111828201881017156200013c57600080fd5b82525081516020918201929091019080838360005b838110156200016b57818101518382015260200162000151565b50505050905090810190601f168015620001995780820380516001836020036101000a031916815260200191505b50604081815260208301519201805192949193919284640100000000821115620001c257600080fd5b908301906020820185811115620001d857600080fd5b8251866020820283011164010000000082111715620001f657600080fd5b82525081516020918201928201910280838360005b83811015620002255781810151838201526020016200020b565b50505050905001604052602001805160405193929190846401000000008211156200024f57600080fd5b9083019060208201858111156200026557600080fd5b82518660208202830111640100000000821117156200028357600080fd5b82525081516020918201928201910280838360005b83811015620002b257818101518382015260200162000298565b505050509190910160408181526020840151908401516060850151608086015160a087015160c0909701805194999398929791965090949384640100000000821115620002fe57600080fd5b9083019060208201858111156200031457600080fd5b82516401000000008111828201881017156200032f57600080fd5b82525081516020918201929091019080838360005b838110156200035e57818101518382015260200162000344565b50505050905090810190601f1680156200038c5780820380516001836020036101000a031916815260200191505b5060405250505033600760016101000a8154816001600160a01b0302191690836001600160a01b03160217905550620005d5828c8c8c8c8c8c8c8c8c6040516024018080602001806020018a60ff1660ff1681526020018060200180602001898152602001886001600160a01b03166001600160a01b03168152602001876001600160a01b03166001600160a01b03168152602001866001600160a01b03166001600160a01b0316815260200185810385528e818151815260200191508051906020019080838360005b838110156200047057818101518382015260200162000456565b50505050905090810190601f1680156200049e5780820380516001836020036101000a031916815260200191505b5085810384528d5181528d516020918201918f019080838360005b83811015620004d3578181015183820152602001620004b9565b50505050905090810190601f168015620005015780820380516001836020036101000a031916815260200191505b5085810383528b5181528b51602091820191808e01910280838360005b83811015620005385781810151838201526020016200051e565b5050505090500185810382528a818151815260200191508051906020019060200280838360005b83811015620005795781810151838201526020016200055f565b505050509050019d505050505050505050505050505060405160208183030381529060405263c8d5478d60e01b6001600160e01b0319166020820180516001600160e01b0383818316178352505050506200062460201b60201c565b50620005ed826000836001600160e01b03620006eb16565b5050600780546001600160a01b0390921661010002610100600160a81b031990921691909117905550620008cc9650505050505050565b606060006060846001600160a01b0316846040518082805190602001908083835b60208310620006665780518252601f19909201916020918201910162000645565b6001836020036101000a038019825116818451168082178552505050505050905001915050600060405180830381855af49150503d8060008114620006c8576040519150601f19603f3d011682016040523d82523d6000602084013e620006cd565b606091505b50915091506000821415620006e3573d60208201fd5b949350505050565b60075461010090046001600160a01b031633146200073b5760405162461bcd60e51b8152600401808060200182810382526034815260200180620038236034913960400191505060405180910390fd5b81156200077d576040805160048152602481019091526020810180516001600160e01b0390811663153ab50560e01b179091526200077b9190620008a216565b505b601080546001600160a01b038581166001600160a01b0319831617909255604051602060248201818152855160448401528551949093169362000853938693909283926064909201919085019080838360005b83811015620007ea578181015183820152602001620007d0565b50505050905090810190601f168015620008185780820380516001836020036101000a031916815260200191505b5060408051601f198184030181529190526020810180516001600160e01b03908116630adccee560e31b17909152909350620008a216915050565b50601054604080516001600160a01b038085168252909216602083015280517fd604de94d45953f9138079ec1b82d533cb2160c906d1076d1f7ed54befbca97a9281900390910190a150505050565b601054606090620008c6906001600160a01b0316836001600160e01b036200062416565b92915050565b612f4780620008dc6000396000f3fe6080604052600436106102bb5760003560e01c80636fc6407c1161016e578063a457c2d7116100cb578063dd62ed3e1161007f578063e7a324dc11610064578063e7a324dc14610e7a578063f1127ed814610e8f578063fa8f345514610a97576102bb565b8063dd62ed3e14610cbb578063e34fed8214610d03576102bb565b8063b4b5ea57116100b0578063b4b5ea5714610c05578063b6fa857614610c45578063c3cda52014610c5a576102bb565b8063a457c2d714610bbf578063a9059cbb1461045a576102bb565b80637af548c111610122578063800cecf611610107578063800cecf614610b9557806395d89b4114610baa57806398dca21014610a97576102bb565b80637af548c114610b1d5780637ecebe0014610b55576102bb565b806370a082311161015357806370a0823114610a5757806373f03dff14610a97578063782d6fe114610ad7576102bb565b80636fc6407c146109e95780636fcfff45146109fe576102bb565b8063252408101161021c5780634bda2e20116101d0578063587cde1e116101b5578063587cde1e146109545780635c19a95c146109945780635c60da1b146109d4576102bb565b80634bda2e2014610868578063555bcc401461087d576102bb565b80633950935111610201578063395093511461072957806340c10f191461076f5780634487152f146107b5576102bb565b806325240810146106e9578063313ce567146106fe576102bb565b806312d43a511161027357806318160ddd1161025857806318160ddd1461066f57806320606b701461068457806323b872dd14610699576102bb565b806312d43a51146105195780631624f6c61461052e576102bb565b8063095ea7b3116102a4578063095ea7b31461045a57806311d3e6c4146104b457806311fd8a83146104db576102bb565b806306fdde031461031d5780630933c1ed146103a7575b3415610312576040517f08c379a0000000000000000000000000000000000000000000000000000000008152600401808060200182810382526034815260200180612de46034913960400191505060405180910390fd5b61031a610efb565b50005b34801561032957600080fd5b50610332610f90565b6040805160208082528351818301528351919283929083019185019080838360005b8381101561036c578181015183820152602001610354565b50505050905090810190601f1680156103995780820380516001836020036101000a031916815260200191505b509250505060405180910390f35b3480156103b357600080fd5b50610332600480360360208110156103ca57600080fd5b8101906020810181356401000000008111156103e557600080fd5b8201836020820111156103f757600080fd5b8035906020019184600183028401116401000000008311171561041957600080fd5b91908080601f01602080910402602001604051908101604052809392919081815260200183838082843760009201919091525092955061103c945050505050565b34801561046657600080fd5b506104a06004803603604081101561047d57600080fd5b5073ffffffffffffffffffffffffffffffffffffffff8135169060200135611068565b604080519115158252519081900360200190f35b3480156104c057600080fd5b506104c9611079565b60408051918252519081900360200190f35b3480156104e757600080fd5b506104f0611089565b6040805173ffffffffffffffffffffffffffffffffffffffff9092168252519081900360200190f35b34801561052557600080fd5b506104f06110a5565b34801561053a57600080fd5b5061066d6004803603606081101561055157600080fd5b81019060208101813564010000000081111561056c57600080fd5b82018360208201111561057e57600080fd5b803590602001918460018302840111640100000000831117156105a057600080fd5b91908080601f01602080910402602001604051908101604052809392919081815260200183838082843760009201919091525092959493602081019350359150506401000000008111156105f357600080fd5b82018360208201111561060557600080fd5b8035906020019184600183028401116401000000008311171561062757600080fd5b91908080601f0160208091040260200160405190810160405280939291908181526020018383808284376000920191909152509295505050903560ff1691506110c69050565b005b34801561067b57600080fd5b506104c9611193565b34801561069057600080fd5b506104c9611199565b3480156106a557600080fd5b506104a0600480360360608110156106bc57600080fd5b5073ffffffffffffffffffffffffffffffffffffffff8135811691602081013590911690604001356111b4565b3480156106f557600080fd5b506104f06111c6565b34801561070a57600080fd5b506107136111e2565b6040805160ff9092168252519081900360200190f35b34801561073557600080fd5b506104a06004803603604081101561074c57600080fd5b5073ffffffffffffffffffffffffffffffffffffffff81351690602001356111eb565b34801561077b57600080fd5b5061066d6004803603604081101561079257600080fd5b5073ffffffffffffffffffffffffffffffffffffffff813516906020013561129e565b3480156107c157600080fd5b50610332600480360360208110156107d857600080fd5b8101906020810181356401000000008111156107f357600080fd5b82018360208201111561080557600080fd5b8035906020019184600183028401116401000000008311171561082757600080fd5b91908080601f0160208091040260200160405190810160405280939291908181526020018383808284376000920191909152509295506112ab945050505050565b34801561087457600080fd5b5061066d611543565b34801561088957600080fd5b5061066d600480360360608110156108a057600080fd5b73ffffffffffffffffffffffffffffffffffffffff8235169160208101351515918101906060810160408201356401000000008111156108df57600080fd5b8201836020820111156108f157600080fd5b8035906020019184600183028401116401000000008311171561091357600080fd5b91908080601f01602080910402602001604051908101604052809392919081815260200183838082843760009201919091525092955061154e945050505050565b34801561096057600080fd5b506104f06004803603602081101561097757600080fd5b503573ffffffffffffffffffffffffffffffffffffffff166117c4565b3480156109a057600080fd5b5061066d600480360360208110156109b757600080fd5b503573ffffffffffffffffffffffffffffffffffffffff166117ec565b3480156109e057600080fd5b506104f06117f6565b3480156109f557600080fd5b506104f0611812565b348015610a0a57600080fd5b50610a3e60048036036020811015610a2157600080fd5b503573ffffffffffffffffffffffffffffffffffffffff1661182e565b6040805163ffffffff9092168252519081900360200190f35b348015610a6357600080fd5b506104c960048036036020811015610a7a57600080fd5b503573ffffffffffffffffffffffffffffffffffffffff16611846565b348015610aa357600080fd5b5061066d60048036036020811015610aba57600080fd5b503573ffffffffffffffffffffffffffffffffffffffff16611856565b348015610ae357600080fd5b506104c960048036036040811015610afa57600080fd5b5073ffffffffffffffffffffffffffffffffffffffff8135169060200135611862565b348015610b2957600080fd5b506104c960048036036060811015610b4057600080fd5b50803590602081013590604001351515611b28565b348015610b6157600080fd5b506104c960048036036020811015610b7857600080fd5b503573ffffffffffffffffffffffffffffffffffffffff16611c4a565b348015610ba157600080fd5b506104c9611c5c565b348015610bb657600080fd5b50610332611c62565b348015610bcb57600080fd5b506104a060048036036040811015610be257600080fd5b5073ffffffffffffffffffffffffffffffffffffffff8135169060200135611cdb565b348015610c1157600080fd5b506104c960048036036020811015610c2857600080fd5b503573ffffffffffffffffffffffffffffffffffffffff16611dfe565b348015610c5157600080fd5b506104c9611e98565b348015610c6657600080fd5b5061066d600480360360c0811015610c7d57600080fd5b5073ffffffffffffffffffffffffffffffffffffffff8135169060208101359060408101359060ff6060820135169060808101359060a00135611e9e565b348015610cc757600080fd5b506104c960048036036040811015610cde57600080fd5b5073ffffffffffffffffffffffffffffffffffffffff81358116916020013516612255565b348015610d0f57600080fd5b5061066d6004803603610100811015610d2757600080fd5b810190602081018135640100000000811115610d4257600080fd5b820183602082011115610d5457600080fd5b80359060200191846001830284011164010000000083111715610d7657600080fd5b91908080601f0160208091040260200160405190810160405280939291908181526020018383808284376000920191909152509295949360208101935035915050640100000000811115610dc957600080fd5b820183602082011115610ddb57600080fd5b80359060200191846001830284011164010000000083111715610dfd57600080fd5b91908080601f0160208091040260200160405190810160405280939291908181526020018383808284376000920191909152509295505060ff83351693505073ffffffffffffffffffffffffffffffffffffffff6020830135811692604081013592506060810135821691608082013581169160a001351661225f565b348015610e8657600080fd5b506104c961235c565b348015610e9b57600080fd5b50610edb60048036036040811015610eb257600080fd5b50803573ffffffffffffffffffffffffffffffffffffffff16906020013563ffffffff16612377565b6040805163ffffffff909316835260208301919091528051918290030190f35b60105460405160609160009173ffffffffffffffffffffffffffffffffffffffff90911690829036908083838082843760405192019450600093509091505080830381855af49150503d8060008114610f70576040519150601f19603f3d011682016040523d82523d6000602084013e610f75565b606091505b505090506040513d6000823e818015610f8c573d82f35b3d82fd5b6005805460408051602060026001851615610100027fffffffffffffffffffffffffffffffffffffffffffffffffffffffffffffffff0190941693909304601f810184900484028201840190925281815292918301828280156110345780601f1061100957610100808354040283529160200191611034565b820191906000526020600020905b81548152906001019060200180831161101757829003601f168201915b505050505081565b6010546060906110629073ffffffffffffffffffffffffffffffffffffffff16836123a1565b92915050565b6000611072610efb565b5092915050565b600061108361248e565b90505b90565b60095473ffffffffffffffffffffffffffffffffffffffff1681565b600754610100900473ffffffffffffffffffffffffffffffffffffffff1681565b600c541561113557604080517f08c379a000000000000000000000000000000000000000000000000000000000815260206004820152601360248201527f616c726561647920696e697469616c697a656400000000000000000000000000604482015290519081900360640190fd5b8251611148906005906020860190612cba565b50815161115c906006906020850190612cba565b50600780547fffffffffffffffffffffffffffffffffffffffffffffffffffffffffffffff001660ff929092169190911790555050565b600b5481565b604051806043612e3e82396043019050604051809103902081565b60006111be610efb565b509392505050565b60085473ffffffffffffffffffffffffffffffffffffffff1681565b60075460ff1681565b336000908152600e6020908152604080832073ffffffffffffffffffffffffffffffffffffffff8616845290915281205461122c908363ffffffff6124c116565b336000818152600e6020908152604080832073ffffffffffffffffffffffffffffffffffffffff89168085529083529281902085905580519485525191937f8c5be1e5ebec7d5bd14f71427d1e84f3dd0314c0f7b2291e5b200ac8c7c3b925929081900390910190a350600192915050565b6112a6610efb565b505050565b6060600060603073ffffffffffffffffffffffffffffffffffffffff16846040516024018080602001828103825283818151815260200191508051906020019080838360005b838110156113095781810151838201526020016112f1565b50505050905090810190601f1680156113365780820380516001836020036101000a031916815260200191505b50604080517fffffffffffffffffffffffffffffffffffffffffffffffffffffffffffffffe08184030181529181526020820180517bffffffffffffffffffffffffffffffffffffffffffffffffffffffff167f0933c1ed00000000000000000000000000000000000000000000000000000000178152905182519295509350839250908083835b602083106113fb57805182527fffffffffffffffffffffffffffffffffffffffffffffffffffffffffffffffe090920191602091820191016113be565b6001836020036101000a038019825116818451168082178552505050505050905001915050600060405180830381855afa9150503d806000811461145b576040519150601f19603f3d011682016040523d82523d6000602084013e611460565b606091505b50915091506000821415611475573d60208201fd5b80806020019051602081101561148a57600080fd5b81019080805160405193929190846401000000008211156114aa57600080fd5b9083019060208201858111156114bf57600080fd5b82516401000000008111828201881017156114d957600080fd5b82525081516020918201929091019080838360005b838110156115065781810151838201526020016114ee565b50505050905090810190601f1680156115335780820380516001836020036101000a031916815260200191505b5060405250505092505050919050565b61154b610efb565b50565b600754610100900473ffffffffffffffffffffffffffffffffffffffff1633146115c3576040517f08c379a0000000000000000000000000000000000000000000000000000000008152600401808060200182810382526034815260200180612db06034913960400191505060405180910390fd5b811561162b576040805160048152602481019091526020810180517bffffffffffffffffffffffffffffffffffffffffffffffffffffffff167f153ab505000000000000000000000000000000000000000000000000000000001790526116299061103c565b505b6010805473ffffffffffffffffffffffffffffffffffffffff8581167fffffffffffffffffffffffff00000000000000000000000000000000000000008316179092556040516020602482018181528551604484015285519490931693611768938693909283926064909201919085019080838360005b838110156116ba5781810151838201526020016116a2565b50505050905090810190601f1680156116e75780820380516001836020036101000a031916815260200191505b50604080517fffffffffffffffffffffffffffffffffffffffffffffffffffffffffffffffe08184030181529190526020810180517bffffffffffffffffffffffffffffffffffffffffffffffffffffffff167f56e6772800000000000000000000000000000000000000000000000000000000179052925061103c915050565b506010546040805173ffffffffffffffffffffffffffffffffffffffff8085168252909216602083015280517fd604de94d45953f9138079ec1b82d533cb2160c906d1076d1f7ed54befbca97a9281900390910190a150505050565b60006020819052908152604090205473ffffffffffffffffffffffffffffffffffffffff1681565b61154b3382612535565b60105473ffffffffffffffffffffffffffffffffffffffff1681565b600a5473ffffffffffffffffffffffffffffffffffffffff1681565b60026020526000908152604090205463ffffffff1681565b60006118506125d8565b50919050565b61185e610efb565b5050565b60004382106118bc576040517f08c379a0000000000000000000000000000000000000000000000000000000008152600401808060200182810382526026815260200180612e186026913960400191505060405180910390fd5b73ffffffffffffffffffffffffffffffffffffffff831660009081526002602052604090205463ffffffff16806118f7576000915050611062565b73ffffffffffffffffffffffffffffffffffffffff8416600090815260016020908152604080832063ffffffff7fffffffffffffffffffffffffffffffffffffffffffffffffffffffffffffffff8601811685529252909120541683106119bc5773ffffffffffffffffffffffffffffffffffffffff841660009081526001602081815260408084207fffffffffffffffffffffffffffffffffffffffffffffffffffffffffffffffff9590950163ffffffff16845293905291902001549050611062565b73ffffffffffffffffffffffffffffffffffffffff8416600090815260016020908152604080832083805290915290205463ffffffff16831015611a04576000915050611062565b60007fffffffffffffffffffffffffffffffffffffffffffffffffffffffffffffffff82015b8163ffffffff168163ffffffff161115611ae457600282820363ffffffff16048103611a54612d38565b5073ffffffffffffffffffffffffffffffffffffffff8716600090815260016020818152604080842063ffffffff8087168652908352938190208151808301909252805490941680825293909201549082015290871415611abf576020015194506110629350505050565b805163ffffffff16871115611ad657819350611add565b6001820392505b5050611a2a565b5073ffffffffffffffffffffffffffffffffffffffff8516600090815260016020818152604080842063ffffffff9095168452939052919020015491505092915050565b60095460009073ffffffffffffffffffffffffffffffffffffffff163314611b4f57600080fd5b82611ba057600c54604080518681526020810183905280820192909252517fc6642d24d84e7f3d36ca39f5cce10e75639d9b158d5193aa350e2f900653e4c09181900360600190a150600b54611c43565b600c5482611bc357600c54611bbb908563ffffffff61276f16565b600c55611bf2565b600c54600090611bd9908663ffffffff6124c116565b9050611be361248e565b811015611bf057600c8190555b505b600c54600f548102600b55604080518781526020810184905280820192909252517fc6642d24d84e7f3d36ca39f5cce10e75639d9b158d5193aa350e2f900653e4c09181900360600190a15050600b545b9392505050565b60036020526000908152604090205481565b600f5481565b6006805460408051602060026001851615610100027fffffffffffffffffffffffffffffffffffffffffffffffffffffffffffffffff0190941693909304601f810184900484028201840190925281815292918301828280156110345780601f1061100957610100808354040283529160200191611034565b336000908152600e6020908152604080832073ffffffffffffffffffffffffffffffffffffffff86168452909152812054808310611d4957336000908152600e6020908152604080832073ffffffffffffffffffffffffffffffffffffffff88168452909152812055611d8b565b611d59818463ffffffff61276f16565b336000908152600e6020908152604080832073ffffffffffffffffffffffffffffffffffffffff891684529091529020555b336000818152600e6020908152604080832073ffffffffffffffffffffffffffffffffffffffff89168085529083529281902054815190815290519293927f8c5be1e5ebec7d5bd14f71427d1e84f3dd0314c0f7b2291e5b200ac8c7c3b925929181900390910190a35060019392505050565b73ffffffffffffffffffffffffffffffffffffffff811660009081526002602052604081205463ffffffff1680611e36576000611c43565b73ffffffffffffffffffffffffffffffffffffffff8316600090815260016020818152604080842063ffffffff7fffffffffffffffffffffffffffffffffffffffffffffffffffffffffffffffff870116855290915290912001549392505050565b600c5481565b60006040518080612e3e604391396043019050604051809103902060056040518082805460018160011615610100020316600290048015611f165780601f10611ef4576101008083540402835291820191611f16565b820191906000526020600020905b815481529060010190602001808311611f02575b50509150506040518091039020611f2b6127b1565b30604051602001808581526020018481526020018381526020018273ffffffffffffffffffffffffffffffffffffffff1673ffffffffffffffffffffffffffffffffffffffff16815260200194505050505060405160208183030381529060405280519060200120905060006040518080612ed9603a91396040805191829003603a01822060208084019190915273ffffffffffffffffffffffffffffffffffffffff8c1683830152606083018b905260808084018b90528251808503909101815260a0840183528051908201207f190100000000000000000000000000000000000000000000000000000000000060c085015260c2840187905260e2808501829052835180860390910181526101028501808552815191840191909120600091829052610122860180865281905260ff8c1661014287015261016286018b905261018286018a9052935191965092945091926001926101a280830193927fffffffffffffffffffffffffffffffffffffffffffffffffffffffffffffffe08301929081900390910190855afa1580156120c9573d6000803e3d6000fd5b50506040517fffffffffffffffffffffffffffffffffffffffffffffffffffffffffffffffe0015191505073ffffffffffffffffffffffffffffffffffffffff8116612160576040517f08c379a0000000000000000000000000000000000000000000000000000000008152600401808060200182810382526025815260200180612d8b6025913960400191505060405180910390fd5b73ffffffffffffffffffffffffffffffffffffffff8116600090815260036020526040902080546001810190915589146121e5576040517f08c379a0000000000000000000000000000000000000000000000000000000008152600401808060200182810382526021815260200180612d6a6021913960400191505060405180910390fd5b8742111561223e576040517f08c379a0000000000000000000000000000000000000000000000000000000008152600401808060200182810382526025815260200180612e816025913960400191505060405180910390fd5b612248818b612535565b505050505b505050505050565b60006110726125d8565b600084116122ce57604080517f08c379a000000000000000000000000000000000000000000000000000000000815260206004820152600d60248201527f3020696e697420737570706c7900000000000000000000000000000000000000604482015290519081900360640190fd5b6122d98888886110c6565b50600f839055600b839055600980547fffffffffffffffffffffffff000000000000000000000000000000000000000090811673ffffffffffffffffffffffffffffffffffffffff94851617909155600a8054909116918316919091179055670de0b6b3a7640000600c55919091166000908152600d6020526040902055505050565b60405180603a612ed98239603a019050604051809103902081565b60016020818152600093845260408085209091529183529120805491015463ffffffff9091169082565b6060600060608473ffffffffffffffffffffffffffffffffffffffff16846040518082805190602001908083835b6020831061240c57805182527fffffffffffffffffffffffffffffffffffffffffffffffffffffffffffffffe090920191602091820191016123cf565b6001836020036101000a038019825116818451168082178552505050505050905001915050600060405180830381855af49150503d806000811461246c576040519150601f19603f3d011682016040523d82523d6000602084013e612471565b606091505b50915091506000821415612486573d60208201fd5b949350505050565b6000600f547fffffffffffffffffffffffffffffffffffffffffffffffffffffffffffffffff816124bb57fe5b04905090565b600082820183811015611c4357604080517f08c379a000000000000000000000000000000000000000000000000000000000815260206004820152601b60248201527f536166654d6174683a206164646974696f6e206f766572666c6f770000000000604482015290519081900360640190fd5b73ffffffffffffffffffffffffffffffffffffffff8083166000818152602081815260408083208054600d845282852054938590528787167fffffffffffffffffffffffff00000000000000000000000000000000000000008216811790925591519190951694919391928592917f3134e8a2e6d97e929a7e54011ea5485d7d196dd5f0ba4d4ef95803e8e3fc257f9190a46125d28284836127b5565b50505050565b606060003073ffffffffffffffffffffffffffffffffffffffff166000366040516024018080602001828103825284848281815260200192508082843760008382015260408051601f9092017fffffffffffffffffffffffffffffffffffffffffffffffffffffffffffffffe090811690940182810390940182529283526020810180517bffffffffffffffffffffffffffffffffffffffffffffffffffffffff167f0933c1ed0000000000000000000000000000000000000000000000000000000017815292518151919750955085945091925081905083835b602083106126f057805182527fffffffffffffffffffffffffffffffffffffffffffffffffffffffffffffffe090920191602091820191016126b3565b6001836020036101000a038019825116818451168082178552505050505050905001915050600060405180830381855afa9150503d8060008114612750576040519150601f19603f3d011682016040523d82523d6000602084013e612755565b606091505b505090506040513d6000823e818015610f8c573d60408301f35b6000611c4383836040518060400160405280601e81526020017f536166654d6174683a207375627472616374696f6e206f766572666c6f7700008152506129a0565b4690565b8173ffffffffffffffffffffffffffffffffffffffff168373ffffffffffffffffffffffffffffffffffffffff16141580156127f15750600081115b156112a65773ffffffffffffffffffffffffffffffffffffffff8316156128cd5773ffffffffffffffffffffffffffffffffffffffff831660009081526002602052604081205463ffffffff16908161284b5760006128a7565b73ffffffffffffffffffffffffffffffffffffffff8516600090815260016020818152604080842063ffffffff7fffffffffffffffffffffffffffffffffffffffffffffffffffffffffffffffff880116855290915290912001545b905060006128bb828563ffffffff61276f16565b90506128c986848484612a51565b5050505b73ffffffffffffffffffffffffffffffffffffffff8216156112a65773ffffffffffffffffffffffffffffffffffffffff821660009081526002602052604081205463ffffffff16908161292257600061297e565b73ffffffffffffffffffffffffffffffffffffffff8416600090815260016020818152604080842063ffffffff7fffffffffffffffffffffffffffffffffffffffffffffffffffffffffffffffff880116855290915290912001545b90506000612992828563ffffffff6124c116565b905061224d85848484612a51565b60008184841115612a49576040517f08c379a00000000000000000000000000000000000000000000000000000000081526004018080602001828103825283818151815260200191508051906020019080838360005b83811015612a0e5781810151838201526020016129f6565b50505050905090810190601f168015612a3b5780820380516001836020036101000a031916815260200191505b509250505060405180910390fd5b505050900390565b6000612a7543604051806060016040528060338152602001612ea660339139612c42565b905060008463ffffffff16118015612ae9575073ffffffffffffffffffffffffffffffffffffffff8516600090815260016020908152604080832063ffffffff7fffffffffffffffffffffffffffffffffffffffffffffffffffffffffffffffff8901811685529252909120548282169116145b15612b505773ffffffffffffffffffffffffffffffffffffffff8516600090815260016020818152604080842063ffffffff7fffffffffffffffffffffffffffffffffffffffffffffffffffffffffffffffff8a0116855290915290912001829055612beb565b60408051808201825263ffffffff8084168252602080830186815273ffffffffffffffffffffffffffffffffffffffff8a16600081815260018085528782208c871683528552878220965187549087167fffffffffffffffffffffffffffffffffffffffffffffffffffffffff0000000091821617885593519681019690965590815260029092529390208054928801909116919092161790555b6040805184815260208101849052815173ffffffffffffffffffffffffffffffffffffffff8816927fdec2bacdd2f05b59de34da9b523dff8be42e5e38e818c82fdb0bae774387a724928290030190a25050505050565b6000816401000000008410612cb2576040517f08c379a0000000000000000000000000000000000000000000000000000000008152602060048201818152835160248401528351909283926044909101919085019080838360008315612a0e5781810151838201526020016129f6565b509192915050565b828054600181600116156101000203166002900490600052602060002090601f016020900481019282601f10612cfb57805160ff1916838001178555612d28565b82800160010185558215612d28579182015b82811115612d28578251825591602001919060010190612d0d565b50612d34929150612d4f565b5090565b604080518082019091526000808252602082015290565b61108691905b80821115612d345760008155600101612d5556fe59414d3a3a64656c656761746542795369673a20696e76616c6964206e6f6e636559414d3a3a64656c656761746542795369673a20696e76616c6964207369676e617475726559414d44656c656761746f723a3a5f736574496d706c656d656e746174696f6e3a2043616c6c6572206d75737420626520676f7659414d44656c656761746f723a66616c6c6261636b3a2063616e6e6f742073656e642076616c756520746f2066616c6c6261636b59414d3a3a6765745072696f72566f7465733a206e6f74207965742064657465726d696e6564454950373132446f6d61696e28737472696e67206e616d652c75696e7432353620636861696e49642c6164647265737320766572696679696e67436f6e74726163742959414d3a3a64656c656761746542795369673a207369676e6174757265206578706972656459414d3a3a5f7772697465436865636b706f696e743a20626c6f636b206e756d6265722065786365656473203332206269747344656c65676174696f6e28616464726573732064656c6567617465652c75696e74323536206e6f6e63652c75696e743235362065787069727929a265627a7a72315820161cf6d6baeb9fceaff17645ac3f412dc1fbc2e739f7e2a049770cbb2e605a1564736f6c6343000511003259414d44656c656761746f723a3a5f736574496d706c656d656e746174696f6e3a2043616c6c6572206d75737420626520676f76",
  "source": "pragma solidity 0.5.17;\n\nimport \"./YAM.sol\";\nimport \"./YAMDelegate.sol\";\n\ncontract YAMDelegator is YAM, YAMDelegatorInterface {\n    /**\n     * @notice Construct a new YAM\n     * @param name_ ERC-20 name of this token\n     * @param symbol_ ERC-20 symbol of this token\n     * @param decimals_ ERC-20 decimal precision of this token\n     * @param initial_owners List of initial YAM holders\n     * @param amounts Amounts to send to corresponding initial owners\n     * @param init_supply_ Initial token amount\n     * @param gov_ Address of the governacne of this token\n     * @param implementation_ The address of the implementation the contract delegates to\n     * @param becomeImplementationData The encoded args for becomeImplementation\n     */\n    constructor(\n        string memory name_,\n        string memory symbol_,\n        uint8 decimals_,\n        address[] memory initial_owners,\n        uint256[] memory amounts,\n        uint256 init_supply_,\n        address rebaser_,\n        address incentivizer_,\n        address gov_,\n        address implementation_,\n        bytes memory becomeImplementationData\n    )\n        public\n    {\n\n\n        // Creator of the contract is gov during initialization\n        gov = msg.sender;\n\n        // First delegate gets to initialize the delegator (i.e. storage contract)\n        delegateTo(\n            implementation_,\n            abi.encodeWithSignature(\n                \"initialize(string,string,uint8,address[],uint256[],uint256,address,address,address)\",\n                name_,\n                symbol_,\n                decimals_,\n                initial_owners,\n                amounts,\n                init_supply_,\n                rebaser_,\n                incentivizer_,\n                gov_\n            )\n        );\n\n        // New implementations always get set via the settor (post-initialize)\n        _setImplementation(implementation_, false, becomeImplementationData);\n\n        // Set the proper gov now that initialization is done\n        gov = gov_;\n    }\n\n    /**\n     * @notice Called by the gov to update the implementation of the delegator\n     * @param implementation_ The address of the new implementation for delegation\n     * @param allowResign Flag to indicate whether to call _resignImplementation on the old implementation\n     * @param becomeImplementationData The encoded bytes data to be passed to _becomeImplementation\n     */\n    function _setImplementation(address implementation_, bool allowResign, bytes memory becomeImplementationData) public {\n        require(msg.sender == gov, \"YAMDelegator::_setImplementation: Caller must be gov\");\n\n        if (allowResign) {\n            delegateToImplementation(abi.encodeWithSignature(\"_resignImplementation()\"));\n        }\n\n        address oldImplementation = implementation;\n        implementation = implementation_;\n\n        delegateToImplementation(abi.encodeWithSignature(\"_becomeImplementation(bytes)\", becomeImplementationData));\n\n        emit NewImplementation(oldImplementation, implementation);\n    }\n\n    /**\n     * @notice Sender supplies assets into the market and receives cTokens in exchange\n     * @dev Accrues interest whether or not the operation succeeds, unless reverted\n     * @param mintAmount The amount of the underlying asset to supply\n     * @return uint 0=success, otherwise a failure (see ErrorReporter.sol for details)\n     */\n    function mint(address to, uint256 mintAmount)\n        external\n    {\n        to; mintAmount; // Shh\n        delegateAndReturn();\n    }\n\n    /**\n     * @notice Transfer `amount` tokens from `msg.sender` to `dst`\n     * @param dst The address of the destination account\n     * @param amount The number of tokens to transfer\n     * @return Whether or not the transfer succeeded\n     */\n    function transfer(address dst, uint256 amount)\n        external\n        returns (bool)\n    {\n        dst; amount; // Shh\n        delegateAndReturn();\n    }\n\n    /**\n     * @notice Transfer `amount` tokens from `src` to `dst`\n     * @param src The address of the source account\n     * @param dst The address of the destination account\n     * @param amount The number of tokens to transfer\n     * @return Whether or not the transfer succeeded\n     */\n    function transferFrom(\n        address src,\n        address dst,\n        uint256 amount\n    )\n        external\n        returns (bool)\n    {\n        src; dst; amount; // Shh\n        delegateAndReturn();\n    }\n\n    /**\n     * @notice Approve `spender` to transfer up to `amount` from `src`\n     * @dev This will overwrite the approval amount for `spender`\n     *  and is subject to issues noted [here](https://eips.ethereum.org/EIPS/eip-20#approve)\n     * @param spender The address of the account which may transfer tokens\n     * @param amount The number of tokens that are approved (-1 means infinite)\n     * @return Whether or not the approval succeeded\n     */\n    function approve(\n        address spender,\n        uint256 amount\n    )\n        external\n        returns (bool)\n    {\n        spender; amount; // Shh\n        delegateAndReturn();\n    }\n\n    /**\n     * @notice Get the current allowance from `owner` for `spender`\n     * @param owner The address of the account which owns the tokens to be spent\n     * @param spender The address of the account which may transfer tokens\n     * @return The number of tokens allowed to be spent (-1 means infinite)\n     */\n    function allowance(\n        address owner,\n        address spender\n    )\n        external\n        view\n        returns (uint256)\n    {\n        owner; spender; // Shh\n        delegateToViewAndReturn();\n    }\n\n    /**\n     * @notice Get the token balance of the `owner`\n     * @param owner The address of the account to query\n     * @return The number of tokens owned by `owner`\n     */\n    function balanceOf(address owner)\n        external\n        view\n        returns (uint256)\n    {\n        owner; // Shh\n        delegateToViewAndReturn();\n    }\n    /*** Gov Functions ***/\n\n    /**\n      * @notice Begins transfer of gov rights. The newPendingGov must call `_acceptGov` to finalize the transfer.\n      * @dev Gov function to begin change of gov. The newPendingGov must call `_acceptGov` to finalize the transfer.\n      * @param newPendingGov New pending gov.\n      */\n    function _setPendingGov(address newPendingGov)\n        external\n    {\n        newPendingGov; // Shh\n        delegateAndReturn();\n    }\n\n    function _setRebaser(address rebaser_)\n        external\n    {\n        rebaser_; // Shh\n        delegateAndReturn();\n    }\n\n    function _setIncentivizer(address incentivizer_)\n        external\n    {\n        incentivizer_; // Shh\n        delegateAndReturn();\n    }\n\n    /**\n      * @notice Accepts transfer of gov rights. msg.sender must be pendingGov\n      * @dev Gov function for pending gov to accept role and update gov\n      * @return uint 0=success, otherwise a failure (see ErrorReporter.sol for details)\n      */\n    function _acceptGov()\n        external\n    {\n        delegateAndReturn();\n    }\n\n    /**\n     * @notice Internal method to delegate execution to another contract\n     * @dev It returns to the external caller whatever the implementation returns or forwards reverts\n     * @param callee The contract to delegatecall\n     * @param data The raw data to delegatecall\n     * @return The returned bytes from the delegatecall\n     */\n    function delegateTo(address callee, bytes memory data) internal returns (bytes memory) {\n        (bool success, bytes memory returnData) = callee.delegatecall(data);\n        assembly {\n            if eq(success, 0) {\n                revert(add(returnData, 0x20), returndatasize)\n            }\n        }\n        return returnData;\n    }\n\n    /**\n     * @notice Delegates execution to the implementation contract\n     * @dev It returns to the external caller whatever the implementation returns or forwards reverts\n     * @param data The raw data to delegatecall\n     * @return The returned bytes from the delegatecall\n     */\n    function delegateToImplementation(bytes memory data) public returns (bytes memory) {\n        return delegateTo(implementation, data);\n    }\n\n    /**\n     * @notice Delegates execution to an implementation contract\n     * @dev It returns to the external caller whatever the implementation returns or forwards reverts\n     *  There are an additional 2 prefix uints from the wrapper returndata, which we ignore since we make an extra hop.\n     * @param data The raw data to delegatecall\n     * @return The returned bytes from the delegatecall\n     */\n    function delegateToViewImplementation(bytes memory data) public view returns (bytes memory) {\n        (bool success, bytes memory returnData) = address(this).staticcall(abi.encodeWithSignature(\"delegateToImplementation(bytes)\", data));\n        assembly {\n            if eq(success, 0) {\n                revert(add(returnData, 0x20), returndatasize)\n            }\n        }\n        return abi.decode(returnData, (bytes));\n    }\n\n    function delegateToViewAndReturn() private view returns (bytes memory) {\n        (bool success, ) = address(this).staticcall(abi.encodeWithSignature(\"delegateToImplementation(bytes)\", msg.data));\n\n        assembly {\n            let free_mem_ptr := mload(0x40)\n            returndatacopy(free_mem_ptr, 0, returndatasize)\n\n            switch success\n            case 0 { revert(free_mem_ptr, returndatasize) }\n            default { return(add(free_mem_ptr, 0x40), returndatasize) }\n        }\n    }\n\n    function delegateAndReturn() private returns (bytes memory) {\n        (bool success, ) = implementation.delegatecall(msg.data);\n\n        assembly {\n            let free_mem_ptr := mload(0x40)\n            returndatacopy(free_mem_ptr, 0, returndatasize)\n\n            switch success\n            case 0 { revert(free_mem_ptr, returndatasize) }\n            default { return(free_mem_ptr, returndatasize) }\n        }\n    }\n\n    /**\n     * @notice Delegates execution to an implementation contract\n     * @dev It returns to the external caller whatever the implementation returns or forwards reverts\n     */\n    function () external payable {\n        require(msg.value == 0,\"YAMDelegator:fallback: cannot send value to fallback\");\n\n        // delegate all other functions to current implementation\n        delegateAndReturn();\n    }\n}\n",
  "sourcePath": "/Users/brockelmore/YAM/contracts/token/YAMDelegator.sol",
  "compiler": {
    "name": "solc",
    "version": "0.5.17+commit.d19bba13.Linux.g++"
  },
  "schemaVersion": "3.0.16",
  "updatedAt": "2020-08-05T20:33:49.279Z",
  "devdoc": {
    "methods": {
      "_acceptGov()": {
        "details": "Gov function for pending gov to accept role and update gov",
        "return": "uint 0=success, otherwise a failure (see ErrorReporter.sol for details)"
      },
      "_setImplementation(address,bool,bytes)": {
        "params": {
          "allowResign": "Flag to indicate whether to call _resignImplementation on the old implementation",
          "becomeImplementationData": "The encoded bytes data to be passed to _becomeImplementation",
          "implementation_": "The address of the new implementation for delegation"
        }
      },
      "_setPendingGov(address)": {
        "details": "Gov function to begin change of gov. The newPendingGov must call `_acceptGov` to finalize the transfer.",
        "params": {
          "newPendingGov": "New pending gov."
        }
      },
      "allowance(address,address)": {
        "params": {
          "owner": "The address of the account which owns the tokens to be spent",
          "spender": "The address of the account which may transfer tokens"
        },
        "return": "The number of tokens allowed to be spent (-1 means infinite)"
      },
      "approve(address,uint256)": {
        "details": "This will overwrite the approval amount for `spender` and is subject to issues noted [here](https://eips.ethereum.org/EIPS/eip-20#approve)",
        "params": {
          "amount": "The number of tokens that are approved (-1 means infinite)",
          "spender": "The address of the account which may transfer tokens"
        },
        "return": "Whether or not the approval succeeded"
      },
      "balanceOf(address)": {
        "params": {
          "owner": "The address of the account to query"
        },
        "return": "The number of tokens owned by `owner`"
      },
      "constructor": {
        "params": {
          "amounts": "Amounts to send to corresponding initial owners",
          "becomeImplementationData": "The encoded args for becomeImplementation",
          "decimals_": "ERC-20 decimal precision of this token",
          "gov_": "Address of the governacne of this token",
          "implementation_": "The address of the implementation the contract delegates to",
          "init_supply_": "Initial token amount",
          "initial_owners": "List of initial YAM holders",
          "name_": "ERC-20 name of this token",
          "symbol_": "ERC-20 symbol of this token"
        }
      },
      "decreaseAllowance(address,uint256)": {
        "details": "Decrease the amount of tokens that an owner has allowed to a spender.",
        "params": {
          "spender": "The address which will spend the funds.",
          "subtractedValue": "The amount of tokens to decrease the allowance by."
        }
      },
      "delegate(address)": {
        "params": {
          "delegatee": "The address to delegate votes to"
        }
      },
      "delegateBySig(address,uint256,uint256,uint8,bytes32,bytes32)": {
        "params": {
          "delegatee": "The address to delegate votes to",
          "expiry": "The time at which to expire the signature",
          "nonce": "The contract state required to match the signature",
          "r": "Half of the ECDSA signature pair",
          "s": "Half of the ECDSA signature pair",
          "v": "The recovery byte of the signature"
        }
      },
      "delegateToImplementation(bytes)": {
        "details": "It returns to the external caller whatever the implementation returns or forwards reverts",
        "params": {
          "data": "The raw data to delegatecall"
        },
        "return": "The returned bytes from the delegatecall"
      },
      "delegateToViewImplementation(bytes)": {
        "details": "It returns to the external caller whatever the implementation returns or forwards reverts There are an additional 2 prefix uints from the wrapper returndata, which we ignore since we make an extra hop.",
        "params": {
          "data": "The raw data to delegatecall"
        },
        "return": "The returned bytes from the delegatecall"
      },
      "getCurrentVotes(address)": {
        "params": {
          "account": "The address to get votes balance"
        },
        "return": "The number of current votes for `account`"
      },
      "getPriorVotes(address,uint256)": {
        "details": "Block number must be a finalized block or else this function will revert to prevent misinformation.",
        "params": {
          "account": "The address of the account to check",
          "blockNumber": "The block number to get the vote balance at"
        },
        "return": "The number of votes the account had as of the given block"
      },
      "increaseAllowance(address,uint256)": {
        "details": "Increase the amount of tokens that an owner has allowed to a spender. This method should be used instead of approve() to avoid the double approval vulnerability described above.",
        "params": {
          "addedValue": "The amount of tokens to increase the allowance by.",
          "spender": "The address which will spend the funds."
        }
      },
      "initialize(string,string,uint8,address,uint256,address,address,address)": {
        "params": {
          "decimals_": "ERC-20 decimal precision of this token",
          "name_": "ERC-20 name of this token",
          "symbol_": "ERC-20 symbol of this token"
        }
      },
      "mint(address,uint256)": {
        "details": "Accrues interest whether or not the operation succeeds, unless reverted",
        "params": {
          "mintAmount": "The amount of the underlying asset to supply"
        },
        "return": "uint 0=success, otherwise a failure (see ErrorReporter.sol for details)"
      },
      "rebase(uint256,uint256,bool)": {
        "details": "The supply adjustment equals (totalSupply * DeviationFromTargetRate) / rebaseLag     Where DeviationFromTargetRate is (MarketOracleRate - targetRate) / targetRate     and targetRate is CpiOracleRate / baseCpi"
      },
      "transfer(address,uint256)": {
        "params": {
          "amount": "The number of tokens to transfer",
          "dst": "The address of the destination account"
        },
        "return": "Whether or not the transfer succeeded"
      },
      "transferFrom(address,address,uint256)": {
        "params": {
          "amount": "The number of tokens to transfer",
          "dst": "The address of the destination account",
          "src": "The address of the source account"
        },
        "return": "Whether or not the transfer succeeded"
      }
    }
  },
  "userdoc": {
    "methods": {
      "_acceptGov()": {
        "notice": "Accepts transfer of gov rights. msg.sender must be pendingGov"
      },
      "_setImplementation(address,bool,bytes)": {
        "notice": "Called by the gov to update the implementation of the delegator"
      },
      "_setPendingGov(address)": {
        "notice": "Begins transfer of gov rights. The newPendingGov must call `_acceptGov` to finalize the transfer."
      },
      "allowance(address,address)": {
        "notice": "Get the current allowance from `owner` for `spender`"
      },
      "approve(address,uint256)": {
        "notice": "Approve `spender` to transfer up to `amount` from `src`"
      },
      "balanceOf(address)": {
        "notice": "Get the token balance of the `owner`"
      },
      "constructor": "Construct a new YAM",
      "delegate(address)": {
        "notice": "Delegate votes from `msg.sender` to `delegatee`"
      },
      "delegateBySig(address,uint256,uint256,uint8,bytes32,bytes32)": {
        "notice": "Delegates votes from signatory to `delegatee`"
      },
      "delegateToImplementation(bytes)": {
        "notice": "Delegates execution to the implementation contract"
      },
      "delegateToViewImplementation(bytes)": {
        "notice": "Delegates execution to an implementation contract"
      },
      "getCurrentVotes(address)": {
        "notice": "Gets the current votes balance for `account`"
      },
      "getPriorVotes(address,uint256)": {
        "notice": "Determine the prior number of votes for an account as of a block number"
      },
      "initialize(string,string,uint8,address,uint256,address,address,address)": {
        "notice": "Initialize the new money market"
      },
      "mint(address,uint256)": {
        "notice": "Sender supplies assets into the market and receives cTokens in exchange"
      },
      "rebase(uint256,uint256,bool)": {
        "notice": "Initiates a new rebase operation, provided the minimum time period has elapsed."
      },
      "transfer(address,uint256)": {
        "notice": "Transfer `amount` tokens from `msg.sender` to `dst`"
      },
      "transferFrom(address,address,uint256)": {
        "notice": "Transfer `amount` tokens from `src` to `dst`"
      }
    }
  }
}