{
  "contractName": "YAMDelegate",
  "abi": [
    {
      "inputs": [],
      "payable": false,
      "stateMutability": "nonpayable",
      "type": "constructor"
    },
    {
      "anonymous": false,
      "inputs": [
        {
          "indexed": true,
          "internalType": "address",
          "name": "owner",
          "type": "address"
        },
        {
          "indexed": true,
          "internalType": "address",
          "name": "spender",
          "type": "address"
        },
        {
          "indexed": false,
          "internalType": "uint256",
          "name": "amount",
          "type": "uint256"
        }
      ],
      "name": "Approval",
      "type": "event"
    },
    {
      "anonymous": false,
      "inputs": [
        {
          "indexed": true,
          "internalType": "address",
          "name": "delegator",
          "type": "address"
        },
        {
          "indexed": true,
          "internalType": "address",
          "name": "fromDelegate",
          "type": "address"
        },
        {
          "indexed": true,
          "internalType": "address",
          "name": "toDelegate",
          "type": "address"
        }
      ],
      "name": "DelegateChanged",
      "type": "event"
    },
    {
      "anonymous": false,
      "inputs": [
        {
          "indexed": true,
          "internalType": "address",
          "name": "delegate",
          "type": "address"
        },
        {
          "indexed": false,
          "internalType": "uint256",
          "name": "previousBalance",
          "type": "uint256"
        },
        {
          "indexed": false,
          "internalType": "uint256",
          "name": "newBalance",
          "type": "uint256"
        }
      ],
      "name": "DelegateVotesChanged",
      "type": "event"
    },
    {
      "anonymous": false,
      "inputs": [
        {
          "indexed": false,
          "internalType": "address",
          "name": "to",
          "type": "address"
        },
        {
          "indexed": false,
          "internalType": "uint256",
          "name": "amount",
          "type": "uint256"
        }
      ],
      "name": "Mint",
      "type": "event"
    },
    {
      "anonymous": false,
      "inputs": [
        {
          "indexed": false,
          "internalType": "address",
          "name": "oldGov",
          "type": "address"
        },
        {
          "indexed": false,
          "internalType": "address",
          "name": "newGov",
          "type": "address"
        }
      ],
      "name": "NewGov",
      "type": "event"
    },
    {
      "anonymous": false,
      "inputs": [
        {
          "indexed": false,
          "internalType": "address",
          "name": "oldIncentivizer",
          "type": "address"
        },
        {
          "indexed": false,
          "internalType": "address",
          "name": "newIncentivizer",
          "type": "address"
        }
      ],
      "name": "NewIncentivizer",
      "type": "event"
    },
    {
      "anonymous": false,
      "inputs": [
        {
          "indexed": false,
          "internalType": "address",
          "name": "oldPendingGov",
          "type": "address"
        },
        {
          "indexed": false,
          "internalType": "address",
          "name": "newPendingGov",
          "type": "address"
        }
      ],
      "name": "NewPendingGov",
      "type": "event"
    },
    {
      "anonymous": false,
      "inputs": [
        {
          "indexed": false,
          "internalType": "address",
          "name": "oldRebaser",
          "type": "address"
        },
        {
          "indexed": false,
          "internalType": "address",
          "name": "newRebaser",
          "type": "address"
        }
      ],
      "name": "NewRebaser",
      "type": "event"
    },
    {
      "anonymous": false,
      "inputs": [
        {
          "indexed": false,
          "internalType": "uint256",
          "name": "epoch",
          "type": "uint256"
        },
        {
          "indexed": false,
          "internalType": "uint256",
          "name": "prevYamsScalingFactor",
          "type": "uint256"
        },
        {
          "indexed": false,
          "internalType": "uint256",
          "name": "newYamsScalingFactor",
          "type": "uint256"
        }
      ],
      "name": "Rebase",
      "type": "event"
    },
    {
      "anonymous": false,
      "inputs": [
        {
          "indexed": true,
          "internalType": "address",
          "name": "from",
          "type": "address"
        },
        {
          "indexed": true,
          "internalType": "address",
          "name": "to",
          "type": "address"
        },
        {
          "indexed": false,
          "internalType": "uint256",
          "name": "amount",
          "type": "uint256"
        }
      ],
      "name": "Transfer",
      "type": "event"
    },
    {
      "constant": true,
      "inputs": [],
      "name": "BASE",
      "outputs": [
        {
          "internalType": "uint256",
          "name": "",
          "type": "uint256"
        }
      ],
      "payable": false,
      "stateMutability": "view",
      "type": "function"
    },
    {
      "constant": true,
      "inputs": [],
      "name": "DELEGATION_TYPEHASH",
      "outputs": [
        {
          "internalType": "bytes32",
          "name": "",
          "type": "bytes32"
        }
      ],
      "payable": false,
      "stateMutability": "view",
      "type": "function"
    },
    {
      "constant": true,
      "inputs": [],
      "name": "DOMAIN_TYPEHASH",
      "outputs": [
        {
          "internalType": "bytes32",
          "name": "",
          "type": "bytes32"
        }
      ],
      "payable": false,
      "stateMutability": "view",
      "type": "function"
    },
    {
      "constant": false,
      "inputs": [],
      "name": "_acceptGov",
      "outputs": [],
      "payable": false,
      "stateMutability": "nonpayable",
      "type": "function"
    },
    {
      "constant": false,
      "inputs": [
        {
          "internalType": "address",
          "name": "incentivizer_",
          "type": "address"
        }
      ],
      "name": "_setIncentivizer",
      "outputs": [],
      "payable": false,
      "stateMutability": "nonpayable",
      "type": "function"
    },
    {
      "constant": false,
      "inputs": [
        {
          "internalType": "address",
          "name": "pendingGov_",
          "type": "address"
        }
      ],
      "name": "_setPendingGov",
      "outputs": [],
      "payable": false,
      "stateMutability": "nonpayable",
      "type": "function"
    },
    {
      "constant": false,
      "inputs": [
        {
          "internalType": "address",
          "name": "rebaser_",
          "type": "address"
        }
      ],
      "name": "_setRebaser",
      "outputs": [],
      "payable": false,
      "stateMutability": "nonpayable",
      "type": "function"
    },
    {
      "constant": true,
      "inputs": [
        {
          "internalType": "address",
          "name": "owner_",
          "type": "address"
        },
        {
          "internalType": "address",
          "name": "spender",
          "type": "address"
        }
      ],
      "name": "allowance",
      "outputs": [
        {
          "internalType": "uint256",
          "name": "",
          "type": "uint256"
        }
      ],
      "payable": false,
      "stateMutability": "view",
      "type": "function"
    },
    {
      "constant": false,
      "inputs": [
        {
          "internalType": "address",
          "name": "spender",
          "type": "address"
        },
        {
          "internalType": "uint256",
          "name": "value",
          "type": "uint256"
        }
      ],
      "name": "approve",
      "outputs": [
        {
          "internalType": "bool",
          "name": "",
          "type": "bool"
        }
      ],
      "payable": false,
      "stateMutability": "nonpayable",
      "type": "function"
    },
    {
      "constant": true,
      "inputs": [
        {
          "internalType": "address",
          "name": "who",
          "type": "address"
        }
      ],
      "name": "balanceOf",
      "outputs": [
        {
          "internalType": "uint256",
          "name": "",
          "type": "uint256"
        }
      ],
      "payable": false,
      "stateMutability": "view",
      "type": "function"
    },
    {
      "constant": true,
      "inputs": [
        {
          "internalType": "address",
          "name": "",
          "type": "address"
        },
        {
          "internalType": "uint32",
          "name": "",
          "type": "uint32"
        }
      ],
      "name": "checkpoints",
      "outputs": [
        {
          "internalType": "uint32",
          "name": "fromBlock",
          "type": "uint32"
        },
        {
          "internalType": "uint256",
          "name": "votes",
          "type": "uint256"
        }
      ],
      "payable": false,
      "stateMutability": "view",
      "type": "function"
    },
    {
      "constant": true,
      "inputs": [],
      "name": "decimals",
      "outputs": [
        {
          "internalType": "uint8",
          "name": "",
          "type": "uint8"
        }
      ],
      "payable": false,
      "stateMutability": "view",
      "type": "function"
    },
    {
      "constant": false,
      "inputs": [
        {
          "internalType": "address",
          "name": "spender",
          "type": "address"
        },
        {
          "internalType": "uint256",
          "name": "subtractedValue",
          "type": "uint256"
        }
      ],
      "name": "decreaseAllowance",
      "outputs": [
        {
          "internalType": "bool",
          "name": "",
          "type": "bool"
        }
      ],
      "payable": false,
      "stateMutability": "nonpayable",
      "type": "function"
    },
    {
      "constant": false,
      "inputs": [
        {
          "internalType": "address",
          "name": "delegatee",
          "type": "address"
        }
      ],
      "name": "delegate",
      "outputs": [],
      "payable": false,
      "stateMutability": "nonpayable",
      "type": "function"
    },
    {
      "constant": false,
      "inputs": [
        {
          "internalType": "address",
          "name": "delegatee",
          "type": "address"
        },
        {
          "internalType": "uint256",
          "name": "nonce",
          "type": "uint256"
        },
        {
          "internalType": "uint256",
          "name": "expiry",
          "type": "uint256"
        },
        {
          "internalType": "uint8",
          "name": "v",
          "type": "uint8"
        },
        {
          "internalType": "bytes32",
          "name": "r",
          "type": "bytes32"
        },
        {
          "internalType": "bytes32",
          "name": "s",
          "type": "bytes32"
        }
      ],
      "name": "delegateBySig",
      "outputs": [],
      "payable": false,
      "stateMutability": "nonpayable",
      "type": "function"
    },
    {
      "constant": true,
      "inputs": [
        {
          "internalType": "address",
          "name": "",
          "type": "address"
        }
      ],
      "name": "delegates",
      "outputs": [
        {
          "internalType": "address",
          "name": "",
          "type": "address"
        }
      ],
      "payable": false,
      "stateMutability": "view",
      "type": "function"
    },
    {
      "constant": true,
      "inputs": [
        {
          "internalType": "address",
          "name": "account",
          "type": "address"
        }
      ],
      "name": "getCurrentVotes",
      "outputs": [
        {
          "internalType": "uint256",
          "name": "",
          "type": "uint256"
        }
      ],
      "payable": false,
      "stateMutability": "view",
      "type": "function"
    },
    {
      "constant": true,
      "inputs": [
        {
          "internalType": "address",
          "name": "account",
          "type": "address"
        },
        {
          "internalType": "uint256",
          "name": "blockNumber",
          "type": "uint256"
        }
      ],
      "name": "getPriorVotes",
      "outputs": [
        {
          "internalType": "uint256",
          "name": "",
          "type": "uint256"
        }
      ],
      "payable": false,
      "stateMutability": "view",
      "type": "function"
    },
    {
      "constant": true,
      "inputs": [],
      "name": "gov",
      "outputs": [
        {
          "internalType": "address",
          "name": "",
          "type": "address"
        }
      ],
      "payable": false,
      "stateMutability": "view",
      "type": "function"
    },
    {
      "constant": true,
      "inputs": [],
      "name": "implementation",
      "outputs": [
        {
          "internalType": "address",
          "name": "",
          "type": "address"
        }
      ],
      "payable": false,
      "stateMutability": "view",
      "type": "function"
    },
    {
      "constant": true,
      "inputs": [],
      "name": "incentivizer",
      "outputs": [
        {
          "internalType": "address",
          "name": "",
          "type": "address"
        }
      ],
      "payable": false,
      "stateMutability": "view",
      "type": "function"
    },
    {
      "constant": false,
      "inputs": [
        {
          "internalType": "address",
          "name": "spender",
          "type": "address"
        },
        {
          "internalType": "uint256",
          "name": "addedValue",
          "type": "uint256"
        }
      ],
      "name": "increaseAllowance",
      "outputs": [
        {
          "internalType": "bool",
          "name": "",
          "type": "bool"
        }
      ],
      "payable": false,
      "stateMutability": "nonpayable",
      "type": "function"
    },
    {
      "constant": true,
      "inputs": [],
      "name": "initSupply",
      "outputs": [
        {
          "internalType": "uint256",
          "name": "",
          "type": "uint256"
        }
      ],
      "payable": false,
      "stateMutability": "view",
      "type": "function"
    },
    {
      "constant": false,
      "inputs": [
        {
          "internalType": "string",
          "name": "name_",
          "type": "string"
        },
        {
          "internalType": "string",
          "name": "symbol_",
          "type": "string"
        },
        {
          "internalType": "uint8",
          "name": "decimals_",
          "type": "uint8"
        }
      ],
      "name": "initialize",
      "outputs": [],
      "payable": false,
      "stateMutability": "nonpayable",
      "type": "function"
    },
    {
      "constant": false,
      "inputs": [
        {
          "internalType": "string",
          "name": "name_",
          "type": "string"
        },
        {
          "internalType": "string",
          "name": "symbol_",
          "type": "string"
        },
        {
          "internalType": "uint8",
          "name": "decimals_",
          "type": "uint8"
        },
        {
          "internalType": "address",
          "name": "initial_owner",
          "type": "address"
        },
        {
          "internalType": "uint256",
          "name": "initSupply_",
          "type": "uint256"
        }
      ],
      "name": "initialize",
      "outputs": [],
      "payable": false,
      "stateMutability": "nonpayable",
      "type": "function"
    },
    {
      "constant": true,
      "inputs": [],
      "name": "internalDecimals",
      "outputs": [
        {
          "internalType": "uint256",
          "name": "",
          "type": "uint256"
        }
      ],
      "payable": false,
      "stateMutability": "view",
      "type": "function"
    },
    {
      "constant": true,
      "inputs": [],
      "name": "maxScalingFactor",
      "outputs": [
        {
          "internalType": "uint256",
          "name": "",
          "type": "uint256"
        }
      ],
      "payable": false,
      "stateMutability": "view",
      "type": "function"
    },
    {
      "constant": false,
      "inputs": [
        {
          "internalType": "address",
          "name": "to",
          "type": "address"
        },
        {
          "internalType": "uint256",
          "name": "amount",
          "type": "uint256"
        }
      ],
      "name": "mint",
      "outputs": [],
      "payable": false,
      "stateMutability": "nonpayable",
      "type": "function"
    },
    {
      "constant": true,
      "inputs": [],
      "name": "name",
      "outputs": [
        {
          "internalType": "string",
          "name": "",
          "type": "string"
        }
      ],
      "payable": false,
      "stateMutability": "view",
      "type": "function"
    },
    {
      "constant": true,
      "inputs": [
        {
          "internalType": "address",
          "name": "",
          "type": "address"
        }
      ],
      "name": "nonces",
      "outputs": [
        {
          "internalType": "uint256",
          "name": "",
          "type": "uint256"
        }
      ],
      "payable": false,
      "stateMutability": "view",
      "type": "function"
    },
    {
      "constant": true,
      "inputs": [
        {
          "internalType": "address",
          "name": "",
          "type": "address"
        }
      ],
      "name": "numCheckpoints",
      "outputs": [
        {
          "internalType": "uint32",
          "name": "",
          "type": "uint32"
        }
      ],
      "payable": false,
      "stateMutability": "view",
      "type": "function"
    },
    {
      "constant": true,
      "inputs": [],
      "name": "pendingGov",
      "outputs": [
        {
          "internalType": "address",
          "name": "",
          "type": "address"
        }
      ],
      "payable": false,
      "stateMutability": "view",
      "type": "function"
    },
    {
      "constant": false,
      "inputs": [
        {
          "internalType": "uint256",
          "name": "epoch",
          "type": "uint256"
        },
        {
          "internalType": "uint256",
          "name": "indexDelta",
          "type": "uint256"
        },
        {
          "internalType": "bool",
          "name": "positive",
          "type": "bool"
        }
      ],
      "name": "rebase",
      "outputs": [
        {
          "internalType": "uint256",
          "name": "",
          "type": "uint256"
        }
      ],
      "payable": false,
      "stateMutability": "nonpayable",
      "type": "function"
    },
    {
      "constant": true,
      "inputs": [],
      "name": "rebaser",
      "outputs": [
        {
          "internalType": "address",
          "name": "",
          "type": "address"
        }
      ],
      "payable": false,
      "stateMutability": "view",
      "type": "function"
    },
    {
      "constant": true,
      "inputs": [],
      "name": "symbol",
      "outputs": [
        {
          "internalType": "string",
          "name": "",
          "type": "string"
        }
      ],
      "payable": false,
      "stateMutability": "view",
      "type": "function"
    },
    {
      "constant": true,
      "inputs": [],
      "name": "totalSupply",
      "outputs": [
        {
          "internalType": "uint256",
          "name": "",
          "type": "uint256"
        }
      ],
      "payable": false,
      "stateMutability": "view",
      "type": "function"
    },
    {
      "constant": false,
      "inputs": [
        {
          "internalType": "address",
          "name": "to",
          "type": "address"
        },
        {
          "internalType": "uint256",
          "name": "value",
          "type": "uint256"
        }
      ],
      "name": "transfer",
      "outputs": [
        {
          "internalType": "bool",
          "name": "",
          "type": "bool"
        }
      ],
      "payable": false,
      "stateMutability": "nonpayable",
      "type": "function"
    },
    {
      "constant": false,
      "inputs": [
        {
          "internalType": "address",
          "name": "from",
          "type": "address"
        },
        {
          "internalType": "address",
          "name": "to",
          "type": "address"
        },
        {
          "internalType": "uint256",
          "name": "value",
          "type": "uint256"
        }
      ],
      "name": "transferFrom",
      "outputs": [
        {
          "internalType": "bool",
          "name": "",
          "type": "bool"
        }
      ],
      "payable": false,
      "stateMutability": "nonpayable",
      "type": "function"
    },
    {
      "constant": true,
      "inputs": [],
      "name": "yamsScalingFactor",
      "outputs": [
        {
          "internalType": "uint256",
          "name": "",
          "type": "uint256"
        }
      ],
      "payable": false,
      "stateMutability": "view",
      "type": "function"
    },
    {
      "constant": false,
      "inputs": [
        {
          "internalType": "bytes",
          "name": "data",
          "type": "bytes"
        }
      ],
      "name": "_becomeImplementation",
      "outputs": [],
      "payable": false,
      "stateMutability": "nonpayable",
      "type": "function"
    },
    {
      "constant": false,
      "inputs": [],
      "name": "_resignImplementation",
      "outputs": [],
      "payable": false,
      "stateMutability": "nonpayable",
      "type": "function"
    }
  ],
  "bytecode": "0x608060405234801561001057600080fd5b50612faa806100206000396000f3fe608060405234801561001057600080fd5b50600436106102d35760003560e01c80636c9452211161018657806398dca210116100e3578063c3cda52011610097578063ec342ad011610071578063ec342ad014610b69578063f1127ed814610b71578063fa8f345514610bd0576102d3565b8063c3cda52014610ad2578063dd62ed3e14610b26578063e7a324dc14610b61576102d3565b8063a9059cbb116100c8578063a9059cbb14610a5e578063b4b5ea5714610a97578063b6fa857614610aca576102d3565b806398dca210146109f2578063a457c2d714610a25576102d3565b8063782d6fe11161013a5780637ecebe001161011f5780637ecebe00146109af57806395d89b41146109e257806397d63f93146109ea576102d3565b8063782d6fe11461094b5780637af548c114610984576102d3565b80636fcfff451161016b5780636fcfff451461089957806370a08231146108e557806373f03dff14610918576102d3565b80636c945221146107405780636fc6407c14610891576102d3565b8063252408101161023457806356e67728116101e85780635c19a95c116101cd5780635c19a95c146106fd5780635c60da1b1461073057806364dd48f514610738576102d3565b806356e6772814610624578063587cde1e146106ca576102d3565b8063395093511161021957806339509351146105aa57806340c10f19146105e35780634bda2e201461061c576102d3565b80632524081014610584578063313ce5671461058c576102d3565b8063153ab5051161028b57806318160ddd1161027057806318160ddd1461053157806320606b701461053957806323b872dd14610541576102d3565b8063153ab505146103f55780631624f6c6146103ff576102d3565b806311d3e6c4116102bc57806311d3e6c4146103a257806311fd8a83146103bc57806312d43a51146103ed576102d3565b806306fdde03146102d8578063095ea7b314610355575b600080fd5b6102e0610c03565b6040805160208082528351818301528351919283929083019185019080838360005b8381101561031a578181015183820152602001610302565b50505050905090810190601f1680156103475780820380516001836020036101000a031916815260200191505b509250505060405180910390f35b61038e6004803603604081101561036b57600080fd5b5073ffffffffffffffffffffffffffffffffffffffff8135169060200135610caf565b604080519115158252519081900360200190f35b6103aa610d23565b60408051918252519081900360200190f35b6103c4610d33565b6040805173ffffffffffffffffffffffffffffffffffffffff9092168252519081900360200190f35b6103c4610d4f565b6103fd610d70565b005b6103fd6004803603606081101561041557600080fd5b81019060208101813564010000000081111561043057600080fd5b82018360208201111561044257600080fd5b8035906020019184600183028401116401000000008311171561046457600080fd5b91908080601f01602080910402602001604051908101604052809392919081815260200183838082843760009201919091525092959493602081019350359150506401000000008111156104b757600080fd5b8201836020820111156104c957600080fd5b803590602001918460018302840111640100000000831117156104eb57600080fd5b91908080601f0160208091040260200160405190810160405280939291908181526020018383808284376000920191909152509295505050903560ff169150610de79050565b6103aa610eb4565b6103aa610eba565b61038e6004803603606081101561055757600080fd5b5073ffffffffffffffffffffffffffffffffffffffff813581169160208101359091169060400135610ed5565b6103c46110a8565b6105946110c4565b6040805160ff9092168252519081900360200190f35b61038e600480360360408110156105c057600080fd5b5073ffffffffffffffffffffffffffffffffffffffff81351690602001356110cd565b6103fd600480360360408110156105f957600080fd5b5073ffffffffffffffffffffffffffffffffffffffff8135169060200135611180565b6103fd611236565b6103fd6004803603602081101561063a57600080fd5b81019060208101813564010000000081111561065557600080fd5b82018360208201111561066757600080fd5b8035906020019184600183028401116401000000008311171561068957600080fd5b91908080601f016020809104026020016040519081016040528093929190818152602001838380828437600092019190915250929550611379945050505050565b6103c4600480360360208110156106e057600080fd5b503573ffffffffffffffffffffffffffffffffffffffff166113f1565b6103fd6004803603602081101561071357600080fd5b503573ffffffffffffffffffffffffffffffffffffffff16611419565b6103c4611423565b6103aa61143f565b6103fd600480360360a081101561075657600080fd5b81019060208101813564010000000081111561077157600080fd5b82018360208201111561078357600080fd5b803590602001918460018302840111640100000000831117156107a557600080fd5b91908080601f01602080910402602001604051908101604052809392919081815260200183838082843760009201919091525092959493602081019350359150506401000000008111156107f857600080fd5b82018360208201111561080a57600080fd5b8035906020019184600183028401116401000000008311171561082c57600080fd5b91908080601f0160208091040260200160405190810160405280939291908181526020018383808284376000920191909152509295505050813560ff16925050602081013573ffffffffffffffffffffffffffffffffffffffff16906040013561144d565b6103c4611548565b6108cc600480360360208110156108af57600080fd5b503573ffffffffffffffffffffffffffffffffffffffff16611564565b6040805163ffffffff9092168252519081900360200190f35b6103aa600480360360208110156108fb57600080fd5b503573ffffffffffffffffffffffffffffffffffffffff1661157c565b6103fd6004803603602081101561092e57600080fd5b503573ffffffffffffffffffffffffffffffffffffffff166115c7565b6103aa6004803603604081101561096157600080fd5b5073ffffffffffffffffffffffffffffffffffffffff8135169060200135611678565b6103aa6004803603606081101561099a57600080fd5b5080359060208101359060400135151561193e565b6103aa600480360360208110156109c557600080fd5b503573ffffffffffffffffffffffffffffffffffffffff16611aa6565b6102e0611ab8565b6103aa611b31565b6103fd60048036036020811015610a0857600080fd5b503573ffffffffffffffffffffffffffffffffffffffff16611b37565b61038e60048036036040811015610a3b57600080fd5b5073ffffffffffffffffffffffffffffffffffffffff8135169060200135611be8565b61038e60048036036040811015610a7457600080fd5b5073ffffffffffffffffffffffffffffffffffffffff8135169060200135611d0b565b6103aa60048036036020811015610aad57600080fd5b503573ffffffffffffffffffffffffffffffffffffffff16611e44565b6103aa611ede565b6103fd600480360360c0811015610ae857600080fd5b5073ffffffffffffffffffffffffffffffffffffffff8135169060208101359060408101359060ff6060820135169060808101359060a00135611ee4565b6103aa60048036036040811015610b3c57600080fd5b5073ffffffffffffffffffffffffffffffffffffffff8135811691602001351661229b565b6103aa6122d3565b6103aa6122ee565b610bb060048036036040811015610b8757600080fd5b50803573ffffffffffffffffffffffffffffffffffffffff16906020013563ffffffff166122fa565b6040805163ffffffff909316835260208301919091528051918290030190f35b6103fd60048036036020811015610be657600080fd5b503573ffffffffffffffffffffffffffffffffffffffff16612324565b6005805460408051602060026001851615610100027fffffffffffffffffffffffffffffffffffffffffffffffffffffffffffffffff0190941693909304601f81018490048402820184019092528181529291830182828015610ca75780601f10610c7c57610100808354040283529160200191610ca7565b820191906000526020600020905b815481529060010190602001808311610c8a57829003601f168201915b505050505081565b336000818152600e6020908152604080832073ffffffffffffffffffffffffffffffffffffffff8716808552908352818420869055815186815291519394909390927f8c5be1e5ebec7d5bd14f71427d1e84f3dd0314c0f7b2291e5b200ac8c7c3b925928290030190a35060015b92915050565b6000610d2d6123d5565b90505b90565b60095473ffffffffffffffffffffffffffffffffffffffff1681565b600754610100900473ffffffffffffffffffffffffffffffffffffffff1681565b600754610100900473ffffffffffffffffffffffffffffffffffffffff163314610de5576040517f08c379a000000000000000000000000000000000000000000000000000000000815260040180806020018281038252602b815260200180612e04602b913960400191505060405180910390fd5b565b600c5415610e5657604080517f08c379a000000000000000000000000000000000000000000000000000000000815260206004820152601360248201527f616c726561647920696e697469616c697a656400000000000000000000000000604482015290519081900360640190fd5b8251610e69906005906020860190612d0e565b508151610e7d906006906020850190612d0e565b50600780547fffffffffffffffffffffffffffffffffffffffffffffffffffffffffffffff001660ff929092169190911790555050565b600b5481565b604051806043612e8082396043019050604051809103902081565b60008273ffffffffffffffffffffffffffffffffffffffff8116610ef857600080fd5b73ffffffffffffffffffffffffffffffffffffffff8116301415610f1b57600080fd5b73ffffffffffffffffffffffffffffffffffffffff85166000908152600e60209081526040808320338452909152902054610f5c908463ffffffff61240816565b73ffffffffffffffffffffffffffffffffffffffff86166000908152600e60209081526040808320338452909152812091909155600c54610fbd90610fb18669d3c21bcecceda100000063ffffffff61244a16565b9063ffffffff6124bd16565b73ffffffffffffffffffffffffffffffffffffffff87166000908152600d6020526040902054909150610ff6908263ffffffff61240816565b73ffffffffffffffffffffffffffffffffffffffff8088166000908152600d60205260408082209390935590871681522054611038908263ffffffff6124ff16565b73ffffffffffffffffffffffffffffffffffffffff8087166000818152600d602090815260409182902094909455805188815290519193928a16927fddf252ad1be2c89b69c2b068fc378daa952ba7f163c4a11628f55a4df523b3ef92918290030190a350600195945050505050565b60085473ffffffffffffffffffffffffffffffffffffffff1681565b60075460ff1681565b336000908152600e6020908152604080832073ffffffffffffffffffffffffffffffffffffffff8616845290915281205461110e908363ffffffff6124ff16565b336000818152600e6020908152604080832073ffffffffffffffffffffffffffffffffffffffff89168085529083529281902085905580519485525191937f8c5be1e5ebec7d5bd14f71427d1e84f3dd0314c0f7b2291e5b200ac8c7c3b925929081900390910190a350600192915050565b60095473ffffffffffffffffffffffffffffffffffffffff163314806111bd5750600a5473ffffffffffffffffffffffffffffffffffffffff1633145b61122857604080517f08c379a000000000000000000000000000000000000000000000000000000000815260206004820152600a60248201527f6e6f74206d696e74657200000000000000000000000000000000000000000000604482015290519081900360640190fd5b6112328282612573565b5050565b60085473ffffffffffffffffffffffffffffffffffffffff1633146112bc57604080517f08c379a000000000000000000000000000000000000000000000000000000000815260206004820152600860248201527f2170656e64696e67000000000000000000000000000000000000000000000000604482015290519081900360640190fd5b600780546008805473ffffffffffffffffffffffffffffffffffffffff8181166101009081027fffffffffffffffffffffff0000000000000000000000000000000000000000ff861617958690557fffffffffffffffffffffffff000000000000000000000000000000000000000090921690925560408051938290048316808552919094049091166020830152825190927f1f14cfc03e486d23acee577b07bc0b3b23f4888c91fcdba5e0fef5a2549d5523928290030190a150565b600754610100900473ffffffffffffffffffffffffffffffffffffffff1633146113ee576040517f08c379a000000000000000000000000000000000000000000000000000000000815260040180806020018281038252602b815260200180612e55602b913960400191505060405180910390fd5b50565b60006020819052908152604090205473ffffffffffffffffffffffffffffffffffffffff1681565b6113ee33826126de565b60105473ffffffffffffffffffffffffffffffffffffffff1681565b69d3c21bcecceda100000081565b600081116114bc57604080517f08c379a000000000000000000000000000000000000000000000000000000000815260206004820152600d60248201527f3020696e697420737570706c7900000000000000000000000000000000000000604482015290519081900360640190fd5b6114c7858585610de7565b6114ee670de0b6b3a764000069d3c21bcecceda10000005b8391900463ffffffff61244a16565b600f55600b819055670de0b6b3a7640000600c8190556115189069d3c21bcecceda10000006114df565b73ffffffffffffffffffffffffffffffffffffffff9092166000908152600d602052604090209190915550505050565b600a5473ffffffffffffffffffffffffffffffffffffffff1681565b60026020526000908152604090205463ffffffff1681565b600c5473ffffffffffffffffffffffffffffffffffffffff82166000908152600d60205260408120549091610d1d9169d3c21bcecceda100000091610fb1919063ffffffff61244a16565b600754610100900473ffffffffffffffffffffffffffffffffffffffff1633146115f057600080fd5b6008805473ffffffffffffffffffffffffffffffffffffffff8381167fffffffffffffffffffffffff0000000000000000000000000000000000000000831681179093556040805191909216808252602082019390935281517f6163d5b9efd962645dd649e6e48a61bcb0f9df00997a2398b80d135a9ab0c61e929181900390910190a15050565b60004382106116d2576040517f08c379a0000000000000000000000000000000000000000000000000000000008152600401808060200182810382526026815260200180612e2f6026913960400191505060405180910390fd5b73ffffffffffffffffffffffffffffffffffffffff831660009081526002602052604090205463ffffffff168061170d576000915050610d1d565b73ffffffffffffffffffffffffffffffffffffffff8416600090815260016020908152604080832063ffffffff7fffffffffffffffffffffffffffffffffffffffffffffffffffffffffffffffff8601811685529252909120541683106117d25773ffffffffffffffffffffffffffffffffffffffff841660009081526001602081815260408084207fffffffffffffffffffffffffffffffffffffffffffffffffffffffffffffffff9590950163ffffffff16845293905291902001549050610d1d565b73ffffffffffffffffffffffffffffffffffffffff8416600090815260016020908152604080832083805290915290205463ffffffff1683101561181a576000915050610d1d565b60007fffffffffffffffffffffffffffffffffffffffffffffffffffffffffffffffff82015b8163ffffffff168163ffffffff1611156118fa57600282820363ffffffff1604810361186a612d8c565b5073ffffffffffffffffffffffffffffffffffffffff8716600090815260016020818152604080842063ffffffff80871686529083529381902081518083019092528054909416808252939092015490820152908714156118d557602001519450610d1d9350505050565b805163ffffffff168711156118ec578193506118f3565b6001820392505b5050611840565b5073ffffffffffffffffffffffffffffffffffffffff8516600090815260016020818152604080842063ffffffff9095168452939052919020015491505092915050565b60095460009073ffffffffffffffffffffffffffffffffffffffff16331461196557600080fd5b826119b657600c54604080518681526020810183905280820192909252517fc6642d24d84e7f3d36ca39f5cce10e75639d9b158d5193aa350e2f900653e4c09181900360600190a150600b54611a9f565b600c54826119f4576119ec670de0b6b3a7640000610fb16119dd828863ffffffff61240816565b600c549063ffffffff61244a16565b600c55611a3e565b6000611a15670de0b6b3a7640000610fb16119dd828963ffffffff6124ff16565b9050611a1f6123d5565b811015611a3057600c819055611a3c565b611a386123d5565b600c555b505b600c54600f54611a539163ffffffff61244a16565b600b55600c54604080518781526020810184905280820192909252517fc6642d24d84e7f3d36ca39f5cce10e75639d9b158d5193aa350e2f900653e4c09181900360600190a15050600b545b9392505050565b60036020526000908152604090205481565b6006805460408051602060026001851615610100027fffffffffffffffffffffffffffffffffffffffffffffffffffffffffffffffff0190941693909304601f81018490048402820184019092528181529291830182828015610ca75780601f10610c7c57610100808354040283529160200191610ca7565b600f5481565b600754610100900473ffffffffffffffffffffffffffffffffffffffff163314611b6057600080fd5b600a805473ffffffffffffffffffffffffffffffffffffffff8381167fffffffffffffffffffffffff0000000000000000000000000000000000000000831681179093556040805191909216808252602082019390935281517f2ee668ca7d17a9122dc00c0bfd73b684f2f7d681f17733cc02b294f69f1b3896929181900390910190a15050565b336000908152600e6020908152604080832073ffffffffffffffffffffffffffffffffffffffff86168452909152812054808310611c5657336000908152600e6020908152604080832073ffffffffffffffffffffffffffffffffffffffff88168452909152812055611c98565b611c66818463ffffffff61240816565b336000908152600e6020908152604080832073ffffffffffffffffffffffffffffffffffffffff891684529091529020555b336000818152600e6020908152604080832073ffffffffffffffffffffffffffffffffffffffff89168085529083529281902054815190815290519293927f8c5be1e5ebec7d5bd14f71427d1e84f3dd0314c0f7b2291e5b200ac8c7c3b925929181900390910190a35060019392505050565b60008273ffffffffffffffffffffffffffffffffffffffff8116611d2e57600080fd5b73ffffffffffffffffffffffffffffffffffffffff8116301415611d5157600080fd5b600c54600090611d7590610fb18669d3c21bcecceda100000063ffffffff61244a16565b336000908152600d6020526040902054909150611d98908263ffffffff61240816565b336000908152600d60205260408082209290925573ffffffffffffffffffffffffffffffffffffffff871681522054611dd7908263ffffffff6124ff16565b73ffffffffffffffffffffffffffffffffffffffff86166000818152600d60209081526040918290209390935580518781529051919233927fddf252ad1be2c89b69c2b068fc378daa952ba7f163c4a11628f55a4df523b3ef9281900390910190a3506001949350505050565b73ffffffffffffffffffffffffffffffffffffffff811660009081526002602052604081205463ffffffff1680611e7c576000611a9f565b73ffffffffffffffffffffffffffffffffffffffff8316600090815260016020818152604080842063ffffffff7fffffffffffffffffffffffffffffffffffffffffffffffffffffffffffffffff870116855290915290912001549392505050565b600c5481565b60006040518080612e80604391396043019050604051809103902060056040518082805460018160011615610100020316600290048015611f5c5780601f10611f3a576101008083540402835291820191611f5c565b820191906000526020600020905b815481529060010190602001808311611f48575b50509150506040518091039020611f71612781565b30604051602001808581526020018481526020018381526020018273ffffffffffffffffffffffffffffffffffffffff1673ffffffffffffffffffffffffffffffffffffffff16815260200194505050505060405160208183030381529060405280519060200120905060006040518080612f3c603a91396040805191829003603a01822060208084019190915273ffffffffffffffffffffffffffffffffffffffff8c1683830152606083018b905260808084018b90528251808503909101815260a0840183528051908201207f190100000000000000000000000000000000000000000000000000000000000060c085015260c2840187905260e2808501829052835180860390910181526101028501808552815191840191909120600091829052610122860180865281905260ff8c1661014287015261016286018b905261018286018a9052935191965092945091926001926101a280830193927fffffffffffffffffffffffffffffffffffffffffffffffffffffffffffffffe08301929081900390910190855afa15801561210f573d6000803e3d6000fd5b50506040517fffffffffffffffffffffffffffffffffffffffffffffffffffffffffffffffe0015191505073ffffffffffffffffffffffffffffffffffffffff81166121a6576040517f08c379a0000000000000000000000000000000000000000000000000000000008152600401808060200182810382526025815260200180612ddf6025913960400191505060405180910390fd5b73ffffffffffffffffffffffffffffffffffffffff81166000908152600360205260409020805460018101909155891461222b576040517f08c379a0000000000000000000000000000000000000000000000000000000008152600401808060200182810382526021815260200180612dbe6021913960400191505060405180910390fd5b87421115612284576040517f08c379a0000000000000000000000000000000000000000000000000000000008152600401808060200182810382526025815260200180612ee46025913960400191505060405180910390fd5b61228e818b6126de565b505050505b505050505050565b73ffffffffffffffffffffffffffffffffffffffff9182166000908152600e6020908152604080832093909416825291909152205490565b60405180603a612f3c8239603a019050604051809103902081565b670de0b6b3a764000081565b60016020818152600093845260408085209091529183529120805491015463ffffffff9091169082565b600754610100900473ffffffffffffffffffffffffffffffffffffffff16331461234d57600080fd5b6009805473ffffffffffffffffffffffffffffffffffffffff8381167fffffffffffffffffffffffff0000000000000000000000000000000000000000831681179093556040805191909216808252602082019390935281517f51f448520e2183de499e224808a409ee01a1f380edb2e8497572320c15030545929181900390910190a15050565b6000600f547fffffffffffffffffffffffffffffffffffffffffffffffffffffffffffffffff8161240257fe5b04905090565b6000611a9f83836040518060400160405280601e81526020017f536166654d6174683a207375627472616374696f6e206f766572666c6f770000815250612785565b60008261245957506000610d1d565b8282028284828161246657fe5b0414611a9f576040517f08c379a0000000000000000000000000000000000000000000000000000000008152600401808060200182810382526021815260200180612ec36021913960400191505060405180910390fd5b6000611a9f83836040518060400160405280601a81526020017f536166654d6174683a206469766973696f6e206279207a65726f000000000000815250612836565b600082820183811015611a9f57604080517f08c379a000000000000000000000000000000000000000000000000000000000815260206004820152601b60248201527f536166654d6174683a206164646974696f6e206f766572666c6f770000000000604482015290519081900360640190fd5b600b54612586908263ffffffff6124ff16565b600b55600c546000906125ad90610fb18469d3c21bcecceda100000063ffffffff61244a16565b600f549091506125c3908263ffffffff6124ff16565b600f556125ce6123d5565b600c54111561263e57604080517f08c379a000000000000000000000000000000000000000000000000000000000815260206004820152601760248201527f7363616c696e6720666163746f7220746f6f2068696768000000000000000000604482015290519081900360640190fd5b73ffffffffffffffffffffffffffffffffffffffff83166000908152600d6020526040902054612674908263ffffffff6124ff16565b73ffffffffffffffffffffffffffffffffffffffff84166000818152600d602090815260409182902093909355805191825291810184905281517f0f6798a560793a54c3bcfe86a93cde1e73087d944c0ea20544137d4121396885929181900390910190a1505050565b73ffffffffffffffffffffffffffffffffffffffff8083166000818152602081815260408083208054600d845282852054938590528787167fffffffffffffffffffffffff00000000000000000000000000000000000000008216811790925591519190951694919391928592917f3134e8a2e6d97e929a7e54011ea5485d7d196dd5f0ba4d4ef95803e8e3fc257f9190a461277b8284836128b5565b50505050565b4690565b6000818484111561282e576040517f08c379a00000000000000000000000000000000000000000000000000000000081526004018080602001828103825283818151815260200191508051906020019080838360005b838110156127f35781810151838201526020016127db565b50505050905090810190601f1680156128205780820380516001836020036101000a031916815260200191505b509250505060405180910390fd5b505050900390565b6000818361289f576040517f08c379a00000000000000000000000000000000000000000000000000000000081526020600482018181528351602484015283519092839260449091019190850190808383600083156127f35781810151838201526020016127db565b5060008385816128ab57fe5b0495945050505050565b8173ffffffffffffffffffffffffffffffffffffffff168373ffffffffffffffffffffffffffffffffffffffff16141580156128f15750600081115b15612aa05773ffffffffffffffffffffffffffffffffffffffff8316156129cd5773ffffffffffffffffffffffffffffffffffffffff831660009081526002602052604081205463ffffffff16908161294b5760006129a7565b73ffffffffffffffffffffffffffffffffffffffff8516600090815260016020818152604080842063ffffffff7fffffffffffffffffffffffffffffffffffffffffffffffffffffffffffffffff880116855290915290912001545b905060006129bb828563ffffffff61240816565b90506129c986848484612aa5565b5050505b73ffffffffffffffffffffffffffffffffffffffff821615612aa05773ffffffffffffffffffffffffffffffffffffffff821660009081526002602052604081205463ffffffff169081612a22576000612a7e565b73ffffffffffffffffffffffffffffffffffffffff8416600090815260016020818152604080842063ffffffff7fffffffffffffffffffffffffffffffffffffffffffffffffffffffffffffffff880116855290915290912001545b90506000612a92828563ffffffff6124ff16565b905061229385848484612aa5565b505050565b6000612ac943604051806060016040528060338152602001612f0960339139612c96565b905060008463ffffffff16118015612b3d575073ffffffffffffffffffffffffffffffffffffffff8516600090815260016020908152604080832063ffffffff7fffffffffffffffffffffffffffffffffffffffffffffffffffffffffffffffff8901811685529252909120548282169116145b15612ba45773ffffffffffffffffffffffffffffffffffffffff8516600090815260016020818152604080842063ffffffff7fffffffffffffffffffffffffffffffffffffffffffffffffffffffffffffffff8a0116855290915290912001829055612c3f565b60408051808201825263ffffffff8084168252602080830186815273ffffffffffffffffffffffffffffffffffffffff8a16600081815260018085528782208c871683528552878220965187549087167fffffffffffffffffffffffffffffffffffffffffffffffffffffffff0000000091821617885593519681019690965590815260029092529390208054928801909116919092161790555b6040805184815260208101849052815173ffffffffffffffffffffffffffffffffffffffff8816927fdec2bacdd2f05b59de34da9b523dff8be42e5e38e818c82fdb0bae774387a724928290030190a25050505050565b6000816401000000008410612d06576040517f08c379a00000000000000000000000000000000000000000000000000000000081526020600482018181528351602484015283519092839260449091019190850190808383600083156127f35781810151838201526020016127db565b509192915050565b828054600181600116156101000203166002900490600052602060002090601f016020900481019282601f10612d4f57805160ff1916838001178555612d7c565b82800160010185558215612d7c579182015b82811115612d7c578251825591602001919060010190612d61565b50612d88929150612da3565b5090565b604080518082019091526000808252602082015290565b610d3091905b80821115612d885760008155600101612da956fe59414d3a3a64656c656761746542795369673a20696e76616c6964206e6f6e636559414d3a3a64656c656761746542795369673a20696e76616c6964207369676e61747572656f6e6c792074686520676f76206d61792063616c6c205f72657369676e496d706c656d656e746174696f6e59414d3a3a6765745072696f72566f7465733a206e6f74207965742064657465726d696e65646f6e6c792074686520676f76206d61792063616c6c205f6265636f6d65496d706c656d656e746174696f6e454950373132446f6d61696e28737472696e67206e616d652c75696e7432353620636861696e49642c6164647265737320766572696679696e67436f6e747261637429536166654d6174683a206d756c7469706c69636174696f6e206f766572666c6f7759414d3a3a64656c656761746542795369673a207369676e6174757265206578706972656459414d3a3a5f7772697465436865636b706f696e743a20626c6f636b206e756d6265722065786365656473203332206269747344656c65676174696f6e28616464726573732064656c6567617465652c75696e74323536206e6f6e63652c75696e743235362065787069727929a265627a7a723158200202d0ae981ba8bfe5dcfcf96e1836def54957295e6fa09845163a0d7003d4ac64736f6c63430005110032",
  "source": "pragma solidity 0.5.17;\n\nimport \"./YAM.sol\";\n\ncontract YAMDelegationStorage {\n    /**\n     * @notice Implementation address for this contract\n     */\n    address public implementation;\n}\n\ncontract YAMDelegatorInterface is YAMDelegationStorage {\n    /**\n     * @notice Emitted when implementation is changed\n     */\n    event NewImplementation(address oldImplementation, address newImplementation);\n\n    /**\n     * @notice Called by the gov to update the implementation of the delegator\n     * @param implementation_ The address of the new implementation for delegation\n     * @param allowResign Flag to indicate whether to call _resignImplementation on the old implementation\n     * @param becomeImplementationData The encoded bytes data to be passed to _becomeImplementation\n     */\n    function _setImplementation(address implementation_, bool allowResign, bytes memory becomeImplementationData) public;\n}\n\ncontract YAMDelegateInterface is YAMDelegationStorage {\n    /**\n     * @notice Called by the delegator on a delegate to initialize it for duty\n     * @dev Should revert if any issues arise which make it unfit for delegation\n     * @param data The encoded bytes data for any initialization\n     */\n    function _becomeImplementation(bytes memory data) public;\n\n    /**\n     * @notice Called by the delegator on a delegate to forfeit its responsibility\n     */\n    function _resignImplementation() public;\n}\n\n\ncontract YAMDelegate is YAM, YAMDelegateInterface {\n    /**\n     * @notice Construct an empty delegate\n     */\n    constructor() public {}\n\n    /**\n     * @notice Called by the delegator on a delegate to initialize it for duty\n     * @param data The encoded bytes data for any initialization\n     */\n    function _becomeImplementation(bytes memory data) public {\n        // Shh -- currently unused\n        data;\n\n        // Shh -- we don't ever want this hook to be marked pure\n        if (false) {\n            implementation = address(0);\n        }\n\n        require(msg.sender == gov, \"only the gov may call _becomeImplementation\");\n    }\n\n    /**\n     * @notice Called by the delegator on a delegate to forfeit its responsibility\n     */\n    function _resignImplementation() public {\n        // Shh -- we don't ever want this hook to be marked pure\n        if (false) {\n            implementation = address(0);\n        }\n\n        require(msg.sender == gov, \"only the gov may call _resignImplementation\");\n    }\n}\n",
  "sourcePath": "/Users/brockelmore/YAM/contracts/token/YAMDelegate.sol",
  "compiler": {
    "name": "solc",
    "version": "0.5.17+commit.d19bba13.Linux.g++"
  },
  "schemaVersion": "3.0.16",
  "updatedAt": "2020-08-07T20:09:25.712Z",
  "devdoc": {
    "methods": {
      "_becomeImplementation(bytes)": {
        "params": {
          "data": "The encoded bytes data for any initialization"
        }
      },
      "_setIncentivizer(address)": {
        "params": {
          "incentivizer_": "The address of the rebaser contract to use for authentication."
        }
      },
      "_setPendingGov(address)": {
        "params": {
          "pendingGov_": "The address of the rebaser contract to use for authentication."
        }
      },
      "_setRebaser(address)": {
        "params": {
          "rebaser_": "The address of the rebaser contract to use for authentication."
        }
      },
      "allowance(address,address)": {
        "details": "Function to check the amount of tokens that an owner has allowed to a spender.",
        "params": {
          "owner_": "The address which owns the funds.",
          "spender": "The address which will spend the funds."
        },
        "return": "The number of tokens still available for the spender."
      },
      "approve(address,uint256)": {
        "details": "Approve the passed address to spend the specified amount of tokens on behalf of msg.sender. This method is included for ERC20 compatibility. increaseAllowance and decreaseAllowance should be used instead. Changing an allowance with this method brings the risk that someone may transfer both the old and the new allowance - if they are both greater than zero - if a transfer transaction is mined before the later approve() call is mined.",
        "params": {
          "spender": "The address which will spend the funds.",
          "value": "The amount of tokens to be spent."
        }
      },
      "balanceOf(address)": {
        "params": {
          "who": "The address to query."
        },
        "return": "The balance of the specified address."
      },
      "decreaseAllowance(address,uint256)": {
        "details": "Decrease the amount of tokens that an owner has allowed to a spender.",
        "params": {
          "spender": "The address which will spend the funds.",
          "subtractedValue": "The amount of tokens to decrease the allowance by."
        }
      },
      "delegate(address)": {
        "params": {
          "delegatee": "The address to delegate votes to"
        }
      },
      "delegateBySig(address,uint256,uint256,uint8,bytes32,bytes32)": {
        "params": {
          "delegatee": "The address to delegate votes to",
          "expiry": "The time at which to expire the signature",
          "nonce": "The contract state required to match the signature",
          "r": "Half of the ECDSA signature pair",
          "s": "Half of the ECDSA signature pair",
          "v": "The recovery byte of the signature"
        }
      },
      "getCurrentVotes(address)": {
        "params": {
          "account": "The address to get votes balance"
        },
        "return": "The number of current votes for `account`"
      },
      "getPriorVotes(address,uint256)": {
        "details": "Block number must be a finalized block or else this function will revert to prevent misinformation.",
        "params": {
          "account": "The address of the account to check",
          "blockNumber": "The block number to get the vote balance at"
        },
        "return": "The number of votes the account had as of the given block"
      },
      "increaseAllowance(address,uint256)": {
        "details": "Increase the amount of tokens that an owner has allowed to a spender. This method should be used instead of approve() to avoid the double approval vulnerability described above.",
        "params": {
          "addedValue": "The amount of tokens to increase the allowance by.",
          "spender": "The address which will spend the funds."
        }
      },
      "initialize(string,string,uint8,address,uint256)": {
        "params": {
          "decimals_": "ERC-20 decimal precision of this token",
          "name_": "ERC-20 name of this token",
          "symbol_": "ERC-20 symbol of this token"
        }
      },
      "rebase(uint256,uint256,bool)": {
        "details": "The supply adjustment equals (totalSupply * DeviationFromTargetRate) / rebaseLag     Where DeviationFromTargetRate is (MarketOracleRate - targetRate) / targetRate     and targetRate is CpiOracleRate / baseCpi"
      },
      "transfer(address,uint256)": {
        "details": "Transfer tokens to a specified address.",
        "params": {
          "to": "The address to transfer to.",
          "value": "The amount to be transferred."
        },
        "return": "True on success, false otherwise."
      },
      "transferFrom(address,address,uint256)": {
        "details": "Transfer tokens from one address to another.",
        "params": {
          "from": "The address you want to send tokens from.",
          "to": "The address you want to transfer to.",
          "value": "The amount of tokens to be transferred."
        }
      }
    }
  },
  "userdoc": {
    "methods": {
      "_acceptGov()": {
        "notice": "lets msg.sender accept governance     "
      },
      "_becomeImplementation(bytes)": {
        "notice": "Called by the delegator on a delegate to initialize it for duty"
      },
      "_resignImplementation()": {
        "notice": "Called by the delegator on a delegate to forfeit its responsibility"
      },
      "_setIncentivizer(address)": {
        "notice": "sets the incentivizer"
      },
      "_setPendingGov(address)": {
        "notice": "sets the pendingGov"
      },
      "_setRebaser(address)": {
        "notice": "sets the rebaser"
      },
      "constructor": "Construct an empty delegate",
      "delegate(address)": {
        "notice": "Delegate votes from `msg.sender` to `delegatee`"
      },
      "delegateBySig(address,uint256,uint256,uint8,bytes32,bytes32)": {
        "notice": "Delegates votes from signatory to `delegatee`"
      },
      "getCurrentVotes(address)": {
        "notice": "Gets the current votes balance for `account`"
      },
      "getPriorVotes(address,uint256)": {
        "notice": "Determine the prior number of votes for an account as of a block number"
      },
      "initialize(string,string,uint8,address,uint256)": {
        "notice": "Initialize the new money market"
      },
      "maxScalingFactor()": {
        "notice": "Computes the current max scaling factor"
      },
      "mint(address,uint256)": {
        "notice": "Mints new tokens, increasing totalSupply, initSupply, and a users balance."
      },
      "rebase(uint256,uint256,bool)": {
        "notice": "Initiates a new rebase operation, provided the minimum time period has elapsed."
      }
    }
  }
}