{
  "contractName": "YAMDelegator",
  "abi": [
    {
      "inputs": [
        {
          "internalType": "string",
          "name": "name_",
          "type": "string"
        },
        {
          "internalType": "string",
          "name": "symbol_",
          "type": "string"
        },
        {
          "internalType": "uint8",
          "name": "decimals_",
          "type": "uint8"
        },
        {
          "internalType": "uint256",
          "name": "initSupply_",
          "type": "uint256"
        },
        {
          "internalType": "address",
          "name": "implementation_",
          "type": "address"
        },
        {
          "internalType": "bytes",
          "name": "becomeImplementationData",
          "type": "bytes"
        }
      ],
      "payable": false,
      "stateMutability": "nonpayable",
      "type": "constructor"
    },
    {
      "anonymous": false,
      "inputs": [
        {
          "indexed": true,
          "internalType": "address",
          "name": "owner",
          "type": "address"
        },
        {
          "indexed": true,
          "internalType": "address",
          "name": "spender",
          "type": "address"
        },
        {
          "indexed": false,
          "internalType": "uint256",
          "name": "amount",
          "type": "uint256"
        }
      ],
      "name": "Approval",
      "type": "event"
    },
    {
      "anonymous": false,
      "inputs": [
        {
          "indexed": true,
          "internalType": "address",
          "name": "delegator",
          "type": "address"
        },
        {
          "indexed": true,
          "internalType": "address",
          "name": "fromDelegate",
          "type": "address"
        },
        {
          "indexed": true,
          "internalType": "address",
          "name": "toDelegate",
          "type": "address"
        }
      ],
      "name": "DelegateChanged",
      "type": "event"
    },
    {
      "anonymous": false,
      "inputs": [
        {
          "indexed": true,
          "internalType": "address",
          "name": "delegate",
          "type": "address"
        },
        {
          "indexed": false,
          "internalType": "uint256",
          "name": "previousBalance",
          "type": "uint256"
        },
        {
          "indexed": false,
          "internalType": "uint256",
          "name": "newBalance",
          "type": "uint256"
        }
      ],
      "name": "DelegateVotesChanged",
      "type": "event"
    },
    {
      "anonymous": false,
      "inputs": [
        {
          "indexed": false,
          "internalType": "address",
          "name": "to",
          "type": "address"
        },
        {
          "indexed": false,
          "internalType": "uint256",
          "name": "amount",
          "type": "uint256"
        }
      ],
      "name": "Mint",
      "type": "event"
    },
    {
      "anonymous": false,
      "inputs": [
        {
          "indexed": false,
          "internalType": "address",
          "name": "oldGov",
          "type": "address"
        },
        {
          "indexed": false,
          "internalType": "address",
          "name": "newGov",
          "type": "address"
        }
      ],
      "name": "NewGov",
      "type": "event"
    },
    {
      "anonymous": false,
      "inputs": [
        {
          "indexed": false,
          "internalType": "address",
          "name": "oldImplementation",
          "type": "address"
        },
        {
          "indexed": false,
          "internalType": "address",
          "name": "newImplementation",
          "type": "address"
        }
      ],
      "name": "NewImplementation",
      "type": "event"
    },
    {
      "anonymous": false,
      "inputs": [
        {
          "indexed": false,
          "internalType": "address",
          "name": "oldIncentivizer",
          "type": "address"
        },
        {
          "indexed": false,
          "internalType": "address",
          "name": "newIncentivizer",
          "type": "address"
        }
      ],
      "name": "NewIncentivizer",
      "type": "event"
    },
    {
      "anonymous": false,
      "inputs": [
        {
          "indexed": false,
          "internalType": "address",
          "name": "oldPendingGov",
          "type": "address"
        },
        {
          "indexed": false,
          "internalType": "address",
          "name": "newPendingGov",
          "type": "address"
        }
      ],
      "name": "NewPendingGov",
      "type": "event"
    },
    {
      "anonymous": false,
      "inputs": [
        {
          "indexed": false,
          "internalType": "address",
          "name": "oldRebaser",
          "type": "address"
        },
        {
          "indexed": false,
          "internalType": "address",
          "name": "newRebaser",
          "type": "address"
        }
      ],
      "name": "NewRebaser",
      "type": "event"
    },
    {
      "anonymous": false,
      "inputs": [
        {
          "indexed": false,
          "internalType": "uint256",
          "name": "epoch",
          "type": "uint256"
        },
        {
          "indexed": false,
          "internalType": "uint256",
          "name": "prevYamsScalingFactor",
          "type": "uint256"
        },
        {
          "indexed": false,
          "internalType": "uint256",
          "name": "newYamsScalingFactor",
          "type": "uint256"
        }
      ],
      "name": "Rebase",
      "type": "event"
    },
    {
      "anonymous": false,
      "inputs": [
        {
          "indexed": true,
          "internalType": "address",
          "name": "from",
          "type": "address"
        },
        {
          "indexed": true,
          "internalType": "address",
          "name": "to",
          "type": "address"
        },
        {
          "indexed": false,
          "internalType": "uint256",
          "name": "amount",
          "type": "uint256"
        }
      ],
      "name": "Transfer",
      "type": "event"
    },
    {
      "payable": true,
      "stateMutability": "payable",
      "type": "fallback"
    },
    {
      "constant": true,
      "inputs": [],
      "name": "BASE",
      "outputs": [
        {
          "internalType": "uint256",
          "name": "",
          "type": "uint256"
        }
      ],
      "payable": false,
      "stateMutability": "view",
      "type": "function"
    },
    {
      "constant": true,
      "inputs": [],
      "name": "DELEGATION_TYPEHASH",
      "outputs": [
        {
          "internalType": "bytes32",
          "name": "",
          "type": "bytes32"
        }
      ],
      "payable": false,
      "stateMutability": "view",
      "type": "function"
    },
    {
      "constant": true,
      "inputs": [],
      "name": "DOMAIN_TYPEHASH",
      "outputs": [
        {
          "internalType": "bytes32",
          "name": "",
          "type": "bytes32"
        }
      ],
      "payable": false,
      "stateMutability": "view",
      "type": "function"
    },
    {
      "constant": true,
      "inputs": [
        {
          "internalType": "address",
          "name": "",
          "type": "address"
        },
        {
          "internalType": "uint32",
          "name": "",
          "type": "uint32"
        }
      ],
      "name": "checkpoints",
      "outputs": [
        {
          "internalType": "uint32",
          "name": "fromBlock",
          "type": "uint32"
        },
        {
          "internalType": "uint256",
          "name": "votes",
          "type": "uint256"
        }
      ],
      "payable": false,
      "stateMutability": "view",
      "type": "function"
    },
    {
      "constant": true,
      "inputs": [],
      "name": "decimals",
      "outputs": [
        {
          "internalType": "uint8",
          "name": "",
          "type": "uint8"
        }
      ],
      "payable": false,
      "stateMutability": "view",
      "type": "function"
    },
    {
      "constant": false,
      "inputs": [
        {
          "internalType": "address",
          "name": "spender",
          "type": "address"
        },
        {
          "internalType": "uint256",
          "name": "subtractedValue",
          "type": "uint256"
        }
      ],
      "name": "decreaseAllowance",
      "outputs": [
        {
          "internalType": "bool",
          "name": "",
          "type": "bool"
        }
      ],
      "payable": false,
      "stateMutability": "nonpayable",
      "type": "function"
    },
    {
      "constant": false,
      "inputs": [
        {
          "internalType": "address",
          "name": "delegatee",
          "type": "address"
        }
      ],
      "name": "delegate",
      "outputs": [],
      "payable": false,
      "stateMutability": "nonpayable",
      "type": "function"
    },
    {
      "constant": false,
      "inputs": [
        {
          "internalType": "address",
          "name": "delegatee",
          "type": "address"
        },
        {
          "internalType": "uint256",
          "name": "nonce",
          "type": "uint256"
        },
        {
          "internalType": "uint256",
          "name": "expiry",
          "type": "uint256"
        },
        {
          "internalType": "uint8",
          "name": "v",
          "type": "uint8"
        },
        {
          "internalType": "bytes32",
          "name": "r",
          "type": "bytes32"
        },
        {
          "internalType": "bytes32",
          "name": "s",
          "type": "bytes32"
        }
      ],
      "name": "delegateBySig",
      "outputs": [],
      "payable": false,
      "stateMutability": "nonpayable",
      "type": "function"
    },
    {
      "constant": true,
      "inputs": [
        {
          "internalType": "address",
          "name": "",
          "type": "address"
        }
      ],
      "name": "delegates",
      "outputs": [
        {
          "internalType": "address",
          "name": "",
          "type": "address"
        }
      ],
      "payable": false,
      "stateMutability": "view",
      "type": "function"
    },
    {
      "constant": true,
      "inputs": [
        {
          "internalType": "address",
          "name": "account",
          "type": "address"
        }
      ],
      "name": "getCurrentVotes",
      "outputs": [
        {
          "internalType": "uint256",
          "name": "",
          "type": "uint256"
        }
      ],
      "payable": false,
      "stateMutability": "view",
      "type": "function"
    },
    {
      "constant": true,
      "inputs": [
        {
          "internalType": "address",
          "name": "account",
          "type": "address"
        },
        {
          "internalType": "uint256",
          "name": "blockNumber",
          "type": "uint256"
        }
      ],
      "name": "getPriorVotes",
      "outputs": [
        {
          "internalType": "uint256",
          "name": "",
          "type": "uint256"
        }
      ],
      "payable": false,
      "stateMutability": "view",
      "type": "function"
    },
    {
      "constant": true,
      "inputs": [],
      "name": "gov",
      "outputs": [
        {
          "internalType": "address",
          "name": "",
          "type": "address"
        }
      ],
      "payable": false,
      "stateMutability": "view",
      "type": "function"
    },
    {
      "constant": true,
      "inputs": [],
      "name": "implementation",
      "outputs": [
        {
          "internalType": "address",
          "name": "",
          "type": "address"
        }
      ],
      "payable": false,
      "stateMutability": "view",
      "type": "function"
    },
    {
      "constant": true,
      "inputs": [],
      "name": "incentivizer",
      "outputs": [
        {
          "internalType": "address",
          "name": "",
          "type": "address"
        }
      ],
      "payable": false,
      "stateMutability": "view",
      "type": "function"
    },
    {
      "constant": false,
      "inputs": [
        {
          "internalType": "address",
          "name": "spender",
          "type": "address"
        },
        {
          "internalType": "uint256",
          "name": "addedValue",
          "type": "uint256"
        }
      ],
      "name": "increaseAllowance",
      "outputs": [
        {
          "internalType": "bool",
          "name": "",
          "type": "bool"
        }
      ],
      "payable": false,
      "stateMutability": "nonpayable",
      "type": "function"
    },
    {
      "constant": true,
      "inputs": [],
      "name": "initSupply",
      "outputs": [
        {
          "internalType": "uint256",
          "name": "",
          "type": "uint256"
        }
      ],
      "payable": false,
      "stateMutability": "view",
      "type": "function"
    },
    {
      "constant": false,
      "inputs": [
        {
          "internalType": "string",
          "name": "name_",
          "type": "string"
        },
        {
          "internalType": "string",
          "name": "symbol_",
          "type": "string"
        },
        {
          "internalType": "uint8",
          "name": "decimals_",
          "type": "uint8"
        }
      ],
      "name": "initialize",
      "outputs": [],
      "payable": false,
      "stateMutability": "nonpayable",
      "type": "function"
    },
    {
      "constant": false,
      "inputs": [
        {
          "internalType": "string",
          "name": "name_",
          "type": "string"
        },
        {
          "internalType": "string",
          "name": "symbol_",
          "type": "string"
        },
        {
          "internalType": "uint8",
          "name": "decimals_",
          "type": "uint8"
        },
        {
          "internalType": "address",
          "name": "initial_owner",
          "type": "address"
        },
        {
          "internalType": "uint256",
          "name": "initSupply_",
          "type": "uint256"
        }
      ],
      "name": "initialize",
      "outputs": [],
      "payable": false,
      "stateMutability": "nonpayable",
      "type": "function"
    },
    {
      "constant": true,
      "inputs": [],
      "name": "internalDecimals",
      "outputs": [
        {
          "internalType": "uint256",
          "name": "",
          "type": "uint256"
        }
      ],
      "payable": false,
      "stateMutability": "view",
      "type": "function"
    },
    {
      "constant": true,
      "inputs": [],
      "name": "maxScalingFactor",
      "outputs": [
        {
          "internalType": "uint256",
          "name": "",
          "type": "uint256"
        }
      ],
      "payable": false,
      "stateMutability": "view",
      "type": "function"
    },
    {
      "constant": true,
      "inputs": [],
      "name": "name",
      "outputs": [
        {
          "internalType": "string",
          "name": "",
          "type": "string"
        }
      ],
      "payable": false,
      "stateMutability": "view",
      "type": "function"
    },
    {
      "constant": true,
      "inputs": [
        {
          "internalType": "address",
          "name": "",
          "type": "address"
        }
      ],
      "name": "nonces",
      "outputs": [
        {
          "internalType": "uint256",
          "name": "",
          "type": "uint256"
        }
      ],
      "payable": false,
      "stateMutability": "view",
      "type": "function"
    },
    {
      "constant": true,
      "inputs": [
        {
          "internalType": "address",
          "name": "",
          "type": "address"
        }
      ],
      "name": "numCheckpoints",
      "outputs": [
        {
          "internalType": "uint32",
          "name": "",
          "type": "uint32"
        }
      ],
      "payable": false,
      "stateMutability": "view",
      "type": "function"
    },
    {
      "constant": true,
      "inputs": [],
      "name": "pendingGov",
      "outputs": [
        {
          "internalType": "address",
          "name": "",
          "type": "address"
        }
      ],
      "payable": false,
      "stateMutability": "view",
      "type": "function"
    },
    {
      "constant": false,
      "inputs": [
        {
          "internalType": "uint256",
          "name": "epoch",
          "type": "uint256"
        },
        {
          "internalType": "uint256",
          "name": "indexDelta",
          "type": "uint256"
        },
        {
          "internalType": "bool",
          "name": "positive",
          "type": "bool"
        }
      ],
      "name": "rebase",
      "outputs": [
        {
          "internalType": "uint256",
          "name": "",
          "type": "uint256"
        }
      ],
      "payable": false,
      "stateMutability": "nonpayable",
      "type": "function"
    },
    {
      "constant": true,
      "inputs": [],
      "name": "rebaser",
      "outputs": [
        {
          "internalType": "address",
          "name": "",
          "type": "address"
        }
      ],
      "payable": false,
      "stateMutability": "view",
      "type": "function"
    },
    {
      "constant": true,
      "inputs": [],
      "name": "symbol",
      "outputs": [
        {
          "internalType": "string",
          "name": "",
          "type": "string"
        }
      ],
      "payable": false,
      "stateMutability": "view",
      "type": "function"
    },
    {
      "constant": true,
      "inputs": [],
      "name": "totalSupply",
      "outputs": [
        {
          "internalType": "uint256",
          "name": "",
          "type": "uint256"
        }
      ],
      "payable": false,
      "stateMutability": "view",
      "type": "function"
    },
    {
      "constant": true,
      "inputs": [],
      "name": "yamsScalingFactor",
      "outputs": [
        {
          "internalType": "uint256",
          "name": "",
          "type": "uint256"
        }
      ],
      "payable": false,
      "stateMutability": "view",
      "type": "function"
    },
    {
      "constant": false,
      "inputs": [
        {
          "internalType": "address",
          "name": "implementation_",
          "type": "address"
        },
        {
          "internalType": "bool",
          "name": "allowResign",
          "type": "bool"
        },
        {
          "internalType": "bytes",
          "name": "becomeImplementationData",
          "type": "bytes"
        }
      ],
      "name": "_setImplementation",
      "outputs": [],
      "payable": false,
      "stateMutability": "nonpayable",
      "type": "function"
    },
    {
      "constant": false,
      "inputs": [
        {
          "internalType": "address",
          "name": "to",
          "type": "address"
        },
        {
          "internalType": "uint256",
          "name": "mintAmount",
          "type": "uint256"
        }
      ],
      "name": "mint",
      "outputs": [],
      "payable": false,
      "stateMutability": "nonpayable",
      "type": "function"
    },
    {
      "constant": false,
      "inputs": [
        {
          "internalType": "address",
          "name": "dst",
          "type": "address"
        },
        {
          "internalType": "uint256",
          "name": "amount",
          "type": "uint256"
        }
      ],
      "name": "transfer",
      "outputs": [
        {
          "internalType": "bool",
          "name": "",
          "type": "bool"
        }
      ],
      "payable": false,
      "stateMutability": "nonpayable",
      "type": "function"
    },
    {
      "constant": false,
      "inputs": [
        {
          "internalType": "address",
          "name": "src",
          "type": "address"
        },
        {
          "internalType": "address",
          "name": "dst",
          "type": "address"
        },
        {
          "internalType": "uint256",
          "name": "amount",
          "type": "uint256"
        }
      ],
      "name": "transferFrom",
      "outputs": [
        {
          "internalType": "bool",
          "name": "",
          "type": "bool"
        }
      ],
      "payable": false,
      "stateMutability": "nonpayable",
      "type": "function"
    },
    {
      "constant": false,
      "inputs": [
        {
          "internalType": "address",
          "name": "spender",
          "type": "address"
        },
        {
          "internalType": "uint256",
          "name": "amount",
          "type": "uint256"
        }
      ],
      "name": "approve",
      "outputs": [
        {
          "internalType": "bool",
          "name": "",
          "type": "bool"
        }
      ],
      "payable": false,
      "stateMutability": "nonpayable",
      "type": "function"
    },
    {
      "constant": true,
      "inputs": [
        {
          "internalType": "address",
          "name": "owner",
          "type": "address"
        },
        {
          "internalType": "address",
          "name": "spender",
          "type": "address"
        }
      ],
      "name": "allowance",
      "outputs": [
        {
          "internalType": "uint256",
          "name": "",
          "type": "uint256"
        }
      ],
      "payable": false,
      "stateMutability": "view",
      "type": "function"
    },
    {
      "constant": true,
      "inputs": [
        {
          "internalType": "address",
          "name": "owner",
          "type": "address"
        }
      ],
      "name": "balanceOf",
      "outputs": [
        {
          "internalType": "uint256",
          "name": "",
          "type": "uint256"
        }
      ],
      "payable": false,
      "stateMutability": "view",
      "type": "function"
    },
    {
      "constant": false,
      "inputs": [
        {
          "internalType": "address",
          "name": "newPendingGov",
          "type": "address"
        }
      ],
      "name": "_setPendingGov",
      "outputs": [],
      "payable": false,
      "stateMutability": "nonpayable",
      "type": "function"
    },
    {
      "constant": false,
      "inputs": [
        {
          "internalType": "address",
          "name": "rebaser_",
          "type": "address"
        }
      ],
      "name": "_setRebaser",
      "outputs": [],
      "payable": false,
      "stateMutability": "nonpayable",
      "type": "function"
    },
    {
      "constant": false,
      "inputs": [
        {
          "internalType": "address",
          "name": "incentivizer_",
          "type": "address"
        }
      ],
      "name": "_setIncentivizer",
      "outputs": [],
      "payable": false,
      "stateMutability": "nonpayable",
      "type": "function"
    },
    {
      "constant": false,
      "inputs": [],
      "name": "_acceptGov",
      "outputs": [],
      "payable": false,
      "stateMutability": "nonpayable",
      "type": "function"
    },
    {
      "constant": false,
      "inputs": [
        {
          "internalType": "bytes",
          "name": "data",
          "type": "bytes"
        }
      ],
      "name": "delegateToImplementation",
      "outputs": [
        {
          "internalType": "bytes",
          "name": "",
          "type": "bytes"
        }
      ],
      "payable": false,
      "stateMutability": "nonpayable",
      "type": "function"
    },
    {
      "constant": true,
      "inputs": [
        {
          "internalType": "bytes",
          "name": "data",
          "type": "bytes"
        }
      ],
      "name": "delegateToViewImplementation",
      "outputs": [
        {
          "internalType": "bytes",
          "name": "",
          "type": "bytes"
        }
      ],
      "payable": false,
      "stateMutability": "view",
      "type": "function"
    }
  ],
  "bytecode": "0x60806040523480156200001157600080fd5b506040516200381138038062003811833981810160405260c08110156200003757600080fd5b81019080805160405193929190846401000000008211156200005857600080fd5b9083019060208201858111156200006e57600080fd5b82516401000000008111828201881017156200008957600080fd5b82525081516020918201929091019080838360005b83811015620000b85781810151838201526020016200009e565b50505050905090810190601f168015620000e65780820380516001836020036101000a031916815260200191505b50604052602001805160405193929190846401000000008211156200010a57600080fd5b9083019060208201858111156200012057600080fd5b82516401000000008111828201881017156200013b57600080fd5b82525081516020918201929091019080838360005b838110156200016a57818101518382015260200162000150565b50505050905090810190601f168015620001985780820380516001836020036101000a031916815260200191505b50604081815260208301519083015160608401516080909401805192969195919284640100000000821115620001cd57600080fd5b908301906020820185811115620001e357600080fd5b8251640100000000811182820188101715620001fe57600080fd5b82525081516020918201929091019080838360005b838110156200022d57818101518382015260200162000213565b50505050905090810190601f1680156200025b5780820380516001836020036101000a031916815260200191505b5060405250505033600760016101000a8154816001600160a01b0302191690836001600160a01b03160217905550620003d48287878733886040516024018080602001806020018660ff1660ff168152602001856001600160a01b03166001600160a01b03168152602001848152602001838103835288818151815260200191508051906020019080838360005b8381101562000303578181015183820152602001620002e9565b50505050905090810190601f168015620003315780820380516001836020036101000a031916815260200191505b50838103825287518152875160209182019189019080838360005b83811015620003665781810151838201526020016200034c565b50505050905090810190601f168015620003945780820380516001836020036101000a031916815260200191505b5060408051601f198184030181529190526020810180516001600160e01b03908116636c94522160e01b17909152909850620003f8169650505050505050565b50620003ec826000836001600160e01b03620004bf16565b505050505050620006a0565b606060006060846001600160a01b0316846040518082805190602001908083835b602083106200043a5780518252601f19909201916020918201910162000419565b6001836020036101000a038019825116818451168082178552505050505050905001915050600060405180830381855af49150503d80600081146200049c576040519150601f19603f3d011682016040523d82523d6000602084013e620004a1565b606091505b50915091506000821415620004b7573d60208201fd5b949350505050565b60075461010090046001600160a01b031633146200050f5760405162461bcd60e51b8152600401808060200182810382526034815260200180620037dd6034913960400191505060405180910390fd5b811562000551576040805160048152602481019091526020810180516001600160e01b0390811663153ab50560e01b179091526200054f91906200067616565b505b601080546001600160a01b038581166001600160a01b0319831617909255604051602060248201818152855160448401528551949093169362000627938693909283926064909201919085019080838360005b83811015620005be578181015183820152602001620005a4565b50505050905090810190601f168015620005ec5780820380516001836020036101000a031916815260200191505b5060408051601f198184030181529190526020810180516001600160e01b03908116630adccee560e31b179091529093506200067616915050565b50601054604080516001600160a01b038085168252909216602083015280517fd604de94d45953f9138079ec1b82d533cb2160c906d1076d1f7ed54befbca97a9281900390910190a150505050565b6010546060906200069a906001600160a01b0316836001600160e01b03620003f816565b92915050565b61312d80620006b06000396000f3fe6080604052600436106102d15760003560e01c80636c9452211161017957806398dca210116100d6578063c3cda5201161008a578063ec342ad011610064578063ec342ad014610ea1578063f1127ed814610eb6578063fa8f345514610c20576102d1565b8063c3cda52014610de3578063dd62ed3e14610e44578063e7a324dc14610e8c576102d1565b8063a9059cbb116100bb578063a9059cbb14610470578063b4b5ea5714610d8e578063b6fa857614610dce576102d1565b806398dca21014610c20578063a457c2d714610d48576102d1565b8063782d6fe11161012d5780637ecebe00116101125780637ecebe0014610cde57806395d89b4114610d1e57806397d63f9314610d33576102d1565b8063782d6fe114610c605780637af548c114610ca6576102d1565b80636fcfff451161015e5780636fcfff4514610b8757806370a0823114610be057806373f03dff14610c20576102d1565b80636c94522114610a145780636fc6407c14610b72576102d1565b806325240810116102325780634bda2e20116101e65780635c19a95c116101c05780635c19a95c146109aa5780635c60da1b146109ea57806364dd48f5146109ff576102d1565b80634bda2e201461087e578063555bcc4014610893578063587cde1e1461096a576102d1565b80633950935111610217578063395093511461073f57806340c10f19146107855780634487152f146107cb576102d1565b806325240810146106ff578063313ce56714610714576102d1565b806312d43a511161028957806318160ddd1161026e57806318160ddd1461068557806320606b701461069a57806323b872dd146106af576102d1565b806312d43a511461052f5780631624f6c614610544576102d1565b8063095ea7b3116102ba578063095ea7b31461047057806311d3e6c4146104ca57806311fd8a83146104f1576102d1565b806306fdde03146103335780630933c1ed146103bd575b3415610328576040517f08c379a0000000000000000000000000000000000000000000000000000000008152600401808060200182810382526034815260200180612fa96034913960400191505060405180910390fd5b610330610f22565b50005b34801561033f57600080fd5b50610348610fb7565b6040805160208082528351818301528351919283929083019185019080838360005b8381101561038257818101518382015260200161036a565b50505050905090810190601f1680156103af5780820380516001836020036101000a031916815260200191505b509250505060405180910390f35b3480156103c957600080fd5b50610348600480360360208110156103e057600080fd5b8101906020810181356401000000008111156103fb57600080fd5b82018360208201111561040d57600080fd5b8035906020019184600183028401116401000000008311171561042f57600080fd5b91908080601f016020809104026020016040519081016040528093929190818152602001838380828437600092019190915250929550611063945050505050565b34801561047c57600080fd5b506104b66004803603604081101561049357600080fd5b5073ffffffffffffffffffffffffffffffffffffffff813516906020013561108f565b604080519115158252519081900360200190f35b3480156104d657600080fd5b506104df6110a0565b60408051918252519081900360200190f35b3480156104fd57600080fd5b506105066110b0565b6040805173ffffffffffffffffffffffffffffffffffffffff9092168252519081900360200190f35b34801561053b57600080fd5b506105066110cc565b34801561055057600080fd5b506106836004803603606081101561056757600080fd5b81019060208101813564010000000081111561058257600080fd5b82018360208201111561059457600080fd5b803590602001918460018302840111640100000000831117156105b657600080fd5b91908080601f016020809104026020016040519081016040528093929190818152602001838380828437600092019190915250929594936020810193503591505064010000000081111561060957600080fd5b82018360208201111561061b57600080fd5b8035906020019184600183028401116401000000008311171561063d57600080fd5b91908080601f0160208091040260200160405190810160405280939291908181526020018383808284376000920191909152509295505050903560ff1691506110ed9050565b005b34801561069157600080fd5b506104df6111ba565b3480156106a657600080fd5b506104df6111c0565b3480156106bb57600080fd5b506104b6600480360360608110156106d257600080fd5b5073ffffffffffffffffffffffffffffffffffffffff8135811691602081013590911690604001356111db565b34801561070b57600080fd5b506105066111ed565b34801561072057600080fd5b50610729611209565b6040805160ff9092168252519081900360200190f35b34801561074b57600080fd5b506104b66004803603604081101561076257600080fd5b5073ffffffffffffffffffffffffffffffffffffffff8135169060200135611212565b34801561079157600080fd5b50610683600480360360408110156107a857600080fd5b5073ffffffffffffffffffffffffffffffffffffffff81351690602001356112c5565b3480156107d757600080fd5b50610348600480360360208110156107ee57600080fd5b81019060208101813564010000000081111561080957600080fd5b82018360208201111561081b57600080fd5b8035906020019184600183028401116401000000008311171561083d57600080fd5b91908080601f0160208091040260200160405190810160405280939291908181526020018383808284376000920191909152509295506112d2945050505050565b34801561088a57600080fd5b5061068361156a565b34801561089f57600080fd5b50610683600480360360608110156108b657600080fd5b73ffffffffffffffffffffffffffffffffffffffff8235169160208101351515918101906060810160408201356401000000008111156108f557600080fd5b82018360208201111561090757600080fd5b8035906020019184600183028401116401000000008311171561092957600080fd5b91908080601f016020809104026020016040519081016040528093929190818152602001838380828437600092019190915250929550611575945050505050565b34801561097657600080fd5b506105066004803603602081101561098d57600080fd5b503573ffffffffffffffffffffffffffffffffffffffff166117eb565b3480156109b657600080fd5b50610683600480360360208110156109cd57600080fd5b503573ffffffffffffffffffffffffffffffffffffffff16611813565b3480156109f657600080fd5b5061050661181d565b348015610a0b57600080fd5b506104df611839565b348015610a2057600080fd5b50610683600480360360a0811015610a3757600080fd5b810190602081018135640100000000811115610a5257600080fd5b820183602082011115610a6457600080fd5b80359060200191846001830284011164010000000083111715610a8657600080fd5b91908080601f0160208091040260200160405190810160405280939291908181526020018383808284376000920191909152509295949360208101935035915050640100000000811115610ad957600080fd5b820183602082011115610aeb57600080fd5b80359060200191846001830284011164010000000083111715610b0d57600080fd5b91908080601f0160208091040260200160405190810160405280939291908181526020018383808284376000920191909152509295505050813560ff16925050602081013573ffffffffffffffffffffffffffffffffffffffff169060400135611847565b348015610b7e57600080fd5b50610506611942565b348015610b9357600080fd5b50610bc760048036036020811015610baa57600080fd5b503573ffffffffffffffffffffffffffffffffffffffff1661195e565b6040805163ffffffff9092168252519081900360200190f35b348015610bec57600080fd5b506104df60048036036020811015610c0357600080fd5b503573ffffffffffffffffffffffffffffffffffffffff16611976565b348015610c2c57600080fd5b5061068360048036036020811015610c4357600080fd5b503573ffffffffffffffffffffffffffffffffffffffff16611986565b348015610c6c57600080fd5b506104df60048036036040811015610c8357600080fd5b5073ffffffffffffffffffffffffffffffffffffffff8135169060200135611992565b348015610cb257600080fd5b506104df60048036036060811015610cc957600080fd5b50803590602081013590604001351515611c58565b348015610cea57600080fd5b506104df60048036036020811015610d0157600080fd5b503573ffffffffffffffffffffffffffffffffffffffff16611dcc565b348015610d2a57600080fd5b50610348611dde565b348015610d3f57600080fd5b506104df611e57565b348015610d5457600080fd5b506104b660048036036040811015610d6b57600080fd5b5073ffffffffffffffffffffffffffffffffffffffff8135169060200135611e5d565b348015610d9a57600080fd5b506104df60048036036020811015610db157600080fd5b503573ffffffffffffffffffffffffffffffffffffffff16611f80565b348015610dda57600080fd5b506104df61201a565b348015610def57600080fd5b50610683600480360360c0811015610e0657600080fd5b5073ffffffffffffffffffffffffffffffffffffffff8135169060208101359060408101359060ff6060820135169060808101359060a00135612020565b348015610e5057600080fd5b506104df60048036036040811015610e6757600080fd5b5073ffffffffffffffffffffffffffffffffffffffff813581169160200135166123d7565b348015610e9857600080fd5b506104df6123e1565b348015610ead57600080fd5b506104df6123fc565b348015610ec257600080fd5b50610f0260048036036040811015610ed957600080fd5b50803573ffffffffffffffffffffffffffffffffffffffff16906020013563ffffffff16612408565b6040805163ffffffff909316835260208301919091528051918290030190f35b60105460405160609160009173ffffffffffffffffffffffffffffffffffffffff90911690829036908083838082843760405192019450600093509091505080830381855af49150503d8060008114610f97576040519150601f19603f3d011682016040523d82523d6000602084013e610f9c565b606091505b505090506040513d6000823e818015610fb3573d82f35b3d82fd5b6005805460408051602060026001851615610100027fffffffffffffffffffffffffffffffffffffffffffffffffffffffffffffffff0190941693909304601f8101849004840282018401909252818152929183018282801561105b5780601f106110305761010080835404028352916020019161105b565b820191906000526020600020905b81548152906001019060200180831161103e57829003601f168201915b505050505081565b6010546060906110899073ffffffffffffffffffffffffffffffffffffffff1683612432565b92915050565b6000611099610f22565b5092915050565b60006110aa61251f565b90505b90565b60095473ffffffffffffffffffffffffffffffffffffffff1681565b600754610100900473ffffffffffffffffffffffffffffffffffffffff1681565b600c541561115c57604080517f08c379a000000000000000000000000000000000000000000000000000000000815260206004820152601360248201527f616c726561647920696e697469616c697a656400000000000000000000000000604482015290519081900360640190fd5b825161116f906005906020860190612e7f565b508151611183906006906020850190612e7f565b50600780547fffffffffffffffffffffffffffffffffffffffffffffffffffffffffffffff001660ff929092169190911790555050565b600b5481565b60405180604361300382396043019050604051809103902081565b60006111e5610f22565b509392505050565b60085473ffffffffffffffffffffffffffffffffffffffff1681565b60075460ff1681565b336000908152600e6020908152604080832073ffffffffffffffffffffffffffffffffffffffff86168452909152812054611253908363ffffffff61255216565b336000818152600e6020908152604080832073ffffffffffffffffffffffffffffffffffffffff89168085529083529281902085905580519485525191937f8c5be1e5ebec7d5bd14f71427d1e84f3dd0314c0f7b2291e5b200ac8c7c3b925929081900390910190a350600192915050565b6112cd610f22565b505050565b6060600060603073ffffffffffffffffffffffffffffffffffffffff16846040516024018080602001828103825283818151815260200191508051906020019080838360005b83811015611330578181015183820152602001611318565b50505050905090810190601f16801561135d5780820380516001836020036101000a031916815260200191505b50604080517fffffffffffffffffffffffffffffffffffffffffffffffffffffffffffffffe08184030181529181526020820180517bffffffffffffffffffffffffffffffffffffffffffffffffffffffff167f0933c1ed00000000000000000000000000000000000000000000000000000000178152905182519295509350839250908083835b6020831061142257805182527fffffffffffffffffffffffffffffffffffffffffffffffffffffffffffffffe090920191602091820191016113e5565b6001836020036101000a038019825116818451168082178552505050505050905001915050600060405180830381855afa9150503d8060008114611482576040519150601f19603f3d011682016040523d82523d6000602084013e611487565b606091505b5091509150600082141561149c573d60208201fd5b8080602001905160208110156114b157600080fd5b81019080805160405193929190846401000000008211156114d157600080fd5b9083019060208201858111156114e657600080fd5b825164010000000081118282018810171561150057600080fd5b82525081516020918201929091019080838360005b8381101561152d578181015183820152602001611515565b50505050905090810190601f16801561155a5780820380516001836020036101000a031916815260200191505b5060405250505092505050919050565b611572610f22565b50565b600754610100900473ffffffffffffffffffffffffffffffffffffffff1633146115ea576040517f08c379a0000000000000000000000000000000000000000000000000000000008152600401808060200182810382526034815260200180612f756034913960400191505060405180910390fd5b8115611652576040805160048152602481019091526020810180517bffffffffffffffffffffffffffffffffffffffffffffffffffffffff167f153ab5050000000000000000000000000000000000000000000000000000000017905261165090611063565b505b6010805473ffffffffffffffffffffffffffffffffffffffff8581167fffffffffffffffffffffffff0000000000000000000000000000000000000000831617909255604051602060248201818152855160448401528551949093169361178f938693909283926064909201919085019080838360005b838110156116e15781810151838201526020016116c9565b50505050905090810190601f16801561170e5780820380516001836020036101000a031916815260200191505b50604080517fffffffffffffffffffffffffffffffffffffffffffffffffffffffffffffffe08184030181529190526020810180517bffffffffffffffffffffffffffffffffffffffffffffffffffffffff167f56e67728000000000000000000000000000000000000000000000000000000001790529250611063915050565b506010546040805173ffffffffffffffffffffffffffffffffffffffff8085168252909216602083015280517fd604de94d45953f9138079ec1b82d533cb2160c906d1076d1f7ed54befbca97a9281900390910190a150505050565b60006020819052908152604090205473ffffffffffffffffffffffffffffffffffffffff1681565b61157233826125c6565b60105473ffffffffffffffffffffffffffffffffffffffff1681565b69d3c21bcecceda100000081565b600081116118b657604080517f08c379a000000000000000000000000000000000000000000000000000000000815260206004820152600d60248201527f3020696e697420737570706c7900000000000000000000000000000000000000604482015290519081900360640190fd5b6118c18585856110ed565b6118e8670de0b6b3a764000069d3c21bcecceda10000005b8391900463ffffffff61266916565b600f55600b819055670de0b6b3a7640000600c8190556119129069d3c21bcecceda10000006118d9565b73ffffffffffffffffffffffffffffffffffffffff9092166000908152600d602052604090209190915550505050565b600a5473ffffffffffffffffffffffffffffffffffffffff1681565b60026020526000908152604090205463ffffffff1681565b60006119806126dc565b50919050565b61198e610f22565b5050565b60004382106119ec576040517f08c379a0000000000000000000000000000000000000000000000000000000008152600401808060200182810382526026815260200180612fdd6026913960400191505060405180910390fd5b73ffffffffffffffffffffffffffffffffffffffff831660009081526002602052604090205463ffffffff1680611a27576000915050611089565b73ffffffffffffffffffffffffffffffffffffffff8416600090815260016020908152604080832063ffffffff7fffffffffffffffffffffffffffffffffffffffffffffffffffffffffffffffff860181168552925290912054168310611aec5773ffffffffffffffffffffffffffffffffffffffff841660009081526001602081815260408084207fffffffffffffffffffffffffffffffffffffffffffffffffffffffffffffffff9590950163ffffffff16845293905291902001549050611089565b73ffffffffffffffffffffffffffffffffffffffff8416600090815260016020908152604080832083805290915290205463ffffffff16831015611b34576000915050611089565b60007fffffffffffffffffffffffffffffffffffffffffffffffffffffffffffffffff82015b8163ffffffff168163ffffffff161115611c1457600282820363ffffffff16048103611b84612efd565b5073ffffffffffffffffffffffffffffffffffffffff8716600090815260016020818152604080842063ffffffff8087168652908352938190208151808301909252805490941680825293909201549082015290871415611bef576020015194506110899350505050565b805163ffffffff16871115611c0657819350611c0d565b6001820392505b5050611b5a565b5073ffffffffffffffffffffffffffffffffffffffff8516600090815260016020818152604080842063ffffffff9095168452939052919020015491505092915050565b60095460009073ffffffffffffffffffffffffffffffffffffffff163314611c7f57600080fd5b82611cd057600c54604080518681526020810183905280820192909252517fc6642d24d84e7f3d36ca39f5cce10e75639d9b158d5193aa350e2f900653e4c09181900360600190a150600b54611dc5565b600c5482611d1a57611d12670de0b6b3a7640000611d06611cf7828863ffffffff61287316565b600c549063ffffffff61266916565b9063ffffffff6128b516565b600c55611d64565b6000611d3b670de0b6b3a7640000611d06611cf7828963ffffffff61255216565b9050611d4561251f565b811015611d5657600c819055611d62565b611d5e61251f565b600c555b505b600c54600f54611d799163ffffffff61266916565b600b55600c54604080518781526020810184905280820192909252517fc6642d24d84e7f3d36ca39f5cce10e75639d9b158d5193aa350e2f900653e4c09181900360600190a15050600b545b9392505050565b60036020526000908152604090205481565b6006805460408051602060026001851615610100027fffffffffffffffffffffffffffffffffffffffffffffffffffffffffffffffff0190941693909304601f8101849004840282018401909252818152929183018282801561105b5780601f106110305761010080835404028352916020019161105b565b600f5481565b336000908152600e6020908152604080832073ffffffffffffffffffffffffffffffffffffffff86168452909152812054808310611ecb57336000908152600e6020908152604080832073ffffffffffffffffffffffffffffffffffffffff88168452909152812055611f0d565b611edb818463ffffffff61287316565b336000908152600e6020908152604080832073ffffffffffffffffffffffffffffffffffffffff891684529091529020555b336000818152600e6020908152604080832073ffffffffffffffffffffffffffffffffffffffff89168085529083529281902054815190815290519293927f8c5be1e5ebec7d5bd14f71427d1e84f3dd0314c0f7b2291e5b200ac8c7c3b925929181900390910190a35060019392505050565b73ffffffffffffffffffffffffffffffffffffffff811660009081526002602052604081205463ffffffff1680611fb8576000611dc5565b73ffffffffffffffffffffffffffffffffffffffff8316600090815260016020818152604080842063ffffffff7fffffffffffffffffffffffffffffffffffffffffffffffffffffffffffffffff870116855290915290912001549392505050565b600c5481565b600060405180806130036043913960430190506040518091039020600560405180828054600181600116156101000203166002900480156120985780601f10612076576101008083540402835291820191612098565b820191906000526020600020905b815481529060010190602001808311612084575b505091505060405180910390206120ad6128f7565b30604051602001808581526020018481526020018381526020018273ffffffffffffffffffffffffffffffffffffffff1673ffffffffffffffffffffffffffffffffffffffff168152602001945050505050604051602081830303815290604052805190602001209050600060405180806130bf603a91396040805191829003603a01822060208084019190915273ffffffffffffffffffffffffffffffffffffffff8c1683830152606083018b905260808084018b90528251808503909101815260a0840183528051908201207f190100000000000000000000000000000000000000000000000000000000000060c085015260c2840187905260e2808501829052835180860390910181526101028501808552815191840191909120600091829052610122860180865281905260ff8c1661014287015261016286018b905261018286018a9052935191965092945091926001926101a280830193927fffffffffffffffffffffffffffffffffffffffffffffffffffffffffffffffe08301929081900390910190855afa15801561224b573d6000803e3d6000fd5b50506040517fffffffffffffffffffffffffffffffffffffffffffffffffffffffffffffffe0015191505073ffffffffffffffffffffffffffffffffffffffff81166122e2576040517f08c379a0000000000000000000000000000000000000000000000000000000008152600401808060200182810382526025815260200180612f506025913960400191505060405180910390fd5b73ffffffffffffffffffffffffffffffffffffffff811660009081526003602052604090208054600181019091558914612367576040517f08c379a0000000000000000000000000000000000000000000000000000000008152600401808060200182810382526021815260200180612f2f6021913960400191505060405180910390fd5b874211156123c0576040517f08c379a00000000000000000000000000000000000000000000000000000000081526004018080602001828103825260258152602001806130676025913960400191505060405180910390fd5b6123ca818b6125c6565b505050505b505050505050565b60006110996126dc565b60405180603a6130bf8239603a019050604051809103902081565b670de0b6b3a764000081565b60016020818152600093845260408085209091529183529120805491015463ffffffff9091169082565b6060600060608473ffffffffffffffffffffffffffffffffffffffff16846040518082805190602001908083835b6020831061249d57805182527fffffffffffffffffffffffffffffffffffffffffffffffffffffffffffffffe09092019160209182019101612460565b6001836020036101000a038019825116818451168082178552505050505050905001915050600060405180830381855af49150503d80600081146124fd576040519150601f19603f3d011682016040523d82523d6000602084013e612502565b606091505b50915091506000821415612517573d60208201fd5b949350505050565b6000600f547fffffffffffffffffffffffffffffffffffffffffffffffffffffffffffffffff8161254c57fe5b04905090565b600082820183811015611dc557604080517f08c379a000000000000000000000000000000000000000000000000000000000815260206004820152601b60248201527f536166654d6174683a206164646974696f6e206f766572666c6f770000000000604482015290519081900360640190fd5b73ffffffffffffffffffffffffffffffffffffffff8083166000818152602081815260408083208054600d845282852054938590528787167fffffffffffffffffffffffff00000000000000000000000000000000000000008216811790925591519190951694919391928592917f3134e8a2e6d97e929a7e54011ea5485d7d196dd5f0ba4d4ef95803e8e3fc257f9190a46126638284836128fb565b50505050565b60008261267857506000611089565b8282028284828161268557fe5b0414611dc5576040517f08c379a00000000000000000000000000000000000000000000000000000000081526004018080602001828103825260218152602001806130466021913960400191505060405180910390fd5b606060003073ffffffffffffffffffffffffffffffffffffffff166000366040516024018080602001828103825284848281815260200192508082843760008382015260408051601f9092017fffffffffffffffffffffffffffffffffffffffffffffffffffffffffffffffe090811690940182810390940182529283526020810180517bffffffffffffffffffffffffffffffffffffffffffffffffffffffff167f0933c1ed0000000000000000000000000000000000000000000000000000000017815292518151919750955085945091925081905083835b602083106127f457805182527fffffffffffffffffffffffffffffffffffffffffffffffffffffffffffffffe090920191602091820191016127b7565b6001836020036101000a038019825116818451168082178552505050505050905001915050600060405180830381855afa9150503d8060008114612854576040519150601f19603f3d011682016040523d82523d6000602084013e612859565b606091505b505090506040513d6000823e818015610fb3573d60408301f35b6000611dc583836040518060400160405280601e81526020017f536166654d6174683a207375627472616374696f6e206f766572666c6f770000815250612ae6565b6000611dc583836040518060400160405280601a81526020017f536166654d6174683a206469766973696f6e206279207a65726f000000000000815250612b97565b4690565b8173ffffffffffffffffffffffffffffffffffffffff168373ffffffffffffffffffffffffffffffffffffffff16141580156129375750600081115b156112cd5773ffffffffffffffffffffffffffffffffffffffff831615612a135773ffffffffffffffffffffffffffffffffffffffff831660009081526002602052604081205463ffffffff1690816129915760006129ed565b73ffffffffffffffffffffffffffffffffffffffff8516600090815260016020818152604080842063ffffffff7fffffffffffffffffffffffffffffffffffffffffffffffffffffffffffffffff880116855290915290912001545b90506000612a01828563ffffffff61287316565b9050612a0f86848484612c16565b5050505b73ffffffffffffffffffffffffffffffffffffffff8216156112cd5773ffffffffffffffffffffffffffffffffffffffff821660009081526002602052604081205463ffffffff169081612a68576000612ac4565b73ffffffffffffffffffffffffffffffffffffffff8416600090815260016020818152604080842063ffffffff7fffffffffffffffffffffffffffffffffffffffffffffffffffffffffffffffff880116855290915290912001545b90506000612ad8828563ffffffff61255216565b90506123cf85848484612c16565b60008184841115612b8f576040517f08c379a00000000000000000000000000000000000000000000000000000000081526004018080602001828103825283818151815260200191508051906020019080838360005b83811015612b54578181015183820152602001612b3c565b50505050905090810190601f168015612b815780820380516001836020036101000a031916815260200191505b509250505060405180910390fd5b505050900390565b60008183612c00576040517f08c379a0000000000000000000000000000000000000000000000000000000008152602060048201818152835160248401528351909283926044909101919085019080838360008315612b54578181015183820152602001612b3c565b506000838581612c0c57fe5b0495945050505050565b6000612c3a4360405180606001604052806033815260200161308c60339139612e07565b905060008463ffffffff16118015612cae575073ffffffffffffffffffffffffffffffffffffffff8516600090815260016020908152604080832063ffffffff7fffffffffffffffffffffffffffffffffffffffffffffffffffffffffffffffff8901811685529252909120548282169116145b15612d155773ffffffffffffffffffffffffffffffffffffffff8516600090815260016020818152604080842063ffffffff7fffffffffffffffffffffffffffffffffffffffffffffffffffffffffffffffff8a0116855290915290912001829055612db0565b60408051808201825263ffffffff8084168252602080830186815273ffffffffffffffffffffffffffffffffffffffff8a16600081815260018085528782208c871683528552878220965187549087167fffffffffffffffffffffffffffffffffffffffffffffffffffffffff0000000091821617885593519681019690965590815260029092529390208054928801909116919092161790555b6040805184815260208101849052815173ffffffffffffffffffffffffffffffffffffffff8816927fdec2bacdd2f05b59de34da9b523dff8be42e5e38e818c82fdb0bae774387a724928290030190a25050505050565b6000816401000000008410612e77576040517f08c379a0000000000000000000000000000000000000000000000000000000008152602060048201818152835160248401528351909283926044909101919085019080838360008315612b54578181015183820152602001612b3c565b509192915050565b828054600181600116156101000203166002900490600052602060002090601f016020900481019282601f10612ec057805160ff1916838001178555612eed565b82800160010185558215612eed579182015b82811115612eed578251825591602001919060010190612ed2565b50612ef9929150612f14565b5090565b604080518082019091526000808252602082015290565b6110ad91905b80821115612ef95760008155600101612f1a56fe59414d3a3a64656c656761746542795369673a20696e76616c6964206e6f6e636559414d3a3a64656c656761746542795369673a20696e76616c6964207369676e617475726559414d44656c656761746f723a3a5f736574496d706c656d656e746174696f6e3a2043616c6c6572206d75737420626520676f7659414d44656c656761746f723a66616c6c6261636b3a2063616e6e6f742073656e642076616c756520746f2066616c6c6261636b59414d3a3a6765745072696f72566f7465733a206e6f74207965742064657465726d696e6564454950373132446f6d61696e28737472696e67206e616d652c75696e7432353620636861696e49642c6164647265737320766572696679696e67436f6e747261637429536166654d6174683a206d756c7469706c69636174696f6e206f766572666c6f7759414d3a3a64656c656761746542795369673a207369676e6174757265206578706972656459414d3a3a5f7772697465436865636b706f696e743a20626c6f636b206e756d6265722065786365656473203332206269747344656c65676174696f6e28616464726573732064656c6567617465652c75696e74323536206e6f6e63652c75696e743235362065787069727929a265627a7a72315820622a66aed00b9f0d152809d158e539c38e2b1a2cd1ffdb7194941b66352bf38d64736f6c6343000511003259414d44656c656761746f723a3a5f736574496d706c656d656e746174696f6e3a2043616c6c6572206d75737420626520676f76",
  "source": "pragma solidity 0.5.17;\n\nimport \"./YAM.sol\";\nimport \"./YAMDelegate.sol\";\n\ncontract YAMDelegator is YAM, YAMDelegatorInterface {\n    /**\n     * @notice Construct a new YAM\n     * @param name_ ERC-20 name of this token\n     * @param symbol_ ERC-20 symbol of this token\n     * @param decimals_ ERC-20 decimal precision of this token\n     * @param initSupply_ Initial token amount\n     * @param implementation_ The address of the implementation the contract delegates to\n     * @param becomeImplementationData The encoded args for becomeImplementation\n     */\n    constructor(\n        string memory name_,\n        string memory symbol_,\n        uint8 decimals_,\n        uint256 initSupply_,\n        address implementation_,\n        bytes memory becomeImplementationData\n    )\n        public\n    {\n\n\n        // Creator of the contract is gov during initialization\n        gov = msg.sender;\n\n        // First delegate gets to initialize the delegator (i.e. storage contract)\n        delegateTo(\n            implementation_,\n            abi.encodeWithSignature(\n                \"initialize(string,string,uint8,address,uint256)\",\n                name_,\n                symbol_,\n                decimals_,\n                msg.sender,\n                initSupply_\n            )\n        );\n\n        // New implementations always get set via the settor (post-initialize)\n        _setImplementation(implementation_, false, becomeImplementationData);\n\n    }\n\n    /**\n     * @notice Called by the gov to update the implementation of the delegator\n     * @param implementation_ The address of the new implementation for delegation\n     * @param allowResign Flag to indicate whether to call _resignImplementation on the old implementation\n     * @param becomeImplementationData The encoded bytes data to be passed to _becomeImplementation\n     */\n    function _setImplementation(address implementation_, bool allowResign, bytes memory becomeImplementationData) public {\n        require(msg.sender == gov, \"YAMDelegator::_setImplementation: Caller must be gov\");\n\n        if (allowResign) {\n            delegateToImplementation(abi.encodeWithSignature(\"_resignImplementation()\"));\n        }\n\n        address oldImplementation = implementation;\n        implementation = implementation_;\n\n        delegateToImplementation(abi.encodeWithSignature(\"_becomeImplementation(bytes)\", becomeImplementationData));\n\n        emit NewImplementation(oldImplementation, implementation);\n    }\n\n    /**\n     * @notice Sender supplies assets into the market and receives cTokens in exchange\n     * @dev Accrues interest whether or not the operation succeeds, unless reverted\n     * @param mintAmount The amount of the underlying asset to supply\n     * @return uint 0=success, otherwise a failure (see ErrorReporter.sol for details)\n     */\n    function mint(address to, uint256 mintAmount)\n        external\n    {\n        to; mintAmount; // Shh\n        delegateAndReturn();\n    }\n\n    /**\n     * @notice Transfer `amount` tokens from `msg.sender` to `dst`\n     * @param dst The address of the destination account\n     * @param amount The number of tokens to transfer\n     * @return Whether or not the transfer succeeded\n     */\n    function transfer(address dst, uint256 amount)\n        external\n        returns (bool)\n    {\n        dst; amount; // Shh\n        delegateAndReturn();\n    }\n\n    /**\n     * @notice Transfer `amount` tokens from `src` to `dst`\n     * @param src The address of the source account\n     * @param dst The address of the destination account\n     * @param amount The number of tokens to transfer\n     * @return Whether or not the transfer succeeded\n     */\n    function transferFrom(\n        address src,\n        address dst,\n        uint256 amount\n    )\n        external\n        returns (bool)\n    {\n        src; dst; amount; // Shh\n        delegateAndReturn();\n    }\n\n    /**\n     * @notice Approve `spender` to transfer up to `amount` from `src`\n     * @dev This will overwrite the approval amount for `spender`\n     *  and is subject to issues noted [here](https://eips.ethereum.org/EIPS/eip-20#approve)\n     * @param spender The address of the account which may transfer tokens\n     * @param amount The number of tokens that are approved (-1 means infinite)\n     * @return Whether or not the approval succeeded\n     */\n    function approve(\n        address spender,\n        uint256 amount\n    )\n        external\n        returns (bool)\n    {\n        spender; amount; // Shh\n        delegateAndReturn();\n    }\n\n    /**\n     * @notice Get the current allowance from `owner` for `spender`\n     * @param owner The address of the account which owns the tokens to be spent\n     * @param spender The address of the account which may transfer tokens\n     * @return The number of tokens allowed to be spent (-1 means infinite)\n     */\n    function allowance(\n        address owner,\n        address spender\n    )\n        external\n        view\n        returns (uint256)\n    {\n        owner; spender; // Shh\n        delegateToViewAndReturn();\n    }\n\n    /**\n     * @notice Get the token balance of the `owner`\n     * @param owner The address of the account to query\n     * @return The number of tokens owned by `owner`\n     */\n    function balanceOf(address owner)\n        external\n        view\n        returns (uint256)\n    {\n        owner; // Shh\n        delegateToViewAndReturn();\n    }\n    /*** Gov Functions ***/\n\n    /**\n      * @notice Begins transfer of gov rights. The newPendingGov must call `_acceptGov` to finalize the transfer.\n      * @dev Gov function to begin change of gov. The newPendingGov must call `_acceptGov` to finalize the transfer.\n      * @param newPendingGov New pending gov.\n      */\n    function _setPendingGov(address newPendingGov)\n        external\n    {\n        newPendingGov; // Shh\n        delegateAndReturn();\n    }\n\n    function _setRebaser(address rebaser_)\n        external\n    {\n        rebaser_; // Shh\n        delegateAndReturn();\n    }\n\n    function _setIncentivizer(address incentivizer_)\n        external\n    {\n        incentivizer_; // Shh\n        delegateAndReturn();\n    }\n\n    /**\n      * @notice Accepts transfer of gov rights. msg.sender must be pendingGov\n      * @dev Gov function for pending gov to accept role and update gov\n      * @return uint 0=success, otherwise a failure (see ErrorReporter.sol for details)\n      */\n    function _acceptGov()\n        external\n    {\n        delegateAndReturn();\n    }\n\n    /**\n     * @notice Internal method to delegate execution to another contract\n     * @dev It returns to the external caller whatever the implementation returns or forwards reverts\n     * @param callee The contract to delegatecall\n     * @param data The raw data to delegatecall\n     * @return The returned bytes from the delegatecall\n     */\n    function delegateTo(address callee, bytes memory data) internal returns (bytes memory) {\n        (bool success, bytes memory returnData) = callee.delegatecall(data);\n        assembly {\n            if eq(success, 0) {\n                revert(add(returnData, 0x20), returndatasize)\n            }\n        }\n        return returnData;\n    }\n\n    /**\n     * @notice Delegates execution to the implementation contract\n     * @dev It returns to the external caller whatever the implementation returns or forwards reverts\n     * @param data The raw data to delegatecall\n     * @return The returned bytes from the delegatecall\n     */\n    function delegateToImplementation(bytes memory data) public returns (bytes memory) {\n        return delegateTo(implementation, data);\n    }\n\n    /**\n     * @notice Delegates execution to an implementation contract\n     * @dev It returns to the external caller whatever the implementation returns or forwards reverts\n     *  There are an additional 2 prefix uints from the wrapper returndata, which we ignore since we make an extra hop.\n     * @param data The raw data to delegatecall\n     * @return The returned bytes from the delegatecall\n     */\n    function delegateToViewImplementation(bytes memory data) public view returns (bytes memory) {\n        (bool success, bytes memory returnData) = address(this).staticcall(abi.encodeWithSignature(\"delegateToImplementation(bytes)\", data));\n        assembly {\n            if eq(success, 0) {\n                revert(add(returnData, 0x20), returndatasize)\n            }\n        }\n        return abi.decode(returnData, (bytes));\n    }\n\n    function delegateToViewAndReturn() private view returns (bytes memory) {\n        (bool success, ) = address(this).staticcall(abi.encodeWithSignature(\"delegateToImplementation(bytes)\", msg.data));\n\n        assembly {\n            let free_mem_ptr := mload(0x40)\n            returndatacopy(free_mem_ptr, 0, returndatasize)\n\n            switch success\n            case 0 { revert(free_mem_ptr, returndatasize) }\n            default { return(add(free_mem_ptr, 0x40), returndatasize) }\n        }\n    }\n\n    function delegateAndReturn() private returns (bytes memory) {\n        (bool success, ) = implementation.delegatecall(msg.data);\n\n        assembly {\n            let free_mem_ptr := mload(0x40)\n            returndatacopy(free_mem_ptr, 0, returndatasize)\n\n            switch success\n            case 0 { revert(free_mem_ptr, returndatasize) }\n            default { return(free_mem_ptr, returndatasize) }\n        }\n    }\n\n    /**\n     * @notice Delegates execution to an implementation contract\n     * @dev It returns to the external caller whatever the implementation returns or forwards reverts\n     */\n    function () external payable {\n        require(msg.value == 0,\"YAMDelegator:fallback: cannot send value to fallback\");\n\n        // delegate all other functions to current implementation\n        delegateAndReturn();\n    }\n}\n",
  "sourcePath": "/Users/brockelmore/YAM/contracts/token/YAMDelegator.sol",
  "compiler": {
    "name": "solc",
    "version": "0.5.17+commit.d19bba13.Linux.g++"
  },
  "schemaVersion": "3.0.16",
  "updatedAt": "2020-08-08T19:43:14.967Z",
  "devdoc": {
    "methods": {
      "_acceptGov()": {
        "details": "Gov function for pending gov to accept role and update gov",
        "return": "uint 0=success, otherwise a failure (see ErrorReporter.sol for details)"
      },
      "_setImplementation(address,bool,bytes)": {
        "params": {
          "allowResign": "Flag to indicate whether to call _resignImplementation on the old implementation",
          "becomeImplementationData": "The encoded bytes data to be passed to _becomeImplementation",
          "implementation_": "The address of the new implementation for delegation"
        }
      },
      "_setPendingGov(address)": {
        "details": "Gov function to begin change of gov. The newPendingGov must call `_acceptGov` to finalize the transfer.",
        "params": {
          "newPendingGov": "New pending gov."
        }
      },
      "allowance(address,address)": {
        "params": {
          "owner": "The address of the account which owns the tokens to be spent",
          "spender": "The address of the account which may transfer tokens"
        },
        "return": "The number of tokens allowed to be spent (-1 means infinite)"
      },
      "approve(address,uint256)": {
        "details": "This will overwrite the approval amount for `spender` and is subject to issues noted [here](https://eips.ethereum.org/EIPS/eip-20#approve)",
        "params": {
          "amount": "The number of tokens that are approved (-1 means infinite)",
          "spender": "The address of the account which may transfer tokens"
        },
        "return": "Whether or not the approval succeeded"
      },
      "balanceOf(address)": {
        "params": {
          "owner": "The address of the account to query"
        },
        "return": "The number of tokens owned by `owner`"
      },
      "constructor": {
        "params": {
          "becomeImplementationData": "The encoded args for becomeImplementation",
          "decimals_": "ERC-20 decimal precision of this token",
          "implementation_": "The address of the implementation the contract delegates to",
          "initSupply_": "Initial token amount",
          "name_": "ERC-20 name of this token",
          "symbol_": "ERC-20 symbol of this token"
        }
      },
      "decreaseAllowance(address,uint256)": {
        "details": "Decrease the amount of tokens that an owner has allowed to a spender.",
        "params": {
          "spender": "The address which will spend the funds.",
          "subtractedValue": "The amount of tokens to decrease the allowance by."
        }
      },
      "delegate(address)": {
        "params": {
          "delegatee": "The address to delegate votes to"
        }
      },
      "delegateBySig(address,uint256,uint256,uint8,bytes32,bytes32)": {
        "params": {
          "delegatee": "The address to delegate votes to",
          "expiry": "The time at which to expire the signature",
          "nonce": "The contract state required to match the signature",
          "r": "Half of the ECDSA signature pair",
          "s": "Half of the ECDSA signature pair",
          "v": "The recovery byte of the signature"
        }
      },
      "delegateToImplementation(bytes)": {
        "details": "It returns to the external caller whatever the implementation returns or forwards reverts",
        "params": {
          "data": "The raw data to delegatecall"
        },
        "return": "The returned bytes from the delegatecall"
      },
      "delegateToViewImplementation(bytes)": {
        "details": "It returns to the external caller whatever the implementation returns or forwards reverts There are an additional 2 prefix uints from the wrapper returndata, which we ignore since we make an extra hop.",
        "params": {
          "data": "The raw data to delegatecall"
        },
        "return": "The returned bytes from the delegatecall"
      },
      "getCurrentVotes(address)": {
        "params": {
          "account": "The address to get votes balance"
        },
        "return": "The number of current votes for `account`"
      },
      "getPriorVotes(address,uint256)": {
        "details": "Block number must be a finalized block or else this function will revert to prevent misinformation.",
        "params": {
          "account": "The address of the account to check",
          "blockNumber": "The block number to get the vote balance at"
        },
        "return": "The number of votes the account had as of the given block"
      },
      "increaseAllowance(address,uint256)": {
        "details": "Increase the amount of tokens that an owner has allowed to a spender. This method should be used instead of approve() to avoid the double approval vulnerability described above.",
        "params": {
          "addedValue": "The amount of tokens to increase the allowance by.",
          "spender": "The address which will spend the funds."
        }
      },
      "initialize(string,string,uint8,address,uint256)": {
        "params": {
          "decimals_": "ERC-20 decimal precision of this token",
          "name_": "ERC-20 name of this token",
          "symbol_": "ERC-20 symbol of this token"
        }
      },
      "mint(address,uint256)": {
        "details": "Accrues interest whether or not the operation succeeds, unless reverted",
        "params": {
          "mintAmount": "The amount of the underlying asset to supply"
        },
        "return": "uint 0=success, otherwise a failure (see ErrorReporter.sol for details)"
      },
      "rebase(uint256,uint256,bool)": {
        "details": "The supply adjustment equals (totalSupply * DeviationFromTargetRate) / rebaseLag     Where DeviationFromTargetRate is (MarketOracleRate - targetRate) / targetRate     and targetRate is CpiOracleRate / baseCpi"
      },
      "transfer(address,uint256)": {
        "params": {
          "amount": "The number of tokens to transfer",
          "dst": "The address of the destination account"
        },
        "return": "Whether or not the transfer succeeded"
      },
      "transferFrom(address,address,uint256)": {
        "params": {
          "amount": "The number of tokens to transfer",
          "dst": "The address of the destination account",
          "src": "The address of the source account"
        },
        "return": "Whether or not the transfer succeeded"
      }
    }
  },
  "userdoc": {
    "methods": {
      "_acceptGov()": {
        "notice": "Accepts transfer of gov rights. msg.sender must be pendingGov"
      },
      "_setImplementation(address,bool,bytes)": {
        "notice": "Called by the gov to update the implementation of the delegator"
      },
      "_setPendingGov(address)": {
        "notice": "Begins transfer of gov rights. The newPendingGov must call `_acceptGov` to finalize the transfer."
      },
      "allowance(address,address)": {
        "notice": "Get the current allowance from `owner` for `spender`"
      },
      "approve(address,uint256)": {
        "notice": "Approve `spender` to transfer up to `amount` from `src`"
      },
      "balanceOf(address)": {
        "notice": "Get the token balance of the `owner`"
      },
      "constructor": "Construct a new YAM",
      "delegate(address)": {
        "notice": "Delegate votes from `msg.sender` to `delegatee`"
      },
      "delegateBySig(address,uint256,uint256,uint8,bytes32,bytes32)": {
        "notice": "Delegates votes from signatory to `delegatee`"
      },
      "delegateToImplementation(bytes)": {
        "notice": "Delegates execution to the implementation contract"
      },
      "delegateToViewImplementation(bytes)": {
        "notice": "Delegates execution to an implementation contract"
      },
      "getCurrentVotes(address)": {
        "notice": "Gets the current votes balance for `account`"
      },
      "getPriorVotes(address,uint256)": {
        "notice": "Determine the prior number of votes for an account as of a block number"
      },
      "initialize(string,string,uint8,address,uint256)": {
        "notice": "Initialize the new money market"
      },
      "maxScalingFactor()": {
        "notice": "Computes the current max scaling factor"
      },
      "mint(address,uint256)": {
        "notice": "Sender supplies assets into the market and receives cTokens in exchange"
      },
      "rebase(uint256,uint256,bool)": {
        "notice": "Initiates a new rebase operation, provided the minimum time period has elapsed."
      },
      "transfer(address,uint256)": {
        "notice": "Transfer `amount` tokens from `msg.sender` to `dst`"
      },
      "transferFrom(address,address,uint256)": {
        "notice": "Transfer `amount` tokens from `src` to `dst`"
      }
    }
  }
}