{
  "contractName": "YAMGovernanceStorage",
  "abi": [
    {
      "constant": true,
      "inputs": [],
      "name": "DELEGATION_TYPEHASH",
      "outputs": [
        {
          "internalType": "bytes32",
          "name": "",
          "type": "bytes32"
        }
      ],
      "payable": false,
      "stateMutability": "view",
      "type": "function"
    },
    {
      "constant": true,
      "inputs": [],
      "name": "DOMAIN_TYPEHASH",
      "outputs": [
        {
          "internalType": "bytes32",
          "name": "",
          "type": "bytes32"
        }
      ],
      "payable": false,
      "stateMutability": "view",
      "type": "function"
    },
    {
      "constant": true,
      "inputs": [
        {
          "internalType": "address",
          "name": "",
          "type": "address"
        },
        {
          "internalType": "uint32",
          "name": "",
          "type": "uint32"
        }
      ],
      "name": "checkpoints",
      "outputs": [
        {
          "internalType": "uint32",
          "name": "fromBlock",
          "type": "uint32"
        },
        {
          "internalType": "uint256",
          "name": "votes",
          "type": "uint256"
        }
      ],
      "payable": false,
      "stateMutability": "view",
      "type": "function"
    },
    {
      "constant": true,
      "inputs": [
        {
          "internalType": "address",
          "name": "",
          "type": "address"
        }
      ],
      "name": "nonces",
      "outputs": [
        {
          "internalType": "uint256",
          "name": "",
          "type": "uint256"
        }
      ],
      "payable": false,
      "stateMutability": "view",
      "type": "function"
    },
    {
      "constant": true,
      "inputs": [
        {
          "internalType": "address",
          "name": "",
          "type": "address"
        }
      ],
      "name": "numCheckpoints",
      "outputs": [
        {
          "internalType": "uint32",
          "name": "",
          "type": "uint32"
        }
      ],
      "payable": false,
      "stateMutability": "view",
      "type": "function"
    }
  ],
  "bytecode": "0x608060405234801561001057600080fd5b506103c1806100206000396000f3fe608060405234801561001057600080fd5b50600436106100675760003560e01c80637ecebe00116100505780637ecebe00146100aa578063e7a324dc146100bd578063f1127ed8146100c557610067565b806320606b701461006c5780636fcfff451461008a575b600080fd5b6100746100e6565b60405161008191906102eb565b60405180910390f35b61009d610098366004610179565b6100fd565b60405161008191906102f9565b6100746100b8366004610179565b610115565b610074610127565b6100d86100d336600461019f565b610133565b604051610081929190610307565b6040516100f2906102d5565b604051809103902081565b60026020526000908152604090205463ffffffff1681565b60036020526000908152604090205481565b6040516100f2906102e0565b60016020818152600093845260408085209091529183529120805491015463ffffffff9091169082565b80356101688161035e565b92915050565b803561016881610375565b60006020828403121561018b57600080fd5b6000610197848461015d565b949350505050565b600080604083850312156101b257600080fd5b60006101be858561015d565b92505060206101cf8582860161016e565b9150509250929050565b6101e281610339565b82525050565b60006101f5604383610329565b7f454950373132446f6d61696e28737472696e67206e616d652c75696e7432353681527f20636861696e49642c6164647265737320766572696679696e67436f6e74726160208201527f6374290000000000000000000000000000000000000000000000000000000000604082015260430192915050565b600061027a603a83610329565b7f44656c65676174696f6e28616464726573732064656c6567617465652c75696e81527f74323536206e6f6e63652c75696e7432353620657870697279290000000000006020820152603a0192915050565b6101e281610355565b6000610168826101e8565b60006101688261026d565b6020810161016882846101d9565b6020810161016882846102cc565b6040810161031582856102cc565b61032260208301846101d9565b9392505050565b919050565b60006101688261033c565b90565b73ffffffffffffffffffffffffffffffffffffffff1690565b63ffffffff1690565b6103678161032e565b811461037257600080fd5b50565b6103678161035556fea365627a7a723158202c0c4076d587bcb4fbee9bc79dee18f3c5d9ac3d971beb1429851be0d2cea0156c6578706572696d656e74616cf564736f6c63430005110040",
  "source": "pragma solidity 0.5.17;\npragma experimental ABIEncoderV2;\n\ncontract YAMGovernanceStorage {\n    /// @notice A record of each accounts delegate\n    mapping (address => address) internal _delegates;\n\n    /// @notice A checkpoint for marking number of votes from a given block\n    struct Checkpoint {\n        uint32 fromBlock;\n        uint256 votes;\n    }\n\n    /// @notice A record of votes checkpoints for each account, by index\n    mapping (address => mapping (uint32 => Checkpoint)) public checkpoints;\n\n    /// @notice The number of checkpoints for each account\n    mapping (address => uint32) public numCheckpoints;\n\n    /// @notice The EIP-712 typehash for the contract's domain\n    bytes32 public constant DOMAIN_TYPEHASH = keccak256(\"EIP712Domain(string name,uint256 chainId,address verifyingContract)\");\n\n    /// @notice The EIP-712 typehash for the delegation struct used by the contract\n    bytes32 public constant DELEGATION_TYPEHASH = keccak256(\"Delegation(address delegatee,uint256 nonce,uint256 expiry)\");\n\n    /// @notice A record of states for signing / validating signatures\n    mapping (address => uint) public nonces;\n}\n",
  "sourcePath": "/Users/brockelmore/YAM/contracts/token/YAMGovernanceStorage.sol",
  "compiler": {
    "name": "solc",
    "version": "0.5.17+commit.d19bba13.Linux.g++"
  },
  "schemaVersion": "3.0.16",
  "updatedAt": "2020-08-09T23:21:18.302Z",
  "devdoc": {
    "methods": {}
  },
  "userdoc": {
    "methods": {}
  }
}