{
  "contractName": "YAMGovernanceStorage",
  "abi": [
    {
      "constant": true,
      "inputs": [],
      "name": "DELEGATION_TYPEHASH",
      "outputs": [
        {
          "internalType": "bytes32",
          "name": "",
          "type": "bytes32"
        }
      ],
      "payable": false,
      "stateMutability": "view",
      "type": "function"
    },
    {
      "constant": true,
      "inputs": [],
      "name": "DOMAIN_TYPEHASH",
      "outputs": [
        {
          "internalType": "bytes32",
          "name": "",
          "type": "bytes32"
        }
      ],
      "payable": false,
      "stateMutability": "view",
      "type": "function"
    },
    {
      "constant": true,
      "inputs": [
        {
          "internalType": "address",
          "name": "",
          "type": "address"
        },
        {
          "internalType": "uint32",
          "name": "",
          "type": "uint32"
        }
      ],
      "name": "checkpoints",
      "outputs": [
        {
          "internalType": "uint32",
          "name": "fromBlock",
          "type": "uint32"
        },
        {
          "internalType": "uint256",
          "name": "votes",
          "type": "uint256"
        }
      ],
      "payable": false,
      "stateMutability": "view",
      "type": "function"
    },
    {
      "constant": true,
      "inputs": [
        {
          "internalType": "address",
          "name": "",
          "type": "address"
        }
      ],
      "name": "delegates",
      "outputs": [
        {
          "internalType": "address",
          "name": "",
          "type": "address"
        }
      ],
      "payable": false,
      "stateMutability": "view",
      "type": "function"
    },
    {
      "constant": true,
      "inputs": [
        {
          "internalType": "address",
          "name": "",
          "type": "address"
        }
      ],
      "name": "nonces",
      "outputs": [
        {
          "internalType": "uint256",
          "name": "",
          "type": "uint256"
        }
      ],
      "payable": false,
      "stateMutability": "view",
      "type": "function"
    },
    {
      "constant": true,
      "inputs": [
        {
          "internalType": "address",
          "name": "",
          "type": "address"
        }
      ],
      "name": "numCheckpoints",
      "outputs": [
        {
          "internalType": "uint32",
          "name": "",
          "type": "uint32"
        }
      ],
      "payable": false,
      "stateMutability": "view",
      "type": "function"
    }
  ],
  "bytecode": "0x608060405234801561001057600080fd5b5061042b806100206000396000f3fe608060405234801561001057600080fd5b50600436106100725760003560e01c80637ecebe00116100505780637ecebe00146100d5578063e7a324dc146100e8578063f1127ed8146100f057610072565b806320606b7014610077578063587cde1e146100955780636fcfff45146100b5575b600080fd5b61007f610111565b60405161008c9190610355565b60405180910390f35b6100a86100a33660046101cc565b610128565b60405161008c9190610347565b6100c86100c33660046101cc565b610150565b60405161008c9190610363565b61007f6100e33660046101cc565b610168565b61007f61017a565b6101036100fe3660046101f2565b610186565b60405161008c929190610371565b60405161011d90610331565b604051809103902081565b60006020819052908152604090205473ffffffffffffffffffffffffffffffffffffffff1681565b60026020526000908152604090205463ffffffff1681565b60036020526000908152604090205481565b60405161011d9061033c565b60016020818152600093845260408085209091529183529120805491015463ffffffff9091169082565b80356101bb816103c8565b92915050565b80356101bb816103df565b6000602082840312156101de57600080fd5b60006101ea84846101b0565b949350505050565b6000806040838503121561020557600080fd5b600061021185856101b0565b9250506020610222858286016101c1565b9150509250929050565b61023581610398565b82525050565b610235816103a3565b6000610251604383610393565b7f454950373132446f6d61696e28737472696e67206e616d652c75696e7432353681527f20636861696e49642c6164647265737320766572696679696e67436f6e74726160208201527f6374290000000000000000000000000000000000000000000000000000000000604082015260430192915050565b60006102d6603a83610393565b7f44656c65676174696f6e28616464726573732064656c6567617465652c75696e81527f74323536206e6f6e63652c75696e7432353620657870697279290000000000006020820152603a0192915050565b610235816103bf565b60006101bb82610244565b60006101bb826102c9565b602081016101bb828461022c565b602081016101bb828461023b565b602081016101bb8284610328565b6040810161037f8285610328565b61038c602083018461023b565b9392505050565b919050565b60006101bb826103a6565b90565b73ffffffffffffffffffffffffffffffffffffffff1690565b63ffffffff1690565b6103d181610398565b81146103dc57600080fd5b50565b6103d1816103bf56fea365627a7a72315820a090258f5c1f7b283e0ceb700f4ed82cfba71a6c3e2b8c296303275acd92743c6c6578706572696d656e74616cf564736f6c63430005110040",
  "source": "pragma solidity 0.5.17;\npragma experimental ABIEncoderV2;\n\ncontract YAMGovernanceStorage {\n    /// @notice A record of each accounts delegate\n    mapping (address => address) public delegates;\n\n    /// @notice A checkpoint for marking number of votes from a given block\n    struct Checkpoint {\n        uint32 fromBlock;\n        uint256 votes;\n    }\n\n    /// @notice A record of votes checkpoints for each account, by index\n    mapping (address => mapping (uint32 => Checkpoint)) public checkpoints;\n\n    /// @notice The number of checkpoints for each account\n    mapping (address => uint32) public numCheckpoints;\n\n    /// @notice The EIP-712 typehash for the contract's domain\n    bytes32 public constant DOMAIN_TYPEHASH = keccak256(\"EIP712Domain(string name,uint256 chainId,address verifyingContract)\");\n\n    /// @notice The EIP-712 typehash for the delegation struct used by the contract\n    bytes32 public constant DELEGATION_TYPEHASH = keccak256(\"Delegation(address delegatee,uint256 nonce,uint256 expiry)\");\n\n    /// @notice A record of states for signing / validating signatures\n    mapping (address => uint) public nonces;\n}\n",
  "sourcePath": "/Users/brockelmore/YAM/contracts/token/YAMGovernanceStorage.sol",
  "compiler": {
    "name": "solc",
    "version": "0.5.17+commit.d19bba13.Linux.g++"
  },
  "schemaVersion": "3.0.16",
  "updatedAt": "2020-08-05T20:33:49.299Z",
  "devdoc": {
    "methods": {}
  },
  "userdoc": {
    "methods": {}
  }
}