{
  "contractName": "YAMRebaser",
  "abi": [
    {
      "inputs": [
        {
          "internalType": "address",
          "name": "yamAddress_",
          "type": "address"
        },
        {
          "internalType": "address",
          "name": "reserveToken_",
          "type": "address"
        },
        {
          "internalType": "address",
          "name": "uniswap_factory",
          "type": "address"
        },
        {
          "internalType": "address",
          "name": "reservesContract_",
          "type": "address"
        }
      ],
      "payable": false,
      "stateMutability": "nonpayable",
      "type": "constructor"
    },
    {
      "anonymous": false,
      "inputs": [
        {
          "indexed": false,
          "internalType": "uint256",
          "name": "oldDeviationThreshold",
          "type": "uint256"
        },
        {
          "indexed": false,
          "internalType": "uint256",
          "name": "newDeviationThreshold",
          "type": "uint256"
        }
      ],
      "name": "NewDeviationThreshold",
      "type": "event"
    },
    {
      "anonymous": false,
      "inputs": [
        {
          "indexed": false,
          "internalType": "address",
          "name": "oldGov",
          "type": "address"
        },
        {
          "indexed": false,
          "internalType": "address",
          "name": "newGov",
          "type": "address"
        }
      ],
      "name": "NewGov",
      "type": "event"
    },
    {
      "anonymous": false,
      "inputs": [
        {
          "indexed": false,
          "internalType": "uint256",
          "name": "oldSlippageFactor",
          "type": "uint256"
        },
        {
          "indexed": false,
          "internalType": "uint256",
          "name": "newSlippageFactor",
          "type": "uint256"
        }
      ],
      "name": "NewMaxSlippageFactor",
      "type": "event"
    },
    {
      "anonymous": false,
      "inputs": [
        {
          "indexed": false,
          "internalType": "address",
          "name": "oldPendingGov",
          "type": "address"
        },
        {
          "indexed": false,
          "internalType": "address",
          "name": "newPendingGov",
          "type": "address"
        }
      ],
      "name": "NewPendingGov",
      "type": "event"
    },
    {
      "anonymous": false,
      "inputs": [
        {
          "indexed": false,
          "internalType": "uint256",
          "name": "oldRebaseMintPerc",
          "type": "uint256"
        },
        {
          "indexed": false,
          "internalType": "uint256",
          "name": "newRebaseMintPerc",
          "type": "uint256"
        }
      ],
      "name": "NewRebaseMintPercent",
      "type": "event"
    },
    {
      "anonymous": false,
      "inputs": [
        {
          "indexed": false,
          "internalType": "address",
          "name": "oldReserveContract",
          "type": "address"
        },
        {
          "indexed": false,
          "internalType": "address",
          "name": "newReserveContract",
          "type": "address"
        }
      ],
      "name": "NewReserveContract",
      "type": "event"
    },
    {
      "anonymous": false,
      "inputs": [
        {
          "indexed": true,
          "internalType": "address",
          "name": "destination",
          "type": "address"
        },
        {
          "indexed": false,
          "internalType": "uint256",
          "name": "index",
          "type": "uint256"
        },
        {
          "indexed": false,
          "internalType": "bytes",
          "name": "data",
          "type": "bytes"
        }
      ],
      "name": "TransactionFailed",
      "type": "event"
    },
    {
      "anonymous": false,
      "inputs": [
        {
          "indexed": false,
          "internalType": "uint256",
          "name": "reservesAdded",
          "type": "uint256"
        },
        {
          "indexed": false,
          "internalType": "uint256",
          "name": "yamsSold",
          "type": "uint256"
        },
        {
          "indexed": false,
          "internalType": "uint256",
          "name": "yamsFromReserves",
          "type": "uint256"
        },
        {
          "indexed": false,
          "internalType": "uint256",
          "name": "yamsToReserves",
          "type": "uint256"
        }
      ],
      "name": "TreasuryIncreased",
      "type": "event"
    },
    {
      "constant": true,
      "inputs": [],
      "name": "blockTimestampLast",
      "outputs": [
        {
          "internalType": "uint32",
          "name": "",
          "type": "uint32"
        }
      ],
      "payable": false,
      "stateMutability": "view",
      "type": "function"
    },
    {
      "constant": true,
      "inputs": [],
      "name": "deviationThreshold",
      "outputs": [
        {
          "internalType": "uint256",
          "name": "",
          "type": "uint256"
        }
      ],
      "payable": false,
      "stateMutability": "view",
      "type": "function"
    },
    {
      "constant": true,
      "inputs": [],
      "name": "epoch",
      "outputs": [
        {
          "internalType": "uint256",
          "name": "",
          "type": "uint256"
        }
      ],
      "payable": false,
      "stateMutability": "view",
      "type": "function"
    },
    {
      "constant": true,
      "inputs": [],
      "name": "gov",
      "outputs": [
        {
          "internalType": "address",
          "name": "",
          "type": "address"
        }
      ],
      "payable": false,
      "stateMutability": "view",
      "type": "function"
    },
    {
      "constant": true,
      "inputs": [],
      "name": "isToken0",
      "outputs": [
        {
          "internalType": "bool",
          "name": "",
          "type": "bool"
        }
      ],
      "payable": false,
      "stateMutability": "view",
      "type": "function"
    },
    {
      "constant": true,
      "inputs": [],
      "name": "lastRebaseTimestampSec",
      "outputs": [
        {
          "internalType": "uint256",
          "name": "",
          "type": "uint256"
        }
      ],
      "payable": false,
      "stateMutability": "view",
      "type": "function"
    },
    {
      "constant": true,
      "inputs": [],
      "name": "maxSlippageFactor",
      "outputs": [
        {
          "internalType": "uint256",
          "name": "",
          "type": "uint256"
        }
      ],
      "payable": false,
      "stateMutability": "view",
      "type": "function"
    },
    {
      "constant": true,
      "inputs": [],
      "name": "minRebaseTimeIntervalSec",
      "outputs": [
        {
          "internalType": "uint256",
          "name": "",
          "type": "uint256"
        }
      ],
      "payable": false,
      "stateMutability": "view",
      "type": "function"
    },
    {
      "constant": true,
      "inputs": [],
      "name": "pendingGov",
      "outputs": [
        {
          "internalType": "address",
          "name": "",
          "type": "address"
        }
      ],
      "payable": false,
      "stateMutability": "view",
      "type": "function"
    },
    {
      "constant": true,
      "inputs": [],
      "name": "priceCumulativeLast",
      "outputs": [
        {
          "internalType": "uint256",
          "name": "",
          "type": "uint256"
        }
      ],
      "payable": false,
      "stateMutability": "view",
      "type": "function"
    },
    {
      "constant": true,
      "inputs": [],
      "name": "rebaseDelay",
      "outputs": [
        {
          "internalType": "uint256",
          "name": "",
          "type": "uint256"
        }
      ],
      "payable": false,
      "stateMutability": "view",
      "type": "function"
    },
    {
      "constant": true,
      "inputs": [],
      "name": "rebaseLag",
      "outputs": [
        {
          "internalType": "uint256",
          "name": "",
          "type": "uint256"
        }
      ],
      "payable": false,
      "stateMutability": "view",
      "type": "function"
    },
    {
      "constant": true,
      "inputs": [],
      "name": "rebaseMintPerc",
      "outputs": [
        {
          "internalType": "uint256",
          "name": "",
          "type": "uint256"
        }
      ],
      "payable": false,
      "stateMutability": "view",
      "type": "function"
    },
    {
      "constant": true,
      "inputs": [],
      "name": "rebaseWindowLengthSec",
      "outputs": [
        {
          "internalType": "uint256",
          "name": "",
          "type": "uint256"
        }
      ],
      "payable": false,
      "stateMutability": "view",
      "type": "function"
    },
    {
      "constant": true,
      "inputs": [],
      "name": "rebaseWindowOffsetSec",
      "outputs": [
        {
          "internalType": "uint256",
          "name": "",
          "type": "uint256"
        }
      ],
      "payable": false,
      "stateMutability": "view",
      "type": "function"
    },
    {
      "constant": true,
      "inputs": [],
      "name": "rebasingActive",
      "outputs": [
        {
          "internalType": "bool",
          "name": "",
          "type": "bool"
        }
      ],
      "payable": false,
      "stateMutability": "view",
      "type": "function"
    },
    {
      "constant": true,
      "inputs": [],
      "name": "reserveToken",
      "outputs": [
        {
          "internalType": "address",
          "name": "",
          "type": "address"
        }
      ],
      "payable": false,
      "stateMutability": "view",
      "type": "function"
    },
    {
      "constant": true,
      "inputs": [],
      "name": "reservesContract",
      "outputs": [
        {
          "internalType": "address",
          "name": "",
          "type": "address"
        }
      ],
      "payable": false,
      "stateMutability": "view",
      "type": "function"
    },
    {
      "constant": true,
      "inputs": [],
      "name": "targetRate",
      "outputs": [
        {
          "internalType": "uint256",
          "name": "",
          "type": "uint256"
        }
      ],
      "payable": false,
      "stateMutability": "view",
      "type": "function"
    },
    {
      "constant": true,
      "inputs": [],
      "name": "timeOfTWAPInit",
      "outputs": [
        {
          "internalType": "uint256",
          "name": "",
          "type": "uint256"
        }
      ],
      "payable": false,
      "stateMutability": "view",
      "type": "function"
    },
    {
      "constant": true,
      "inputs": [
        {
          "internalType": "uint256",
          "name": "",
          "type": "uint256"
        }
      ],
      "name": "transactions",
      "outputs": [
        {
          "internalType": "bool",
          "name": "enabled",
          "type": "bool"
        },
        {
          "internalType": "address",
          "name": "destination",
          "type": "address"
        },
        {
          "internalType": "bytes",
          "name": "data",
          "type": "bytes"
        }
      ],
      "payable": false,
      "stateMutability": "view",
      "type": "function"
    },
    {
      "constant": true,
      "inputs": [],
      "name": "uniswap_pair",
      "outputs": [
        {
          "internalType": "address",
          "name": "",
          "type": "address"
        }
      ],
      "payable": false,
      "stateMutability": "view",
      "type": "function"
    },
    {
      "constant": true,
      "inputs": [],
      "name": "yamAddress",
      "outputs": [
        {
          "internalType": "address",
          "name": "",
          "type": "address"
        }
      ],
      "payable": false,
      "stateMutability": "view",
      "type": "function"
    },
    {
      "constant": false,
      "inputs": [
        {
          "internalType": "uint256",
          "name": "maxSlippageFactor_",
          "type": "uint256"
        }
      ],
      "name": "setMaxSlippageFactor",
      "outputs": [],
      "payable": false,
      "stateMutability": "nonpayable",
      "type": "function"
    },
    {
      "constant": false,
      "inputs": [
        {
          "internalType": "uint256",
          "name": "rebaseMintPerc_",
          "type": "uint256"
        }
      ],
      "name": "setRebaseMintPerc",
      "outputs": [],
      "payable": false,
      "stateMutability": "nonpayable",
      "type": "function"
    },
    {
      "constant": false,
      "inputs": [
        {
          "internalType": "address",
          "name": "reservesContract_",
          "type": "address"
        }
      ],
      "name": "setReserveContract",
      "outputs": [],
      "payable": false,
      "stateMutability": "nonpayable",
      "type": "function"
    },
    {
      "constant": false,
      "inputs": [
        {
          "internalType": "address",
          "name": "pendingGov_",
          "type": "address"
        }
      ],
      "name": "_setPendingGov",
      "outputs": [],
      "payable": false,
      "stateMutability": "nonpayable",
      "type": "function"
    },
    {
      "constant": false,
      "inputs": [],
      "name": "_acceptGov",
      "outputs": [],
      "payable": false,
      "stateMutability": "nonpayable",
      "type": "function"
    },
    {
      "constant": false,
      "inputs": [],
      "name": "init_twap",
      "outputs": [],
      "payable": false,
      "stateMutability": "nonpayable",
      "type": "function"
    },
    {
      "constant": false,
      "inputs": [],
      "name": "activate_rebasing",
      "outputs": [],
      "payable": false,
      "stateMutability": "nonpayable",
      "type": "function"
    },
    {
      "constant": false,
      "inputs": [],
      "name": "rebase",
      "outputs": [],
      "payable": false,
      "stateMutability": "nonpayable",
      "type": "function"
    },
    {
      "constant": false,
      "inputs": [
        {
          "internalType": "address",
          "name": "sender",
          "type": "address"
        },
        {
          "internalType": "uint256",
          "name": "amount0",
          "type": "uint256"
        },
        {
          "internalType": "uint256",
          "name": "amount1",
          "type": "uint256"
        },
        {
          "internalType": "bytes",
          "name": "data",
          "type": "bytes"
        }
      ],
      "name": "uniswapV2Call",
      "outputs": [],
      "payable": false,
      "stateMutability": "nonpayable",
      "type": "function"
    },
    {
      "constant": false,
      "inputs": [
        {
          "internalType": "uint256",
          "name": "deviationThreshold_",
          "type": "uint256"
        }
      ],
      "name": "setDeviationThreshold",
      "outputs": [],
      "payable": false,
      "stateMutability": "nonpayable",
      "type": "function"
    },
    {
      "constant": false,
      "inputs": [
        {
          "internalType": "uint256",
          "name": "rebaseLag_",
          "type": "uint256"
        }
      ],
      "name": "setRebaseLag",
      "outputs": [],
      "payable": false,
      "stateMutability": "nonpayable",
      "type": "function"
    },
    {
      "constant": false,
      "inputs": [
        {
          "internalType": "uint256",
          "name": "targetRate_",
          "type": "uint256"
        }
      ],
      "name": "setTargetRate",
      "outputs": [],
      "payable": false,
      "stateMutability": "nonpayable",
      "type": "function"
    },
    {
      "constant": false,
      "inputs": [
        {
          "internalType": "uint256",
          "name": "minRebaseTimeIntervalSec_",
          "type": "uint256"
        },
        {
          "internalType": "uint256",
          "name": "rebaseWindowOffsetSec_",
          "type": "uint256"
        },
        {
          "internalType": "uint256",
          "name": "rebaseWindowLengthSec_",
          "type": "uint256"
        }
      ],
      "name": "setRebaseTimingParameters",
      "outputs": [],
      "payable": false,
      "stateMutability": "nonpayable",
      "type": "function"
    },
    {
      "constant": true,
      "inputs": [],
      "name": "inRebaseWindow",
      "outputs": [
        {
          "internalType": "bool",
          "name": "",
          "type": "bool"
        }
      ],
      "payable": false,
      "stateMutability": "view",
      "type": "function"
    },
    {
      "constant": false,
      "inputs": [
        {
          "internalType": "address",
          "name": "destination",
          "type": "address"
        },
        {
          "internalType": "bytes",
          "name": "data",
          "type": "bytes"
        }
      ],
      "name": "addTransaction",
      "outputs": [],
      "payable": false,
      "stateMutability": "nonpayable",
      "type": "function"
    },
    {
      "constant": false,
      "inputs": [
        {
          "internalType": "uint256",
          "name": "index",
          "type": "uint256"
        }
      ],
      "name": "removeTransaction",
      "outputs": [],
      "payable": false,
      "stateMutability": "nonpayable",
      "type": "function"
    },
    {
      "constant": false,
      "inputs": [
        {
          "internalType": "uint256",
          "name": "index",
          "type": "uint256"
        },
        {
          "internalType": "bool",
          "name": "enabled",
          "type": "bool"
        }
      ],
      "name": "setTransactionEnabled",
      "outputs": [],
      "payable": false,
      "stateMutability": "nonpayable",
      "type": "function"
    }
  ],
  "bytecode": "0x60806040523480156200001157600080fd5b50604051620046213803806200462183398101604081905262000034916200026c565b61a8c0600755618ca0600955601080546001600160a01b0319166001600160a01b0383161790556000806200006a86866200015d565b91509150856001600160a01b0316826001600160a01b031614156200009c576014805460ff19166001179055620000a7565b6014805460ff191690555b620000bd8483836001600160e01b03620001f816565b601180546001600160a01b03199081166001600160a01b039384161790915560108054821695831695909517909455600f80548516968216969096179095555050600e8054821694909316939093179091555066c02cea37e26800601355670de0b6b3a7640000600455600a600381905567016345785d8a000060055566b1a2bc2ec50000600655610384905560018054339216919091179055620004ec565b600080826001600160a01b0316846001600160a01b031614156200019e5760405162461bcd60e51b8152600401620001959062000470565b60405180910390fd5b826001600160a01b0316846001600160a01b031610620001c0578284620001c3565b83835b90925090506001600160a01b038216620001f15760405162461bcd60e51b8152600401620001959062000482565b9250929050565b60008383836040516020016200021092919062000400565b60405160208183030381529060405280519060200120604051602001620002399291906200042a565b60408051601f198184030181529190528051602090910120949350505050565b80516200026681620004d2565b92915050565b600080600080608085870312156200028357600080fd5b600062000291878762000259565b9450506020620002a48782880162000259565b9350506040620002b78782880162000259565b9250506060620002ca8782880162000259565b91505092959194509250565b620002eb620002e582620004a2565b620004be565b82525050565b620002eb6200030082620004af565b620004af565b60006200031560258362000494565b7f556e697377617056324c6962726172793a204944454e544943414c5f41444452815264455353455360d81b602082015260400192915050565b60006200035e6020836200049d565b7f96e8ac4277198ff8b6f785478aa9a39f403cb768dd02cbee326c3e7da348845f815260200192915050565b6000620003996001836200049d565b7fff00000000000000000000000000000000000000000000000000000000000000815260010192915050565b6000620003d4601e8362000494565b7f556e697377617056324c6962726172793a205a45524f5f414444524553530000815260200192915050565b60006200040e8285620002d6565b601482019150620004208284620002d6565b5060140192915050565b600062000437826200038a565b9150620004458285620002d6565b601482019150620004578284620002f1565b60208201915062000468826200034f565b949350505050565b60208082528101620002668162000306565b602080825281016200026681620003c5565b90815260200190565b919050565b60006200026682620004b2565b90565b6001600160a01b031690565b600062000266826000620002668260601b90565b620004dd81620004a2565b8114620004e957600080fd5b50565b61412580620004fc6000396000f3fe608060405234801561001057600080fd5b50600436106102c85760003560e01c80636406ca5f1161017b578063c4c6eaad116100d8578063cf1b927e1161008c578063d94ad83711610071578063d94ad837146104d2578063dcf93f32146104da578063f4325d67146104e2576102c8565b8063cf1b927e146104c2578063d72cdafc146104ca576102c8565b8063cc8fd393116100bd578063cc8fd3931461049f578063cd877826146104a7578063cdabdaac146104af576102c8565b8063c4c6eaad14610482578063c5700a021461048a576102c8565b8063900cf0cf1161012f5780639ace38c2116101145780639ace38c214610445578063af14052c14610467578063b60e1e3e1461046f576102c8565b8063900cf0cf146104355780639466120f1461043d576102c8565b80636e9dde99116101605780636e9dde99146104075780637052b9021461041a57806373f03dff14610422576102c8565b80636406ca5f146103ec5780636bf9ace7146103f4576102c8565b80633a68eaf6116102295780634e66f8ae116101dd57806353a15edc116101c257806353a15edc146103c957806357466c8b146103dc57806363f6d4c8146103e4576102c8565b80634e66f8ae146103ae578063527a52c8146103b6576102c8565b806346c3bd1f1161020e57806346c3bd1f1461038b5780634bda2e201461039e5780634dc95de1146103a6576102c8565b80633a68eaf61461037b5780633a93069b14610383576102c8565b806316250fd41161028057806320ce83891161026557806320ce838914610358578063252408101461036b5780632f43c1bc14610373576102c8565b806316250fd41461033d5780631cab801c14610350576102c8565b8063111d0498116102b1578063111d049814610300578063126e19be1461031557806312d43a5114610328576102c8565b806302101899146102cd57806310d1e85c146102eb575b600080fd5b6102d56104ea565b6040516102e29190613ead565b60405180910390f35b6102fe6102f936600461334d565b6104f0565b005b610308610949565b6040516102e29190613cb6565b6102fe6103233660046132f7565b61095a565b610330610a9c565b6040516102e29190613c4a565b6102fe61034b3660046134c5565b610ab8565b6102d5610b03565b6102fe61036636600461344f565b610b09565b610330610b3f565b6102d5610b5b565b610330610b61565b6102d5610b7d565b6102fe61039936600461344f565b610b83565b6102fe610d64565b610308610e47565b6102fe610e50565b6102fe6103c43660046132d9565b610ef9565b6102fe6103d736600461344f565b610fa1565b6102fe61100e565b6102d5611110565b6102d5611116565b6102fe61040236600461344f565b61111c565b6102fe61041536600461348b565b611179565b6102d5611227565b6102fe6104303660046132d9565b61122d565b6102d56112c9565b6102d56112cf565b61045861045336600461344f565b6112d5565b6040516102e293929190613cc4565b6102fe6113c5565b6102fe61047d36600461344f565b611978565b6103306119d5565b6104926119f1565b6040516102e29190613f61565b6102d5611a15565b6102d5611a1b565b6102fe6104bd36600461344f565b611a21565b6102d5611a57565b610330611a5d565b6102d5611a79565b610308611a7f565b610330611a88565b60075481565b60115473ffffffffffffffffffffffffffffffffffffffff16331461054a576040517f08c379a000000000000000000000000000000000000000000000000000000000815260040161054190613e2f565b60405180910390fd5b73ffffffffffffffffffffffffffffffffffffffff84163014610599576040517f08c379a000000000000000000000000000000000000000000000000000000000815260040161054190613e8f565b6105a1612f82565b818060200190516105b591908101906133e4565b600e54602082015191925073ffffffffffffffffffffffffffffffffffffffff1690156107215760105460115460208401516040517f23b872dd00000000000000000000000000000000000000000000000000000000815273ffffffffffffffffffffffffffffffffffffffff808616946323b872dd9461063f9491831693921691600401613c73565b602060405180830381600087803b15801561065957600080fd5b505af115801561066d573d6000803e3d6000fd5b505050506040513d601f19601f8201168201806040525061069191908101906133c6565b506011546020830151835173ffffffffffffffffffffffffffffffffffffffff808516936340c10f19939116916106cd9163ffffffff611aa416565b6040518363ffffffff1660e01b81526004016106ea929190613c9b565b600060405180830381600087803b15801561070457600080fd5b505af1158015610718573d6000803e3d6000fd5b505050506107af565b60115482516040517f40c10f1900000000000000000000000000000000000000000000000000000000815273ffffffffffffffffffffffffffffffffffffffff848116936340c10f199361077c939290911691600401613c9b565b600060405180830381600087803b15801561079657600080fd5b505af11580156107aa573d6000803e3d6000fd5b505050505b60408201511561084a5760105460408381015190517f40c10f1900000000000000000000000000000000000000000000000000000000815273ffffffffffffffffffffffffffffffffffffffff848116936340c10f1993610817939290911691600401613c9b565b600060405180830381600087803b15801561083157600080fd5b505af1158015610845573d6000803e3d6000fd5b505050505b60145460ff16156108cd57600f5460105461087f9173ffffffffffffffffffffffffffffffffffffffff908116911686611aef565b7fb335015c214ae37ed112cc5eb042235c0ea40a7617987e1bd847839143872350848360000151846020015185604001516040516108c09493929190613f2c565b60405180910390a1610941565b600f546010546108f79173ffffffffffffffffffffffffffffffffffffffff908116911687611aef565b7fb335015c214ae37ed112cc5eb042235c0ea40a7617987e1bd847839143872350858360000151846020015185604001516040516109389493929190613f2c565b60405180910390a15b505050505050565b6000610953611bb1565b5060015b90565b60015473ffffffffffffffffffffffffffffffffffffffff16331461097e57600080fd5b600060405180606001604052806001151581526020018573ffffffffffffffffffffffffffffffffffffffff16815260200184848080601f016020809104026020016040519081016040528093929190818152602001838380828437600092018290525093909452505083546001818101808755958352602092839020855160029093020180548487015173ffffffffffffffffffffffffffffffffffffffff16610100027fffffffffffffffffffffff0000000000000000000000000000000000000000ff9415157fffffffffffffffffffffffffffffffffffffffffffffffffffffffffffffff00909216919091179390931692909217825560408501518051929450610a939391850192910190612fa3565b50505050505050565b60015473ffffffffffffffffffffffffffffffffffffffff1681565b60015473ffffffffffffffffffffffffffffffffffffffff163314610adc57600080fd5b60008311610ae957600080fd5b828210610af557600080fd5b600792909255600955600a55565b60055481565b60015473ffffffffffffffffffffffffffffffffffffffff163314610b2d57600080fd5b60008111610b3a57600080fd5b600355565b60025473ffffffffffffffffffffffffffffffffffffffff1681565b60125481565b60105473ffffffffffffffffffffffffffffffffffffffff1681565b60085481565b60015473ffffffffffffffffffffffffffffffffffffffff163314610ba757600080fd5b6000548110610be2576040517f08c379a000000000000000000000000000000000000000000000000000000000815260040161054190613e5f565b6000547fffffffffffffffffffffffffffffffffffffffffffffffffffffffffffffffff01811015610d2f57600080547fffffffffffffffffffffffffffffffffffffffffffffffffffffffffffffffff8101908110610c3e57fe5b906000526020600020906002020160008281548110610c5957fe5b600091825260209091208254600292830290910180547fffffffffffffffffffffffffffffffffffffffffffffffffffffffffffffff001660ff90921615159190911780825583547fffffffffffffffffffffff0000000000000000000000000000000000000000ff9091166101009182900473ffffffffffffffffffffffffffffffffffffffff168202178255600180850180549394610d2b948387019492938116159092027fffffffffffffffffffffffffffffffffffffffffffffffffffffffffffffffff0190911604613021565b5050505b6000805490610d60907fffffffffffffffffffffffffffffffffffffffffffffffffffffffffffffffff8301613096565b5050565b60025473ffffffffffffffffffffffffffffffffffffffff163314610db5576040517f08c379a000000000000000000000000000000000000000000000000000000000815260040161054190613dbf565b60018054600280547fffffffffffffffffffffffff000000000000000000000000000000000000000080841673ffffffffffffffffffffffffffffffffffffffff83811691909117958690559116909155604051918116927f1f14cfc03e486d23acee577b07bc0b3b23f4888c91fcdba5e0fef5a2549d552392610e3c9285921690613c58565b60405180910390a150565b600c5460ff1681565b6000600d5411610e8c576040517f08c379a000000000000000000000000000000000000000000000000000000000815260040161054190613d4f565b61a8c0600d5401421015610ecc576040517f08c379a000000000000000000000000000000000000000000000000000000000815260040161054190613d8f565b600c80547fffffffffffffffffffffffffffffffffffffffffffffffffffffffffffffff00166001179055565b60015473ffffffffffffffffffffffffffffffffffffffff163314610f1d57600080fd5b6010805473ffffffffffffffffffffffffffffffffffffffff8381167fffffffffffffffffffffffff00000000000000000000000000000000000000008316179092556040519116907fce840d2205f08f33375689943da5da9fdfde146fcbb5553b17910a60c8284a2090610f959083908590613c58565b60405180910390a15050565b60015473ffffffffffffffffffffffffffffffffffffffff163314610fc557600080fd5b600060065411610fd457600080fd5b60068054908290556040517f2a5cda4d16fba415b52d90b59ee30d4cb16494da9fd1ee51c4d5bac4a1f75bbe90610f959083908590613ef6565b600d5415611048576040517f08c379a000000000000000000000000000000000000000000000000000000000815260040161054190613e4f565b60115460145460009182916110769173ffffffffffffffffffffffffffffffffffffffff169060ff16611c9e565b9150915060008163ffffffff16116110ba576040517f08c379a000000000000000000000000000000000000000000000000000000000815260040161054190613d7f565b601180547fffffffffffffffff00000000ffffffffffffffffffffffffffffffffffffffff167401000000000000000000000000000000000000000063ffffffff93909316928302179055601291909155600d55565b60035481565b61a8c081565b60015473ffffffffffffffffffffffffffffffffffffffff16331461114057600080fd5b600581905560405181907f59b3ffce759ec92c629beee27554d8fbc2ca1a05020fa0cf500c890c172094be90610f959083908190613ef6565b60015473ffffffffffffffffffffffffffffffffffffffff16331461119d57600080fd5b60005482106111d8576040517f08c379a000000000000000000000000000000000000000000000000000000000815260040161054190613d6f565b80600083815481106111e657fe5b6000918252602090912060029091020180547fffffffffffffffffffffffffffffffffffffffffffffffffffffffffffffff00169115159190911790555050565b60095481565b60015473ffffffffffffffffffffffffffffffffffffffff16331461125157600080fd5b6002805473ffffffffffffffffffffffffffffffffffffffff8381167fffffffffffffffffffffffff00000000000000000000000000000000000000008316179092556040519116907f6163d5b9efd962645dd649e6e48a61bcb0f9df00997a2398b80d135a9ab0c61e90610f959083908590613c58565b600b5481565b600a5481565b600081815481106112e257fe5b6000918252602091829020600291820201805460018083018054604080516101009483161585027fffffffffffffffffffffffffffffffffffffffffffffffffffffffffffffffff0190921696909604601f810188900488028201880190965285815260ff841697509190920473ffffffffffffffffffffffffffffffffffffffff1694929390928301828280156113bb5780601f10611390576101008083540402835291602001916113bb565b820191906000526020600020905b81548152906001019060200180831161139e57829003601f168201915b5050505050905083565b6113cd611bb1565b426113e5600754600854611ee590919063ffffffff16565b106113ef57600080fd5b61142660095461141a61140d60075442611f2490919063ffffffff16565b429063ffffffff611aa416565b9063ffffffff611ee516565b600855600b5461143d90600163ffffffff611ee516565b600b55600061144a611f66565b90506000806114588361208c565b6003549193509150829061147390829063ffffffff61210f16565b600e5490915073ffffffffffffffffffffffffffffffffffffffff168280156115cc57508073ffffffffffffffffffffffffffffffffffffffff166311d3e6c46040518163ffffffff1660e01b815260040160206040518083038186803b1580156114dd57600080fd5b505afa1580156114f1573d6000803e3d6000fd5b505050506040513d601f19601f82011682018060405250611515919081019061346d565b6115ca670de0b6b3a76400006115be611534828763ffffffff611ee516565b8573ffffffffffffffffffffffffffffffffffffffff1663b6fa85766040518163ffffffff1660e01b815260040160206040518083038186803b15801561157a57600080fd5b505afa15801561158e573d6000803e3d6000fd5b505050506040513d601f19601f820116820180604052506115b2919081019061346d565b9063ffffffff61215116565b9063ffffffff61210f16565b115b156116d1578073ffffffffffffffffffffffffffffffffffffffff1663b6fa85766040518163ffffffff1660e01b815260040160206040518083038186803b15801561161757600080fd5b505afa15801561162b573d6000803e3d6000fd5b505050506040513d601f19601f8201168201806040525061164f919081019061346d565b8173ffffffffffffffffffffffffffffffffffffffff166311d3e6c46040518163ffffffff1660e01b815260040160206040518083038186803b15801561169557600080fd5b505afa1580156116a9573d6000803e3d6000fd5b505050506040513d601f19601f820116820180604052506116cd919081019061346d565b0391505b60008173ffffffffffffffffffffffffffffffffffffffff166318160ddd6040518163ffffffff1660e01b815260040160206040518083038186803b15801561171957600080fd5b505afa15801561172d573d6000803e3d6000fd5b505050506040513d601f19601f82011682018060405250611751919081019061346d565b9050600084156117b257600061177e670de0b6b3a76400006115be6005548861215190919063ffffffff16565b9050611790858263ffffffff611aa416565b94506117ae670de0b6b3a76400006115be858463ffffffff61215116565b9150505b600b546040517f7af548c100000000000000000000000000000000000000000000000000000000815260009173ffffffffffffffffffffffffffffffffffffffff861691637af548c19161180c9189908b90600401613f04565b602060405180830381600087803b15801561182657600080fd5b505af115801561183a573d6000803e3d6000fd5b505050506040513d601f19601f8201168201806040525061185e919081019061346d565b90508373ffffffffffffffffffffffffffffffffffffffff166311d3e6c46040518163ffffffff1660e01b815260040160206040518083038186803b1580156118a657600080fd5b505afa1580156118ba573d6000803e3d6000fd5b505050506040513d601f19601f820116820180604052506118de919081019061346d565b8473ffffffffffffffffffffffffffffffffffffffff1663b6fa85766040518163ffffffff1660e01b815260040160206040518083038186803b15801561192457600080fd5b505afa158015611938573d6000803e3d6000fd5b505050506040513d601f19601f8201168201806040525061195c919081019061346d565b111561196457fe5b61196e82886121a5565b5050505050505050565b60015473ffffffffffffffffffffffffffffffffffffffff16331461199c57600080fd5b601381905560405181907fe21b25c4eda0340cd924f3247795d0acde6c304b68ae77657bb2d4e840198bf890610f959083908190613ef6565b60115473ffffffffffffffffffffffffffffffffffffffff1681565b60115474010000000000000000000000000000000000000000900463ffffffff1681565b60045481565b600d5481565b60015473ffffffffffffffffffffffffffffffffffffffff163314611a4557600080fd5b60008111611a5257600080fd5b600455565b60135481565b600e5473ffffffffffffffffffffffffffffffffffffffff1681565b60065481565b60145460ff1681565b600f5473ffffffffffffffffffffffffffffffffffffffff1681565b6000611ae683836040518060400160405280601e81526020017f536166654d6174683a207375627472616374696f6e206f766572666c6f7700008152506123e8565b90505b92915050565b604051611bac9084907fa9059cbb0000000000000000000000000000000000000000000000000000000090611b2a9086908690602401613c9b565b604080517fffffffffffffffffffffffffffffffffffffffffffffffffffffffffffffffe08184030181529190526020810180517bffffffffffffffffffffffffffffffffffffffffffffffffffffffff167fffffffff0000000000000000000000000000000000000000000000000000000090931692909217909152612433565b505050565b600c5460ff16611bed576040517f08c379a000000000000000000000000000000000000000000000000000000000815260040161054190613dcf565b600954600754611c0490429063ffffffff611f2416565b1015611c3c576040517f08c379a000000000000000000000000000000000000000000000000000000000815260040161054190613dff565b600a54600954611c519163ffffffff611ee516565b600754611c6590429063ffffffff611f2416565b10611c9c576040517f08c379a000000000000000000000000000000000000000000000000000000000815260040161054190613e0f565b565b600080611ca96124e9565b905060008060008673ffffffffffffffffffffffffffffffffffffffff16630902f1ac6040518163ffffffff1660e01b815260040160606040518083038186803b158015611cf657600080fd5b505afa158015611d0a573d6000803e3d6000fd5b505050506040513d601f19601f82011682018060405250611d2e9190810190613402565b9250925092508515611e0d578673ffffffffffffffffffffffffffffffffffffffff16635909c0d56040518163ffffffff1660e01b815260040160206040518083038186803b158015611d8057600080fd5b505afa158015611d94573d6000803e3d6000fd5b505050506040513d601f19601f82011682018060405250611db8919081019061346d565b94508363ffffffff168163ffffffff1614611e085780840363ffffffff8116611de184866124f3565b517bffffffffffffffffffffffffffffffffffffffffffffffffffffffff16029590950194505b611edb565b8673ffffffffffffffffffffffffffffffffffffffff16635a3d54936040518163ffffffff1660e01b815260040160206040518083038186803b158015611e5357600080fd5b505afa158015611e67573d6000803e3d6000fd5b505050506040513d601f19601f82011682018060405250611e8b919081019061346d565b94508363ffffffff168163ffffffff1614611edb5780840363ffffffff8116611eb484866124f3565b517bffffffffffffffffffffffffffffffffffffffffffffffffffffffff16029590950194505b5050509250929050565b600082820183811015611ae6576040517f08c379a000000000000000000000000000000000000000000000000000000000815260040161054190613d5f565b6000611ae683836040518060400160405280601881526020017f536166654d6174683a206d6f64756c6f206279207a65726f00000000000000008152506125b6565b60115460145460009182918291611f989173ffffffffffffffffffffffffffffffffffffffff9091169060ff16611c9e565b601154919350915074010000000000000000000000000000000000000000900463ffffffff168103611fc86130c2565b60405180602001604052808363ffffffff16601254870381611fe657fe5b047bffffffffffffffffffffffffffffffffffffffffffffffffffffffff1690526012859055601180547fffffffffffffffff00000000ffffffffffffffffffffffffffffffffffffffff167401000000000000000000000000000000000000000063ffffffff871602179055905061206f61206a82670de0b6b3a7640000612604565b612692565b71ffffffffffffffffffffffffffffffffffff1694505050505090565b60008061209883612699565b156120a85750600090508061210a565b6004548311156120e0576004546120d5906115be670de0b6b3a76400006115b2878463ffffffff611aa416565b60019150915061210a565b600454612103906115be670de0b6b3a76400006115b2838863ffffffff611aa416565b6000915091505b915091565b6000611ae683836040518060400160405280601a81526020017f536166654d6174683a206469766973696f6e206279207a65726f000000000000815250612715565b60008261216057506000611ae9565b8282028284828161216d57fe5b0414611ae6576040517f08c379a000000000000000000000000000000000000000000000000000000000815260040161054190613daf565b601160009054906101000a900473ffffffffffffffffffffffffffffffffffffffff1673ffffffffffffffffffffffffffffffffffffffff1663fff6cae96040518163ffffffff1660e01b8152600401600060405180830381600087803b15801561220f57600080fd5b505af1158015612223573d6000803e3d6000fd5b50505050600082111561223a5761223a8282612766565b60005b600054811015611bac57600080828154811061225557fe5b60009182526020909120600290910201805490915060ff16156123df5780546001808301805460408051602060026101009685161587027fffffffffffffffffffffffffffffffffffffffffffffffffffffffffffffffff0190941693909304601f810184900484028201840190925281815260009561234895900473ffffffffffffffffffffffffffffffffffffffff1693909290919083018282801561233e5780601f106123135761010080835404028352916020019161233e565b820191906000526020600020905b81548152906001019060200180831161232157829003601f168201915b5050505050612cc6565b9050806123dd57815460405161010090910473ffffffffffffffffffffffffffffffffffffffff16907f8091ecaaa54ebb82e02d36c2c336528e0fcb9b3430fc1291ac88295032b9c263906123a39086906001870190613ebb565b60405180910390a26040517f08c379a000000000000000000000000000000000000000000000000000000000815260040161054190613e6f565b505b5060010161223d565b60008184841115612426576040517f08c379a00000000000000000000000000000000000000000000000000000000081526004016105419190613d3e565b50508183035b9392505050565b6060612495826040518060400160405280602081526020017f5361666545524332303a206c6f772d6c6576656c2063616c6c206661696c65648152508573ffffffffffffffffffffffffffffffffffffffff16612ce99092919063ffffffff16565b805190915015611bac57808060200190516124b391908101906133c6565b611bac576040517f08c379a000000000000000000000000000000000000000000000000000000000815260040161054190613e1f565b63ffffffff421690565b6124fb6130c2565b6000826dffffffffffffffffffffffffffff1611612545576040517f08c379a000000000000000000000000000000000000000000000000000000000815260040161054190613e7f565b6040805160208101909152806dffffffffffffffffffffffffffff84167bffffffffffffffffffffffffffff0000000000000000000000000000607087901b168161258c57fe5b047bffffffffffffffffffffffffffffffffffffffffffffffffffffffff16815250905092915050565b600081836125f1576040517f08c379a00000000000000000000000000000000000000000000000000000000081526004016105419190613d3e565b508284816125fb57fe5b06949350505050565b61260c6130d4565b600082158061264757505082517bffffffffffffffffffffffffffffffffffffffffffffffffffffffff168281029083828161264457fe5b04145b61267d576040517f08c379a000000000000000000000000000000000000000000000000000000000815260040161054190613ddf565b60408051602081019091529081529392505050565b5160701c90565b6000806126bf670de0b6b3a76400006115be60065460045461215190919063ffffffff16565b905060045483101580156126e65750806126e460045485611aa490919063ffffffff16565b105b8061242c57506004548310801561242c5750600454819061270d908563ffffffff611aa416565b109392505050565b60008183612750576040517f08c379a00000000000000000000000000000000000000000000000000000000081526004016105419190613d3e565b50600083858161275c57fe5b0495945050505050565b601154600e54604080517f0902f1ac000000000000000000000000000000000000000000000000000000008152905173ffffffffffffffffffffffffffffffffffffffff938416939092169160009182918591630902f1ac916004808301926060929190829003018186803b1580156127de57600080fd5b505afa1580156127f2573d6000803e3d6000fd5b505050506040513d601f19601f820116820180604052506128169190810190613402565b506010546040517f70a082310000000000000000000000000000000000000000000000000000000081526dffffffffffffffffffffffffffff938416955091909216925060009173ffffffffffffffffffffffffffffffffffffffff808716926370a082319261288a921690600401613c4a565b60206040518083038186803b1580156128a257600080fd5b505afa1580156128b6573d6000803e3d6000fd5b505050506040513d601f19601f820116820180604052506128da919081019061346d565b905060006128e9848489612d00565b90506128f3612f82565b50604080516060810182528281526020810184905260009181019190915260145460ff1615612b0a5761292c898463ffffffff611ee516565b8211156129ec576000612942848b018787612d9d565b8a85018352602080840186905260405191925073ffffffffffffffffffffffffffffffffffffffff8a169163022c0d9f916000918591309161298691899101613e9f565b6040516020818303038152906040526040518563ffffffff1660e01b81526004016129b49493929190613cfa565b600060405180830381600087803b1580156129ce57600080fd5b505af11580156129e2573d6000803e3d6000fd5b5050505050612b05565b82821115612a4f576000612a01838787612d9d565b9050612a158a85850363ffffffff611aa416565b8260400181815250508773ffffffffffffffffffffffffffffffffffffffff1663022c0d9f60008330866040516020016129869190613e9f565b6000612a5c838787612d9d565b905082826020018181525050898260400181815250508773ffffffffffffffffffffffffffffffffffffffff1663022c0d9f6000833086604051602001612aa39190613e9f565b6040516020818303038152906040526040518563ffffffff1660e01b8152600401612ad19493929190613cfa565b600060405180830381600087803b158015612aeb57600080fd5b505af1158015612aff573d6000803e3d6000fd5b50505050505b612cbb565b612b1a898463ffffffff611ee516565b821115612ba2576000612b30848b018688612d9d565b8a85018352602080840186905260405191925073ffffffffffffffffffffffffffffffffffffffff8a169163022c0d9f9184916000913091612b7491899101613e9f565b6040516020818303038152906040526040518563ffffffff1660e01b8152600401612ad19493929190613edb565b82821115612c05576000612bb7838688612d9d565b9050612bcb8a85850363ffffffff611aa416565b8260400181815250508773ffffffffffffffffffffffffffffffffffffffff1663022c0d9f8260003086604051602001612b749190613e9f565b6000612c12838688612d9d565b905082826020018181525050898260400181815250508773ffffffffffffffffffffffffffffffffffffffff1663022c0d9f8260003086604051602001612c599190613e9f565b6040516020818303038152906040526040518563ffffffff1660e01b8152600401612c879493929190613edb565b600060405180830381600087803b158015612ca157600080fd5b505af1158015612cb5573d6000803e3d6000fd5b50505050505b505050505050505050565b6000806040516020840160008286518360008a6187965a03f19695505050505050565b6060612cf88484600085612e77565b949350505050565b60145460009060ff1615612d5957601354821115612d4057612d39670de0b6b3a76400006115be6013548761215190919063ffffffff16565b905061242c565b612d39670de0b6b3a76400006115be8660038604612151565b601354821115612d8457612d39670de0b6b3a76400006115be6013548661215190919063ffffffff16565b612d39670de0b6b3a76400006115be8560038604612151565b6000808411612dd8576040517f08c379a000000000000000000000000000000000000000000000000000000000815260040161054190613e3f565b600083118015612de85750600082115b612e1e576040517f08c379a000000000000000000000000000000000000000000000000000000000815260040161054190613d9f565b6000612e32856103e563ffffffff61215116565b90506000612e46828563ffffffff61215116565b90506000612e608361141a886103e863ffffffff61215116565b9050808281612e6b57fe5b04979650505050505050565b6060612e8285612f7c565b612eb8576040517f08c379a000000000000000000000000000000000000000000000000000000000815260040161054190613def565b600060608673ffffffffffffffffffffffffffffffffffffffff168587604051612ee29190613c3e565b60006040518083038185875af1925050503d8060008114612f1f576040519150601f19603f3d011682016040523d82523d6000602084013e612f24565b606091505b50915091508115612f38579150612cf89050565b805115612f485780518082602001fd5b836040517f08c379a00000000000000000000000000000000000000000000000000000000081526004016105419190613d3e565b3b151590565b60405180606001604052806000815260200160008152602001600081525090565b828054600181600116156101000203166002900490600052602060002090601f016020900481019282601f10612fe457805160ff1916838001178555613011565b82800160010185558215613011579182015b82811115613011578251825591602001919060010190612ff6565b5061301d9291506130e7565b5090565b828054600181600116156101000203166002900490600052602060002090601f016020900481019282601f1061305a5780548555613011565b8280016001018555821561301157600052602060002091601f016020900482015b8281111561301157825482559160010191906001019061307b565b815481835581811115611bac57600202816002028360005260206000209182019101611bac9190613101565b60408051602081019091526000815290565b6040518060200160405280600081525090565b61095791905b8082111561301d57600081556001016130ed565b61095791905b8082111561301d5780547fffffffffffffffffffffff0000000000000000000000000000000000000000001681556000613144600183018261314d565b50600201613107565b50805460018160011615610100020316600290046000825580601f106131735750613191565b601f01602090049060005260206000209081019061319191906130e7565b50565b8035611ae9816140aa565b8035611ae9816140be565b8051611ae9816140be565b60008083601f8401126131c757600080fd5b50813567ffffffffffffffff8111156131df57600080fd5b6020830191508360018202830111156131f757600080fd5b9250929050565b600082601f83011261320f57600080fd5b813561322261321d82613f96565b613f6f565b9150808252602083016020830185838301111561323e57600080fd5b61324983828461404a565b50505092915050565b60006060828403121561326457600080fd5b61326e6060613f6f565b9050600061327c84846132c3565b825250602061328d848483016132c3565b60208301525060406132a1848285016132c3565b60408301525092915050565b8051611ae9816140c7565b8035611ae9816140d0565b8051611ae9816140d0565b8051611ae9816140d9565b6000602082840312156132eb57600080fd5b6000612cf88484613194565b60008060006040848603121561330c57600080fd5b60006133188686613194565b935050602084013567ffffffffffffffff81111561333557600080fd5b613341868287016131b5565b92509250509250925092565b6000806000806080858703121561336357600080fd5b600061336f8787613194565b9450506020613380878288016132b8565b9350506040613391878288016132b8565b925050606085013567ffffffffffffffff8111156133ae57600080fd5b6133ba878288016131fe565b91505092959194509250565b6000602082840312156133d857600080fd5b6000612cf884846131aa565b6000606082840312156133f657600080fd5b6000612cf88484613252565b60008060006060848603121561341757600080fd5b600061342386866132ad565b9350506020613434868287016132ad565b9250506040613445868287016132ce565b9150509250925092565b60006020828403121561346157600080fd5b6000612cf884846132b8565b60006020828403121561347f57600080fd5b6000612cf884846132c3565b6000806040838503121561349e57600080fd5b60006134aa85856132b8565b92505060206134bb8582860161319f565b9150509250929050565b6000806000606084860312156134da57600080fd5b60006134e686866132b8565b93505060206134f7868287016132b8565b9250506040613445868287016132b8565b61351181613ffa565b82525050565b61351181614005565b600061352b82613fe8565b6135358185613fec565b9350613545818560208601614056565b61354e81614082565b9093019392505050565b600061356382613fe8565b61356d8185613ff5565b935061357d818560208601614056565b9290920192915050565b6000815460018116600081146135a457600181146135e857613627565b607f60028304166135b58187613fec565b7fffffffffffffffffffffffffffffffffffffffffffffffffffffffffffffff0084168152955050602085019250613627565b600282046135f68187613fec565b955061360185613fdc565b60005b8281101561362057815488820152600190910190602001613604565b8701945050505b505092915050565b6135118161403f565b6000613645602783613fec565b7f74776170207761736e7420696e74697469617465642c2063616c6c20696e697481527f5f74776170282900000000000000000000000000000000000000000000000000602082015260400192915050565b60006136a4601b83613fec565b7f536166654d6174683a206164646974696f6e206f766572666c6f770000000000815260200192915050565b60006136dd602883613fec565b7f696e646578206d75737420626520696e2072616e6765206f662073746f72656481527f207478206c697374000000000000000000000000000000000000000000000000602082015260400192915050565b600061373c600983613fec565b7f6e6f207472616465730000000000000000000000000000000000000000000000815260200192915050565b6000613775600a83613fec565b7f21656e645f64656c617900000000000000000000000000000000000000000000815260200192915050565b60006137ae602883613fec565b7f556e697377617056324c6962726172793a20494e53554646494349454e545f4c81527f4951554944495459000000000000000000000000000000000000000000000000602082015260400192915050565b600061380d602183613fec565b7f536166654d6174683a206d756c7469706c69636174696f6e206f766572666c6f81527f7700000000000000000000000000000000000000000000000000000000000000602082015260400192915050565b600061386c600883613fec565b7f2170656e64696e67000000000000000000000000000000000000000000000000815260200192915050565b60006138a5601383613fec565b7f7265626173696e67206e6f742061637469766500000000000000000000000000815260200192915050565b60006138de602383613fec565b7f4669786564506f696e743a204d554c5449504c49434154494f4e5f4f5645524681527f4c4f570000000000000000000000000000000000000000000000000000000000602082015260400192915050565b600061393d601d83613fec565b7f416464726573733a2063616c6c20746f206e6f6e2d636f6e7472616374000000815260200192915050565b6000613976600983613fec565b7f746f6f206561726c790000000000000000000000000000000000000000000000815260200192915050565b60006139af600883613fec565b7f746f6f206c617465000000000000000000000000000000000000000000000000815260200192915050565b60006139e8602a83613fec565b7f5361666545524332303a204552433230206f7065726174696f6e20646964206e81527f6f74207375636365656400000000000000000000000000000000000000000000602082015260400192915050565b6000613a47600e83613fec565b7f626164206d73672e73656e646572000000000000000000000000000000000000815260200192915050565b6000613a80602b83613fec565b7f556e697377617056324c6962726172793a20494e53554646494349454e545f4981527f4e5055545f414d4f554e54000000000000000000000000000000000000000000602082015260400192915050565b6000613adf601183613fec565b7f616c726561647920616374697661746564000000000000000000000000000000815260200192915050565b6000613b18601383613fec565b7f696e646578206f7574206f6620626f756e647300000000000000000000000000815260200192915050565b6000613b51601283613fec565b7f5472616e73616374696f6e204661696c65640000000000000000000000000000815260200192915050565b6000613b8a601783613fec565b7f4669786564506f696e743a204449565f42595f5a45524f000000000000000000815260200192915050565b6000613bc3600a83613fec565b7f626164206f726967696e00000000000000000000000000000000000000000000815260200192915050565b80516060830190613c008482613c2c565b506020820151613c136020850182613c2c565b506040820151613c266040850182613c2c565b50505050565b61351181610957565b61351181614036565b600061242c8284613558565b60208101611ae98284613508565b60408101613c668285613508565b61242c6020830184613508565b60608101613c818286613508565b613c8e6020830185613508565b612cf86040830184613c2c565b60408101613ca98285613508565b61242c6020830184613c2c565b60208101611ae98284613517565b60608101613cd28286613517565b613cdf6020830185613508565b8181036040830152613cf18184613520565b95945050505050565b60808101613d08828761362f565b613d156020830186613c2c565b613d226040830185613508565b8181036060830152613d348184613520565b9695505050505050565b60208082528101611ae68184613520565b60208082528101611ae981613638565b60208082528101611ae981613697565b60208082528101611ae9816136d0565b60208082528101611ae98161372f565b60208082528101611ae981613768565b60208082528101611ae9816137a1565b60208082528101611ae981613800565b60208082528101611ae98161385f565b60208082528101611ae981613898565b60208082528101611ae9816138d1565b60208082528101611ae981613930565b60208082528101611ae981613969565b60208082528101611ae9816139a2565b60208082528101611ae9816139db565b60208082528101611ae981613a3a565b60208082528101611ae981613a73565b60208082528101611ae981613ad2565b60208082528101611ae981613b0b565b60208082528101611ae981613b44565b60208082528101611ae981613b7d565b60208082528101611ae981613bb6565b60608101611ae98284613bef565b60208101611ae98284613c2c565b60408101613ec98285613c2c565b8181036020830152612cf88184613587565b60808101613ee98287613c2c565b613d15602083018661362f565b60408101613ca98285613c2c565b60608101613f128286613c2c565b613f1f6020830185613c2c565b612cf86040830184613517565b60808101613f3a8287613c2c565b613f476020830186613c2c565b613f546040830185613c2c565b613cf16060830184613c2c565b60208101611ae98284613c35565b60405181810167ffffffffffffffff81118282101715613f8e57600080fd5b604052919050565b600067ffffffffffffffff821115613fad57600080fd5b506020601f919091017fffffffffffffffffffffffffffffffffffffffffffffffffffffffffffffffe0160190565b60009081526020902090565b5190565b90815260200190565b919050565b6000611ae98261401d565b151590565b6dffffffffffffffffffffffffffff1690565b73ffffffffffffffffffffffffffffffffffffffff1690565b63ffffffff1690565b6000611ae982610957565b82818337506000910152565b60005b83811015614071578181015183820152602001614059565b83811115613c265750506000910152565b601f017fffffffffffffffffffffffffffffffffffffffffffffffffffffffffffffffe01690565b6140b381613ffa565b811461319157600080fd5b6140b381614005565b6140b38161400a565b6140b381610957565b6140b38161403656fea365627a7a72315820d1795281305cae64942f4737007ba607b9f842a289a1e2bd40d70a6db3c70d496c6578706572696d656e74616cf564736f6c63430005110040",
  "source": "pragma solidity 0.5.17;\npragma experimental ABIEncoderV2;\n\nimport \"../lib/SafeERC20.sol\";\nimport \"../lib/SafeMath.sol\";\nimport '../lib/IUniswapV2Pair.sol';\nimport \"../lib/UniswapV2OracleLibrary.sol\";\nimport \"../token/YAMTokenInterface.sol\";\n\n\ncontract YAMRebaser {\n\n    using SafeMath for uint256;\n\n    modifier onlyGov() {\n        require(msg.sender == gov);\n        _;\n    }\n\n    struct Transaction {\n        bool enabled;\n        address destination;\n        bytes data;\n    }\n\n    struct UniVars {\n      uint256 yamsToUni;\n      uint256 amountFromReserves;\n      uint256 mintToReserves;\n    }\n\n    event TransactionFailed(address indexed destination, uint index, bytes data);\n\n    event NewMaxSlippageFactor(uint256 oldSlippageFactor, uint256 newSlippageFactor);\n\n    event NewDeviationThreshold(uint256 oldDeviationThreshold, uint256 newDeviationThreshold);\n\n    /**\n     * @notice Sets the treasury mint percentage of rebase\n     */\n    event NewRebaseMintPercent(uint256 oldRebaseMintPerc, uint256 newRebaseMintPerc);\n\n\n    /**\n     * @notice Sets the reserve contract\n     */\n    event NewReserveContract(address oldReserveContract, address newReserveContract);\n\n    /**\n     * @notice Sets the reserve contract\n     */\n    event TreasuryIncreased(uint256 reservesAdded, uint256 yamsSold, uint256 yamsFromReserves, uint256 yamsToReserves);\n\n\n    /**\n     * @notice Event emitted when pendingGov is changed\n     */\n    event NewPendingGov(address oldPendingGov, address newPendingGov);\n\n    /**\n     * @notice Event emitted when gov is changed\n     */\n    event NewGov(address oldGov, address newGov);\n\n    // Stable ordering is not guaranteed.\n    Transaction[] public transactions;\n\n\n    /// @notice Governance address\n    address public gov;\n\n    /// @notice Pending Governance address\n    address public pendingGov;\n\n    // Spreads out getting to the target price\n    uint256 public rebaseLag;\n\n    // Peg target\n    uint256 public targetRate;\n\n    // Percent of rebase that goes to minting for treasury building\n    uint256 public rebaseMintPerc;\n\n    // If the current exchange rate is within this fractional distance from the target, no supply\n    // update is performed. Fixed point number--same format as the rate.\n    // (ie) abs(rate - targetRate) / targetRate < deviationThreshold, then no supply change.\n    // DECIMALS Fixed point number.\n    uint256 public deviationThreshold;\n\n    // More than this much time must pass between rebase operations.\n    uint256 public minRebaseTimeIntervalSec;\n\n    // Block timestamp of last rebase operation\n    uint256 public lastRebaseTimestampSec;\n\n    // The rebase window begins this many seconds into the minRebaseTimeInterval period.\n    // For example if minRebaseTimeInterval is 24hrs, it represents the time of day in seconds.\n    uint256 public rebaseWindowOffsetSec;\n\n    // The length of the time window where a rebase operation is allowed to execute, in seconds.\n    uint256 public rebaseWindowLengthSec;\n\n    // The number of rebase cycles since inception\n    uint256 public epoch;\n\n    // rebasing is not active initially. It can be activated at T+12 hours from\n    // deployment time\n    bool public rebasingActive;\n\n    // delays rebasing activation to facilitate liquidity\n    uint256 public constant rebaseDelay = 12 hours;\n\n    // Time of TWAP initialization\n    uint256 public timeOfTWAPInit;\n\n    // YAM token address\n    address public yamAddress;\n\n    // reserve token\n    address public reserveToken;\n\n    // Reserves vault contract\n    address public reservesContract;\n\n    // pair for reserveToken <> YAM\n    address public uniswap_pair;\n\n    // last TWAP update time\n    uint32 public blockTimestampLast;\n\n    // last TWAP cumulative price;\n    uint256 public priceCumulativeLast;\n\n    // Max slippage factor when buying reserve token. Magic number based on\n    // the fact that uniswap is a constant product. Therefore,\n    // targeting a % max slippage can be achieved by using a single precomputed\n    // number. i.e. 2.5% slippage is always equal to some f(maxSlippageFactor, reserves)\n    uint256 public maxSlippageFactor;\n\n    // This token is first in uniswap YAM<>Reserve pair\n    bool public isToken0;\n\n    constructor(\n        address yamAddress_,\n        address reserveToken_,\n        address uniswap_factory,\n        address reservesContract_\n    )\n        public\n    {\n          minRebaseTimeIntervalSec = 12 hours;\n          rebaseWindowOffsetSec = 36000;\n          reservesContract = reservesContract_;\n          (address token0, address token1) = sortTokens(yamAddress_, reserveToken_);\n\n          // used for interacting with uniswap\n          if (token0 == yamAddress_) {\n              isToken0 = true;\n          } else {\n              isToken0 = false;\n          }\n          // uniswap YAM<>Reserve pair\n          uniswap_pair = pairFor(uniswap_factory, token0, token1);\n\n          // Reserves contract is mutable\n          reservesContract = reservesContract_;\n\n          // Reserve token is not mutable. Must deploy a new rebaser to update it\n          reserveToken = reserveToken_;\n\n          yamAddress = yamAddress_;\n\n          /* pendingGov = gov_; */\n\n          // target 10% slippage\n          maxSlippageFactor = 5409258 * 10**10;\n\n          // 1 YCRV\n          targetRate = 10**18;\n\n          // twice daily rebase, with targeting reaching peg in 5 days\n          rebaseLag = 10;\n\n          // 10%\n          rebaseMintPerc = 10**17;\n\n          // 5%\n          deviationThreshold = 5 * 10**16;\n\n          // 15 minutes\n          rebaseWindowLengthSec = 60 * 15;\n\n          gov = msg.sender;\n\n    }\n\n    /** @notice Updates slippage factor\n    *\n    */\n    function setMaxSlippageFactor(uint256 maxSlippageFactor_)\n        public\n        onlyGov\n    {\n        uint256 oldSlippageFactor = maxSlippageFactor_;\n        maxSlippageFactor = maxSlippageFactor_;\n        emit NewMaxSlippageFactor(oldSlippageFactor, maxSlippageFactor_);\n    }\n\n    /** @notice Updates slippage factor\n    *\n    */\n    function setRebaseMintPerc(uint256 rebaseMintPerc_)\n        public\n        onlyGov\n    {\n        uint256 oldPerc = rebaseMintPerc_;\n        rebaseMintPerc = rebaseMintPerc_;\n        emit NewRebaseMintPercent(oldPerc, rebaseMintPerc_);\n    }\n\n\n    /** @notice Updates reserve contract\n    *\n    */\n    function setReserveContract(address reservesContract_)\n        public\n        onlyGov\n    {\n        address oldReservesContract = reservesContract;\n        reservesContract = reservesContract_;\n        emit NewReserveContract(oldReservesContract, reservesContract_);\n    }\n\n\n    /** @notice sets the pendingGov\n     * @param pendingGov_ The address of the rebaser contract to use for authentication.\n     */\n    function _setPendingGov(address pendingGov_)\n        external\n        onlyGov\n    {\n        address oldPendingGov = pendingGov;\n        pendingGov = pendingGov_;\n        emit NewPendingGov(oldPendingGov, pendingGov_);\n    }\n\n    /** @notice lets msg.sender accept governance\n     *\n     */\n    function _acceptGov()\n        external\n    {\n        require(msg.sender == pendingGov, \"!pending\");\n        address oldGov = gov;\n        gov = pendingGov;\n        pendingGov = address(0);\n        emit NewGov(oldGov, gov);\n    }\n\n    /** @notice Initializes TWAP start point, starts countdown to first rebase\n    *\n    */\n    function init_twap()\n        public\n    {\n        require(timeOfTWAPInit == 0, \"already activated\");\n        (uint priceCumulative, uint32 blockTimestamp) =\n           UniswapV2OracleLibrary.currentCumulativePrices(uniswap_pair, isToken0);\n        require(blockTimestamp > 0, \"no trades\");\n        blockTimestampLast = blockTimestamp;\n        priceCumulativeLast = priceCumulative;\n        timeOfTWAPInit = blockTimestamp;\n    }\n\n    /** @notice Activates rebasing\n    *   @dev One way function, cannot be undone, callable by anyone\n    */\n    function activate_rebasing()\n        public\n    {\n        require(timeOfTWAPInit > 0, \"twap wasnt intitiated, call init_twap()\");\n        // cannot enable prior to end of rebaseDelay\n        require(now >= timeOfTWAPInit + rebaseDelay, \"!end_delay\");\n        // init price\n\n        rebasingActive = true;\n    }\n\n    /**\n     * @notice Initiates a new rebase operation, provided the minimum time period has elapsed.\n     *\n     * @dev The supply adjustment equals (_totalSupply * DeviationFromTargetRate) / rebaseLag\n     *      Where DeviationFromTargetRate is (MarketOracleRate - targetRate) / targetRate\n     *      and targetRate is CpiOracleRate / baseCpi\n     */\n    function rebase()\n        public\n    {\n        _inRebaseWindow();\n\n        // This comparison also ensures there is no reentrancy.\n        require(lastRebaseTimestampSec.add(minRebaseTimeIntervalSec) < now);\n\n        // Snap the rebase time to the start of this window.\n        lastRebaseTimestampSec = now.sub(\n            now.mod(minRebaseTimeIntervalSec)).add(rebaseWindowOffsetSec);\n\n        epoch = epoch.add(1);\n\n        // get twap from uniswap v2;\n        uint256 exchangeRate = getTWAP();\n\n        // calculates % change to supply\n        (uint256 offPegPerc, bool positive) = computeOffPegPerc(exchangeRate);\n\n        uint256 indexDelta = offPegPerc;\n        // Apply the Dampening factor.\n        indexDelta = indexDelta.div(rebaseLag);\n\n        YAMTokenInterface yam = YAMTokenInterface(yamAddress);\n\n        // cap to max scaling\n        if (positive\n          && yam.yamsScalingFactor().mul(uint256(10**18).add(indexDelta)).div(10**18) > yam.maxScalingFactor()) {\n            indexDelta = yam.maxScalingFactor() - yam.yamsScalingFactor();\n        }\n\n\n        uint256 currSupply = yam.totalSupply();\n\n        uint256 mintAmount;\n        // reduce indexDelta to account for minting\n        if (positive) {\n            uint256 mintPerc = indexDelta.mul(rebaseMintPerc).div(10**18);\n            indexDelta = indexDelta.sub(mintPerc);\n            mintAmount = currSupply.mul(mintPerc).div(10**18);\n        }\n\n        // rebase\n        uint256 supplyAfterRebase = yam.rebase(epoch, indexDelta, positive);\n        assert(yam.yamsScalingFactor() <= yam.maxScalingFactor());\n\n        // perform actions after rebase\n        afterRebase(mintAmount, offPegPerc);\n    }\n\n\n    function uniswapV2Call(\n        address sender,\n        uint256 amount0,\n        uint256 amount1,\n        bytes memory data\n    )\n        public\n    {\n        // enforce that it is coming from uniswap\n        require(msg.sender == uniswap_pair, \"bad msg.sender\");\n        // enforce that this contract called uniswap\n        require(sender == address(this), \"bad origin\");\n        (UniVars memory uniVars) = abi.decode(data, (UniVars));\n\n        YAMTokenInterface yam = YAMTokenInterface(yamAddress);\n\n        if (uniVars.amountFromReserves > 0) {\n            // transfer from reserves and mint to uniswap\n            yam.transferFrom(reservesContract, uniswap_pair, uniVars.amountFromReserves);\n            yam.mint(uniswap_pair, uniVars.yamsToUni.sub( uniVars.amountFromReserves));\n        } else {\n            // mint to uniswap\n            yam.mint(uniswap_pair, uniVars.yamsToUni);\n        }\n\n        // mint unsold to reserves\n        if (uniVars.mintToReserves > 0) {\n            yam.mint(reservesContract, uniVars.mintToReserves);\n        }\n\n        // transfer reserve token to reserves\n        if (isToken0) {\n            SafeERC20.safeTransfer(IERC20(reserveToken), reservesContract, amount1);\n            emit TreasuryIncreased(amount1, uniVars.yamsToUni, uniVars.amountFromReserves, uniVars.mintToReserves);\n        } else {\n            SafeERC20.safeTransfer(IERC20(reserveToken), reservesContract, amount0);\n            emit TreasuryIncreased(amount0, uniVars.yamsToUni, uniVars.amountFromReserves, uniVars.mintToReserves);\n        }\n\n\n    }\n\n    function buyReserveAndTransfer(\n        uint256 mintAmount,\n        uint256 offPegPerc\n    )\n        internal\n    {\n        UniswapPair pair = UniswapPair(uniswap_pair);\n\n        YAMTokenInterface yam = YAMTokenInterface(yamAddress);\n\n        // get reserves\n        (uint256 token0Reserves, uint256 token1Reserves, ) = pair.getReserves();\n\n        // check if protocol has excess yam in the reserve\n        uint256 excess = yam.balanceOf(reservesContract);\n\n\n        uint256 tokens_to_max_slippage = uniswapMaxSlippage(token0Reserves, token1Reserves, offPegPerc);\n\n        UniVars memory uniVars = UniVars({\n          yamsToUni: tokens_to_max_slippage,\n          amountFromReserves: excess,\n          mintToReserves: 0\n        });\n\n        // tries to sell all mint + excess\n        // falls back to selling some of mint and all of excess\n        // sells portion of excess\n        if (isToken0) {\n            if (tokens_to_max_slippage > mintAmount.add(excess)) {\n                // can handle all of reserves and mint\n                uint256 buyTokens = getAmountOut(mintAmount + excess, token0Reserves, token1Reserves);\n                uniVars.yamsToUni = mintAmount + excess;\n                uniVars.amountFromReserves = excess;\n                // call swap using entire mint amount and excess; mint 0 to reserves\n                pair.swap(0, buyTokens, address(this), abi.encode(uniVars));\n            } else {\n                if (tokens_to_max_slippage > excess) {\n                    // uniswap can handle entire reserves\n                    uint256 buyTokens = getAmountOut(tokens_to_max_slippage, token0Reserves, token1Reserves);\n\n                    // swap up to slippage limit, taking entire yam reserves, and minting part of total\n                    uniVars.mintToReserves = mintAmount.sub( (tokens_to_max_slippage - excess));\n                    pair.swap(0, buyTokens, address(this), abi.encode(uniVars));\n                } else {\n                    // uniswap cant handle all of excess\n                    uint256 buyTokens = getAmountOut(tokens_to_max_slippage, token0Reserves, token1Reserves);\n                    uniVars.amountFromReserves = tokens_to_max_slippage;\n                    uniVars.mintToReserves = mintAmount;\n                    // swap up to slippage limit, taking excess - remainingExcess from reserves, and minting full amount\n                    // to reserves\n                    pair.swap(0, buyTokens, address(this), abi.encode(uniVars));\n                }\n            }\n        } else {\n            if (tokens_to_max_slippage > mintAmount.add(excess)) {\n                // can handle all of reserves and mint\n                uint256 buyTokens = getAmountOut(mintAmount + excess, token1Reserves, token0Reserves);\n                uniVars.yamsToUni = mintAmount + excess;\n                uniVars.amountFromReserves = excess;\n                // call swap using entire mint amount and excess; mint 0 to reserves\n                pair.swap(buyTokens, 0, address(this), abi.encode(uniVars));\n            } else {\n                if (tokens_to_max_slippage > excess) {\n                    // uniswap can handle entire reserves\n                    uint256 buyTokens = getAmountOut(tokens_to_max_slippage, token1Reserves, token0Reserves);\n                    // swap up to slippage limit, taking entire yam reserves, and minting part of total\n                    uniVars.mintToReserves = mintAmount.sub( (tokens_to_max_slippage - excess));\n\n                    // swap up to slippage limit, taking entire yam reserves, and minting part of total\n                    pair.swap(buyTokens, 0, address(this), abi.encode(uniVars));\n                } else {\n                    // uniswap cant handle all of excess\n                    uint256 buyTokens = getAmountOut(tokens_to_max_slippage, token1Reserves, token0Reserves);\n                    uniVars.amountFromReserves = tokens_to_max_slippage;\n                    uniVars.mintToReserves = mintAmount;\n                    // swap up to slippage limit, taking excess - remainingExcess from reserves, and minting full amount\n                    // to reserves\n                    pair.swap(buyTokens, 0, address(this), abi.encode(uniVars));\n                }\n            }\n        }\n    }\n\n    function uniswapMaxSlippage(\n        uint256 token0,\n        uint256 token1,\n        uint256 offPegPerc\n    )\n      internal\n      returns (uint256)\n    {\n        if (isToken0) {\n          if (offPegPerc > maxSlippageFactor) {\n              // cap slippage\n              return token0.mul(maxSlippageFactor).div(10**18);\n          } else {\n              // in the 5-10% off peg range, slippage is essentially 2*x (where x is percentage of pool to buy).\n              // all we care about is not pushing below the peg, so underestimate\n              // the amount we can sell by dividing by 3. resulting price impact\n              // should be ~= offPegPerc * 2 / 3, which will keep us above the peg\n              return token0.mul(offPegPerc / 3).div(10**18);\n          }\n        } else {\n            if (offPegPerc > maxSlippageFactor) {\n                return token1.mul(maxSlippageFactor).div(10**18);\n            } else {\n                return token1.mul(offPegPerc / 3).div(10**18);\n            }\n        }\n    }\n\n    // given an input amount of an asset and pair reserves, returns the maximum output amount of the other asset\n   function getAmountOut(\n        uint amountIn,\n        uint reserveIn,\n        uint reserveOut\n    )\n        internal\n        pure\n        returns (uint amountOut)\n    {\n       require(amountIn > 0, 'UniswapV2Library: INSUFFICIENT_INPUT_AMOUNT');\n       require(reserveIn > 0 && reserveOut > 0, 'UniswapV2Library: INSUFFICIENT_LIQUIDITY');\n       uint amountInWithFee = amountIn.mul(997);\n       uint numerator = amountInWithFee.mul(reserveOut);\n       uint denominator = reserveIn.mul(1000).add(amountInWithFee);\n       amountOut = numerator / denominator;\n   }\n\n\n    function afterRebase(\n        uint256 mintAmount,\n        uint256 indexDelta\n    )\n        internal\n    {\n        UniswapPair(uniswap_pair).sync();\n\n        if (mintAmount > 0) {\n            buyReserveAndTransfer(\n                mintAmount,\n                indexDelta\n            );\n        }\n\n        for (uint i = 0; i < transactions.length; i++) {\n            Transaction storage t = transactions[i];\n            if (t.enabled) {\n                bool result =\n                    externalCall(t.destination, t.data);\n                if (!result) {\n                    emit TransactionFailed(t.destination, i, t.data);\n                    revert(\"Transaction Failed\");\n                }\n            }\n        }\n    }\n\n\n    /**\n     * @notice Calculates TWAP from uniswap\n     *\n     * @dev When liquidity is low, this can be manipulated by an end of block -> next block\n     *      attack. We delay the activation of rebases 12 hours after liquidity incentives\n     *      to reduce this attack vector. Additional there is very little supply\n     *      to be able to manipulate this during that time period of highest vuln.\n     */\n    function getTWAP()\n        internal\n        returns (uint256)\n    {\n      (uint priceCumulative, uint32 blockTimestamp) =\n         UniswapV2OracleLibrary.currentCumulativePrices(uniswap_pair, isToken0);\n       uint32 timeElapsed = blockTimestamp - blockTimestampLast; // overflow is desired\n\n       // no period check as is done in isRebaseWindow\n\n       // overflow is desired, casting never truncates\n        // cumulative price is in (uq112x112 price * seconds) units so we simply wrap it after division by time elapsed\n        FixedPoint.uq112x112 memory priceAverage = FixedPoint.uq112x112(uint224((priceCumulative - priceCumulativeLast) / timeElapsed));\n\n        priceCumulativeLast = priceCumulative;\n        blockTimestampLast = blockTimestamp;\n\n        return FixedPoint.decode144(FixedPoint.mul(priceAverage, 10**18));\n    }\n\n    /**\n     * @notice Sets the deviation threshold fraction. If the exchange rate given by the market\n     *         oracle is within this fractional distance from the targetRate, then no supply\n     *         modifications are made. DECIMALS fixed point number.\n     * @param deviationThreshold_ The new exchange rate threshold fraction.\n     */\n    function setDeviationThreshold(uint256 deviationThreshold_)\n        external\n        onlyGov\n    {\n        require(deviationThreshold > 0);\n        uint256 oldDeviationThreshold = deviationThreshold;\n        deviationThreshold = deviationThreshold_;\n        emit NewDeviationThreshold(oldDeviationThreshold, deviationThreshold_);\n    }\n\n    /**\n     * @notice Sets the rebase lag parameter.\n               It is used to dampen the applied supply adjustment by 1 / rebaseLag\n               If the rebase lag R, equals 1, the smallest value for R, then the full supply\n               correction is applied on each rebase cycle.\n               If it is greater than 1, then a correction of 1/R of is applied on each rebase.\n     * @param rebaseLag_ The new rebase lag parameter.\n     */\n    function setRebaseLag(uint256 rebaseLag_)\n        external\n        onlyGov\n    {\n        require(rebaseLag_ > 0);\n        rebaseLag = rebaseLag_;\n    }\n\n    /**\n     * @notice Sets the targetRate parameter.\n     * @param targetRate_ The new target rate parameter.\n     */\n    function setTargetRate(uint256 targetRate_)\n        external\n        onlyGov\n    {\n        require(targetRate_ > 0);\n        targetRate = targetRate_;\n    }\n\n    /**\n     * @notice Sets the parameters which control the timing and frequency of\n     *         rebase operations.\n     *         a) the minimum time period that must elapse between rebase cycles.\n     *         b) the rebase window offset parameter.\n     *         c) the rebase window length parameter.\n     * @param minRebaseTimeIntervalSec_ More than this much time must pass between rebase\n     *        operations, in seconds.\n     * @param rebaseWindowOffsetSec_ The number of seconds from the beginning of\n              the rebase interval, where the rebase window begins.\n     * @param rebaseWindowLengthSec_ The length of the rebase window in seconds.\n     */\n    function setRebaseTimingParameters(\n        uint256 minRebaseTimeIntervalSec_,\n        uint256 rebaseWindowOffsetSec_,\n        uint256 rebaseWindowLengthSec_)\n        external\n        onlyGov\n    {\n        require(minRebaseTimeIntervalSec_ > 0);\n        require(rebaseWindowOffsetSec_ < minRebaseTimeIntervalSec_);\n\n        minRebaseTimeIntervalSec = minRebaseTimeIntervalSec_;\n        rebaseWindowOffsetSec = rebaseWindowOffsetSec_;\n        rebaseWindowLengthSec = rebaseWindowLengthSec_;\n    }\n\n    /**\n     * @return If the latest block timestamp is within the rebase time window it, returns true.\n     *         Otherwise, returns false.\n     */\n    function inRebaseWindow() public view returns (bool) {\n\n        // rebasing is delayed until there is a liquid market\n        _inRebaseWindow();\n        return true;\n    }\n\n    function _inRebaseWindow() internal view {\n\n        // rebasing is delayed until there is a liquid market\n        require(rebasingActive, \"rebasing not active\");\n\n        require(now.mod(minRebaseTimeIntervalSec) >= rebaseWindowOffsetSec, \"too early\");\n        require(now.mod(minRebaseTimeIntervalSec) < (rebaseWindowOffsetSec.add(rebaseWindowLengthSec)), \"too late\");\n    }\n\n    /**\n     * @return Computes in % how far off market is from peg\n     */\n    function computeOffPegPerc(uint256 rate)\n        private\n        view\n        returns (uint256, bool)\n    {\n        if (withinDeviationThreshold(rate)) {\n            return (0, false);\n        }\n\n        // indexDelta =  (rate - targetRate) / targetRate\n        if (rate > targetRate) {\n            return (rate.sub(targetRate).mul(10**18).div(targetRate), true);\n        } else {\n            return (targetRate.sub(rate).mul(10**18).div(targetRate), false);\n        }\n    }\n\n    /**\n     * @param rate The current exchange rate, an 18 decimal fixed point number.\n     * @return If the rate is within the deviation threshold from the target rate, returns true.\n     *         Otherwise, returns false.\n     */\n    function withinDeviationThreshold(uint256 rate)\n        private\n        view\n        returns (bool)\n    {\n        uint256 absoluteDeviationThreshold = targetRate.mul(deviationThreshold)\n            .div(10 ** 18);\n\n        return (rate >= targetRate && rate.sub(targetRate) < absoluteDeviationThreshold)\n            || (rate < targetRate && targetRate.sub(rate) < absoluteDeviationThreshold);\n    }\n\n    /* - Constructor Helpers - */\n\n    // calculates the CREATE2 address for a pair without making any external calls\n    function pairFor(\n        address factory,\n        address token0,\n        address token1\n    )\n        internal\n        pure\n        returns (address pair)\n    {\n        pair = address(uint(keccak256(abi.encodePacked(\n                hex'ff',\n                factory,\n                keccak256(abi.encodePacked(token0, token1)),\n                hex'96e8ac4277198ff8b6f785478aa9a39f403cb768dd02cbee326c3e7da348845f' // init code hash\n            ))));\n    }\n\n    // returns sorted token addresses, used to handle return values from pairs sorted in this order\n    function sortTokens(\n        address tokenA,\n        address tokenB\n    )\n        internal\n        pure\n        returns (address token0, address token1)\n    {\n        require(tokenA != tokenB, 'UniswapV2Library: IDENTICAL_ADDRESSES');\n        (token0, token1) = tokenA < tokenB ? (tokenA, tokenB) : (tokenB, tokenA);\n        require(token0 != address(0), 'UniswapV2Library: ZERO_ADDRESS');\n    }\n\n    /* -- Rebase helpers -- */\n\n    /**\n     * @notice Adds a transaction that gets called for a downstream receiver of rebases\n     * @param destination Address of contract destination\n     * @param data Transaction data payload\n     */\n    function addTransaction(address destination, bytes calldata data)\n        external\n        onlyGov\n    {\n        transactions.push(Transaction({\n            enabled: true,\n            destination: destination,\n            data: data\n        }));\n    }\n\n\n    /**\n     * @param index Index of transaction to remove.\n     *              Transaction ordering may have changed since adding.\n     */\n    function removeTransaction(uint index)\n        external\n        onlyGov\n    {\n        require(index < transactions.length, \"index out of bounds\");\n\n        if (index < transactions.length - 1) {\n            transactions[index] = transactions[transactions.length - 1];\n        }\n\n        transactions.length--;\n    }\n\n    /**\n     * @param index Index of transaction. Transaction ordering may have changed since adding.\n     * @param enabled True for enabled, false for disabled.\n     */\n    function setTransactionEnabled(uint index, bool enabled)\n        external\n        onlyGov\n    {\n        require(index < transactions.length, \"index must be in range of stored tx list\");\n        transactions[index].enabled = enabled;\n    }\n\n    /**\n     * @dev wrapper to call the encoded transactions on downstream consumers.\n     * @param destination Address of destination contract.\n     * @param data The encoded data payload.\n     * @return True on success\n     */\n    function externalCall(address destination, bytes memory data)\n        internal\n        returns (bool)\n    {\n        bool result;\n        assembly {  // solhint-disable-line no-inline-assembly\n            // \"Allocate\" memory for output\n            // (0x40 is where \"free memory\" pointer is stored by convention)\n            let outputAddress := mload(0x40)\n\n            // First 32 bytes are the padded length of data, so exclude that\n            let dataAddress := add(data, 32)\n\n            result := call(\n                // 34710 is the value that solidity is currently emitting\n                // It includes callGas (700) + callVeryLow (3, to pay for SUB)\n                // + callValueTransferGas (9000) + callNewAccountGas\n                // (25000, in case the destination address does not exist and needs creating)\n                sub(gas, 34710),\n\n\n                destination,\n                0, // transfer value in wei\n                dataAddress,\n                mload(data),  // Size of the input, in bytes. Stored in position 0 of the array.\n                outputAddress,\n                0  // Output is ignored, therefore the output size is zero\n            )\n        }\n        return result;\n    }\n}\n",
  "sourcePath": "/Users/brockelmore/YAM/contracts/rebaser/YAMRebaser.sol",
  "compiler": {
    "name": "solc",
    "version": "0.5.17+commit.d19bba13.Linux.g++"
  },
  "schemaVersion": "3.0.16",
  "updatedAt": "2020-08-08T22:13:55.330Z",
  "devdoc": {
    "methods": {
      "_setPendingGov(address)": {
        "params": {
          "pendingGov_": "The address of the rebaser contract to use for authentication."
        }
      },
      "activate_rebasing()": {
        "details": "One way function, cannot be undone, callable by anyone"
      },
      "addTransaction(address,bytes)": {
        "params": {
          "data": "Transaction data payload",
          "destination": "Address of contract destination"
        }
      },
      "inRebaseWindow()": {
        "return": "If the latest block timestamp is within the rebase time window it, returns true.        Otherwise, returns false."
      },
      "rebase()": {
        "details": "The supply adjustment equals (_totalSupply * DeviationFromTargetRate) / rebaseLag     Where DeviationFromTargetRate is (MarketOracleRate - targetRate) / targetRate     and targetRate is CpiOracleRate / baseCpi"
      },
      "removeTransaction(uint256)": {
        "params": {
          "index": "Index of transaction to remove.             Transaction ordering may have changed since adding."
        }
      },
      "setDeviationThreshold(uint256)": {
        "params": {
          "deviationThreshold_": "The new exchange rate threshold fraction."
        }
      },
      "setRebaseLag(uint256)": {
        "params": {
          "rebaseLag_": "The new rebase lag parameter."
        }
      },
      "setRebaseTimingParameters(uint256,uint256,uint256)": {
        "params": {
          "minRebaseTimeIntervalSec_": "More than this much time must pass between rebase       operations, in seconds.",
          "rebaseWindowLengthSec_": "The length of the rebase window in seconds.",
          "rebaseWindowOffsetSec_": "The number of seconds from the beginning of the rebase interval, where the rebase window begins."
        }
      },
      "setTargetRate(uint256)": {
        "params": {
          "targetRate_": "The new target rate parameter."
        }
      },
      "setTransactionEnabled(uint256,bool)": {
        "params": {
          "enabled": "True for enabled, false for disabled.",
          "index": "Index of transaction. Transaction ordering may have changed since adding."
        }
      }
    }
  },
  "userdoc": {
    "methods": {
      "_acceptGov()": {
        "notice": "lets msg.sender accept governance     "
      },
      "_setPendingGov(address)": {
        "notice": "sets the pendingGov"
      },
      "activate_rebasing()": {
        "notice": "Activates rebasing"
      },
      "addTransaction(address,bytes)": {
        "notice": "Adds a transaction that gets called for a downstream receiver of rebases"
      },
      "init_twap()": {
        "notice": "Initializes TWAP start point, starts countdown to first rebase    "
      },
      "rebase()": {
        "notice": "Initiates a new rebase operation, provided the minimum time period has elapsed."
      },
      "setDeviationThreshold(uint256)": {
        "notice": "Sets the deviation threshold fraction. If the exchange rate given by the market        oracle is within this fractional distance from the targetRate, then no supply        modifications are made. DECIMALS fixed point number."
      },
      "setMaxSlippageFactor(uint256)": {
        "notice": "Updates slippage factor    "
      },
      "setRebaseLag(uint256)": {
        "notice": "Sets the rebase lag parameter. It is used to dampen the applied supply adjustment by 1 / rebaseLag If the rebase lag R, equals 1, the smallest value for R, then the full supply correction is applied on each rebase cycle. If it is greater than 1, then a correction of 1/R of is applied on each rebase."
      },
      "setRebaseMintPerc(uint256)": {
        "notice": "Updates slippage factor    "
      },
      "setRebaseTimingParameters(uint256,uint256,uint256)": {
        "notice": "Sets the parameters which control the timing and frequency of        rebase operations.        a) the minimum time period that must elapse between rebase cycles.        b) the rebase window offset parameter.        c) the rebase window length parameter."
      },
      "setReserveContract(address)": {
        "notice": "Updates reserve contract    "
      },
      "setTargetRate(uint256)": {
        "notice": "Sets the targetRate parameter."
      }
    }
  }
}