{
  "contractName": "YAMTokenStorage",
  "abi": [
    {
      "constant": true,
      "inputs": [],
      "name": "decimals",
      "outputs": [
        {
          "internalType": "uint8",
          "name": "",
          "type": "uint8"
        }
      ],
      "payable": false,
      "stateMutability": "view",
      "type": "function"
    },
    {
      "constant": true,
      "inputs": [],
      "name": "gov",
      "outputs": [
        {
          "internalType": "address",
          "name": "",
          "type": "address"
        }
      ],
      "payable": false,
      "stateMutability": "view",
      "type": "function"
    },
    {
      "constant": true,
      "inputs": [],
      "name": "incentivizer",
      "outputs": [
        {
          "internalType": "address",
          "name": "",
          "type": "address"
        }
      ],
      "payable": false,
      "stateMutability": "view",
      "type": "function"
    },
    {
      "constant": true,
      "inputs": [],
      "name": "initSupply",
      "outputs": [
        {
          "internalType": "uint256",
          "name": "",
          "type": "uint256"
        }
      ],
      "payable": false,
      "stateMutability": "view",
      "type": "function"
    },
    {
      "constant": true,
      "inputs": [],
      "name": "internalDecimals",
      "outputs": [
        {
          "internalType": "uint256",
          "name": "",
          "type": "uint256"
        }
      ],
      "payable": false,
      "stateMutability": "view",
      "type": "function"
    },
    {
      "constant": true,
      "inputs": [],
      "name": "name",
      "outputs": [
        {
          "internalType": "string",
          "name": "",
          "type": "string"
        }
      ],
      "payable": false,
      "stateMutability": "view",
      "type": "function"
    },
    {
      "constant": true,
      "inputs": [],
      "name": "pendingGov",
      "outputs": [
        {
          "internalType": "address",
          "name": "",
          "type": "address"
        }
      ],
      "payable": false,
      "stateMutability": "view",
      "type": "function"
    },
    {
      "constant": true,
      "inputs": [],
      "name": "rebaser",
      "outputs": [
        {
          "internalType": "address",
          "name": "",
          "type": "address"
        }
      ],
      "payable": false,
      "stateMutability": "view",
      "type": "function"
    },
    {
      "constant": true,
      "inputs": [],
      "name": "symbol",
      "outputs": [
        {
          "internalType": "string",
          "name": "",
          "type": "string"
        }
      ],
      "payable": false,
      "stateMutability": "view",
      "type": "function"
    },
    {
      "constant": true,
      "inputs": [],
      "name": "totalSupply",
      "outputs": [
        {
          "internalType": "uint256",
          "name": "",
          "type": "uint256"
        }
      ],
      "payable": false,
      "stateMutability": "view",
      "type": "function"
    },
    {
      "constant": true,
      "inputs": [],
      "name": "yamsScalingFactor",
      "outputs": [
        {
          "internalType": "uint256",
          "name": "",
          "type": "uint256"
        }
      ],
      "payable": false,
      "stateMutability": "view",
      "type": "function"
    }
  ],
  "bytecode": "0x608060405234801561001057600080fd5b506103e0806100206000396000f3fe608060405234801561001057600080fd5b50600436106100c95760003560e01c8063313ce5671161008157806395d89b411161005b57806395d89b41146101d457806397d63f93146101dc578063b6fa8576146101e4576100c9565b8063313ce567146101a657806364dd48f5146101c45780636fc6407c146101cc576100c9565b806312d43a51116100b257806312d43a511461017c57806318160ddd14610184578063252408101461019e576100c9565b806306fdde03146100ce57806311fd8a831461014b575b600080fd5b6100d66101ec565b6040805160208082528351818301528351919283929083019185019080838360005b838110156101105781810151838201526020016100f8565b50505050905090810190601f16801561013d5780820380516001836020036101000a031916815260200191505b509250505060405180910390f35b610153610297565b6040805173ffffffffffffffffffffffffffffffffffffffff9092168252519081900360200190f35b6101536102b3565b61018c6102d4565b60408051918252519081900360200190f35b6101536102da565b6101ae6102f6565b6040805160ff9092168252519081900360200190f35b61018c6102ff565b61015361030d565b6100d6610329565b61018c61039f565b61018c6103a5565b60018054604080516020600284861615610100027fffffffffffffffffffffffffffffffffffffffffffffffffffffffffffffffff0190941693909304601f8101849004840282018401909252818152929183018282801561028f5780601f106102645761010080835404028352916020019161028f565b820191906000526020600020905b81548152906001019060200180831161027257829003601f168201915b505050505081565b60055473ffffffffffffffffffffffffffffffffffffffff1681565b600354610100900473ffffffffffffffffffffffffffffffffffffffff1681565b60075481565b60045473ffffffffffffffffffffffffffffffffffffffff1681565b60035460ff1681565b69d3c21bcecceda100000081565b60065473ffffffffffffffffffffffffffffffffffffffff1681565b600280546040805160206001841615610100027fffffffffffffffffffffffffffffffffffffffffffffffffffffffffffffffff01909316849004601f8101849004840282018401909252818152929183018282801561028f5780601f106102645761010080835404028352916020019161028f565b600b5481565b6008548156fea265627a7a72315820dcc070cc75b563bc64eb64608715f1813e27c383c08be30130944ceeda30564b64736f6c63430005110032",
  "source": "pragma solidity 0.5.17;\n\nimport \"../lib/SafeMath.sol\";\n\n// Storage for a YAM token\ncontract YAMTokenStorage {\n\n    using SafeMath for uint256;\n\n    /**\n     * @dev Guard variable for re-entrancy checks. Not currently used\n     */\n    bool internal _notEntered;\n\n    /**\n     * @notice EIP-20 token name for this token\n     */\n    string public name;\n\n    /**\n     * @notice EIP-20 token symbol for this token\n     */\n    string public symbol;\n\n    /**\n     * @notice EIP-20 token decimals for this token\n     */\n    uint8 public decimals;\n\n    /**\n     * @notice Governor for this contract\n     */\n    address public gov;\n\n    /**\n     * @notice Pending governance for this contract\n     */\n    address public pendingGov;\n\n    /**\n     * @notice Approved rebaser for this contract\n     */\n    address public rebaser;\n\n    /**\n     * @notice Reserve address of YAM protocol\n     */\n    address public incentivizer;\n\n    /**\n     * @notice Total supply of YAMs\n     */\n    uint256 public totalSupply;\n\n    /**\n     * @notice Internal decimals used to handle scaling factor\n     */\n    uint256 public constant internalDecimals = 10**24;\n\n    /**\n     * @notice Scaling factor that adjusts everyone's balances\n     */\n    uint256 public yamsScalingFactor;\n\n    mapping (address => uint256) internal _yamBalances;\n\n    mapping (address => mapping (address => uint256)) internal _allowedFragments;\n\n    uint256 public initSupply;\n}\n",
  "sourcePath": "/Users/brockelmore/YAM/contracts/token/YAMTokenStorage.sol",
  "compiler": {
    "name": "solc",
    "version": "0.5.17+commit.d19bba13.Linux.g++"
  },
  "schemaVersion": "3.0.16",
  "updatedAt": "2020-08-07T01:21:33.260Z",
  "devdoc": {
    "methods": {}
  },
  "userdoc": {
    "methods": {}
  }
}