{
  "contractName": "YAMTokenStorage",
  "abi": [
    {
      "constant": true,
      "inputs": [],
      "name": "decimals",
      "outputs": [
        {
          "internalType": "uint8",
          "name": "",
          "type": "uint8"
        }
      ],
      "payable": false,
      "stateMutability": "view",
      "type": "function"
    },
    {
      "constant": true,
      "inputs": [],
      "name": "gov",
      "outputs": [
        {
          "internalType": "address",
          "name": "",
          "type": "address"
        }
      ],
      "payable": false,
      "stateMutability": "view",
      "type": "function"
    },
    {
      "constant": true,
      "inputs": [],
      "name": "incentivizer",
      "outputs": [
        {
          "internalType": "address",
          "name": "",
          "type": "address"
        }
      ],
      "payable": false,
      "stateMutability": "view",
      "type": "function"
    },
    {
      "constant": true,
      "inputs": [],
      "name": "init_supply",
      "outputs": [
        {
          "internalType": "uint256",
          "name": "",
          "type": "uint256"
        }
      ],
      "payable": false,
      "stateMutability": "view",
      "type": "function"
    },
    {
      "constant": true,
      "inputs": [],
      "name": "name",
      "outputs": [
        {
          "internalType": "string",
          "name": "",
          "type": "string"
        }
      ],
      "payable": false,
      "stateMutability": "view",
      "type": "function"
    },
    {
      "constant": true,
      "inputs": [],
      "name": "pendingGov",
      "outputs": [
        {
          "internalType": "address",
          "name": "",
          "type": "address"
        }
      ],
      "payable": false,
      "stateMutability": "view",
      "type": "function"
    },
    {
      "constant": true,
      "inputs": [],
      "name": "rebaser",
      "outputs": [
        {
          "internalType": "address",
          "name": "",
          "type": "address"
        }
      ],
      "payable": false,
      "stateMutability": "view",
      "type": "function"
    },
    {
      "constant": true,
      "inputs": [],
      "name": "symbol",
      "outputs": [
        {
          "internalType": "string",
          "name": "",
          "type": "string"
        }
      ],
      "payable": false,
      "stateMutability": "view",
      "type": "function"
    },
    {
      "constant": true,
      "inputs": [],
      "name": "totalSupply",
      "outputs": [
        {
          "internalType": "uint256",
          "name": "",
          "type": "uint256"
        }
      ],
      "payable": false,
      "stateMutability": "view",
      "type": "function"
    },
    {
      "constant": true,
      "inputs": [],
      "name": "yamsScalingFactor",
      "outputs": [
        {
          "internalType": "uint256",
          "name": "",
          "type": "uint256"
        }
      ],
      "payable": false,
      "stateMutability": "view",
      "type": "function"
    }
  ],
  "bytecode": "0x608060405234801561001057600080fd5b506103bf806100206000396000f3fe608060405234801561001057600080fd5b50600436106100be5760003560e01c8063313ce56711610076578063800cecf61161005b578063800cecf6146101c157806395d89b41146101c9578063b6fa8576146101d1576100be565b8063313ce5671461019b5780636fc6407c146101b9576100be565b806312d43a51116100a757806312d43a511461017157806318160ddd146101795780632524081014610193576100be565b806306fdde03146100c357806311fd8a8314610140575b600080fd5b6100cb6101d9565b6040805160208082528351818301528351919283929083019185019080838360005b838110156101055781810151838201526020016100ed565b50505050905090810190601f1680156101325780820380516001836020036101000a031916815260200191505b509250505060405180910390f35b610148610284565b6040805173ffffffffffffffffffffffffffffffffffffffff9092168252519081900360200190f35b6101486102a0565b6101816102c1565b60408051918252519081900360200190f35b6101486102c7565b6101a36102e3565b6040805160ff9092168252519081900360200190f35b6101486102ec565b610181610308565b6100cb61030e565b610181610384565b60018054604080516020600284861615610100027fffffffffffffffffffffffffffffffffffffffffffffffffffffffffffffffff0190941693909304601f8101849004840282018401909252818152929183018282801561027c5780601f106102515761010080835404028352916020019161027c565b820191906000526020600020905b81548152906001019060200180831161025f57829003601f168201915b505050505081565b60055473ffffffffffffffffffffffffffffffffffffffff1681565b600354610100900473ffffffffffffffffffffffffffffffffffffffff1681565b60075481565b60045473ffffffffffffffffffffffffffffffffffffffff1681565b60035460ff1681565b60065473ffffffffffffffffffffffffffffffffffffffff1681565b600b5481565b600280546040805160206001841615610100027fffffffffffffffffffffffffffffffffffffffffffffffffffffffffffffffff01909316849004601f8101849004840282018401909252818152929183018282801561027c5780601f106102515761010080835404028352916020019161027c565b6008548156fea265627a7a7231582061f8774e0f4ffd1629160b6ec010b3e911c6459cc73cbf0eeb3473de2120dcb764736f6c63430005110032",
  "source": "pragma solidity 0.5.17;\n\nimport \"../lib/SafeMath.sol\";\n\n// Storage for a YAM token\ncontract YAMTokenStorage {\n\n    using SafeMath for uint256;\n\n    /**\n     * @dev Guard variable for re-entrancy checks. Not currently used\n     */\n    bool internal _notEntered;\n\n    /**\n     * @notice EIP-20 token name for this token\n     */\n    string public name;\n\n    /**\n     * @notice EIP-20 token symbol for this token\n     */\n    string public symbol;\n\n    /**\n     * @notice EIP-20 token decimals for this token\n     */\n    uint8 public decimals;\n\n    /**\n     * @notice Governor for this contract\n     */\n    address public gov;\n\n    /**\n     * @notice Pending governance for this contract\n     */\n    address public pendingGov;\n\n    /**\n     * @notice Approved rebaser for this contract\n     */\n    address public rebaser;\n\n    /**\n     * @notice Reserve address of YAM protocol\n     */\n    address public incentivizer;\n\n    /**\n     * @notice Total supply of YAMs\n     */\n    uint256 public totalSupply;\n\n    /**\n     * @notice Scaling factor that adjusts everyone's balances\n     */\n    uint256 public yamsScalingFactor;\n\n    mapping (address => uint256) internal _yamBalances;\n\n    mapping (address => mapping (address => uint256)) internal _allowedFragments;\n\n    uint256 public init_supply;\n}\n",
  "sourcePath": "/Users/brockelmore/YAM/contracts/token/YAMTokenStorage.sol",
  "compiler": {
    "name": "solc",
    "version": "0.5.17+commit.d19bba13.Linux.g++"
  },
  "schemaVersion": "3.0.16",
  "updatedAt": "2020-08-05T20:33:49.303Z",
  "devdoc": {
    "methods": {}
  },
  "userdoc": {
    "methods": {}
  }
}